:020000040000FA
:06000000020AA20201D475
:03002B0002075772
:030033000206477B
:0300430002077D34
:0300530002011493
:03006B0002062169
:1000830002016801FF01010503010F10FEFF37257F
:10009300000000000B2400000000FF000000FF0030
:1000A3000101881300000020FD00020000AA1900CE
:1000B3000000000000641A000000000000000000BF
:1000C300000000000000000000000000000000002D
:1000D3000000000000000006FFFF010200B80E0050
:1000E3000000E803FFFF2D0FE8036400020200088D
:1000F30000000502070101051E02051E020A0A018E
:1001030003B80B02803E0102E8030A050001220442
:1001130014C0E074F21203EBA2AFE433F508D2AFDC
:10012300AFA7AEA1EE5F5410600612173475A1EFAE
:10013300EE5F5408600812173A75A1F78023EEA208
:10014300E092F0EFA2E082F05017906198E0F8900F
:1001530007CEE0C398A2D265D0335002E8F075A170
:10016300FEE5088063C0E074F21203EBA2AFE43350
:10017300FED2AF9061A4E0F8759B00E59158540856
:1001830060087591F71217828023E5915854106027
:10019300087591EF1217888014E591A2E092F0E8B8
:1001A300A2E082F05007E0C2E0F01218D29061A3FF
:1001B300E0F8E5E9585404600E1218A875E9FB90BD
:1001C3006193E0A2E640F2EEA2E092AF7F01020467
:1001D3004AC0E074F21203EBA2AFE433FED2AF9055
:1001E30061A5E0F8E5BF585404600675BFFB12181B
:1001F300EA80D4C3E498F8E499F91202378026C35D
:10020300E49AFAE49BFBE920E7E9120237E498F861
:10021300E499F922C3E498F8E499F9120237E498CF
:10022300F8E499F9C3E49AFAE49BFB22EB20E7CFC5
:10023300E920E7E0B90010BB0008E88AF084F8AAD7
:10024300F022E4FBC8FA22EB70227B10C833C8C942
:1002530033C9335007C39AC3DBF280069A50012A8D
:10026300DBEAC833F4C8C933F4C9FA2275F008E4E9
:10027300C833C8C933C933C99AC99B5004C92AC9E9
:100283003BD5F0ECFBC833F4C8E4C9FA22080808EC
:10029300EAC0E0EBC0E086F0E7A4FA180986F0E7CD
:1002A300A42AFA180986F0E7A42AFA180986F0E7BF
:1002B300A42AFA1986F0E7A4FBE5F02AFA190886BE
:1002C300F0E7A42BFBE5F03AFA190886F0E7A42B34
:1002D300FBE5F03AFA18180986F0E7A4C5F02BFB02
:1002E300E43AFA1908E7C5F0C6A426F6E5F03BFBA5
:1002F300E43AFA1886F0E7A4F6E5F00826F6E43BBC
:1003030008F6E43A08F6D0E0FBD0E0FA22E4CFC0E6
:10031300E0E4CEC0E0E4CDC0E0E4CCC0E075F02082
:10032300E626F608E633F608E633F608E633F6186B
:100333001818EC33FCED33FDEE33FEEF33FFC3EC63
:100343009709ED9709EE9709EF97191919400FFFD0
:10035300EC97FC09ED97FD09EE97FE191906D5F008
:10036300BFECF709EDF709EEF709EFF7191919D003
:10037300E0FCD0E0FDD0E0FED0E0FF222518C582EE
:10038300C0E0E51934FFC583C0E0E518C3958224B6
:10039300F810AF088583198582188008858319852D
:1003A3008218D2AFCEF0A3E520F0A37808E608F0D8
:1003B300A3DEFAEFF0A3E58124FAF8E608F0A3E65A
:1003C30008F0A3E608F0A30808E608F0A3E608F09F
:1003D300A315811581D0E0FED0E0F81581158115B4
:1003E30081E8C0E0EEC0E022C0D02518C582C0E09D
:1003F300E51934FFC583C0E0E518C3958224F310E3
:10040300AF0885831985821880088583198582182A
:10041300D2AFC8F0A3E9F0A3EAF0A3EBF0A3790805
:10042300E709F0A3D8FAECF0A3EDF0A3EEF0A3EF05
:10043300F0A3D0E0F0A3D0E0F0A3D0E0F0A3E52058
:10044300F0A3E5F0F0A322851983851882E0C0E0CC
:10045300A3E0F9A3E0FAA3E0FBA37808E0F608A37E
:10046300DFFAE0FCA3E0FDA3E0FEA3E0FFA3E0C00E
:10047300E0A3E0C0E0A3E0F5D0A3E0F520A3E0A370
:10048300F5F010AF088583198582188008858319D4
:10049300858218D2AFD082D083D0E0F8D0E0321278
:1004A3000B10B900030204E1E490030178B6790D5F
:1004B3008002F0A3D8FCD9FA7AB67B0F9000867835
:1004C3008F79018015E493A3AD82AE838A828B83F7
:1004D300F0A3AA82AB838D828E83D8E9D9E7758294
:1004E3005E7583CC74041208407582CE75832274C2
:1004F300001208400C75F0108E1A8F1B85821F8521
:10050300831E851882851983E0CEA3E0CF851F82E1
:10051300851E83EBC9EAC8EDCBECCAC3E833C8E94F
:1005230033C9EA33CAEB33CBC3EA9EF51DEB9FF520
:100533001CB35004AB1CAA1DEC33CCED33CDD5F06A
:10054300DAAE1AAF1B22D083D082ECC0E0EDC0E05C
:10055300E493A3FCE493A3FDED4C600D120665EC5C
:1005630024FFFCED34FFFD80EFE493A3FCE493A3AD
:10057300FDED4C600D120702EC24FFFCED34FFFD92
:1005830080EFD0E0FDD0E0FCE493A3C0E0E493C0AF
:10059300E022D083D082E9C0E0E493A3C386F0C510
:1005A300F095F0F908E493A386F0C5F095F0700B8D
:1005B300E493A3C3994005E9048002A3E475F00220
:1005C300A42582F582E5F03583F583D0E0F9E49341
:1005D300A3C0E0E493C0E022851983851882E0A3D9
:1005E300FEE0A3F5207808E0A3F608DFFAE0A3FF16
:1005F300E0A3C0E0E0A3C0E0E0A3C0E0E0A3C0E06C
:10060300E0A3C0E010AF08858218858319800885B0
:100613008218858319D2AFD083D082020846C0E006
:1006230074F21203EBA2AFE433FED2AFE589A2E189
:10063300500312164A758900C2C5EEA2E092AF7F3D
:100643000102044AC0E074F21203EBA2AFE433FEEA
:10065300D2AFE58BA2E050031222C8758B00C2E82B
:1006630080D8C0E0C3E49396087401939618400FB2
:10067300E49366700808740193661870007019A3F8
:10068300A3C3E49396087401939618A3A3400DD0D3
:10069300E0D0E0D0E0020585A3A3A3A3A3A3D0E009
:1006A300227404800474028000CCC0E0EDC0E0E555
:1006B30018C39CCCAD1950011D10AF068C188D19B1
:1006C30080068C188D19D2AF1207C2D0E0FDD0E09E
:1006D300FC2274028000CCC0E0EDC0E0E518C39CAE
:1006E300CCAD1950011D10AF068C188D1980068CE6
:1006F300188D19D2AF1207A0D0E0FDD0E0FC22C0C4
:10070300E0C0F088F0E493667008087401936618FB
:100713007000A8F0A3A3700BD0F0D0E0D0E0D0E03D
:10072300020585A3A3D0F0D0E022D083D082CCC031
:10073300E0E493A360061208211470FAE493A36023
:10074300061209121470FAD0E0FCE493A3C0E0E4AB
:1007530093C0E022C0E0C0D0E8C0E0E9C0E0A9A8AF
:10076300D2AFC2C7E9A2E7E433F8E9A2E792AFD078
:10077300E0F9D0E0F8D0D0D0E032C0E074F2120358
:10078300EBA2AFE433FED2AFC2C0E5D1A2E4500383
:100793001216A4EEA2E092AF7F0102044ACAC0E09F
:1007A300E493A3C582CCC582C583CDC583F0A3C51D
:1007B30082CCC582C583CDC583DAE5D0E0CA22CA1F
:1007C300C0E0E0A3C582CCC582C583CDC583F0A3B9
:1007D300C582CCC582C583CDC583DAE6D0E0CA2203
:1007E3007009080808226016181818C6C333C6080B
:1007F300C633C608C633C608C633C6D5E0EA22C028
:1008030008C3E096F50808A3E096420808A3E0961B
:10081300420808A3E09645087001D3D00822C0E03F
:10082300E493A3D39C5010E493A3C39C400AD0E069
:10083300D0E0D0E002074AA3A3A3D0E022C09FF5F3
:100843009FE473D09F22D083D082C09FE493C0E003
:10085300740193C0E0740293F59F227404800A74B8
:10086300038006740280027401C0E0F40412087964
:10087300D0E0120ADF222518F58210AF08F51840E0
:100883000C15198008F51840021519D2AF85198384
:100893002200C0D0251810AF08F518500C05198098
:1008A30008F51850020519D2AFD0D022BB0102E7D8
:1008B30022C082C08389828A83BB0003E08002E472
:1008C30093D083D082226016080808C6C313C618C3
:1008D300C613C618C613C618C613C6D5E0EA22C384
:1008E300E0C696F608A3E0C696F608A3E0C696F619
:1008F30008A3E0C696F6222518F8E43519F922254F
:1009030018FAE43519FB222518FCE43519FD22C039
:10091300E0E493A36C7009D0E0D0E0D0E002074A92
:10092300A3A3D0E022251810AF08F518400C151921
:100933008008F51840021519D2AF22E76670100837
:1009430009E766700A0809E76670040809E7662282
:10095300C3E09608A3E09608A3E09608A3E096A256
:10096300D265D03322E066701008A3E066700A08EF
:10097300A3E066700408A3E06622C3E096F008A330
:10098300E096F008A3E096F008A3E096F022C3E611
:1009930097F60809E697F60809E697F60809E69731
:1009A300F622C3E49396087401939608740293960F
:1009B300087403939622700422600D18C6C333C6CD
:1009C30008C633C6D5E0F41822E647F60809E64719
:1009D300F60809E647F60809E647F622E026F00896
:1009E300A3E036F008A3E036F008A3E036F022E6F1
:1009F30027F60809E637F60809E637F60809E63761
:100A0300F622E657F60809E657F60809E657F60808
:100A130009E657F622E056F608A3E056F608A3E0E7
:100A230056F608A3E056F622E026F608A3E036F6CB
:100A330008A3E036F608A3E036F622E056F008A352
:100A4300E056F008A3E056F008A3E056F022E4C312
:100A530096F608E496F608E496F608E496F622601D
:100A63000D08C6A2E713C618C613C6D5E0F322C6FF
:100A7300F4C608C6F4C608C6F4C608C6F4C622C33C
:100A8300E7960809E7960809E7960809E79622C357
:100A9300E09608A3E09608A3E09608A3E0962275E3
:100AA300D00075813F751801751903000204A2E691
:100AB300F008A3E6F008A3E6F008A3E6F022600C32
:100AC30008C6C313C618C613C6D5E0F422E0F60859
:100AD300A3E0F608A3E0F608A3E0F622CAC0E0E626
:100AE300F0A308DAFAD0E0FA22E8F0A3E9F0A3EAE7
:100AF300F0A3EBF022E0F8A3E0F9A3E0FAA3E0FB14
:100B030022E0FAA3E0FBA3E0FCA3E0FD22E5C75447
:100B1300F84401F5C77901222518F582E43519F562
:100B23008322C2AF75D69F02000022120849FFB08C
:100B33000212084946B102120849C4B10212084917
:100B430051B402120849AAB5021208493DB602126D
:100B53000849C7B6021208492DB7021208496CB7F3
:100B630002120849E2B70212084937B902120849CA
:100B7300DAB902120849F2B90212084995BA021207
:100B830008491FBD02120849C0BE02120849DEBE51
:100B9300021208493E270012084998270012084903
:100BA3000228001208498B2800120849472900121D
:100BB3000849D62900120849EF2900120849142AC6
:100BC30000120849522A00120849A12A00120849B2
:100BD300CA2A00120849192B00120849C52B001212
:100BE30008498D2C00120849F22C00120849BF2D28
:100BF30000120849052E00120849212E0012084947
:100C0300532E00120849FB2F00120849D23000125C
:100C13000849FE30001208493231001208495331A5
:100C2300001208496231001208496D310012084967
:100C33002132001208499432001208490633001287
:100C430008490E330012084931340012084964344C
:100C530000120849263500120849D5350012084903
:100C63001D36001208497F3600120849A4360012C7
:100C730008491C3700120849A437001208490838EC
:100C830000120849ED3800120849123900120849C8
:100C9300333A00120849463A00120849DA3A001278
:100CA3000849243C00120849343C00120849433DDA
:100CB30000120849BC3D00120849FE3D00120849D4
:100CC3003A3E001208490E400012084973420012CE
:100CD30008498742001208499142001208499B4281
:100CE30000120849A54200120849AF420012084900
:100CF300C84200120849D24200120849DC420012DD
:100D03000849E642001208490E43001208491943F4
:100D1300001208496343001208496D430012084951
:100D23007843001208499C4300120849C04300124B
:100D330008492144001208496C44001208498844B8
:100D430000120849F244001208493E4500120849BE
:100D53008645001208490146001208499B460012C5
:100D630008495F4800120849CD4800120849FF4965
:100D730000120849254A00120849954B00120849F8
:100D8300494F0012084949510012084921530012E2
:100D93000849BA5300120849CC55001208498E5627
:100DA30000120849DA560012084940570012084950
:100DB300525700120849A25900120849CF5A00128B
:100DC3000849215B00120849C65B00120849815D8E
:100DD30000120849B25E00120849D05E00120849A9
:100DE300255F001208492360001208494B60001276
:100DF3000849AE6000120849AF6100120849226237
:100E030000120849506300120849BB6300120849E5
:100E1300AB64001208491167001208493F670012CA
:100E230008493A6800120849D86900120849286A33
:100E330000120849E06A00120849956B001208493C
:100E4300F96B00120849B26C00120849526D001286
:100E53000849B66D00120849006E001208493D6E3C
:100E630000120849A56F001208495A820112084965
:100E73009282011208496B8501120849B18501125A
:100E83000849CE860112084933870112084984882C
:100E930001120849758B01120849948C0112084903
:100EA3006997011208490A9801120849FD9A01122B
:100EB3000849FD9B01120849859C01120849D59DEB
:100EC30001120849BC9E0112084925A101120849D3
:100ED30033A301120849C0A3011208499CA40112BB
:100EE3000849C5A40112084972A5011208495DA663
:100EF3000112084935A70112084995A701120849AB
:100F0300BEA701120849EBA7011208493CAA011226
:100F1300084917AB011208495BAB01120849CCAB76
:100F23000112084985AC01120849B7AC01120849FE
:100F3300FEAC0112084931AD0112084996AD011208
:100F43000849E5AD01120849EAAD011208493EAE70
:100F53000112084988AE0112084984AF01120849F9
:100F6300E9AF0112084950B00112084975B30112E3
:100F7300084949B401120849B3B5011208498DB8AB
:100F83000112084935B9011208495CBB011208492D
:100F930001BC011208493FBC0112084918BE0112E5
:100FA30008492BBE0112084934BE011208493DBE4F
:100FB3000112084952BE0112084971BE01120849C3
:100FC30050C001120849BAC00112084909C20112EE
:100FD300084952C20112084932C3011208495DC4CB
:100FE3000112084913C50112084915C6011208491F
:100FF30017C701120849FDC70112084914C8011295
:10100300084951C8011208495BC80112084966C85A
:101013000112084984C801120849C6C801120849C7
:1010230024C90112084949C90112084963C90112B7
:101033000849F0C90112084929CA0112084977CBA6
:1010430001120849C9CB01120849E3CC011208492E
:101053000ACD01120849A6CD0112084922CE011278
:1010630008496ECF0112084989D0011208494FD1AE
:1010730001120849F9D1011208497ED20112084927
:10108300E6D2011208499BD301120849EDD301129C
:10109300084953D4011208491CD5011208493FD508
:1010A30001120849F7D5011208491BD60112084954
:1010B3003DD6011208499ED601120849E9D801120A
:1010C3000849C4D9011208496EDA01120849AFDC94
:1010D30001120849FDDC0112084940DD01120849EB
:1010E30098DD01120849F6DD0112084920DE0112DC
:1010F300084944DE0112084975DE011208499FDEE2
:1011030001120849E6DE011208493ADF01120849D3
:1011130096DF0112084997E00112084901E2011222
:1011230008493FE20112084968E201120849F9E25D
:101133000112084943E30112084967E30112084910
:10114300BAE301120849D5E30112084990E40112F8
:101153000849BAE401120849FDE40112084953E5BC
:10116300011208495FE80112084992E8011208498F
:101173004FE9011208492AEA01120849BAEA0112A1
:101183000849FBEA01120849008004120849388023
:10119300041208495980041208499B800412084923
:1011A300FF800412084909810412084919810412B5
:1011B3000849508104120849F98404120849C18678
:1011C30004120849B58804120849538904120849CE
:1011D300DA890412084964BF021208490DC00212D9
:1011E3000849ECC00212084907C20212084927C283
:1011F3000212084949C302120849E6C40212084907
:1012030053C50212084929C6021208492FC7021200
:10121300084994C702120849D0C70212084929C8CD
:101223000212084962C802120849ABC802120849EF
:101233003DC902120849DAC902120849AFCA0212AB
:1012430008497CCB0212084909CC021208492FCC69
:10125300021208495CCC021208498DCC02120849DB
:1012630062CD0212084972CD02120849C5CD02129D
:101273000849D2CD02120849DFCD02120849E8CD50
:10128300021208494CCE02120849AACE021208499A
:10129300F5CE0212084910CF0212084937CF0212C5
:1012A300084954CF0212084960CF0212084904D1F9
:1012B300021208491DD10212084999D102120849A4
:1012C300ACD102120849BCD10212084962D20212FF
:1012D3000849D2D302120849E5D40212084985D538
:1012E300021208498FD502120849FDD50212084996
:1012F3000ED6021208494DD6021208497BD60212B5
:10130300084948D7021208499FD702120849E4D76F
:10131300021208493AD80212084958D80212084959
:10132300A6D80212084974D902120849C2D9021276
:10133300084904DA0212084987DA02120849B1DAC5
:1013430002120849E7DA02120849F6DA02120849DA
:1013530054DB02120849CCDB021208490DDC0212ED
:1013630008495CDC0212084987DC02120849A1DC47
:1013730002120849BBDC0212084990DD0212084937
:101383009ADD02120849D5DD02120849E5DD021291
:10139300084936DE021208494ADE0212084968DFAC
:1013A300021208497DDF0212084917E002120849B8
:1013B30096E00212084939E10212084944E1021297
:1013C300084991E202120849ADE20212084905E315
:1013D3000212084973E302120849BFE302120849E3
:1013E300D9E30212084939E402120849D7E4021288
:1013F300084922E50212084985E7021208491DE857
:101403000212084994E802120849DAEA021208496A
:10141300F2EA02120849F5EA0212084901EB021244
:10142300084915EB021208491DEB0212084954EB57
:101433000212084948EC02120849D2EC0212084988
:1014430054ED02120849C9ED02120849A1EE021235
:101453000849C3EE021208495AEF0212084966EF1F
:1014630002120849C3EF02120849C6EF02120849E3
:1014730035F00212084981F10212084994F202126E
:1014830008491FF30212084932F402120849FCF416
:10149300021208492DF50212084953F502120849B0
:1014A3005CF5021208498BF5021208493BF6021259
:1014B3000849EBF6021208495EF70212084910F8D0
:1014C3000212084983F802120849C2F802120849B5
:1014D3000BF9021208493FE103120849AAE103127A
:1014E3000849F6E10312084946E203120849CAE231
:1014F300031208490EE5031208492CE703120849B1
:10150300ACEA03120849E7EA0312084905EB0312A0
:10151300084965EB031208498DEB03120849BEEB3A
:1015230003120849EBEB0312084954EC0312084970
:10153300DCC80312084958C90312084984C90312B5
:101543000849B6C90312084918CB0312084934CB1A
:101553000312084972CB03120849FFCB031208494F
:101563005BCC0312084921CD03120849E0CD0312D5
:10157300084925CE0312084986CE03120849FBCE3B
:101583000312084924CF0312084965CF03120849FF
:101593000CD103120849F0D103120849A7D2031250
:1015A300084994D303120849CED30312084926D419
:1015B3000312084948D403120849E0D40312084926
:1015C30087D503120849C3B30412084937B4041278
:1015D300084956B70412084962B70412084904E1DE
:1015E3000412084915E104120849B3E10412084939
:1015F30018D70412084926D704120849E57F0012B8
:1016030008496DE2041208497DE20412084998E290
:101613000412084900E304120849E1FE03120849D1
:1016230065FF03120849CBFF03120849C6D8041209
:101633000849E8D80412084955D9041208499DD924
:101643000412084933A30212084935DA041208497F
:1016530063D30412084971D3041208499CD30412BA
:101663000849D4D304120849D7D3041208494CD4E7
:10167300041208492DD50412084942D50412084919
:10168300FDBA041208490BBB0412084984BB0412B7
:10169300084959BC0412084918BE0412084901E557
:1016A300041208490AE30412084966B00212084901
:1016B30051E30412084956E30412084959E304129A
:1016C300084982E30412084985E30412084940F9F2
:1016D300021208496CF90212084912FC0212084965
:1016E30069FC02120849A5FC02120849B9FC02125E
:1016F3000849D2FC02120849C3FD021208499FFEA1
:1017030002120849B3FE021208490FDC0412084909
:1017130033DC041208494CDC041208498ADC041245
:101723000849C0DC04120849F3DC041208495FDDF0
:101733000412084962DD041208496CDD04120849E9
:1017430079DD04120849FDC60412084920C70412B2
:1017530008496BC70412084989C704120849A4C77A
:10176300041208490AC80412084916C80412084991
:1017730073C80412084997C8041208495DC90412C2
:1017830008496AC9041208497BC904120849C0E41C
:1017930004120849D8E404120849FEE40412084973
:1017A30050A704120849E6A804120849F4A8041231
:1017B300084908A90412084925A9041208493AA9A5
:1017C300041208494DA904120849CFA90412084973
:1017D30034AA04120849CAAA04120849A3AB041282
:1017E3000849B3AB04120849C2AB04120849D4E157
:1017F30004120849F8E10412084920E204120849D6
:1018030048E20412084966C104120849D2C104120D
:101813000849F1C10412084966C20412084930C4D8
:101823000412084949C40412084960C4041208494F
:1018330069C40412084987C40412084991C40412F4
:1018430008499BC404120849AEC4041208493BC5A5
:1018530004120849A4C504120849D2C50412084950
:1018630023C6041208496FC6041208498AC6041223
:10187300084994C604120849A5C604120849E8C6D3
:101883000412084994E3041208492A9404120849EB
:101893005694041208497994041208498C9404124A
:1018A3000849A79404120849079504120849359575
:1018B30004120849399904120849769A041208490E
:1018C300A89A041208490F9B041208498F9C04121A
:1018D3000849B79C04120849CC9C04120849DC9CB3
:1018E300041208491C9D041208495E9D041208490C
:1018F3006E9D0412084983DD0412084993DD041226
:101903000849B7DD04120849E0DD041208490ADE7C
:10191300041208492EDE0412084945DE0412084960
:1019230073DE0412084996DE041208497CE40412AB
:1019330008496FB7041208497FB7041208499BB8D6
:1019430004120849CDB804120849F3B8041208492F
:101953001BB9041208492DB90412084969B90412C4
:101963000849CFB9041208490BBA0412084950BAFE
:10197300041208497DBA04120849A9BA0412084995
:10198300CEDE04120849ECDE041208494EDF0412CD
:101993000849FBDF0412084910E0041208496FDA12
:1019A30004120849C0DB041208499FEC03120849DA
:1019B30055ED031208497AED031208499AED031213
:1019C3000849AEED031208490AEE031208492EEE48
:1019D30003120849A9EF03120849D1F00312084979
:1019E300ABF10312084908F2031208493EF203124D
:1019F3000849C0F20312084919F3031208493AF3DC
:101A030003120849BCF303120849F1F3031208490E
:101A130054F40312084912F603120849DEF60312BE
:101A2300084916F7031208496AF7031208494DD506
:101A3300041208496ED504120849A1D604120849B4
:101A4300CBD604120849A9C9041208491DCA0412B5
:101A5300084928CA0412084949CA041208491870D7
:101A6300001208491B7000120849ED700012084962
:101A73002971001208496971001208499B7100120B
:101A83000849C971001208490672001208493472E4
:101A93000012084932730012084979730012084989
:101AA300BB7300120849347400120849D174001240
:101AB3000849F474001208495E7500120849CC768F
:101AC3000012084984770012084971780012084906
:101AD3005E7900120849177A001208494C7A0012FD
:101AE3000849B87A00120849537B00120849817BE0
:101AF30000120849297D00120849A77D00120849F0
:101B0300E77D001208493FD10412084962D104124B
:101B1300084953D20412084933D304120849967E64
:101B230000120849CC7E00120849E87E00120849D9
:101B33002A7F001208493A7F00120849CD7F00121C
:101B43000849D77F00120849DA7F00120849868ABC
:101B530004120849908A04120849D78A04120849D2
:101B6300408B04120849618B041208497A8B0412D2
:101B730008492C8C04120849968E041208499F8E3A
:101B830004120849F08E04120849268F04120849EA
:101B93003D8F04120849AA8F041208493A9004128F
:101BA3000849709004120849B990041208491A911F
:101BB30004120849549104120849BC9104120849BB
:101BC3000F92041208495292041208498F92041288
:101BD3000849A19204120849B39204120849D29207
:101BE30004120849DB9204120849A093041208491D
:101BF300EC93041208499E9D04120849E49E0412C2
:101C030008490D9F041208491E9F0412084936A172
:101C13000412084956A104120849DFE304120849D3
:101C2300FBCE0412084931CF0412084980CF0412B5
:101C33000849DCD004120849BCEB01120849FAEC4C
:101C43000112084936ED0112084905EF011208494E
:101C53002FEF01120849C6F10112084906F20112D9
:101C630008499CF30112084931F4011208498FF421
:101C73000112084915F5011208494DF501120849E9
:101C83008FF50112084900F70112084984F801127F
:101C93000849ADFA01120849DBFA0112084907FBAA
:101CA3000112084910FB0112084966FB0112084999
:101CB300F6FB01120849F9FE011208497BFF0112E4
:101CC3000849D8FF01120849EEFF01120849F3AB96
:101CD300041208490CAC04120849B1AC04120849B7
:101CE300F1AC041208490AAD041208493DAD0412CF
:101CF30008498AAD04120849BEAD0412084900AE72
:101D030004120849E9AF04120849C7FE0212084940
:101D130039FF0212084977FF02120849B8FF02127D
:101D23000849E29E031208493A9F03120849C29FD9
:101D330003120849CAA003120849A8A103120849BB
:101D43004FA2031208499BA203120849F4A20312EB
:101D5300084949A303120849B8A303120849F8A381
:101D630003120849F4A4031208494FA503120849B2
:101D73006BA503120849BBA503120849F4A5031276
:101D8300084913A6031208495EA60312084974A65C
:101D9300031208498BA603120849BAA6031208497D
:101DA300CCA60312084997A703120849A2A7031256
:101DB30008491CA8031208496FA803120849AEA8D2
:101DC30003120849DFA80312084942AB031208496A
:101DD30073AB0312084995AC03120849B9AC03125B
:101DE300084934AD0312084906AE0312084948AE48
:101DF30003120849B2AE031208495DAF0312084942
:101E030087AF0312084991AF031208499BAF03122E
:101E130008499EAF0312084906B0031208493FB0B0
:101E23000312084952B0031208497FB0031208494C
:101E3300BAB003120849BDB003120849C7B0031270
:101E43000849F6B00312084910B1031208492BB12F
:101E5300031208495AB1031208497AB10312084917
:101E6300B7B103120849F2B103120849FEB20312D3
:101E730008492FE40412084947E404120849F87F8B
:101E8300001208497EF703120849CDF703120849E7
:101E93008BF9031208495FFB031208499DFB0312E8
:101EA3000849A8FC03120849B2FD03120849D4FDEE
:101EB3000312084930FE03120849B1FE0312084910
:101EC3000080031208491F8003120849B0800312DF
:101ED3000849F98003120849578103120849D2813E
:101EE300031208494982031208499A8203120849D6
:101EF3000083031208499283031208490A840312D8
:101F03000849498403120849B18803120849CE8A53
:101F130003120849078B03120849468B0312084929
:101F2300D88C03120849DB8C03120849A28D0312D3
:101F33000849CC8E03120849C690031208494793F7
:101F430003120849169403120849349503120849E9
:101F53007E98031208498E9803120849129A0312B5
:101F63000849B09A03120849E99B03120849599C8E
:101F730003120849B79D031208491E9E031208491C
:101F83005DB403120849F8B4031208496BB5031290
:101F930008497BB50312084903B6031208495FB623
:101FA300031208499AB703120849BEB70312084936
:101FB30035B80312084986B803120849E4B8031276
:101FC30008493FB903120849ECBB03120849E3BCB3
:101FD3000312084959BD0312084930BF03120849C7
:101FE300D3BF031208498CC003120849F1C003127E
:101FF300084960C10312084983C20312084949C44E
:102003000312084969C503120849F6C503120849B2
:1020130066C60312084978C703120849D4D50312C8
:10202300084939D60312084981D603120849D4D680
:10203300031208493AD7031208499CD703120849E7
:1020430011D80312084948D90312084970D9031259
:1020530008494EDA031208495FDA0312084977DAAE
:10206300031208496EDB03120849AEDB0312084969
:10207300B7DB03120849CEDB03120849ECDB03127A
:102083000849C9DC0312084983DD031208498DDDC1
:10209300031208498FDE031208497ADF0312084945
:1020A3001CE00312084989E0031208499EE0031269
:1020B30008497DBE0412084930BF04120849F8BF1D
:1020C3000412084960C004120849D4C00412084924
:1020D300F6AF0412084914B00412084958B00412A8
:1020E30008497EB004120849A0B004120849B8B0E8
:1020F30004120849D0B004120849E8B00412084990
:1021030092B104120849D4B104120849DEB1041291
:102113000849F3B204120849FCB20412084905B392
:10212300041208490EB30412084918B304120849EB
:10213300AAA204120849D6A604120849E4A6041266
:102143000849E9A60412084981CD0412084970E53B
:102153000412084939E5041208499CE504120849A8
:10216300DAFF0212084909A30212084951A2021216
:10217300084984A00212084954A00212084918A071
:102183000212084904A002120849459F0212084995
:10219300929E02120849419C02120849169C02129F
:1021A3000849B79B02120849289A02120849B699AE
:1021B30002120849939902120849D7980212084952
:1021C3007A97021208493197021208490B970212B3
:1021D300084947960212084991940212084931941A
:1021E30002120849029402120849FF930212084995
:1021F300EA930212084957B00212084944AD021289
:10220300084991AA0212084958A90212084979A853
:1022130002120849A5A602120849AA930212084904
:102223009193021208499B92021208495A92021290
:10223300084966A402120849E79102120849B491B9
:1022430002120849599102120849289102120849B9
:1022530005A402120849F18D021208494EE3041243
:102263000849038D02120849BD8B02120849698B84
:10227300021208495D8B02120849C48A02120849F6
:10228300928902120849ED860212084990840212CB
:102293000849448402120849298302120849BE826C
:1022A30002120849E88102120849A481021208496E
:1022B3006B8002120849ACA3021208493280021251
:1022C3000849008002120849F6D90400000080FB87
:1022D300E47300013636010100010201000103012C
:1022E300000104010606050200000701003408018D
:1022F300000F090401010D0100FF0E080000170281
:102303000000190100FF1A0100011B0100FE1C015E
:1023130000081D0200001F0100012001000121022D
:1023230000002301000F2402000026010001270101
:102333000008280200FF2A0100072B0102402C019C
:1023430000002D0100012E0100012F0100FF3001CB
:102353000B1C310800003A0100083B01000F3C014F
:1023630000013D0100FF3E0400004204000046045A
:1023730000004A0400004E0400005204000056040A
:1023830000005A0400005E20FFFF36000100060033
:1023930000000F000000000000000000000000002B
:1023A30003FFFF00000403FFFF0000FFFF0FF40122
:1023B3000005C4040320000100000B00000000001E
:1023C30000000003010F00000000000000000000F7
:1023D30000000000000000000000000000000000FA
:1023E30000000000000000000000000000000000EA
:1023F30000000000000000000000000000000000DA
:102403000000000000000000010371030103010349
:102413000103010301032203020301031003000369
:10242300000300030003000300030003420300034F
:1024330024030603000300030403120325032303F9
:1024430025032303040304030003000300034403DD
:102453000003000323030003650321003503810305
:102463000003050300030003000300032503230304
:1024730003047104020460041104700402040204DE
:1024830001040204100461040004140463047304CB
:1024930072046204430400041304060400040004E9
:1024A3000404120400040004000400045104640042
:1024B30000040004000444040004000400040004B5
:1024C30065040004350481046400050400048304E6
:1024D3000004030271023001600211027002010262
:1024E300020202028002100261023A00410063020A
:1024F30073027202620243020002130238000002F6
:10250300000204021202000200020002000204029E
:102513000402370037003C02440200023900000283
:1025230000026502000235028102000205028202F6
:10253300830200020300710030016000110070008B
:1025430031022003500480001000610000001400D9
:102553006300730072006200430000001300060072
:102563000000000004001200000000000000000052
:1025730004000400370037003C0244000000000060
:102583000000000065000000350081000000050028
:10259300000083000000010171010101010111012B
:1025A30001013101010101018001100161013B00C1
:1025B30014006301730172016201430100011301FD
:1025C30006013D0135000401120100010001000173
:1025D300000104010401330133013C0144013201D0
:1025E3003600000100016501000135008101000191
:1025F30005018201830100010000C21F1300321F85
:102603000100C21F0200E41E0300EA1E0400F01EC4
:102613000500F61E0600021F1100261F14002C1FC2
:102623001500141F1F001A1FFFFF000001A60E064E
:10263300D60E08D00E0BE20E101C0E02AC0E05C413
:102643000E07B20E0C8E0E0D9A0E64600CFF000086
:1026530007ECFDFDFDECDCDCCCBCACAC9C9C8C7CC9
:102663007C6C6C5C5C5C4C4C3C3C2C2C1C1C03EA72
:10267300F5E5D5D5C5B5A595958585757565655577
:102683005545453535252515150500160F00000B55
:10269300150B020002220F3300000E5A69674265D0
:1026A30065416C6C69616E63653039010305070927
:1026B3000B0D0F00020406080A0C0D303017181911
:1026C30021301B1D1F30303016181920231A1C1EF1
:1026D3003000393D3F373C3C362C442D00034A49FA
:1026E300434E181A25050200011916181616182349
:1026F30003000C0E020B040B0A0708000F0204026E
:10270300010101010902000000000000E8030000CC
:1027130000BE040A3C00000000003C007F00E80308
:102723000E000A0305080910040008FF1E1E0C050D
:10273300280903040400081501030CC082C083792F
:1027430000EA1229433BF583C082C08390034212FF
:102753006D48D083D082C3E09CA3E09D500CEA2453
:102763000B122790122770600109023DF7EA75F0FA
:102773000BA4FAA8F075F00BEBA428FB900344E03C
:102783002AF8A3E03B8882F583E0540F22F582E424
:102793003B124F412274F712037F89081245DAA3D3
:1027A300E0F9E875F00BA4F8ACF075F00BE9A42C94
:1027B3001229BEE8FEE9FF7401650860067402652C
:1027C3000870228A828B83122CEA740265087021B6
:1027D300EA2403FA50010B120BB8E970148E828FAE
:1027E30083E4F0800CEA2403FCE43B122CE1120B9B
:1027F300B28E828F83E0D2E7F0121E0C0242827403
:10280300F412037F122DA479008E828F83E060750A
:10281300890A890B8064E50A75F00BA4FAA8F075A0
:10282300F00BE50B12277C7049E50A75F00BA4F851
:10283300AAF075F00BE50B12299F8E828F83E0853A
:102843000882850983123DAB122C61EE2403FCE45C
:102853003F122936120BB212441512597212379BCA
:10286300D2E7F0121E0C7901900342E0F50AA3E0CF
:10287300F50B050AE50A7002050B122BBDE50A9A52
:10288300E50B9B40910248C874F512037FEAFEEB07
:10289300FF750A01740B120B1B12338EEC4D60157E
:1028A300EC1229433D122DB27901120B9AE508452A
:1028B3000960758023E508450960441229413509FB
:1028C300122DB2122937120BB8E96401701BEEFA0C
:1028D300EFFB120BA0E9F50A850882850983122C08
:1028E300597902AA08AB098011122CE2120BB8E93C
:1028F300640170347903EEFAEFFB120B9A80298E90
:10290300828F83A3E064FE7003A3E0F4700B122CA8
:10291300E2120BB8E96401700CEEFAEFFB120BA0A4
:10292300E9F50A8003750A0002321AE50A2403FC5A
:10293300E4350BFDE5082403FAE43509FB22E50839
:10294300125D772274F712037F900342124532EA35
:102953004B602FEA75F00BA4FAA8F075F00BEBA40B
:1029630028FBEAFEEBFF121C2C9003441245329025
:102973000344124F2C6012EEFCEFFD7900121B6032
:102983008007900344E4F0A3F0024282F902312D60
:10299300E875F00BA4F8AAF075F00BE9A42AF990F6
:1029A3000344E028F508A3E039F50922F9E875F0B6
:1029B3000BA4F8AAF075F00BE9A42AF9900344E0FC
:1029C30028F8A3E039F922900342124269C3EE9832
:1029D300EF9922C082C083EC4D6005121D1C800953
:1029E3007C087D007900121B60023DF774F6120328
:1029F3007F7900EA4B60177800EA28F582E41256E3
:102A03008960047901780808E8C3940840EB02312F
:102A13002D74F712037F74F3120928ECFEEDFF8582
:102A23001882851983E4F004120B1BEAF0A3EB125E
:102A3300425B120BD67403120B1BAC82AD83EEFA0E
:102A4300EFFB120BB2EEFAEFFB120BB802427D74EE
:102A5300F712037F74F3120928ECFEEDFF85188249
:102A6300851983E4F0EAFCEBFD7403120B1BAA82C5
:102A7300AB83120BB2AA18AB19120BDC7401120B45
:102A83001B123DB88E828F8312424C74FE68700312
:102A930074FF69600479018002790002427D74F752
:102AA30012037FEAFEEBFF120B94E9F5087401654C
:102AB300087011122B0AF4FA88828983E05A448041
:102AC300F0121E0C02371074F712037FEAFEEBFFBD
:102AD3007508008E828F83E0602A120B94E9F50853
:102AE30074016508701E122B0AFA88828983E05AE2
:102AF30070128E828F83E04480FA88828983E04A51
:102B0300F0121E0C0237101244191238E81229AFC2
:102B13008E828F83E02274F412037F8A088B097CF0
:102B2300007D00EA122939120BB2E508122C7B79D9
:102B330000850882850983A3E064FE7003A3E0F4A3
:102B430060757E007F008066EEFAEFFB12277060EF
:102B530058EEFAEFFBEA75F00BA4FAA8F075F00B48
:102B6300EBA428FB900344E02AF50AA3E03BF50B12
:102B7300850882850983A3125664850A82850B839F
:102B8300A3E06A7003A3E06B701FE50A2403FAE471
:102B9300350BFB120BB8E96401700612292E120BD8
:102BA300B2122C707901126B7C0EEE70010F122B96
:102BB300BDEE9AEF9B40910248C8900342124F43E7
:102BC300C32274F312037F8A088B098A828B8312D0
:102BD3002C59EA122C7B750C00EA122939120BB816
:102BE300E96401706A7E007F00805FEEF8EFF9E828
:102BF30075F00BA4F8AAF075F00BE9A42AF9900379
:102C030044126BEEE0540F603CEEF8EFF9E875F018
:102C13000BA4F8AAF075F00BE9A42AF9900344E099
:102C230028F50AA3E039F50B12292E121D16E964C3
:102C3300017012850A82850B83122C61122C707528
:102C43000C01126B7C0EEE70010F1229CA409CA975
:102C53000C7F050205DBA374FEF0A304F022A3128C
:102C63004269850882850983A3123AD422E50812B2
:102C73002C85EEF0A3EFF022122C8574FEF0A30452
:102C8300F022125D7B3509F5832274F512037FEA86
:102C9300FEEBFF8E828F83122C597C007D00122C59
:102CA300E2120BB2EEFAEFFB120B94E9F50A740190
:102CB300650A7027124262122993850882F58312EE
:102CC3002CEA122937120BB8E96401700EE50824C7
:102CD30003FCE43509122CE1120BB202321AFDEEA9
:102CE3002403FAE43FFB22A312566E123AD4227451
:102CF300F212037F74E6120928122DA4750C0175D4
:102D03000800750900750A00750B0085188285197E
:102D130083E4F0EE2403FCE43FFD7403120B1BAACF
:102D230082AB83120BB2AA18AB19120BDCE9640154
:102D3300701F740B120B1B122DB47401120B1B1298
:102D430056687003A3E069604AA818A9198808891E
:102D530009740D120B1B123DAAA3123DB8740E1277
:102D63000B1B12424C740D120902120BD6E96401BB
:102D73007009740D1208FA880A890B780A1208661A
:102D8300AC08AD09EEFAEFFB120BA674021208941D
:102D9300E9F50CEEFAEFFB120BD0A90C741A0255ED
:102DA300C4EAFEEBFF12441974FEF0A304F022F50B
:102DB300831238E8F9124419123AD422C082C0832C
:102DC30078007900800508E8700109122BBDE89AA4
:102DD300E99B5029E8FAE9FBEA75F00BA4FAACF099
:102DE30075F00BEBA42CFB900344E02AFCA3E03B1F
:102DF3008C82F583E0540F70CD7900800279010253
:102E03003DF7C082C08390273AE49375F016A4FC83
:102E1300ADF079FF7A907B08121B60023DF774F6E0
:102E230012037FEAF87508007D008012ED12567BCD
:102E3300C3994009E0FAE8C39A400205080D9027B8
:102E43003AE493FAEDC39A40E3AA087B0002312DDA
:102E530074F012037F74F31209288A0C8B0D8C080B
:102E63008D09890AEC45096016AA08AB09120C24DE
:102E73008A0E8B0FAE0EAF0FEE4F6003022F467B11
:102E83000080010B125968500F122FEE70F57490E9
:102E930028FE740839FF80047E007F00EE4F700324
:102EA300022F9A90271B122FC160217403650A60B9
:102EB300067404650A70157A047903120BFA9027D5
:102EC3003AE493FC90271B122FC75029902719121D
:102ED3002FC160287401650A60067402650A701CBC
:102EE3007A027901120BFA90273AE493FC9027199E
:102EF300122FC740077A007B00022FBE85188285F8
:102F030019837401F0120B1BE50CF0A3E50DF0AC73
:102F130008AD097403120B1BAA82AB83120BB2AA6E
:102F230018AB19120BE8740B120B1B123ACD8E82DD
:102F33008F83A3A3A3A3A3A3E4126D44AA0CAB0D95
:102F43001210EC7800E50A6007C394055002780478
:102F53008E828F83E50CF0A3E50D126328E50AF05A
:102F6300E88E828F83A3A3A3A3A3125979500109E7
:102F73007A027B0012022F1233D4A31255A4A31298
:102F83003418E50A600DC3940350081233A3122FBB
:102F9300DF80031233BAF07A047900120BFA8A083D
:102FA30090273AE493FAC3E5089AEB94004005901E
:102FB3000FB9E4F0120FC6EEFAEFFB023378122FCB
:102FC300D7E84922122FD7ECC398F8E499F9C3EA5A
:102FD30098EB9922E493F8740193F922F9EE2414FF
:102FE300F582E43FF583E8F0A3E922EB75F016A43C
:102FF300F8A9F012340DF42274F212037F74F31261
:1030030009288A088B09ECFEEDFF750A00EEFAEF3A
:10301300FB120C248A0C8B0DA80CA90DE849700334
:103023000230BF88828983E065087004A3E06509E4
:1030330070030230BF88828983A3A3A3A3E0C39450
:10304300055079888289831261A8124696E060341C
:1030530088828983A3A3A3A3E0C394035026902764
:1030630017E493FA740193FB12360E90271DE49331
:10307300FA740193FBE82414F582E439F583EAF04A
:10308300A3EB800DE824121230C6F0E824141230AA
:10309300C6F08518828519837401F0120B1B126127
:1030A300A8F0EEFCEFFD7403120B1BAA82AB831294
:1030B3000BB2AA18AB19120BE8750A01A90A740D11
:1030C3000255C4F582E439F58374FEF0A304227437
:1030D300F612037F120C1E8A088B09A808A909E8B7
:1030E30049601488828983A3A3A3A3E06009C394DE
:1030F300055004790180027900802F74F612037F52
:10310300120C1E8A088B09A808A909E849601488CB
:10311300828983A3A3A3A3E06009C3940350047922
:10312300018002790080031208947F020205DB7498
:10313300F612037F120C1E8A828B83E5824583601D
:103143000BA3A3A3A3E0700479018002790080DAC2
:10315300C082C083EAFCEBFD7A007B00023DF4C031
:1031630082C0837C007D00023DF474F512037F74FA
:10317300F3120928EAFEEBFF8C088D09C3EC94F8DF
:10318300ED94FF4004EE4F606A750A00801974FFE6
:103193006508700474FF6509600B1264A57004A3CD
:1031A300E06509603B050A90273AE493F8E50AC312
:1031B300985040E50A122FEF60EBEE4F60D01232C9
:1031C30001120B1B124257120BE2E960D87403126F
:1031D3000B1BAC82AD83EEFAEFFB121D16E960C543
:1031E300E50A75F016A4F8A9F0749028FA74083962
:1031F300FB80047A007B00740D120894801B8518F1
:10320300828519837401F0749228F582740839F564
:1032130083124269740B22A90A7F030205DB74F44B
:1032230012037F74F3120928750800120C248A0A0A
:103233008B0BAE0AAF0BEE4F601F123284123214A7
:10324300120B1B124257120BCA7C167D0079FFEE3C
:10325300FAEFFB121B607508017A047900120BFA6E
:103263008A0A90273AE493FAC3E50A9AEB9400504A
:1032730009900FB97401F0120FC6A908740D024822
:10328300C58518828519837401F08E828F83A3A369
:103293002274F712037FE9FC74FE6A700374FF6BF8
:1032A3007D007003802C0D1232F65026ED122FEFA5
:1032B30060F4126F896A7003A3E06B70E98012ED0A
:1032C30075F016A4F8A9F0126F7C6018E06403602F
:1032D300130D1232F65015EC60E512340160F2C39F
:1032E300940550ED1266E912566180047AFE7BFF65
:1032F30002428290273AE493F8EDC39822120C36E7
:10330300023DF7C082C083790180F274F012037F1B
:103313008A0A8B0B7A047901120BFA8A0C8B0DEA59
:10332300450D6040EA2AFAEB33FB121C2C8A088B0A
:1033330009AE08AF09EE4F60267AFE7BFF120C3C04
:1033430074FE6A700374FF6B601E850882850983AF
:10335300124532E5082402F50850E2050980DE75BE
:103363000C0080047E007F00850A82850B83E50CB8
:103373001244668005740D1208947F080205DBE48D
:1033830093F8ECC39822126D4CEC22E0F508A3E00D
:10339300F509221208947F0C0205DB7F070205DB87
:1033A300902717122FD7EE1266E0123AD490271DFA
:1033B300E493F874019322EE24121233C8F0EE243E
:1033C300141233C822F582E43FF58374FEF0A3049C
:1033D30022E88E828F83A3A3A3A3A3A3A3A3123361
:1033E300F974011233F9A374AAF0EE2410F582E400
:1033F3003FF583E4F02212634BA3A3A3A322ED754D
:10340300F016A4F8A9F012340D22749428F58274EE
:1034130008126E3822A3F0124419E4F0EE240CF5DE
:1034230082E43FF583E4F0A3F0A3F0A3F022C0828B
:10343300C0837D008009EA24FF1AEB34FFFB0D12E1
:1034430032F65016123401C3940550F2EA4B70E67B
:10345300749028FA740839FB80047A007B00023DDB
:10346300F774F712037F74F31209287E000234FC09
:10347300EF75F017A4F8A9F0126F5F12574A75F0B1
:1034830016A4FAABF074902AF582740812599C7052
:1034930003A3E0696040EF75F017A4F8AAF0EAF916
:1034A300126F5F39F583123DB87401120B1BE0688C
:1034B3007003A3E069601FEF75F017A4F8EAF974CD
:1034C3006028FC740A39FD7403120B1BAA82AB83B8
:1034D300121D16E96013EF75F017A4F8A9F0745ED6
:1034E30028FA740A39FB1210F80F90272AE493F88C
:1034F300EFC39850030234730E90273A126ACE50EA
:103503001FEE126F82F47003A3E0F460EB1232013A
:10351300120B1B124257120BE2E960DC7F0080CAD8
:1035230002427D74F712037F74F312092890041585
:10353300124F2C70030235D2750800802BE50875F5
:10354300F016A4F8EAF974A428F5827408126E340C
:1035530064FE7003A3E0F4600D74A228F58274087E
:1035630039F5831255BA050890273A125583505FEF
:10357300E50875F016A4F8AAF0EAF912340960E632
:10358300C3940350E174A228F5827408124F297082
:10359300ACE50875F016A4F8EAF9749028F87408F5
:1035A30039F9E8FEE9FF1236701236661222D31299
:1035B3003284123214120B1B124257120BE2E960CF
:1035C300A57403120B1BAA82AB83120C30809702E3
:1035D300427D74F612037F120C1E8A088B09A80819
:1035E300A909E849602088828983A3A3A3A3E06093
:1035F30011C39403500CE82414F582E412566112AB
:10360300360E79018002790002312DE82412F58209
:10361300E439F583EAF0A3EBF02274F712037FEAAF
:10362300FEEBFF90040F124F2C6030900415124FE5
:103633002C6028900419124F2C602012682A122241
:10364300D3E970171236611222D3E96401700C8E2C
:10365300828F83A3A31268171222D30242821236E7
:1036630070A3A3124F439004151268212290271DC3
:10367300E493FC740193FD8E828F8322C082C08306
:1036830090034B74BEF0A3740EF090034D74B8F026
:10369300A3740EF090035174D2F0A3740CF0023DA6
:1036A300F774F712037FEAFEEBFF900385E06408EB
:1036B300601CE0640460178E828F83E0540364010E
:1036C300704112531CF8123715E0640670358E8270
:1036D3008F83A3A3E064FE7003A3E0F460258E82CE
:1036E3008F83A3A3125D5D7003A3E0697008EE24CA
:1036F30015125D526005120F668003120F6CE9F517
:103703000880037508C2EEFAEFFB121C32A9080207
:103713004282A3E0F58388822274F412037F8A082D
:103723008B091238E4FAE82AFAE43400FB121C2C61
:103733008A0A8B0BAE0AAF0BEE4F60558508828564
:103743000983E0FC7D007900121B608E828F83A3C6
:10375300122C59120FA28E828F83A3A3A3A3EAF084
:10376300A3EB12379BF8EE28F8E43F122DB7850838
:1037730082850983A3E0C0E012595ED0E0F0120F06
:10378300B4125954E9123AC3E0C0E0123AB9D0E096
:10379300F0EEFAEFFB0248C8F0850882850983E062
:1037A3002274F412037F74E81209288A088B098CA7
:1037B3000A8D0BE9FE900385E064046005E064086C
:1037C300700479C2803CA37808120AB2EE90038C8D
:1037D300123A27121B608518828519837808120A0A
:1037E300B27405120B1BEEF07404120B1B7401F080
:1037F3007407120B1BE4F0900385740212425B12F0
:1038030020FA0248C374F412037F74E8120928EA09
:10381300FEEBFF900346124F2C60030238DF7A075A
:103823007B00121C2C900346124532900346124F24
:103833002C70030238DB8E828F83120AF8900346C2
:10384300E0FCA3E0F5838C82120AECEE2404F50A73
:10385300E43FF50B850A82F583E0C0E0900346124E
:103863004F00A3A3A3D0E0F0EE2405F508E43FF551
:1038730009850882F583E0C0E0900346124F0ED01D
:10388300E0124251C0E09003461238E8C82406F51E
:1038930082E438F583D0E0123A27121B608E828FC0
:1038A30083120AF8851882851983120AEC850A8225
:1038B300850B83E0C0E07405120B1BD0E012379B2D
:1038C300C0E07404120B1BD0E0F07407120B1BE46E
:1038D30012425B1220FA80067910800279010248B5
:1038E300C38A828B83E0F8A3E022C082C083900363
:1038F30046124F2C6010900346125664121C3290ED
:103903000346E4F0A3F0120EDC121098023DF774A4
:10391300F412037F74E81209288A0A8B0BECFEED7C
:10392300FF89087428120B1BE0FC7429120B1BE09F
:10393300FD740F6C7005740F6D601290102FE064AE
:10394300026005ECC39D500579C1023A2474241228
:103953000B1B120AF8900386120AECE50890038CFD
:10396300F0EC90038AF0EDA3F0742A120B1BE090A5
:10397300038DF074FF650A700474FF650B70249067
:103983001041E0F47003A3E0F4700C121B78900371
:1039930083EAF0A3EB8012901041126706E8F0A3CC
:1039A300E98006900383125972F0EE4F6017EEFA26
:1039B300EFFB12114CE96401700BEEFCEFFD7A97FB
:1039C3007B03121D1C900376E4F0A3F0900379F0BF
:1039D300A3F0900396F090102FE064027008900318
:1039E3008A740FF0A3F09003857405123A27121B13
:1039F300607404120B1BE4F0900386120AF8851816
:103A030082851983120AEC90038CE0C0E0740512DE
:103A13000B1BD0E0F07407120B1BE412425B122065
:103A2300FA0248C3F07C187D007900AA18AB19226A
:103A3300C082C08390034AE07003121F20120C96C9
:103A4300023DF774F012037F90034AE0900FB870C1
:103A53000FE060057900121DD6900FB8E4F0804A9C
:103A6300E06401600890034AE0F9121DD6900FB894
:103A73007401F090034AE0F46030E0F50CE4F50DD6
:103A8300F50EF50FF090822D7808120AD0780C7994
:103A930008120290780C12085E7A807B009003D0A3
:103AA300E0F9121CE674041208947AB87B0F79418A
:103AB3001220E202337DEE2411F582E43FF58322E6
:103AC300F0850882850983A3A322125994123AD45C
:103AD30022E8F0A3E9F02274F612037F74E21209DC
:103AE30028851882851983ECF0A3EDF0EAFEEBFF3D
:103AF3008908900385E064046005E0640870057933
:103B0300C2023C047429120B1BE064FE7003A3E0A1
:103B1300F4700579C3023C047C197D0079007405B7
:103B2300120902121B60900385740312425B7950E1
:103B33001220E27429120902794B1220E2851882BD
:103B4300851983123C1DE508900378F07429120B44
:103B53001B123C137428120B1BE0F509900370121F
:103B63003C09121D1C74CE55094480C0E0741D121B
:103B73000B1BD0E0F0742B120B1BE004900396F0A8
:103B8300741A120B1B7402F07429120B1B123DB82A
:103B93007412120B1BE8F0A3E9123DB1741B120B54
:103BA3001B12424C7410120B1BE508F0740D120B20
:103BB3001BE4F090038B740FF07A8B7B0379541220
:103BC30020E290038A740FF07A8A7B0379471220EC
:103BD300E290038AE0C3940F501F7410120B1BE092
:103BE300C0E07402120B1BD0E0F07404120B1B74C0
:103BF30001F00412090212210674051209021220AF
:103C0300E8741E02312AF0EEFCEFFD7A977B032263
:103C1300124269900379123AD42212670A123AD4F3
:103C23002274F712037FEB90038DF0120ECA024247
:103C33008274F712037F74E9120928EAFEEBFF7519
:103C430008008E828F83A3A3A3E0C0E07406120B47
:103C53001BD0E012328CE0C0E07408120B1BD0E0E2
:103C6300F07409120B1B7401123DAB124F2C600D43
:103C73008E828F83125664120BB8E9703574071263
:103C83000B1BE4F0120F9C7404120B1B12453290B1
:103C93000385E06404700E120FA87402120B1BEA72
:103CA300F0A3EB80487402120B1B74FDF0A374FFA6
:103CB300803BAC18AD198E828F83125664120BC4ED
:103CC3008E828F83A3A3A3A3E070307407120B1B10
:103CD3007401123DB17402120B1B12424C8E828F7F
:103CE30083123DB87404120B1BE8F0A3E9F07402CD
:103CF300120902120FE4E9F508803E123DB2740A7C
:103D0300120B1B12424C7414120B1B12328AA3E0C7
:103D1300C0E07415120B1BD0E0F07416120B1B12CB
:103D23003DAA126D48740C120B1BAA82AB83121DA1
:103D33001C740A120902121DEEA908741702427FAD
:103D430074F712037F74F8120928EAFEEBFF790077
:103D5300900385E064086005E0640470458518827B
:103D630085198374FDF0A374FFF0120F9C74021283
:103D73000B1B1245327405120B1B123DAAA3E0C0A4
:103D8300E07404120B1BD0E0123DABE0C0E07406FC
:103D9300120B1BD0E0F07407120B1BE412425B12F0
:103DA3000FE4740802427FE4F08E828F8322F08551
:103DB300188285198312426922C082C083900357F7
:103DC300746EF0A3740DF09003FD743EF0A37410B1
:103DD300F090035B74A4F0A3740DF090035D746E14
:103DE300F0A3740DF090035F74AAF0A3740DF08038
:103DF30003120C2AD083D08202084674F412037F84
:103E030074F91209288A088B098C0A8D0B8518828C
:103E13008519837808120AB27404120B1BE9F07433
:103E230005120B1BE4F07406120B1BE412425B1227
:103E33000C7E74070248C574F512037F8A088B0948
:103E43008A828B83126B7FEE4F7003023FF29003E3
:103E530014124F2C60158A828B83A3A3E0F9EEFA28
:103E6300EFFB9003151237161222D38E828F83A392
:103E7300A3A3A3A3A3A3A3A3E064026003023F5BE2
:103E83008E828F83A3A3A3A3A3A3E0540270030290
:103E93003F7F850882850983A3A3E064E970030259
:103EA3003F7F850882850983A3A3E064CD70030265
:103EB3003F7F850882850983A3A3E064F070030232
:103EC3003F7F8E828F83A3A3A3A3A3A3A3A3A3A3B1
:103ED300E07016901033E0048E828F83A3A3A3A314
:103EE300A3A3A3A3A3A3F08010124003121014E909
:103EF30070077A307B01121E7E850882850983A3B1
:103F0300A3E0701F750A0080097A367B01121E7EBA
:103F1300050A850882850983A3A3A3E0F8E50AC3FC
:103F23009840E68E828F83A3A3A3A3A3A3A3A31284
:103F3300633FA3A3A3A37404F090103412598EE833
:103F4300123FF5121CF8EA4B4C4D700C7A207B00A3
:103F53009003D0E0F9121BC08E828F83A3A3A3A387
:103F6300A3A3A3A3A3E0640260128E828F83A3A3FF
:103F7300A3A3A3A3A3A3A3E0640670738E828F837A
:103F8300A3A3A3A3A3A3E0A2E050648508828509A9
:103F930083A3A3E0F9EEFAEFFB12217E8E828F83D7
:103FA300A3A3A3A3A3A3E054FEF01240031210148F
:103FB300E9850882850983A3A3702AE070237A2FF9
:103FC3007B01121E7E7E00850882850983A3A3A33D
:103FD300E0F8EEC39850187A367B01121E7E0E80ED
:103FE300E67A318005E070077A2D7B01121E7E028E
:103FF300321CF0A3E9F07A207B009003D0E0F92291
:104003008E828F83126821124F432274EC12037F36
:1040130074DB120928EAFEEBFF8C108D11750E007C
:10402300740512090A120B3A7412120B1BE0700882
:104033007415120B1BE060207405120B1BE0A2E643
:10404300501B8E828F83A3A3A3A3A3A3A3A3A31213
:104053005664121014E960057A350241577405124B
:104063000B1BE0540C64047005750D018003750D82
:1040730000E0A2E55030750E01E50DA2E0402712E5
:104083000FA28A088B09A808A90912531C68700398
:10409300A3E0696011740512090A125D6C12219C78
:1040A300E960030241557405120B1BE0A2E650229E
:1040B3007406120B1BE0540370187405120B1BE0FB
:1040C300540C640C600CE0540C64086005750C011E
:1040D3008003750C007405120B1BE05403F8740283
:1040E30068700E740512090A125D6C120B4C0242C1
:1040F300417401687041E50CA2E0500B740512098C
:104103000A125D6C120B4074051208FA7403120B49
:104113001BE8F0A3E9124261851882851983E8F050
:10412300A3E9124251C0E07402120B1BD0E0124209
:104133005B1222A4024241E8600302424190036DF4
:10414300E0640170178E828F83A3A3A3A3A3A3E0CC
:10415300700A7A347B01121E7E0242417424120BD0
:104163001B7402124261741C120B1B12424CE50CAD
:10417300A2E0500B740512090A125D6C120B407415
:1041830039120B1B7808120AD0E50DA2E0EE50722B
:10419300240F125D52C0E07417120B1BD0E0F09095
:1041A3000316124F2C7003024241120FA28A128B84
:1041B30013A812A913741C120B1BE0687003A3E06D
:1041C30069707B780812085EE50EF5087808120816
:1041D3006A8E828F83A3A3A3A3E0F508780812084D
:1041E3006A7810120866A90C740D12090A74241255
:1041F30009029003161256D61222D3740812089499
:10420300803C125D50F50C780C12086A780812088D
:104213005EE50EF508780812086A781012086690B1
:1042230003831206A8EE2412125D52F974261209B2
:104233000A740F120902122172740A120894742567
:10424300023396A3A3A3A3A3A3E8123AD52212632E
:1042530047A3E022E8F0A3E9F0AA18AB1922F01271
:1042630044191242692212426D22E0F8A3E0F922B6
:1042730074F712037F121DB88005740D1208947F22
:10428300010205DB74F712037F121DBE80F174F780
:1042930012037F121DCA80E7C082C083121DC402AD
:1042A3003DF774F712037F121DD080D374F7120306
:1042B3007F7409120B1BE0F508780812086A121DB7
:1042C300E2740180B7C082C083121DEE023DF7C0C5
:1042D30082C083121DF4023DF774F712037F121D8F
:1042E300FA809C74F712037FEAFEEBFF89087401DE
:1042F300650870147900120DE690272FE493FC797A
:1043030000EEFAEFFB120D5C02428274F712037F98
:10431300121DE802428274F412037F74F912092811
:10432300E9FE8A088B098C0A8D0B900EED124F2C37
:10433300602BEE851882851983F07401120B1B78AC
:1043430008120AB27413120B1B123DB87405120B38
:104353001B124257900EED1256D61222D3023E354F
:10436300C082C083121E36023DF774F712037F1218
:104373001E0602428274F712037F900FBBE0F97EA0
:1043830000800B1245E8540D64017001190E1245AB
:104393007F5003E970ED02428274F712037F900F9E
:1043A300BCE0F97E00800B1245E8548D64817001F6
:1043B300190E12457F5003E970ED02428274F21226
:1043C300037F890BE975F006A4A9F0240CF508E432
:1043D30039F509E5082AFAE43509FB121C2C8A0C85
:1043E3008B0DAE0CAF0DEE4F6021AC08AD0979001B
:1043F300121B60124415E50BF0EE2508F8EF3509A2
:10440300F98E828F83A3A3A3124246EEFAEFFB0237
:1044130055C712441922EE125D7B3FF5832274F6D1
:1044230012037FEAFEEBFF120D38900FBAE0F8E9B2
:10443300C3984009900353125664120D3EEE2402B2
:10444300F8E43FF988088909900355125A8A9003C2
:1044530055E004124466120D44850882850983E001
:1044630002298FF0EEFAEFFB22C082C0837900901D
:1044730003538001091256648A828B83E582458344
:1044830070F2023DF774F712037FEAFEEBFFEE4F83
:10449300605A900353124F2C6052888289837A00AA
:1044A3007B00EE65827003EF65836013AA82AB83A2
:1044B300123DB888828983E5824583602F80E3902B
:1044C300035312574D687002EF698E828F83700811
:1044D300123DB8900353800312680F12424CEEFA58
:1044E300EFFB122274EEFAEFFB121C32024282C07F
:1044F30082C083900353800488828983124F2C6087
:104503000A888289831233894D70ED8A828B83E412
:10451300F0A3F0E8496006888289838003900353FF
:10452300124532023DF7EE241AF582E43FF583EAA1
:10453300F0A3EBF022124F43EA4B2274F712037FEE
:1045430090035380048A828B8312453860277E0050
:1045530080010E12457F50EDEE75F006A4FCADF020
:10456300EA2CFCEB3DFDEC2410F582E43DF583E001
:104573006970DF80047A007B000242821245DEEE1E
:10458300C3982274F712037F7D0080010D1245DA70
:10459300EDC398503BED75F006A4FEA8F0E8FFEAE2
:1045A3002EFEEB3FFFEE2410125D526970DEED75B7
:1045B300F006A4FEE8FFEA2EFAEB3FFBEA2411F52E
:1045C30082E41256894CF0EA240CFA50070B80045B
:1045D3007A007B000242821245DE22EA125D7B3BB7
:1045E300F583E0F822EE75F006A4FCADF0EA2CFCAE
:1045F300EB3DFDEC2411F582E43DF583E02274F6F6
:1046030012037F120E527B008016EB75F006A4F89E
:10461300A9F0125AB8E4124696F0A3125A80F00B8E
:1046230090273D12596B40E27A0080168A0875097B
:1046330000740378081209B912558B125989A3E43F
:10464300F00A90272DE493F8EAC39840DF790080BD
:104653001A8908750900740378081209B974861257
:104663006B87740D1269C0122C5A099027291261A5
:104673008E40DE90273BE493900361F090822D12ED
:1046830006A47A107B009003D0E0F9121CEC7404AA
:1046930002312A12619CA32274F012037F74F51273
:1046A30009288A088B09890A8C0BE9A2E050147542
:1046B30008FC7509FFA2E15005D2E4024764D2E386
:1046C300024764120E3A8A0C8B0DA80CA90D9003B5
:1046D30076E0687003A3E069600EAC0A7902AA0869
:1046E300AB09120E34E970057900024835E50AF585
:1046F3000C780C12086A79027CFE7DFFAA08AB09CC
:10470300120DB07401120894E96003024833E50AFC
:10471300C2E5F50A9003C3E07049E50AA2E6404307
:10472300740312090AAA08AB09120BBEE9702E1210
:104733004F071210DA8A0C8B0DAE0CAF0DEE4F60E3
:1047430022EE2402FAE43FFB120BB8E96015EE24D3
:1047530002FCE43FFD7403120902121D1CE50AD298
:10476300E5F50A900356E0F50C9003761249F778C5
:104773000E1208667D017C00900356E0F9AA0EAB89
:104783000F120DF27402120894E9F8900356E00434
:10479300F0E86003024833E50AA2E55004740E8092
:1047A300027406C0E07401120B1BD0E012425B12CC
:1047B3000FFC8A0E8B0FAE0EAF0FEE4F606E1252D0
:1047C300F9120F9C12452912484C7401F074785564
:1047D3000AA3126DB1E50C126DB1A3E508F0E5096A
:1047E30012483AE4F0E50AA2E5500F740312090AED
:1047F300E82406FAE439FB121D1C8E828F83A3A3DF
:1048030074FDF0A374FFF0E50B6018902730E49378
:10481300F8E50BC398500CEE2413F582E43FF583BF
:10482300E50BF0EEFAEFFB120C6C800679108002B8
:1048330079C7740B02337A88828983A3A3A3A31253
:104843004846221261A0A3A322EE125D773F1248CD
:104853005522F58312426D888289832274F41203F0
:104863007F7A007B109003D0E0F9121CF8EA4B4CDE
:104873004D60089003E27401F08043900F9EE06462
:10488300019010307006E0FC79018004E0FC7903AC
:104893007A007B00120D5C902721E493F5087401E4
:1048A30093F509E4F50AF50B780812085E7A007BA4
:1048B300109003D0E0F9121CE674041208948005EA
:1048C30074181208947F040205DB74F012037F8AC4
:1048D300088B098C0A8D0B890C121014E960057A78
:1048E300FF0249BB90102FE0640260030249E79086
:1048F300273CE493F9AA08AB09120E64E9600302AA
:1049030049E17900AA08AB09120E3AA90C120E2E3E
:104913008A0E8B0FAE0EAF0FEE4F70030249CD8E92
:10492300828F83A3A3A3A3A31260A47073125664FC
:104933008E828F83A3A3A3A3A3A3E05418604D90F7
:10494300272EE4938E828F83A3A3A3A3F074101264
:104953000B1B126D487412120B1B1249F7EA650AFE
:104963007003EB650B6012EA6C7002EB6D600AEA90
:10497300650E7003EB650F701B780E120866AA0AAA
:10498300AB0B12111674021208948008900375126F
:104993006336A3F074FE6A700374FF6B601E80516C
:1049A300A3A3A3E06403602A8E828F83A3A3A3A39C
:1049B300A3E0640470067AFE7BFF80358E828F83CA
:1049C300A3A3A3A3A3E0640270089003C2E064025C
:1049D30070127907AA08AB09120E64E96006AA08E7
:1049E300AB09800DAA08AB099003571256D61222C1
:1049F300D302337DE0F50EA3E0F50F2274F7120323
:104A03007FEAFEEBFF120C0CE9700AEEFAEFFB12E1
:104A13000C18E96006EEFAEFFB80047AFE7BFF02D6
:104A2300428274EE12037F8A0A8B0B8C0C8D0D89E4
:104A33000E750800121014E979006003024B8BAA6B
:104A43000AAB0B120E3AA90E120E2E8A108B11AE60
:104A530010AF11EE4F60198E828F83A3A3A3A3A37C
:104A6300E0640270529003C2E064027003024B8957
:104A7300AA0AAB0B1256D31222D3120C1E8A108B26
:104A830011A810A911E8497003024B898882898310
:104A9300A3A3A3A3A3E0A2E04003024B89750901EA
:104AA300A2E1504B7901AC0AAD0BAA0CAB0D120D70
:104AB3008CE97047024B898E828F83A3A3A3A3A3A0
:104AC300E0640360258E828F83A3A3A3A3A3E06482
:104AD300016003024B8979078E828F83A3A3125649
:104AE30064120E64E96003024B8975090280108821
:104AF300828983A3A3A3A3A3D2E1F0EE4F603A8EEE
:104B0300828F83A3A3A3A3A3A3E05418602B7508E8
:104B1300018E828F83A3A31206A87510FE7511FF61
:104B230078101208667900AC0AAD0BAA0CAB0D1213
:104B33000E467404120894804D7900AA0CAB0D1232
:104B43000E3A8A108B11A810A911900376E06870B1
:104B530003A3E069701490272FE493FCA90EAA0A1B
:104B6300AB0B120D5C750801801CA909AC0AAD0BD7
:104B7300AA0CAB0D120D8CE9700C750801A90EAAD5
:104B83000AAB0B120DE6A90880031208947F0A02F0
:104B930005DB74EB12037F74F01209288A0C8B0D6A
:104BA3008C088D09751206900403124F2C6017129E
:104BB3004F071211048A108B11EA451160088A828B
:104BC3008B83A3E06068E50C241DF50EE4350DF539
:104BD3000F850E82125123F51488828983A3A3A320
:104BE300E0FA88828983A3A3A3A3E0F8E4C8F9EADF
:104BF30028FEE439FFAA08AB09120DEC850E828565
:104C03000F83124F0EE029F50BE50AA2E550037559
:104C1300120E7487550A700F7418550A64186007CA
:104C2300124EF16512600C7AD37B00121E7E79005E
:104C3300024EDB530A78C3EE94F8EF94FF502479C5
:104C430000EEFAEFFB120E2E8A0E8B0FA80EA90FA1
:104C5300E849600F88828983A3A3A3A3A3A3E05495
:104C63001870CB78081208667D00AC0BA914124F9C
:104C730038120DF27402120894E9F874036860AEF6
:104C83007425120B1B126B8C6003024D5274185562
:104C93000A7003024E0DE50AD2E0F50AA2E45004BD
:104CA300D2E1F50AA90A124F38120E2E8A128B137B
:104CB300A812A913E849605C88828983A3A3A3A3EC
:104CC300A3A3E05418604D88828983A3A3A3A3A35D
:104CD300E06401703FE51045116039126D4588822B
:104CE3008983A3A31256641211048A128B13A81288
:104CF300A913E849601E88828983A3E060168510A2
:104D030082851183A3E0FA88828983A3E0C39A5042
:104D130003024C31E50AF510781012086A124F327B
:104D2300120DB07401120894E970247C007D008593
:104D33000E82850F8374FFF0125314A3A3A3E060C4
:104D430006124EE5126D48A90B124F38120D088555
:104D53000E82850F83E0F47003A3E0F4603C9003BC
:104D6300C2E064027003024C31124F3890035912AF
:104D730056D61222D3EA65087003EB650960030275
:104D83004C31EEFAEFFB9003591256D61222D3851B
:104D93000E82850F83EAF0A3EBF078081208667D94
:104DA30001AC0BA914124F38120DF27402120894BD
:104DB300A90AEEFAEFFB120E3A8A088B09A808A992
:104DC30009900376E0687003A3E0696003024ECDA7
:104DD300EEFAEFFB120C1E8A088B09A808A909E852
:104DE30049606F88828983A3A3A3A3E06401600D54
:104DF30088828983A3A3A3A3E064027055AC18AD92
:104E030019EEFAEFFB120BBE805690036FE06014AD
:104E1300E50AF510781012086A124F32120DB074B9
:104E230001120894E50AF510781012086A79027CD9
:104E3300FE7DFFEEFAEFFB120DB07401120894E948
:104E43006003024D52850E82850F8374FFF0A30227
:104E53004D9C120F9CEAFCEBFDAA18AB19121D1C0A
:104E6300850C82850D83A3A3A3A3A3A3A3A3E064BB
:104E730001700E124EE5126D487408120902121DDC
:104E83001C12510B124EFEE04430F508780812084C
:104E93006A74011208FA8808890978081208667486
:104EA3000B1208FA880889097808120866E514F5D0
:104EB30008780812086A7900EEFCEFFD124F3812E9
:104EC3000D867406120894024C3112510BF58312AD
:104ED3004F0EE50BF0120FB474101208947F0D02FD
:104EE30005DBE50C2415F582E4350DF58322E50C8D
:104EF3002417F582E4350DF583E022F583E0F812FB
:104F03003715A32290038312513F22126821A3A3D2
:104F1300A3A3A322E50D75F006A4F8AAF0EAF97499
:104F2300EA28F582740C39F583124269E84922793B
:104F330001AC08AD09125D75350D124F4122F583A1
:104F4300E0FAA3E0FB2274EE12037F74F012092847
:104F53008A0C8B0DECFAEDFB750F08900403124FCE
:104F63002C6031126D451211048A088B09AC08AD0F
:104F730009EC4D601F8C828D83A3E0701712597E5C
:104F83005001097A027B0012022FE88C828D83F094
:104F9300A37407F012510B125123F50E88828983F3
:104FA300125115E0FAE4CAFBEC2AFEE43BFF8882C7
:104FB3008983A3A3125115A3A3E0FBECF508E43BFB
:104FC300F50988828983A3A3A3A3A3A3A3E0F50B75
:104FD300E50AA2E45003750F10A2E55006740825F4
:104FE3000FF50F748F550A7007124EF1650F600AA3
:104FF3007AD37B00121E7E025106530A707800E5B5
:105003000AA2E4501FE50C241D124EF52408FCA34C
:10501300E03400FD7408120902121D1C7808E50A29
:10502300C2E4F50AE50AA2E55022E50C241D124E5E
:10503300F528F8A3E03400F9E82408FCE439FDAAD4
:1050430018AB19121D1CE50AC2E5F50AA90EEEFA02
:10505300EFFB120E2890272D12618E5029891075AF
:105063001100740378101209B9744B2510F582747A
:105073000D3511F583E0F8E50BC3985007E50BF008
:1050830078008004807D7804900376E06E7003A33B
:10509300E06F605FE87019E50AF50F780F12086A90
:1050A300125132120DB07401120894E97055800543
:1050B300740468704E780A12086A74011208FA8838
:1050C3000C890D780C120866740B1208FA880C8987
:1050D3000D780C120866E50EF50A780A12086AA91B
:1050E3000BAC08AD09EEFAEFFB120D86740612083D
:1050F300948010780A12086A125132120DB07401AA
:105103001208947410024B8DE50C241DF582E435CE
:105113000D22A3A3A3E0FC88828983A3A3A3A322D4
:10512300124855A3E0F50A88828983A3A3E0227974
:1051330001125D75350DF58312513F22E0FCA3E0AA
:10514300FDAA08AB092274EB12037F74F512092838
:105153008A088B098C0A8D0B89147420120B1BE0AF
:10516300F511F9120E28E9F50C90272D12618E50D6
:105173001B750D007403780C1209B97449250CF5DD
:1051830082740D350DF5831249F7801E9003591271
:105193004F2C6010AA08AB091237161222D38A0EBD
:1051A3008B0F8006750EFE750FFF7401120B1B74B7
:1051B30008F07425120B1BE0F510A2E450087401EB
:1051C300120B1B7410F0E510A2E550097401120BC9
:1051D3001BE02408F0AA18AB19120FFC8A0C8B0DE4
:1051E300AE0CAF0DEE4F70030252F41252F9120FD0
:1051F3009C1245297421120B1BE0F512A3E0F51351
:10520300740312090AAA0EAB0F120BBEE96013EE68
:1052130024161252FC74031208FAEE2418122FE318
:105223008027E510A2E45022E50E65087004E50F1F
:1052330065097016EE24161252FCEE2418F582E46A
:105243003FF583E512F0A3E513F012531CF50CA30D
:10525300E0F50D850C82F5837402F0A3E51012537B
:1052630006E511125306A3E508F0E509850C8285CE
:105273000D83A3A3A3125314E50AF0E50B850C8257
:10528300850D83A3A3A3A3A3A3F0AA0EAB0F120DB3
:10529300ECE92514850C82850D83A3A3A3A3A3A303
:1052A300A3F0750800E510A2E45013AC12AD13E5AA
:1052B3000C2408FAE4350DFB121D1C750808E510D3
:1052C300A2E5501B7423120B1B126D48E50C250835
:1052D300F8E4350DF9E82408FAE439FB121D1C8EB5
:1052E300828F83A3A3E50EF0A3E50F124466120C8D
:1052F3006C740B024EDDEE2417F582E43FF58374E4
:1053030001F02212530A22F0850C82850D83A3A398
:1053130022A312530AA3A3A322124419E02274F472
:1053230012037F8A088B09ECFEEDFF750B019003D6
:1053330076E065087004A3E065096013750B0078D7
:105343000B12086A1210567401120894E9F50B79CE
:1053530000AA08AB09120E3A8A088B09A808A90902
:10536300900376E0687003A3E06970467900EEFA73
:10537300EFFB120E2EEA4B60308A828B83A3A3A32A
:10538300A3A3A3E0541860217508FE7509FF7808EC
:105393001208668A828B83A3A31206A8126CA21238
:1053A3000E46740412089480097901EEFAEFFB1299
:1053B3000D02A90B0248C874F212037F7ECE7F0B45
:1053C3007A107B009003D0E0F9121CF8EA4B4C4DA5
:1053D300701790822D1206A47A107B009003D0E000
:1053E300F9121CEC7404120894900361E014F06049
:1053F3000302549C90273BE493900361F07C007973
:10540300057A007B00120F2A8A088B090254937CC9
:10541300007905AA08AB09120F2A8A0A8B0B8508A3
:1054230082850983A3A3A3A3124F2C605DE50824FF
:1054330004F8E43509F9888289831255BA88828988
:1054430083124F2C7044850882850983A3A3A3A3E9
:10545300A3A3E054046013850882850983A3A3A34F
:10546300A3A3A3A3A3E0F9120E16850882850983DB
:10547300A3A3A3A3A3A3A3A3A37406F07AF085080D
:1054830082850983126213120E82850A08850B092D
:10549300E5084509600302541275080080608E8296
:1054A3008F83A3A3A3A3E0604CF46049EE2404120A
:1054B3005D5214F0703F8E828F83A3A3A3A3A3E056
:1054C3006403701579028E828F83126D488E828FEA
:1054D30083A3A3125664120D8C8E828F83A3A3A37E
:1054E300A3A3E06401600E8E828F8374FEF0A30495
:1054F3001255A4E4F00508EE2407FE50010F90278F
:105503003312558340987E008039120F4E8E0875F2
:105513000900740378081209B974462508FC740D50
:105523003509FD7A987B0D120F3CEA4B70DC8E082F
:10553300750900740378081209B912558B125A8041
:10554300E4F00E90272D126ACE501B8E08750900C9
:10555300740378081209B9125599E82407126E31B9
:1055630014F070DE80A77B008009EB1255A860025F
:1055730014F00B90273D12596B40EF804790273D65
:10558300E493F8E508C3982212559988828983A386
:1055930074FEF0A3042274462508F8740D3509F946
:1055A300221263472275F006A4F8A9F074E628F5E1
:1055B30082740C126E3822E024FFF0A3E034FFF073
:1055C300221208947F060205DB74F712037F74DF4F
:1055D300120928ECFEEDFF750800EE4F60691238E2
:1055E300E4C8241FF582E438124F2A605A8A828B5A
:1055F30083125664AC18AD19EA241EF582E41256E0
:1056030089F9EA241F122790120F84740B120B1BC3
:105613001256687003A3E069702D7402120B1BE02D
:1056230064017023741D120B1B1256D6E0640170C3
:1056330016741D120B1B124F02A3E0F88E828F8388
:10564300E0687003750801A908742102427FE50D23
:1056530075F006A4F8EAF974EA28F582740C39F5B2
:1056630083124F432212566EE068221256722212A0
:10567300426D8E828F83A32275F016A4FAABF07469
:10568300942AF58274083BF583E02274F412037FB5
:10569300E97024790090035B1256D61222D38A0A4A
:1056A3008B0BAE0AAF0B74FE6E700374FF6F701A30
:1056B300902738E4936013790190035B1256D61256
:1056C30022D38A0A8B0BAE0AAF0B120FC602379492
:1056D30090035D1268212274F612037F74F312099A
:1056E30028121B788A088B09AE08AF09900376E06D
:1056F3006E7003A3E06F60E9120FA8EA6E7002EB0D
:105703006F60DEEEFAEFFB121014E970D4EE4F6017
:10571300D0851882851983E4F004120B1BEEF0A3E5
:10572300EF12425B120BD6E970B774FE6E7003740E
:10573300FF6F60ADEEFAEFFB740D02312AC082C039
:1057430083120FC6023DF739F583124269EE2274C4
:10575300F212037FEAFEEBFF8C0A8D0B890874FCBF
:105763006E700374FF6F70030259457900120E3A8D
:105773008A0C8B0DAE0CAF0D740E120B1BE0F509EA
:10578300900376E06E7003A3E06F7009E509A2E66B
:105793004003025945A909120E2E8A0C8B0DA80C41
:1057A300A90DE849704679007AFE7BFF120E2E8A16
:1057B3000C8B0DA80CA90DE84970317418550960BC
:1057C300267B0080010B90273312596B5019EB7520
:1057D300F007A4F8A9F0126AD5541870E874CE281B
:1057E300F8740B39F9801D7902025947888289833D
:1057F300A3A3A3A3A3A3E0541860097418550970C5
:105803000302594588828983EEF0A3EFF074FE65A5
:105813000A700474FF650B600A88828983A3A3124C
:105823005972F088828983A3A3A3A3A3A3E509F0F4
:10583300A2E0500D88828983A3A3A3A3A3A3D2E2EA
:10584300F07401650888828983A3A3A3A3A3703599
:105853007401125989E05418602590272EE4938827
:10586300828983A3A3A3A3126D44AA0AAB0B1211CB
:10587300048B0DEA450D60030259457E008031908B
:105883000375E080DAE06401700302594588828978
:1058930083A3A3A3A3A3A3E05418600790272EE434
:1058A300938004900374E012483AE5080259440EC9
:1058B30090272A126ACE40030259457D00802BEDC2
:1058C30075F007A4F8A9F074D028F582740B125769
:1058D3004A75F017A4FAABF0745E2AF582740A12C3
:1058E300599C7003A3E06960C60D9027331232F907
:1058F30040CDE4936D70B8EE75F017A4F8A9F07479
:105903005E28FE740A39FF7C177D007900EEFAEFFA
:10591300FB121B608E828F83125972F090038312E5
:10592300598E12424612594A74AAF01259547401FC
:105933001259795001097A027B0012022F12595E23
:10594300E8F079000255C7EE240FF582E43FF583B2
:1059530022EE240EF582E43FF58322EE240DF58238
:10596300E43FF5832290273AE493F8EBC39822E5CA
:105973000AF0A3E50B22F012597E22902726E49326
:1059830079002401F822124846A322125994A3A3B2
:1059930022125672A322F582E43BF583E068227457
:1059A300F212037F8A088B09890C126187400579FB
:1059B30005025A7D121E3CAA08AB09120DC2E9F575
:1059C3000D90273DE493650D700A7AFE7BFF120D5F
:1059D300C2E9F50D90273DE493F8E50DC398400324
:1059E300025A7B124F176006125651121C32E50CF5
:1059F300602BE50D75F006A4F8A9F0125BBBF85017
:105A03000109880A890BAA0CEA2AFAE433FB121C5F
:105A13002C125A91124F2C701B7901805DE50D7584
:105A2300F006A4F8A9F074EA28F582740C39F5831A
:105A3300E4F0A3F0E50D125AA31261A8125A80A351
:105A4300AA82AB83E50C125A868A828B83E0602498
:105A5300124F17601F8E088F09750A007808120805
:105A630062AC0CEC2CFCE433FD125651121B547443
:105A7300031208947900800279070255C7F08882DF
:105A8300898322F0901031E088828983F022850A8D
:105A930082850B83EAF0A3EBF0850A82850B8322D0
:105AA30075F006A4F8A9F0125AAE22125BB28882EE
:105AB3008983A3A322125AAE74FE125AC122F0A301
:105AC30004125AC822F088828983A32274F712032E
:105AD3007FECFEEDFF120DC290273D12618E502D1B
:105AE300E975F006A4F8A9F0125BB2125B1588827F
:105AF3008983A3A3A3A3123DB87409120B1BE0FA75
:105B0300A3E0F5838A8212424C7900800279040271
:105B1300428288828983A3E08E828F83F02274F786
:105B230012037F750800801DE50875F006A4F8A927
