:020000040000FA
:06000000020A880201D68D
:03002B00020717B2
:0300330002073D84
:030043000207634E
:0300530002011691
:1000830002016A01FF01010503010F10FEFF57255D
:10009300000000002B2400000000FF000000FF0010
:1000A3000101881300000020FD00020000C01900B8
:1000B30000000000007A1A000000000000000000A9
:1000C300000000000000000000000000000000002D
:1000D3000000000000000006FFFF01010100BA0E4E
:1000E300000000FFFF330F64006400B80102020048
:1000F3000800000502070101051E02051E020A0A87
:100103000103B80B02803E0102E8030A0500012245
:10011300040114C0E074F21203EDA2AFE433F50856
:10012300D2AFAFA7AEA1EE5F5410600612174A75A7
:10013300A1EFEE5F5408600812175075A1F78023F2
:10014300EEA2E092F0EFA2E082F05017906198E007
:10015300F89007D0E0C398A2D265D0335002E8F0FC
:1001630075A1FEE5088063C0E074F21203EDA2AF4F
:10017300E433FED2AF9061A4E0F8759B00E591589B
:10018300540860087591F71217988023E591585425
:100193001060087591EF12179E8014E591A2E0920A
:1001A300F0E8A2E082F05007E0C2E0F01218E89015
:1001B30061A3E0F8E5E9585404600E1218BE75E92E
:1001C300FB906193E0A2E640F2EEA2E092AF7F01E2
:1001D30002044CC0E074F21203EDA2AFE433FED28A
:1001E300AF9061A5E0F8E5BF585404600675BFFB06
:1001F30012190080D4C3E498F8E499F91202398003
:1002030026C3E49AFAE49BFBE920E7E9120239E406
:1002130098F8E499F922C3E498F8E499F9120239B9
:10022300E498F8E499F9C3E49AFAE49BFB22EB20FF
:10023300E7CFE920E7E0B90010BB0008E88AF084C3
:10024300F8AAF022E4FBC8FA22EB70227B10C83331
:10025300C8C933C9335007C39AC3DBF280069A5027
:10026300012ADBEAC833F4C8C933F4C9FA2275F0AA
:1002730008E4C833C8C933C933C99AC99B5004C9F0
:100283002AC93BD5F0ECFBC833F4C8E4C9FA220809
:100293000808EAC0E0EBC0E086F0E7A4FA18098694
:1002A300F0E7A42AFA180986F0E7A42AFA180986BF
:1002B300F0E7A42AFA1986F0E7A4FBE5F02AFA1975
:1002C3000886F0E7A42BFBE5F03AFA190886F0E775
:1002D300A42BFBE5F03AFA18180986F0E7A4C5F059
:1002E3002BFBE43AFA1908E7C5F0C6A426F6E5F0B5
:1002F3003BFBE43AFA1886F0E7A4F6E5F00826F6A5
:10030300E43B08F6E43A08F6D0E0FBD0E0FA22E456
:10031300CFC0E0E4CEC0E0E4CDC0E0E4CCC0E07503
:10032300F020E626F608E633F608E633F608E63369
:10033300F6181818EC33FCED33FDEE33FEEF33FF04
:10034300C3EC9709ED9709EE9709EF97191919402F
:100353000FFFEC97FC09ED97FD09EE97FE191906BF
:10036300D5F0BFECF709EDF709EEF709EFF7191927
:1003730019D0E0FCD0E0FDD0E0FED0E0FF2225184C
:10038300C582C0E0E51934FFC583C0E0E518C39515
:100393008224F810AF088583198582188008858325
:1003A30019858218D2AFCEF0A3E520F0A37808E632
:1003B30008F0A3DEFAEFF0A3E58124FAF8E608F0EB
:1003C300A3E608F0A3E608F0A30808E608F0A3E60E
:1003D30008F0A315811581D0E0FED0E0F815811552
:1003E300811581E8C0E0EEC0E022C0D02518C582A7
:1003F300C0E0E51934FFC583C0E0E518C395822446
:10040300F310AF08858319858218800885831985C1
:100413008218D2AFC8F0A3E9F0A3EAF0A3EBF0A3EC
:100423007908E709F0A3D8FAECF0A3EDF0A3EEF016
:10043300A3EFF0A3D0E0F0A3D0E0F0A3D0E0F0A3CB
:10044300E520F0A3E5F0F0A322851983851882E067
:10045300C0E0A3E0F9A3E0FAA3E0FBA37808E0F689
:1004630008A3DFFAE0FCA3E0FDA3E0FEA3E0FFA303
:10047300E0C0E0A3E0C0E0A3E0F5D0A3E0F520A353
:10048300E0A3F5F010AF08858319858218800885ED
:100493008319858218D2AFD082D083D0E0F8D0E020
:1004A30032120AF6B900030204E3E490030178BDB3
:1004B300790D8002F0A3D8FCD9FA7ABD7B0F9000A6
:1004C30086789179018015E493A3AD82AE838A8205
:1004D3008B83F0A3AA82AB838D828E83D8E9D9E77D
:1004E3007582757583CB74041208267582F0758343
:1004F300227400120826E4730C75F0108E1A8F1BF9
:1005030085821F85831E851882851983E0CEA3E02B
:10051300CF851F82851E83EBC9EAC8EDCBECCAC326
:10052300E833C8E933C9EA33CAEB33CBC3EA9EF5F0
:100533001DEB9FF51CB35004AB1CAA1DEC33CCED93
:1005430033CDD5F0DAAE1AAF1B22D083D082ECC004
:10055300E0EDC0E0E493A3FCE493A3FDED4C600D58
:10056300120625EC24FFFCED34FFFD80EFE493A39A
:10057300FCE493A3FDED4C600D1206C2EC24FFFCDA
:10058300ED34FFFD80EFD0E0FDD0E0FCE493A3C0A9
:10059300E0E493C0E022D083D082E9C0E0E493A3F7
:1005A300C386F0C5F095F0F908E493A386F0C5F08F
:1005B30095F0700BE493A3C3994005E9048002A36B
:1005C300E475F002A42582F582E5F03583F583D046
:1005D300E0F9E493A3C0E0E493C0E02285198385A6
:1005E3001882E0A3FEE0A3F5207808E0A3F608DF75
:1005F300FAE0A3FFE0A3C0E0E0A3C0E0E0A3C0E013
:10060300E0A3C0E0E0A3C0E010AF088582188583B3
:10061300198008858218858319D2AFD083D08202CE
:10062300082CC0E0C3E49396087401939618400F16
:10063300E49366700808740193661870007019A338
:10064300A3C3E49396087401939618A3A3400DD013
:10065300E0D0E0D0E0020589A3A3A3A3A3A3D0E045
:10066300227404800474028000CCC0E0EDC0E0E595
:1006730018C39CCCAD1950011D10AF068C188D19F1
:1006830080068C188D19D2AF1207A8D0E0FDD0E0F8
:10069300FC2274028000CCC0E0EDC0E0E518C39CEE
:1006A300CCAD1950011D10AF068C188D1980068C26
:1006B300188D19D2AF120786D0E0FDD0E0FC22C01E
:1006C300E0C0F088F0E4936670080874019366183C
:1006D3007000A8F0A3A3700BD0F0D0E0D0E0D0E07E
:1006E300020589A3A3D0F0D0E022D083D082CCC06E
:1006F300E0E493A360061208071470FAE493A3607E
:10070300061208F81470FAD0E0FCE493A3C0E0E406
:1007130093C0E022C0E0C0D0E8C0E0E9C0E0A9A8EF
:10072300D2AFC2C7E9A2E7E433F8E9A2E792AFD0B8
:10073300E0F9D0E0F8D0D0D0E032C0E074F2120398
:10074300EDA2AFE433FED2AFE58BA2E05003121665
:1007530060758B00C2E8EEA2E092AF7F0102044C09
:10076300C0E074F21203EDA2AFE433FED2AFC2C015
:10077300E5D1A2E450031216BAEEA2E092AF7F01D4
:1007830002044CCAC0E0E493A3C582CCC582C583EE
:10079300CDC583F0A3C582CCC582C583CDC583DA1D
:1007A300E5D0E0CA22CAC0E0E0A3C582CCC582C5B9
:1007B30083CDC583F0A3C582CCC582C583CDC58354
:1007C300DAE6D0E0CA227009080808226016181871
:1007D30018C6C333C608C633C608C633C608C633ED
:1007E300C6D5E0EA22C008C3E096F50808A3E09660
:1007F300420808A3E096420808A3E0964508700162
:10080300D3D00822C0E0E493A3D39C5010E493A375
:10081300C39C400AD0E0D0E0D0E002070AA3A3A320
:10082300D0E022C09FF59FE473D09F22D083D08273
:10083300C09FE493C0E0740193C0E0740293F59FFA
:10084300227404800A74038006740280027401C057
:10085300E0F40412085FD0E0120AC5222518F582DD
:1008630010AF08F518400C15198008F5184002154B
:1008730019D2AF8519832200C0D0251810AF08F50F
:1008830018500C05198008F51850020519D2AFD07D
:10089300D022BB0102E722C082C08389828A83BB44
:1008A3000003E08002E493D083D08222601608081C
:1008B30008C6C313C618C613C618C613C618C6136C
:1008C300C6D5E0EA22C3E0C696F608A3E0C696F6CC
:1008D30008A3E0C696F608A3E0C696F6222518F804
:1008E300E43519F9222518FAE43519FB222518FCF9
:1008F300E43519FD22C0E0E493A36C7009D0E0D085
:10090300E0D0E002070AA3A3D0E022251810AF0825
:10091300F518400C15198008F51840021519D2AFC7
:1009230022E76670100809E766700A0809E766702F
:10093300040809E76622C3E09608A3E09608A3E04B
:100943009608A3E096A2D265D03322E06670100821
:10095300A3E066700A08A3E066700408A3E06622B9
:10096300C3E096F008A3E096F008A3E096F008A38E
:10097300E096F022C3E697F60809E697F60809E63B
:1009830097F60809E697F622C3E493960874019351
:100993009608740293960874039396227004226057
:1009A3000D18C6C333C608C633C6D5E0F41822E60D
:1009B30047F60809E647F60809E647F60809E64751
:1009C300F622E026F008A3E036F008A3E036F008AC
:1009D300A3E036F022E627F60809E637F60809E62B
:1009E30037F60809E637F622E657F60809E657F61A
:1009F3000809E657F60809E657F622E056F608A373
:100A0300E056F608A3E056F608A3E056F622E026E1
:100A1300F608A3E036F608A3E036F608A3E036F6B8
:100A230022E056F008A3E056F008A3E056F008A32E
:100A3300E056F022E4C396F608E496F608E496F648
:100A430008E496F622600D08C6A2E713C618C6137B
:100A5300C6D5E0F322C6F4C608C6F4C608C6F4C673
:100A630008C6F4C622C3E7960809E7960809E7967D
:100A73000809E79622C3E09608A3E09608A3E09648
:100A830008A3E0962275D00075813F75180175198A
:100A930003000204A4E6F008A3E6F008A3E6F008C6
:100AA300A3E6F022600C08C6C313C618C613C6D546
:100AB300E0F422E0F608A3E0F608A3E0F608A3E0DA
:100AC300F622CAC0E0E6F0A308DAFAD0E0FA22E898
:100AD300F0A3E9F0A3EAF0A3EBF022E0F8A3E0F936
:100AE300A3E0FAA3E0FB22E0FAA3E0FBA3E0FCA36C
:100AF300E0FD22E5C754F84401F5C7790122251822
:100B0300F582E43519F58322C2AF75D69F02000042
:100B13002212082FB0A90212082F84AB0212082F49
:100B230063AC0212082F9CAD0212082F4FB00212C1
:100B3300082F62B30212082F71B30212082F0AB4EE
:100B43000212082F51B40212082FD7B40212082F31
:100B530068B70212082FC1B80212082F54B9021243
:100B6300082FDEB90212082F44BA0212082F83BAE3
:100B73000212082FF9BA0212082F4EBC0212082FD4
:100B8300F1BC0212082F09BD0212082FACBD0212DC
:100B9300082F36C00212082FD7C10212082FF5C141
:100BA3000212082F5E270012082FB8270012082F01
:100BB30022280012082FAB280012082F67290012E1
:100BC300082FF6290012082F0F2A0012082F342AA3
:100BD3000012082F722A0012082FC12A0012082FB0
:100BE300EA2A0012082F392B0012082FE52B0012D6
:100BF300082FAD2C0012082F122D0012082FDF2D05
:100C03000012082F252E0012082F412E0012082F44
:100C1300732E0012082F1B300012082FF23000121F
:100C2300082F1E310012082F52310012082F733182
:100C33000012082F82310012082F8D310012082F65
:100C430041320012082FB4320012082F263300124B
:100C5300082F2E330012082F51340012082F84342A
:100C63000012082F46350012082FF5350012082F01
:100C73003D360012082F9F360012082FB03600129F
:100C8300082F28370012082FB0370012082F143806
:100C93000012082FF9380012082F2A390012082FE2
:100CA3003D390012082FB0390012082FF83900120D
:100CB300082F053A0012082F0E3A0012082F0E3C97
:100CC3000012082F583D0012082F683D0012082F0C
:100CD300773E0012082FF03E0012082F323F001219
:100CE300082F6E3F0012082F42410012082FA7431E
:100CF3000012082FBB430012082FC5430012082F10
:100D0300CF430012082FD9430012082FF2430012D9
:100D1300082FFC430012082F06440012082F10442A
:100D23000012082F38440012082F43440012082FE2
:100D33008D440012082F98440012082FBC4400125F
:100D4300082FE0440012082F41450012082F8C455C
:100D53000012082FA8450012082F12460012082F70
:100D63005E460012082FA6460012082F21470012E4
:100D7300082FBB470012082F7F490012082FED49A7
:100D83000012082F1F4B0012082F454B0012082F8B
:100D9300B54C0012082F69500012082F6952001237
:100DA300082F41540012082FDA540012082FEC5672
:100DB3000012082FAE570012082FFA570012082FFF
:100DC30060580012082F72580012082FC25A0012DE
:100DD300082FEF5B0012082F415C0012082FE65C1E
:100DE3000012082FA15E0012082FD25F0012082FF5
:100DF300F05F0012082F45600012082F43610012B4
:100E0300082F6B610012082FCE610012082FCF62EA
:100E13000012082F42630012082F70640012082F7B
:100E2300DB640012082FCB650012082F3168001213
:100E3300082F5F680012082F5A690012082FF86AFA
:100E43000012082F486B0012082F006C0012082FA5
:100E5300B56C0012082F196D0012082FD26D001205
:100E6300082F726E0012082FD66E0012082F206F03
:100E73000012082F5D6F0012082FC5700012082F93
:100E830021820112082F59820112082F3285011283
:100E9300082F78850112082F95860112082FFA86EC
:100EA3000112082F4B880112082F3C8B0112082FC7
:100EB3005B8C0112082F30970112082FCF97011274
:100EC300082FC29A0112082FC29B0112082F389CC7
:100ED3000112082F759D0112082FDE9F0112082FA2
:100EE300ECA10112082F79A20112082F4DA30112C0
:100EF300082FD9A30112082FE3A30112082F0CA472
:100F03000112082FB9A40112082FA4A50112082F5A
:100F13007CA60112082FE0A60112082F09A70112CF
:100F2300082F36A70112082F87A90112082F62AADA
:100F33000112082FA6AA0112082F17AB0112082FBE
:100F4300D0AB0112082F02AC0112082F49AC0112D9
:100F5300082F7CAC0112082FE1AC0112082F30AD31
:100F63000112082F35AD0112082F89AD0112082F88
:100F7300D3AD0112082FCFAE0112082F34AF0112E7
:100F8300082F9BAF0112082FC0B20112082F94B390
:100F93000112082FFEB40112082FD8B70112082F2F
:100FA30080B80112082FA7BA0112082F4CBB0112F7
:100FB300082F8ABB0112082F63BD0112082F76BDCB
:100FC3000112082F7FBD0112082F88BD0112082FBF
:100FD3009DBD0112082FBCBD0112082F9BBF01123A
:100FE300082FEEBF0112082FF8BF0112082F19C0F6
:100FF3000112082F68C10112082FB1C10112082F75
:1010030091C20112082FBCC30112082F72C401122E
:10101300082F74C50112082F76C60112082F5CC76A
:101023000112082F73C70112082FB0C70112082F2E
:10103300BAC70112082FC5C70112082FE3C701124F
:10104300082F25C80112082F83C80112082FA8C82A
:101053000112082FC2C80112082F4FC90112082F0D
:1010630088C90112082FD6CA0112082F28CB0112F2
:10107300082F42CC0112082F69CC0112082F05CD8D
:101083000112082F81CD0112082FCDCE0112082F96
:10109300E8CF0112082FAED00112082F58D1011248
:1010A300082FDDD10112082F45D20112082FFAD2E1
:1010B3000112082F4CD30112082FB2D30112082FAB
:1010C3007BD40112082F9ED40112082F56D501128A
:1010D300082F7AD50112082F9CD50112082FFDD5B0
:1010E3000112082F48D80112082F23D90112082F03
:1010F300CDD90112082F0EDC0112082F5CDC01127E
:10110300082F9FDC0112082FF7DC0112082F55DD91
:101113000112082F7FDD0112082FA3DD0112082F12
:10112300D4DD0112082FFEDD0112082F45DE011266
:10113300082F99DE0112082FF5DE0112082FF6DFC2
:101143000112082F60E10112082F9EE10112082FFE
:10115300C7E10112082F58E20112082FA2E201127F
:10116300082FC6E20112082F19E30112082F34E3F6
:101173000112082FEFE30112082F19E40112082FBF
:101183005CE40112082FB2E40112082FBEE701123A
:10119300082FF1E70112082FAEE80112082F89E9A1
:1011A3000112082F19EA0112082F5AEA0112082F17
:1011B30000800412082F38800412082F598004126B
:1011C300082F9B800412082FFF800412082F098127
:1011D3000412082F19810412082F50810412082FBA
:1011E300F9840412082FC1860412082FB58804124B
:1011F300082F53890412082FDA890412082F7BC29F
:101203000212082F24C30212082F03C40212082F4C
:101213001EC50212082F3EC50212082F60C6021215
:10122300082FFDC70212082F6AC80212082F40C9EF
:101233000212082F46CA0212082FABCA0212082F45
:10124300E7CA0212082F40CB0212082F79CB0212F1
:10125300082FC2CB0212082F54CC0212082FF1CC54
:101263000212082FC6CD0212082F93CE0212082FA6
:1012730020CF0212082F46CF0212082F73CF02127B
:10128300082FA4CF0212082F79D00212082F89D079
:101293000212082FDCD00212082FE9D00212082F05
:1012A300F6D00212082FFFD00212082F63D10212C8
:1012B300082FC1D10212082F0CD20212082F27D2F5
:1012C3000212082F4ED20212082F6BD20212082FDD
:1012D30077D20212082F1BD40212082F34D4021221
:1012E300082FB0D40212082FC3D40212082FD3D46C
:1012F3000212082F79D50212082FE9D60212082FFD
:10130300FCD70212082F9CD80212082FA6D802126B
:10131300082F14D90212082F25D90212082F64D9D5
:101323000212082F92D90212082F5FDA0212082F35
:10133300B6DA0212082FFBDA0212082F51DB02126F
:10134300082F6FDB0212082FBDDB0212082F8BDC84
:101353000212082FD9DC0212082F1BDD0212082FFC
:101363009EDD0212082FC8DD0212082FFEDD0212D5
:10137300082F0DDE0212082F6BDE0212082FE3DEA8
:101383000212082F24DF0212082F73DF0212082F24
:101393009EDF0212082FB8DF0212082FD2DF0212DB
:1013A300082FA7E00212082FB1E00212082FECE089
:1013B3000212082FFCE00212082F4DE10212082F3F
:1013C30061E10212082F7FE20212082F94E2021257
:1013D300082F2EE30212082FADE30212082F50E468
:1013E3000212082F5BE40212082FA8E50212082F4D
:1013F300C4E50212082F1CE60212082F8AE6021225
:10140300082FD6E60212082FF0E60212082F50E743
:101413000212082FEEE70212082F39E80212082FF2
:101423009CEA0212082F34EB0212082FABEB0212D4
:10143300082FF1ED0212082F09EE0212082F0CEE0D
:101443000212082F18EE0212082F2CEE0212082F98
:1014530034EE0212082F6BEE0212082F5FEF021216
:10146300082FE9EF0212082F6BF00212082FE0F0A9
:101473000212082FB8F10212082FDAF10212082F14
:1014830071F20212082F7DF20212082FDAF2021211
:10149300082FDDF20212082F4CF30212082F98F4E2
:1014A3000212082FABF50212082F36F60212082F8C
:1014B30049F70212082F13F80212082F44F80212F8
:1014C300082F6AF80212082F73F80212082FA2F8E5
:1014D3000212082F52F90212082F02FA0212082FE1
:1014E30075FA0212082F27FB0212082F9AFB021229
:1014F300082FD9FB0212082F22FC0212082F48DF03
:101503000312082FB3DF0312082FFFDF0312082F84
:101513004FE00312082FD3E00312082F17E303123F
:10152300082F35E50312082FB5E80312082FF0E85A
:101533000312082F0EE90312082F6EE90312082F76
:1015430096E90312082FC7E90312082FF4E90312DF
:10155300082F5DEA0312082F50D20312082FCCD2B2
:101563000312082FF8D20312082F2AD30312082FCD
:101573008CD40312082FA8D40312082FE6D4031225
:10158300082F73D50312082FCFD50312082F95D632
:101593000312082F54D70312082F99D70312082FC9
:1015A300FAD70312082F6FD80312082F98D8031203
:1015B300082FD9D80312082F80DA0312082F64DB0F
:1015C3000312082F1BDC0312082F08DD0312082F58
:1015D30042DD0312082F9ADD0312082FBCDD03122C
:1015E300082F54DE0312082FFBDE0312082F89BADB
:1015F3000412082FFEBA0412082F5FE30412082F07
:1016030070E30412082F0EE40412082F48D60412C4
:10161300082F56D60412082FEDFF0112082F28E4D5
:101623000412082F38E40412082F53E40412082F7D
:10163300BBE40412082F68E10412082FECE1041242
:10164300082F52E20412082F77A20212082F2CDB74
:101653000412082F99DB0412082FE1DB0412082F70
:101663003ADC0412082F74D20412082F89D2041210
:10167300082FAED20412082FE6D20412082F07D384
:101683000412082F7CD30412082F5DD40412082FF0
:1016930072D40412082F09B70412082F17B70412C3
:1016A300082F90B70412082F65B80412082F71A7EA
:1016B3000212082F26E60412082FC5E40412082F8D
:1016C30009E50412082F0CE50412082F11E5041292
:1016D300082F14E50412082F3DE50412082F40E5F6
:1016E3000412082F5D9B0412082F899B0412082FF4
:1016F3002F9E0412082F869E0412082FC29E0412E6
:10170300082FD69E0412082FEF9E0412082FE09F85
:101713000412082FBCA00412082FD0A00412082F13
:1017230096D90412082FBAD90412082FD3D9041258
:10173300082F11DA0412082F47DA0412082F7ADA75
:101743000412082FE6DA0412082FE9DA0412082F2C
:10175300F3DA0412082F00DB0412082F14C6041254
:10176300082F37C60412082F82C60412082FA0C6FA
:101773000412082FBBC60412082F21C70412082F16
:101783002DC70412082F8AC70412082FAEC70412EC
:10179300082F74C80412082F81C80412082F92C896
:1017A3000412082FE5E50412082FFDE50412082FA3
:1017B30023E60412082F96AA0412082F2CAC041255
:1017C300082F3AAC0412082F4EAC0412082F6BAC4E
:1017D3000412082F80AC0412082F93AC0412082FB4
:1017E30015AD0412082F7AAD0412082F10AE04129F
:1017F300082FE9AE0412082FF9AE0412082F08AF20
:101803000412082F5EFF0312082F82FF0312082F12
:10181300AAFF0312082FD2FF0312082F7DC0041260
:10182300082FE9C00412082F08C10412082F7DC134
:101833000412082F47C30412082F60C30412082F91
:1018430077C30412082F80C30412082F9EC3041207
:10185300082FA8C30412082FB2C30412082FC5C34C
:101863000412082F52C40412082FBBC40412082FF9
:10187300E9C40412082F3AC50412082F86C50412BE
:10188300082FA1C50412082FABC50412082FBCC52D
:101893000412082FFFC50412082FA2FF0112082FFC
:1018A300868A0412082FB28A0412082FD58A0412DA
:1018B300082FE88A0412082F038B0412082F638B66
:1018C3000412082F918B0412082F958F0412082FEE
:1018D300D2900412082F04910412082F6B91041262
:1018E300082FEB920412082F13930412082F289346
:1018F3000412082F38930412082F78930412082F28
:10190300BA930412082FCA930412082FC8DD0412D5
:10191300082FD8DD0412082FFCDD0412082F25DE62
:101923000412082F4FDE0412082F73DE0412082F4F
:101933008ADE0412082FB8DE0412082FDBDE04123D
:10194300082FB67F0012082F57FC0212082F67FCDE
:101953000212082F83FD0212082FB5FD0212082F71
:10196300DBFD0212082F03FE0212082F15FE0212DE
:10197300082F51FE0212082FB7FE0212082FF3FEA2
:101983000212082F38FF0212082F65FF0212082FD8
:1019930091FF0212082F13DF0412082F31DF041204
:1019A300082F93DF0412082F40E00412082F6BE284
:1019B3000412082FF6D70412082F47D90412082F50
:1019C300A8EA0312082F5EEB0312082F83EB03121E
:1019D300082FA3EB0312082FB7EB0312082F13EC06
:1019E3000312082F37EC0312082FB2ED0312082F4E
:1019F300DAEE0312082FB4EF0312082F11F00312CB
:101A0300082F47F00312082FC9F00312082F22F101
:101A13000312082F43F10312082FC5F10312082FF5
:101A2300FAF10312082F5DF20312082F1BF40312BD
:101A3300082FE7F40312082F1FF50312082F73F57D
:101A43000312082F7DD40412082F9ED40412082FEA
:101A5300D1D50412082FFBD50412082FC0C80412D5
:101A6300082F34C90412082F3FC90412082F60C974
:101A73000412082F38710012082F3B710012082F2F
:101A83000D720012082F49720012082F897200127A
:101A9300082FBB720012082FE9720012082F267359
:101AA3000012082F54730012082F52740012082FCB
:101AB30099740012082FDB740012082F547500125A
:101AC300082FF1750012082F14760012082F7E7666
:101AD3000012082FEC770012082FA4780012082FA9
:101AE30091790012082F7E7A0012082F377B00129B
:101AF300082F6C7B0012082FD87B0012082F737CF1
:101B03000012082FA17C0012082F497E0012082F13
:101B1300C77E0012082F077F0012082F50D004122F
:101B2300082F73D00412082F64D10412082F44D253
:101B33000412082F79DC0412082FAFDC0412082FDB
:101B4300CBDC0412082F0DDD0412082F1DDD041257
:101B5300082FB0DD0412082FBADD0412082FBDDDF3
:101B63000412082F87F50312082F91F50312082F8B
:101B7300D8F50312082F41F60312082F62F6031259
:101B8300082F7BF60312082F2DF70312082F97F95E
:101B93000312082FA0F90312082FF1F90312082FDB
:101BA30027FA0312082F3EFA0312082FABFA031287
:101BB300082F3BFB0312082F71FB0312082FBAFBFC
:101BC3000312082F1BFC0312082F55FC0312082FC6
:101BD300BDFC0312082F10FD0312082F53FD03123F
:101BE300082F90FD0312082FA2FD0312082FB4FD46
:101BF3000312082FD3FD0312082FDCFD0312082F55
:101C0300A1FE0312082FEDFE0312082F2BFF031270
:101C1300082FE4A00412082F2AA20412082F53A2AB
:101C23000412082F64A20412082F7CA40412082FA4
:101C33009CA40412082F47E50412082F0CCE0412AB
:101C4300082F42CE0412082F91CE0412082FEDCF95
:101C53000412082F34B00312082F72B10312082F95
:101C6300AEB10312082F7DB30312082FA7B30312DB
:101C7300082F3EB60312082F7EB60312082F14B89E
:101C83000312082FA9B80312082F07B90312082F4C
:101C93008DB90312082FC5B90312082F07BA03120F
:101CA300082F78BB0312082FFCBC0312082F25BF93
:101CB3000312082F53BF0312082F7FBF0312082FED
:101CC30088BF0312082FDEBF0312082F6EC0031252
:101CD300082F71C30312082FF3C30312082FEAE678
:101CE3000412082F00E70412082F39AF0412082F3B
:101CF30052AF0412082FF7AF0412082F37B00412A3
:101D0300082F50B00412082F83B00412082FD0B04C
:101D13000412082F04B10412082F46B10412082F2D
:101D23002FB30412082F55E00412082FC7E0041242
:101D3300082F05E10412082F46E10412082F008042
:101D43000312082F58800312082FE5800312082F6F
:101D5300ED810312082FC7820312082F6E8303122B
:101D6300082FBA830312082F13840312082F6884E1
:101D73000312082FD7840312082F70870312082F2A
:101D8300F3870312082F2A880312082F738803127C
:101D9300082F5F8A0312082FDA8A0312082FAD8BEC
:101DA3000312082FE68B0312082F058C0312082F4A
:101DB300508C0312082F668C0312082F738C0312A6
:101DC300082FAC8C0312082FBE8C0312082F8B8DA7
:101DD3000312082F968D0312082FE68D0312082F86
:101DE300398E0312082F788E0312082F968F031251
:101DF300082FEE910312082F1F920312082F2B9323
:101E03000312082F4F930312082FC4930312082FB2
:101E13008E940312082FD0940312082F3A950312BD
:101E2300082FEE950312082F18960312082F2296F7
:101E33000312082F2C960312082F2F960312082F34
:101E4300A7960312082FE0960312082FF3960312A6
:101E5300082F20970312082F5B970312082F5E9712
:101E63000312082F8D970312082FA7970312082F29
:101E7300C2970312082FF1970312082F1198031228
:101E8300082F4E980312082F89980312082F92994E
:101E93000312082F97E50412082FAFE50412082F49
:101EA300FA7F0012082FFA930412082F49940412A0
:101EB300082F07960412082FDB970412082F19988E
:101EC3000412082F24990412082F2E9A0412082FA3
:101ED300509A0412082FAC9A0412082F2D9B041257
:101EE300082FF19A0312082F149B0312082F0E9C3C
:101EF3000312082F579C0312082FB29C0312082FBA
:101F0300109D0312082F619D0312082FC69D031213
:101F1300082F4D9E0312082FC59E0312082F0A9FF8
:101F23000312082F79A30312082FA9A50312082F60
:101F3300E2A50312082F21A60312082F83A7031279
:101F4300082F86A70312082F4DA80312082F98A95C
:101F53000312082F9EAB0312082F4AAC0312082F5B
:101F630059AD0312082FC9AD0312082F0DAF031289
:101F7300082F70AF0312082F1BEB0112082FB6EBCB
:101F83000112082F29EC0112082F39EC0112082F36
:101F9300C1EC0112082F1DED0112082F58EE01129A
:101FA300082F7CEE0112082FF3EE0112082F44EFE5
:101FB3000112082FA2EF0112082FFDEF0112082FC3
:101FC300AAF20112082FA1F30112082F17F401122C
:101FD300082FEEF50112082F91F60112082F4AF788
:101FE3000112082FAFF70112082F1EF80112082F54
:101FF30041F90112082F07FB0112082F27FC0112D8
:10200300082FB4FC0112082F24FD0112082F36FEFD
:102013000112082F50C40312082FB9C40312082F4A
:1020230001C50312082F54C50312082FBAC50312A2
:10203300082F1CC60312082F91C60312082FC8C706
:102043000312082FF0C70312082FDCC80312082F4E
:10205300EDC80312082F05C90312082FF8C903128C
:10206300082F27CA0312082FE5CA0312082F09CB2A
:102073000312082F20CB0312082F3ACB0312082F89
:102083005ECB0312082F38CC0312082F92CC031215
:10209300082F79CD0312082FDFCD0312082F18CE96
:1020A3000312082F1DCE0312082F68CE0312082F28
:1020B3006ACF0312082F55D00312082FF7D003124B
:1020C300082F64D10312082F79D10312082F1AD2D3
:1020D3000312082F9DBD0412082F50BE0412082FAF
:1020E3000FBF0412082F77BF0412082FEBBF04128F
:1020F300082F3CB30412082F5AB30412082F9EB3BF
:102103000412082FC4B30412082FE6B30412082FD5
:10211300FEB30412082F16B40412082F2EB40412AF
:10212300082FD8B40412082F1AB50412082F24B5A7
:102133000412082F39B60412082F42B60412082FCE
:102143004BB60412082F54B60412082F5EB60412BD
:10215300082FF0A50412082F1CAA0412082F2AAA7C
:102163000412082F2FAA0412082F92CC0412082F4E
:1021730095E60412082F5EE60412082FC1E6041246
:10218300082F0AE70412082F63A20212082F4FA296
:102193000212082F8CA10212082FD9A00212082FB5
:1021A300889E0212082F5D9E0212082FFE9D0212C6
:1021B300082F6F9C0212082FFD9B0212082FC09B51
:1021C3000212082F559B0212082F1A9B0212082F86
:1021D300B0990212082F36990212082F739802122F
:1021E300082F69970212082F20970212082FFA96D8
:1021F3000212082F36960212082F80940212082F1B
:1022030020940212082FF1930212082FEE93021268
:10221300082FD9930212082F10A70212082FB7A66E
:102223000212082F3EA60212082F14A60212082F2C
:10223300D6A50212082F81A50212082F9693021227
:10224300082F7D930212082F85920212082F4492C1
:102253000212082F7CA40212082F11920212082FD7
:10226300A5910212082F72910212082F17910212E0
:10227300082FE3A20212082FE6900212082F24BAB5
:102283000412082FAF8D0212082FC18C0212082FDF
:102293007B8B0212082F278B0212082F1B8B021233
:1022A300082F828A0212082F50890212082FAB8648
:1022B3000212082F4E840212082F02840212082FE2
:1022C300E7820212082F7C820212082FA4810212D5
:1022D300082F6B800212082FB3A20212082F32803C
:1022E3000212082F00800212082F0ADB04000000EC
:1022F30080FB0001363601010001020100010301E8
:10230300000104010606050200000701003408016C
:10231300000F090401010D0100FF0E080000170260
:102323000000190100FF1A0100011B0100FE1C013E
:1023330000081D0200001F0100012001000121020D
:1023430000002301000F24020000260100012701E1
:102353000008280200FF2A0100072B0102402C017C
:1023630000002D0100012E0100012F0100FF3001AB
:102373000B1C310800003A0100083B01000F3C012F
:1023830000013D0100FF3E0400004204000046043A
:1023930000004A0400004E040000520400005604EA
:1023A30000005A0400005E20FFFF36000100060013
:1023B30000000F000000000000000000000000000B
:1023C30003FFFF00000403FFFF0000FFFF0FF40102
:1023D3000005C4040320000100000B0000000000FE
:1023E30000000003010F00000000000000000000D7
:1023F30000000000000000000000000000000000DA
:1024030000000000000000000000000000000000C9
:1024130000000000000000000000000000000000B9
:102423000000000000000000010371030103010329
:102433000103010301032203020301031003000349
:10244300000300030003000300030003420300032F
:1024530024030603000300030403120325032303D9
:1024630025032303040304030003000300034403BD
:1024730000030003230300036503210035038103E5
:1024830000030503000300030003000325032303E4
:1024930003047104020460041104700402040204BE
:1024A30001040204100461040004140463047304AB
:1024B30072046204430400041304060400040004C9
:1024C3000404120400040004000400045104640022
:1024D3000004000400044404000400040004000495
:1024E30065040004350481046400050400048304C6
:1024F3000004030271023001600211027002010242
:10250300020202028002100261023A0041006302E9
:1025130073027202620243020002130238000002D5
:10252300000204021202000200020002000204027E
:102533000402370037003C02440200023900000263
:1025430000026502000235028102000205028202D6
:10255300830200020300710030016000110070006B
:1025630031022003500480001000610000001400B9
:102573006300730072006200430000001300060052
:102583000000000004001200000000000000000032
:1025930004000400370037003C0244000000000040
:1025A3000000000065000000350081000000050008
:1025B300000083000000010171010101010111010B
:1025C30001013101010101018001100161013B00A1
:1025D30014006301730172016201430100011301DD
:1025E30006013D0135000401120100010001000153
:1025F300000104010401330133013C0144013201B0
:102603003600000100016501000135008101000170
:1026130005018201830100010000BA1F13004E1F50
:102623000100BA1F0200001F0300061F04000C1F55
:102633000500121F06001E1F1100421F1400481F31
:102643001500301F1F00361FFFFF000001BC0E06E0
:10265300E60E08E00E0BFE0E10320E02C20E05D47B
:102663000E07C80E0CA40E0DB00E64700CFF000014
:1026730007ECFDFDFDECDCDCCCBCACAC9C9C8C7CA9
:102683007C6C6C5C5C5C4C4C3C3C2C2C1C1C03EA52
:10269300F5E5D5D5C5B5A595958585757565655557
:1026A3005545453535252515150500160F00000B35
:1026B300150B020002220F3300000E5A69674265B0
:1026C30065416C6C69616E63653039010305070907
:1026D3000B0D0F00020406080A0C0D3030171819F1
:1026E30021301B1D1F30303016181920231A1C1ED1
:1026F3003000393D3F373C3C362C442D00034A49DA
:10270300434E181A25050200011916181616182328
:1027130003000C0E020B040B0A0708000F0204024D
:10272300010101010902000000000000E8030000AC
:1027330000BE040A3C00000000003C007F00E803E8
:102743000E000A0305080910040008FF1E1E0C05ED
:10275300280903040400081501030CC082C083790F
:1027630000EA1229633BF583C082C08390034212BF
:102773006E68D083D082C3E09CA3E09D500CEA2412
:102783000B1227B0122790600109023F2BEA75F064
:102793000BA4FAA8F075F00BEBA428FB900344E01C
:1027A3002AF8A3E03B8882F583E0540F22F582E404
:1027B3003B1250612274F712038189081246FAA36F
:1027C300E0F9E875F00BA4F8ACF075F00BE9A42C74
:1027D3001229DEE8FEE9FF740165086006740265EC
:1027E3000870228A828B83122D0A74026508702175
:1027F300EA2403FA50010B120BC8E970148E828F7E
:1028030083E4F0800CEA2403FCE43B122D01120B59
:10281300C28E828F83E0D2E7F0121E340243B67475
:10282300F4120381122DC479008E828F83E06075C8
:10283300890A890B8064E50A75F00BA4FAA8F07580
:10284300F00BE50B12279C7049E50A75F00BA4F811
:10285300AAF075F00BE50B1229BF8E828F83E085FA
:102863000882850983123EDF122C81EE2403FCE4E7
:102873003F122956120BC2124535125A921237A72C
:10288300D2E7F0121E347901900342E0F50AA3E087
:10289300F50B050AE50A7002050B122BDDE50A9A12
:1028A300E50B9B40910249E874F5120381EAFEEBC4
:1028B300FF750A01740B120B011233AEEC4D601558
:1028C300EC1229633D122DD27901120BAAE50845BA
:1028D3000960758023E508450960441229613509BB
:1028E300122DD2122957120BC8E96401701BEEFA9C
:1028F300EFFB120BB0E9F50A850882850983122CD8
:10290300797902AA08AB098011122D02120BC8E9CA
:10291300640170347903EEFAEFFB120BAA80298E5F
:10292300828F83A3E064FE7003A3E0F4700B122D87
:1029330002120BC8E96401700CEEFAEFFB120BB044
:10294300E9F50A8003750A0002323AE50A2403FC1A
:10295300E4350BFDE5082403FAE43509FB22E50819
:10296300125E972274F7120381900342124652EAD1
:102973004B602FEA75F00BA4FAA8F075F00BEBA4EB
:1029830028FBEAFEEBFF121C4890034412465290C8
:10299300034412504C6012EEFCEFFD7900121B76DB
:1029A3008007900344E4F0A3F00243B6F902314DEB
:1029B300E875F00BA4F8AAF075F00BE9A42AF990D6
:1029C3000344E028F508A3E039F50922F9E875F096
:1029D3000BA4F8AAF075F00BE9A42AF9900344E0DC
:1029E30028F8A3E039F92290034212439DC3EE98DD
:1029F300EF9922C082C083EC4D6005121D38800917
:102A03007C087D007900121B76023F2B74F61203BB
:102A1300817900EA4B60177800EA28F582E41257BF
:102A2300A960047901780808E8C3940840EB0231EF
:102A33004D74F712038174F312090EECFEEDFF855A
:102A43001882851983E4F004120B01EAF0A3EB1258
:102A5300438F120BE67403120B01AC82AD83EEFAC3
:102A6300EFFB120BC2EEFAEFFB120BC80243B17479
:102A7300F712038174F312090EECFEEDFF85188241
:102A8300851983E4F0EAFCEBFD7403120B01AA82BF
:102A9300AB83120BC2AA18AB19120BEC7401120B05
:102AA30001123EEC8E828F8312438074FE687003A2
:102AB30074FF6960047901800279000243B174F7FD
:102AC300120381EAFEEBFF120BA4E9F5087401651A
:102AD300087011122B2AF4FA88828983E05A448001
:102AE300F0121E3402371C74F7120381EAFEEBFF67
:102AF3007508008E828F83E0602A120BA4E9F50823
:102B030074016508701E122B2AFA88828983E05AA1
:102B130070128E828F83E04480FA88828983E04A30
:102B2300F0121E3402371C1245391238F41229CF21
:102B33008E828F83E02274F41203818A088B097CCE
:102B4300007D00EA122959120BC2E508122C9B7969
:102B530000850882850983A3E064FE7003A3E0F483
:102B630060757E007F008066EEFAEFFB12279060AF
:102B730058EEFAEFFBEA75F00BA4FAA8F075F00B28
:102B8300EBA428FB900344E02AF50AA3E03BF50BF2
:102B9300850882850983A3125784850A82850B835E
:102BA300A3E06A7003A3E06B701FE50A2403FAE451
:102BB300350BFB120BC8E96401700612294E120B88
:102BC300C2122C907901126C9C0EEE70010F122B25
:102BD300DDEE9AEF9B40910249E890034212506365
:102BE300C32274F31203818A088B098A828B8312AE
:102BF3002C79EA122C9B750C00EA122959120BC886
:102C0300E96401706A7E007F00805FEEF8EFF9E807
:102C130075F00BA4F8AAF075F00BE9A42AF9900358
:102C230044126D0EE0540F603CEEF8EFF9E875F0D6
:102C33000BA4F8AAF075F00BE9A42AF9900344E079
:102C430028F50AA3E039F50B12294E121D32E96467
:102C5300017012850A82850B83122C81122C9075C8
:102C63000C01126C9C0EEE70010F1229EA409CA914
:102C73000C7F050205DFA374FEF0A304F022A31268
:102C8300439D850882850983A3123C0822E5081227
:102C93002CA5EEF0A3EFF022122CA574FEF0A304F2
:102CA300F022125E9B3509F5832274F5120381EA43
:102CB300FEEBFF8E828F83122C797C007D00122D18
:102CC30002120BC2EEFAEFFB120BA4E9F50A740130
:102CD300650A70271243961229B3850882F5831279
:102CE3002D0A122957120BC8E96401700EE5082456
:102CF30003FCE43509122D01120BC202323AFDEE38
:102D03002403FAE43FFB22A312578E123C082274D9
:102D1300F212038174E612090E122DC4750C0175AB
:102D23000800750900750A00750B0085188285195E
:102D330083E4F0EE2403FCE43FFD7403120B01AAC9
:102D430082AB83120BC2AA18AB19120BECE9640114
:102D5300701F740B120B01122DD47401120B01128C
:102D630057887003A3E069604AA818A919880889DD
:102D730009740D120B01123EDEA3123EEC740E1207
:102D83000B01124380740D1208E8120BE6E964018B
:102D93007009740D1208E0880A890B780A12084C2E
:102DA300AC08AD09EEFAEFFB120BB6740212087A07
:102DB300E9F50CEEFAEFFB120BE0A90C741A0256BC
:102DC300E4EAFEEBFF12453974FEF0A304F022F5AA
:102DD300831238F4F9124539123C0822C082C083A9
:102DE30078007900800508E8700109122BDDE89A64
:102DF300E99B5029E8FAE9FBEA75F00BA4FAACF079
:102E030075F00BEBA42CFB900344E02AFCA3E03BFE
:102E13008C82F583E0540F70CD7900800279010232
:102E23003F2BC082C08390275AE49375F016A4FC0D
:102E3300ADF079FF7A927B08121B76023F2B74F672
:102E4300120381EAF87508007D008012ED12579B8A
:102E5300C3994009E0FAE8C39A400205080D902798
:102E63005AE493FAEDC39A40E3AA087B0002314D7A
:102E730074F012038174F312090E8A0C8B0D8C0803
:102E83008D09890AEC45096016AA08AB09120C34AE
:102E93008A0E8B0FAE0EAF0FEE4F6003022F667BD1
:102EA3000080010B125A88500F12300E70F5749285
:102EB30028FE740839FF80047E007F00EE4F700304
:102EC300022FBA90273B122FE160217403650A6039
:102ED300067404650A70157A047903120C0A9027A4
:102EE3005AE493FC90273B122FE75029902739127D
:102EF3002FE160287401650A60067402650A701C7C
:102F03007A027901120C0A90275AE493FC9027392C
:102F1300122FE740077A007B00022FDE8518828597
:102F230019837401F0120B01E50CF0A3E50DF0AC6D
:102F330008AD097403120B01AA82AB83120BC2AA58
:102F430018AB19120BF8740B120B01123C018E8291
:102F53008F83A3A3A3A3A3A3E4126E64AA0CAB0D54
:102F63001211147800E50A6007C39405500278042F
:102F73008E828F83E50CF0A3E50D126448E50AF019
:102F8300E88E828F83A3A3A3A3A3125A99500109A6
:102F93007A027B001202311233F4A31256C4A31235
:102FA3003438E50A600DC3940350081233C3122F5B
:102FB300FF80031233DAF07A047900120C0A8A08CC
:102FC30090275AE493FAC3E5089AEB9400400590DE
:102FD3000FC0E4F0120FEEEEFAEFFB023398122F5C
:102FE300F7E84922122FF7ECC398F8E499F9C3EAFA
:102FF30098EB9922E493F8740193F922F9EE2414DF
:10300300F582E43FF583E8F0A3E922EB75F016A41B
:10301300F8A9F012342DF42274F212038174F3121E
:10302300090E8A088B09ECFEEDFF750A00EEFAEF34
:10303300FB120C348A0C8B0DA80CA90DE849700304
:103043000230DF88828983E065087004A3E06509A4
:1030530070030230DF88828983A3A3A3A3E0C39410
:10306300055079888289831262C81247B6E06034BA
:1030730088828983A3A3A3A3E0C394035026902744
:1030830037E493FA740193FB12362E90273DE493B1
:10309300FA740193FBE82414F582E439F583EAF02A
:1030A300A3EB800DE824121230E6F0E8241412306A
:1030B300E6F08518828519837401F0120B01126200
:1030C300C8F0EEFCEFFD7403120B01AA82AB83126E
:1030D3000BC2AA18AB19120BF8750A01A90A740DD1
:1030E3000256E4F582E439F58374FEF0A3042274F6
:1030F300F6120381120C2E8A088B09A808A909E885
:1031030049601488828983A3A3A3A3E06009C394BD
:10311300055004790180027900802F74F61203812F
:10312300120C2E8A088B09A808A909E8496014889B
:10313300828983A3A3A3A3E06009C3940350047902
:103143000180027900800312087A7F020205DF748E
:10315300F6120381120C2E8A828B83E582458360EB
:103163000BA3A3A3A3E0700479018002790080DAA2
:10317300C082C083EAFCEBFD7A007B00023F28C0DB
:1031830082C0837C007D00023F2874F512038174A2
:10319300F312090EEAFEEBFF8C088D09C3EC94F8D9
:1031A300ED94FF4004EE4F606A750A00801974FFC6
:1031B3006508700474FF6509600B1265C57004A38C
:1031C300E06509603B050A90275AE493F8E50AC3D2
:1031D300985040E50A12300F60EBEE4F60D0123288
:1031E30021120B0112438B120BF2E960D874031204
:1031F3000B01AC82AD83EEFAEFFB121D32E960C521
:10320300E50A75F016A4F8A9F0749228FA7408393F
:10321300FB80047A007B00740D12087A801B8518EA
:10322300828519837401F0749428F582740839F542
:103233008312439D740B22A90A7F030205DF74F4F2
:1032430012038174F312090E750800120C348A0AF2
:103253008B0BAE0AAF0BEE4F601F1232A412323447
:10326300120B0112438B120BDA7C167D0079FFEEF1
:10327300FAEFFB121B767508017A047900120C0A27
:103283008A0A90275AE493FAC3E50A9AEB9400500A
:1032930009900FC07401F0120FEEA908740D0249D2
:1032A300E58518828519837401F08E828F83A3A329
:1032B3002274F7120381E9FC74FE6A700374FF6BD6
:1032C3007D007003802C0D1233165026ED12300F43
:1032D30060F41270A96A7003A3E06B70E98012EDC9
:1032E30075F016A4F8A9F012709C6018E0640360EE
:1032F300130D1233165015EC60E512342160F2C33E
:10330300940550ED12680912578180047AFE7BFF01
:103313000243B690275AE493F8EDC39822120C4661
:10332300023F2BC082C083790180F274F0120381C3
:103333008A0A8B0B7A047901120C0A8A0C8B0DEA28
:10334300450D6040EA2AFAEB33FB121C488A088BCE
:1033530009AE08AF09EE4F60267AFE7BFF120C4CD4
:1033630074FE6A700374FF6B601E8508828509838F
:10337300124652E5082402F50850E2050980DE757D
:103383000C0080047E007F00850A82850B83E50C98
:103393001245868005740D12087A7F080205DFE462
:1033A30093F8ECC39822126E6CEC22E0F508A3E0CC
:1033B300F5092212087A7F0C0205DF7F070205DF79
:1033C300902737122FF7EE126800123C0890273D22
:1033D300E493F874019322EE24121233E8F0EE24FE
:1033E300141233E822F582E43FF58374FEF0A3045C
:1033F30022E88E828F83A3A3A3A3A3A3A3A3123440
:10340300197401123419A374AAF0EE2410F582E49E
:103413003FF583E4F02212646BA3A3A3A322ED750B
:10342300F016A4F8A9F012342D22749628F58274AC
:1034330008126F5822A3F0124539E4F0EE240CF57C
:1034430082E43FF583E4F0A3F0A3F0A3F022C0826B
:10345300C0837D008009EA24FF1AEB34FFFB0D12C1
:1034630033165016123421C3940550F2EA4B70E61A
:10347300749228FA740839FB80047A007B00023FB7
:103483002B74F712038174F312090E7E0002351CAC
:10349300EF75F017A4F8A9F012707F12586A75F04F
:1034A30016A4FAABF074922AF5827408125ABC700F
:1034B30003A3E0696040EF75F017A4F8AAF0EAF9F6
:1034C30012707F39F583123EEC7401120B01E06830
:1034D3007003A3E069601FEF75F017A4F8EAF974AD
:1034E3006228FC740A39FD7403120B01AA82AB83B0
:1034F300121D32E96013EF75F017A4F8A9F0746098
:1035030028FA740A39FB1211200F90274AE493F822
:10351300EFC39850030234930E90275A126BEE5068
:103523001FEE1270A2F47003A3E0F460EB123221D9
:10353300120B0112438B120BF2E960DC7F0080CA8D
:103543000243B174F712038174F312090E90041548
:1035530012504C70030235F2750800802BE5087594
:10356300F016A4F8EAF974A628F5827408126F54C9
:1035730064FE7003A3E0F4600D74A428F58274085C
:1035830039F5831256DA050890275A1256A3505F6D
:10359300E50875F016A4F8AAF0EAF912342960E6F2
:1035A300C3940350E174A428F5827408125049703F
:1035B300ACE50875F016A4F8EAF9749228F87408D3
:1035C30039F9E8FEE9FF1236901236861204F91231
:1035D30032A4123234120B0112438B120BF2E96044
:1035E300A57403120B01AA82AB83120C40809702CD
:1035F30043B174F6120381120C2E8A088B09A808B2
:10360300A909E849602088828983A3A3A3A3E06072
:1036130011C39403500CE82414F582E41257811269
:10362300362E79018002790002314DE82412F582A9
:10363300E439F583EAF0A3EBF02274F7120381EA8D
:10364300FEEBFF90040F12504C60309004151250A3
:103653004C602890041912504C602012694A1204DD
:10366300F9E970171236811204F9E96401700C8EBE
:10367300828F83A3A31269371204F90243B6123669
:1036830090A3A31250639004151269412290273D21
:10369300E493FC740193FD8E828F8322C082C083E6
:1036A30090034F74CEF0A3740EF0023F2B74F71205
:1036B3000381EAFEEBFF900385E06408601CE0648D
:1036C3000460178E828F83E05403640170411254A7
:1036D3003CF8123721E0640670358E828F83A3A3F2
:1036E300E064FE7003A3E0F460258E828F83A3A3BE
:1036F300125E7D7003A3E0697008EE2415125E72FA
:103703006005120F828003120F88E9F508800375A4
:1037130008C2EEFAEFFB121C4EA9080243B6A3E05F
:10372300F58388822274F41203818A088B09123884
:10373300F0FAE82AFAE43400FB121C488A0A8B0BDD
:10374300AE0AAF0BEE4F6055850882850983E0FC16
:103753007D007900121B768E828F83A3122C79123F
:103763000FBE8E828F83A3A3A3A3EAF0A3EB12372A
:10377300A7F8EE28F8E43F122DD785088285098340
:10378300A3E0C0E0125A7ED0E0F0120FD0125A74B8
:10379300E9123BE4E0C0E0123BDAD0E0F0EEFAEFEE
:1037A300FB0249E8F0850882850983E02274F4125C
:1037B300038174E812090E8A088B098C0A8D0BE9C0
:1037C300FE900385E064046005E06408700479C238
:1037D300803CA37808120A98EE90038C12391E12CB
:1037E3001B768518828519837808120A9874051246
:1037F3000B01EEF07404120B017401F07407120B49
:1038030001E4F0900385740212438F12211C0249D4
:10381300E374F412038174E812090EEAFEEBFF90DD
:10382300034612504C60030238EB7A077B00121CEC
:103833004890034612465290034612504C700302BE
:1038430038E78E828F83120ADE900346E0FCA3E002
:10385300F5838C82120AD2EE2404F50AE43FF50BB9
:10386300850A82F583E0C0E0900346125020A3A3AB
:10387300A3D0E0F0EE2405F508E43FF509850882BE
:10388300F583E0C0E090034612502ED0E01243854A
:10389300C0E09003461238F4C82406F582E438F5F4
:1038A30083D0E012391E121B768E828F83120ADEBA
:1038B300851882851983120AD2850A82850B83E0D3
:1038C300C0E07405120B01D0E01237A7C0E0740406
:1038D300120B01D0E0F07407120B01E412438F12B4
:1038E300211C80067910800279010249E38A828BC8
:1038F30083E0F8A3E022C082C08390034612504CB9
:103903006010900346125784121C4E900346E4F055
:10391300A3F0120EF81210C0023F2BF07C187D00AA
:103923007900AA18AB1922C082C08390034AE070C1
:1039330003121F3C120CA0023F2B74F01203819060
:10394300034AE0900FBF700FE060057900121DFE7F
:10395300900FBFE4F0804AE06401600890034AE0FE
:10396300F9121DFE900FBF7401F090034AE0F4605A
:1039730030E0F50CE4F50DF50EF50FF09081B2781B
:1039830008120AB6780C7908120292780C120844CD
:103993007A807B009003D0E0F9121D0274041208B0
:1039A3007A7ABF7B0F794112210402339D74F4129A
:1039B300038174E812090E8A088B098C0A8D0BE9BE
:1039C300FE900385740112391E121B7685188285B9
:1039D30019837808120A987405120B01EEF0740427
:1039E300120B017403F07407120B01E412438F12DC
:1039F300211C0249E374F71203817C01120CB80203
:103A030043B674F71203817C0080F174F0120381D2
:103A130074FC12090EE9851882851983F0EAFEEB1E
:103A2300FF8C0A126E65120EEC8A088B09EA4509AF
:103A3300700579CA023BD58A828B83A3A3A3A3A370
:103A4300A3A3E064FE7003A3E0F4700579C3023B13
:103A5300D5120FBE8A0C8B0DA80CA90D8508828583
:103A63000983A3A3A3A3A3A3A3E0687003A3E069AB
:103A7300700579C2023BD5900383123EEC85088220
:103A8300850983E0687003A3E06960128508828575
:103A93000983123D51AA08AB0979501221049003FE
:103AA30083125784121126850882850983A3A3A351
:103AB300A3A3A3A3A3A3A3E004900396123D3D12E3
:103AC3001D387402120B017402F0141208E812106C
:103AD300248A0C8B0DAE0CAF0DEE4F7003023BCB63
:103AE30012496C7406F0A3A882A983900370125B39
:103AF300AA125419120FB8124649EE241312541C79
:103B0300125A6A7440F0A3E4123BE4A3A3A3A3A351
:103B1300123C01123BDAE50A124586120C7CE9F5E8
:103B23000B6003023BCE9003857409F0E50824077C
:103B3300FEE43509FFEEFAEFFB794B1221048E8286
:103B43008F83123D47900378E0F8851882851983A7
:103B5300E068600CE090037812438F79E11221044E
:103B6300901023123EEC901025E0687003A3E069E7
:103B73006028900348124380901025125784120F37
:103B8300E8123BEE780C1208447A017B009003D0D4
:103B9300E0F9121D02740412087A7A007B04900380
:103BA300D0E0F9121D0E123BEE7402780C1207C915
:103BB300780C1208447A007B049003D0E0F9121DBC
:103BC30002740412087A8003750B10900E9DE4F0C2
:103BD300A90B740402339AEE2411F582E43FF583B2
:103BE30022F0850882850983A3A322901025E0F59E
:103BF30008A3E085080CF50DE4F50EF50F22125A23
:103C0300B4123C0822E8F0A3E9F02274F61203810F
:103C130074E212090E851882851983ECF0A3EDF086
:103C2300EAFEEBFF8908900385E064046005E06425
:103C330008700579C2023D387429120B01E064FE55
:103C43007003A3E0F4700579C3023D387C197D004D
:103C5300790074051208E8121B7690038574031229
:103C6300438F795012210474291208E8794B1221E9
:103C730004851882851983123D51E508900378F075
:103C83007429120B01123D477428120B01E0F50948
:103C9300900370123D3D121D3874CE55094480C007
:103CA300E0741D120B01D0E0F0742B120B01E00441
:103CB300900396F0741A120B017402F07429120B1C
:103CC30001123EEC7412120B01E8F0A3E9123EE577
:103CD300741B120B011243807410120B01E508F0E0
:103CE300740D120B01E4F090038B740FF07A8B7B4D
:103CF30003795412210490038A740FF07A8A7B03A8
:103D0300794712210490038AE0C3940F501F741063
:103D1300120B01E0C0E07402120B01D0E0F0740456
:103D2300120B017401F0041208E812212874051221
:103D330008E812210A741E02314AF0EEFCEFFD7A04
:103D4300977B032212439D900379123C0822126849
:103D53002A123C082274F7120381EB90038DF012B0
:103D63000EDA0243B674F712038174E912090EEAFC
:103D7300FEEBFF7508008E828F83A3A3A3E0C0E050
:103D83007406120B01D0E01232ACE0C0E0740812EA
:103D93000B01D0E0F07409120B017401123EDF1223
:103DA300504C600D8E828F83125784120BC8E970BA
:103DB300357407120B01E4F0120FB87404120B01EF
:103DC300124652900385E06404700E120FC474020D
:103DD300120B01EAF0A3EB80487402120B0174FD8D
:103DE300F0A374FF803BAC18AD198E828F831257FA
:103DF30084120BD48E828F83A3A3A3A3E0703074A9
:103E030007120B017401123EE57402120B011243F7
:103E1300808E828F83123EEC7404120B01E8F0A3B0
:103E2300E9F074021208E812100CE9F508803E125A
:103E33003EE6740A120B011243807414120B011232
:103E430032AAA3E0C0E07415120B01D0E0F074169F
:103E5300120B01123EDE126E68740C120B01AA8261
:103E6300AB83121D38740A1208E8121E16A90874CF
:103E7300170243B374F712038174F812090EEAFEB2
:103E8300EBFF7900900385E064086005E06404704B
:103E93004585188285198374FDF0A374FFF0120F12
:103EA300B87402120B011246527405120B01123E32
:103EB300DEA3E0C0E07404120B01D0E0123EDFE0A9
:103EC300C0E07406120B01D0E0F07407120B01E49A
:103ED30012438F12100C74080243B3E4F08E828FE6
:103EE3008322F085188285198312439D22C082C0E4
:103EF300839003577484F0A3740DF09003FD7466EC
:103F0300F0A37410F090035B74BAF0A3740DF090F7
:103F1300035D7484F0A3740DF090035F74C0F0A389
:103F2300740DF08003120C3AD083D08202082C74F3
:103F3300F412038174F912090E8A088B098C0A8D15
:103F43000B8518828519837808120A987404120B5A
:103F530001E9F07405120B01E4F07406120B01E49D
:103F630012438F120C8E74070249E574F512038114
:103F73008A088B098A828B83126C9FEE4F7003022F
:103F8300412690031412504C60158A828B83A3A39D
:103F9300E0F9EEFAEFFB9003151237221204F98EC3
:103FA300828F83A3A3A3A3A3A3A3A3A3E064026019
:103FB3000302408F8E828F83A3A3A3A3A3A3E05402
:103FC3000270030240B3850882850983A3A3E064DA
:103FD300E970030240B3850882850983A3A3E064E3
:103FE300CD70030240B3850882850983A3A3E064EF
:103FF300F070030240B38E828F83A3A3A3A3A3A372
:10400300A3A3A3A3E0701690103BE0048E828F83DA
:10401300A3A3A3A3A3A3A3A3A3A3F0801012413735
:1040230012103CE970077A307B01121EA0850882CA
:10403300850983A3A3E0701F750A0080097A367B84
:1040430001121EA0050A850882850983A3A3A3E0A4
:10405300F8E50AC39840E68E828F83A3A3A3A3A3A4
:10406300A3A3A312645FA3A3A3A37404F090103CBF
:10407300125AAEE8124129121D14EA4B4C4D700C32
:104083007A207B009003D0E0F9121BD68E828F83B7
:10409300A3A3A3A3A3A3A3A3A3E0640260128E829A
:1040A3008F83A3A3A3A3A3A3A3A3A3E06406707313
:1040B3008E828F83A3A3A3A3A3A3E0A2E05064856E
:1040C3000882850983A3A3E0F9EEFAEFFB121648F1
:1040D3008E828F83A3A3A3A3A3A3E054FEF0124174
:1040E3003712103CE9850882850983A3A3702AE06F
:1040F30070237A2F7B01121EA07E0085088285091A
:1041030083A3A3A3E0F8EEC39850187A367B011279
:104113001EA00E80E67A318005E070077A2D7B01C0
:10412300121EA002323CF0A3E9F07A207B00900338
:10413300D0E0F9228E828F83126941125063227478
:10414300EC12038174DB12090EEAFEEBFF8C108D77
:1041530011750E0074051208F0120B4A7412120B3B
:1041630001E070087415120B01E060207405120B56
:1041730001E0A2E6501B8E828F83A3A3A3A3A3A374
:10418300A3A3A312578412103CE960057A350242B7
:104193008B7405120B01E0540C64047005750D015A
:1041A3008003750D00E0A2E55030750E01E50DA208
:1041B300E04027120FBE8A088B09A808A9091254E8
:1041C3003C687003A3E069601174051208F0125E85
:1041D3008C1221A6E960030242897405120B01E0E7
:1041E300A2E650227406120B01E054037018740502
:1041F300120B01E0540C640C600CE0540C64086076
:1042030005750C018003750C007405120B01E05455
:1042130003F8740268700E74051208F0125E8C12B3
:104223000B5C0243757401687041E50CA2E0500B0E
:1042330074051208F0125E8C120B5074051208E01C
:104243007403120B01E8F0A3E912439585188285E4
:104253001983E8F0A3E9124385C0E07402120B014D
:10426300D0E012438F1222CC024375E8600302436D
:104273007590036DE0640170178E828F83A3A3A3EF
:10428300A3A3A3E0700A7A347B01121EA002437534
:104293007424120B017402124395741C120B011245
:1042A3004380E50CA2E0500B74051208F0125E8CFB
:1042B300120B507439120B017808120AB6E50DA2DD
:1042C300E0EE5072240F125E72C0E07417120B01FD
:1042D300D0E0F090031612504C7003024375120F96
:1042E300BE8A128B13A812A913741C120B01E06867
:1042F3007003A3E069707B7808120844E50EF508A3
:1043030078081208508E828F83A3A3A3A3E0F50835
:104313007808120850781012084CA90C740D120872
:10432300F074241208E89003161257F61204F97475
:104333000812087A803C125E70F50C780C12085053
:104343007808120844E50EF508780812085078102A
:1043530012084C900383120668EE2412125E72F95F
:1043630074261208F0740F1208E8122272740A12EB
:10437300087A74250233B6A3A3A3A3A3A3E8123C2C
:104383000922126467A3E022E8F0A3E9F0AA18ABBC
:104393001922F012453912439D221243A122E0F85B
:1043A300A3E0F92274F7120381121DE08005740D56
:1043B30012087A7F010205DF74F7120381121DF2DE
:1043C30080F1C082C083121DEC023F2B74F71203ED
:1043D30081121DF880DD74F71203817409120B0139
:1043E300E0F5087808120850121E0A740180C1C053
:1043F30082C083121E16023F2BC082C083121E1C72
:10440300023F2B74F7120381121E2280A674F71247
:104413000381EAFEEBFF89087401650870147900D3
:10442300120DFC90274FE493FC7900EEFAEFFB1298
:104433000D720243B674F7120381121E100243B6C3
:1044430074F412038174F912090EE9FE8A088B09C8
:104453008C0A8D0B900EF312504C602BEE85188254
:10446300851983F07401120B017808120A987413EA
:10447300120B01123EEC7405120B0112438B900ECA
:10448300F31257F61204F9023F6974F7120381120B
:104493001E2E0243B674F7120381900FC2E0F97E19
:1044A30000800B124708540D64017001190E124667
:1044B3009F5003E970ED0243B674F7120381900F26
:1044C300C3E0F97E00800B124708548D64817001AC
:1044D300190E12469F5003E970ED0243B674F212AF
:1044E3000381890BE975F006A4A9F0240CF508E40F
:1044F30039F509E5082AFAE43509FB121C488A0C48
:104503008B0DAE0CAF0DEE4F6021AC08AD097900F9
:10451300121B76124535E50BF0EE2508F8EF350949
:10452300F98E828F83A3A3A312437AEEFAEFFB02E1
:1045330056E712453922EE125E9B3FF5832274F64D
:10454300120381EAFEEBFF120D4E900FC1E0F8E972
:10455300C3984009900353125784120D54EE24025A
:10456300F8E43FF988088909900355125BAA900380
:1045730055E004124586120D5A850882850983E0A9
:104583000229AFF0EEFAEFFB22C082C083790090DC
:1045930003538001091257848A828B83E582458302
:1045A30070F2023F2B74F7120381EAFEEBFFEE4F2A
:1045B300605A90035312504C6052888289837A0068
:1045C3007B00EE65827003EF65836013AA82AB8381
:1045D300123EEC88828983E5824583602F80E390D5
:1045E300035312586D687002EF698E828F837008CF
:1045F300123EEC900353800312692F124380EEFAAC
:10460300EFFB12229CEEFAEFFB121C4E0243B6C0E4
:1046130082C08390035380048882898312504C6044
:104623000A888289831233A94D70ED8A828B83E4D1
:10463300F0A3F0E8496006888289838003900353DE
:10464300124652023F2BEE241AF582E43FF583EA29
:10465300F0A3EBF022125063EA4B2274F7120381AA
:1046630090035380048A828B8312465860277E000E
:1046730080010E12469F50EDEE75F006A4FCADF0DE
:10468300EA2CFCEB3DFDEC2410F582E43DF583E0E0
:104693006970DF80047A007B000243B61246FEEEA7
:1046A300C3982274F71203817D0080010D1246FA2C
:1046B300EDC398503BED75F006A4FEA8F0E8FFEAC1
:1046C3002EFEEB3FFFEE2410125E726970DEED7575
:1046D300F006A4FEE8FFEA2EFAEB3FFBEA2411F50D
:1046E30082E41257A94CF0EA240CFA50070B800419
:1046F3007A007B000243B61246FE22EA125E9B3B1F
:10470300F583E0F822EE75F006A4FCADF0EA2CFC8C
:10471300EB3DFDEC2411F582E43DF583E02274F6D4
:10472300120381120E687B008016EB75F006A4F865
:10473300A9F0125BD8E41247B6F0A3125BA0F00B0A
:1047430090275D125A8B40E27A0080168A08750919
:10475300007403780812099F1256AB125AA9A3E4F6
:10476300F00A90274DE493F8EAC39840DF7900807C
:104773001A89087509007403780812099F7488124E
:104783006CA7740D126AE0122C7A09902749126201
:10479300AE40DE90275BE493900361F09081B21208
:1047A30006647A107B009003D0E0F9121D087404AC
:1047B30002314A1262BCA32274F012038174F5120F
:1047C300090E8A088B09890A8C0BE9A2E05014753B
:1047D30008FC7509FFA2E15005D2E4024884D2E344
:1047E300024884120E508A0C8B0DA80CA90D90035D
:1047F30076E0687003A3E069600EAC0A7902AA0848
:10480300AB09120E4AE970057900024955E50AF52C
:104813000C780C12085079027CFE7DFFAA08AB09C4
:10482300120DC6740112087AE96003024953E50ABE
:10483300C2E5F50A9003C3E07049E50AA2E64043E6
:1048430074031208F0AA08AB09120BCEE9702E12FA
:1048530050271211028A0C8B0DAE0CAF0DEE4F6078
:1048630022EE2402FAE43FFB120BC8E96015EE24A2
:1048730002FCE43FFD74031208E8121D38E50AD276
:10488300E5F50A900356E0F50C900376124B177882
:104893000E12084C7D017C00900356E0F9AA0EAB82
:1048A3000F120E08740212087AE9F8900356E00416
:1048B300F0E86003024953E50AA2E55004740E8050
:1048C300027406C0E07401120B01D0E012438F1290
:1048D30010248A0E8B0FAE0EAF0FEE4F606E125484
:1048E30019120FB812464912496C7401F0747855C5
:1048F3000AA3126ED1E50C126ED1A3E508F0E50907
:1049030012495AE4F0E50AA2E5500F74031208F0C5
:10491300E82406FAE439FB121D388E828F83A3A3A1
:1049230074FDF0A374FFF0E50B6018902750E49337
:10493300F8E50BC398500CEE2413F582E43FF5839E
:10494300E50BF0EEFAEFFB120C7C80067910800287
:1049530079C7740B02339A88828983A3A3A3A31212
:104963004966221262C0A3A322EE125E973F124948
:104973007522F5831243A1888289832274F412037A
:10498300817A007B109003D0E0F9121D14EA4B4C9E
:104993004D60089003E27401F08043900FA6E06439
:1049A300019010387006E0FC79018004E0FC790383
:1049B3007A007B00120D72902741E493F50874018D
:1049C30093F509E4F50AF50B78081208447A007B9D
:1049D300109003D0E0F9121D02740412087A8005C6
:1049E300741812087A7F040205DF74F01203818AB7
:1049F300088B098C0A8D0B890C12103CE960057A2F
:104A0300FF024ADB901037E064026003024B079019
:104A1300275CE493F9AA08AB09120E7AE960030252
:104A23004B017900AA08AB09120E50A90C120E44CF
:104A33008A0E8B0FAE0EAF0FEE4F7003024AED8E50
:104A4300828F83A3A3A3A3A31261C4707312578499
:104A53008E828F83A3A3A3A3A3A3E05418604D90D6
:104A6300274EE4938E828F83A3A3A3A3F074101223
:104A73000B01126E687412120B01124B17EA650ACE
:104A83007003EB650B6012EA6C7002EB6D600AEA6F
:104A9300650E7003EB650F701B780E12084CAA0AA3
:104AA300AB0B12113E740212087A80089003751240
:104AB3006456A3F074FE6A700374FF6B601E80512A
:104AC300A3A3A3E06403602A8E828F83A3A3A3A37B
:104AD300A3E0640470067AFE7BFF80358E828F83A9
:104AE300A3A3A3A3A3E0640270089003C2E064023B
:104AF30070127907AA08AB09120E7AE96006AA08B0
:104B0300AB09800DAA08AB099003571257F612049C
:104B1300F902339DE0F50EA3E0F50F2274F71203BB
:104B230081EAFEEBFF120C1CE9700AEEFAEFFB12AE
:104B33000C28E96006EEFAEFFB80047AFE7BFF02A5
:104B430043B674EE1203818A0A8B0B8C0C8D0D898C
:104B53000E75080012103CE979006003024CABAA01
:104B63000AAB0B120E50A90E120E448A108B11AE13
:104B730010AF11EE4F60198E828F83A3A3A3A3A35B
:104B8300E0640270529003C2E064027003024CA915
:104B9300AA0AAB0B1257F31204F9120C2E8A108BCC
:104BA30011A810A911E8497003024CA988828983CE
:104BB300A3A3A3A3A3E0A2E04003024CA9750901A8
:104BC300A2E1504B7901AC0AAD0BAA0CAB0D120D4F
:104BD300A2E97047024CA98E828F83A3A3A3A3A348
:104BE300E0640360258E828F83A3A3A3A3A3E06461
:104BF300016003024CA979078E828F83A3A3125706
:104C030084120E7AE96003024CA9750902801088A8
:104C1300828983A3A3A3A3A3D2E1F0EE4F603A8ECC
:104C2300828F83A3A3A3A3A3A3E05418602B7508C7
:104C3300018E828F83A3A31206687510FE7511FF80
:104C4300781012084C7900AC0AAD0BAA0CAB0D120C
:104C53000E5C740412087A804D7900AA0CAB0D1215
:104C63000E508A108B11A810A911900376E068707A
:104C730003A3E069701490274FE493FCA90EAA0ADA
:104C8300AB0B120D72750801801CA909AC0AAD0BA0
:104C9300AA0CAB0D120DA2E9700C750801A90EAA9E
:104CA3000AAB0B120DFCA908800312087A7F0A02D3
:104CB30005DF74EB12038174F012090E8A0C8B0D5D
:104CC3008C088D0975120690040312504C6017125C
:104CD300502712112C8A108B11EA451160088A8221
:104CE3008B83A3E06068E50C241DF50EE4350DF518
:104CF3000F850E82125243F51488828983A3A3A3DE
:104D0300E0FA88828983A3A3A3A3E0F8E4C8F9EABD
:104D130028FEE439FFAA08AB09120E02850E82852C
:104D23000F8312502EE029F50BE50AA2E550037517
:104D3300120E7487550A700F7418550A64186007A9
:104D43001250116512600C7AD37B00121EA07900F9
:104D5300024FFB530A78C3EE94F8EF94FF50247983
:104D630000EEFAEFFB120E448A0E8B0FA80EA90F6A
:104D7300E849600F88828983A3A3A3A3A3A3E05474
:104D83001870CB780812084C7D00AC0BA914125094
:104D930058120E08740212087AE9F874036860AEB8
:104DA3007425120B01126CAC6003024E7274185519
:104DB3000A7003024F2DE50AD2E0F50AA2E450047B
:104DC300D2E1F50AA90A125058120E448A128B1323
:104DD300A812A913E849605C88828983A3A3A3A3CB
:104DE300A3A3E05418604D88828983A3A3A3A3A33C
:104DF300E06401703FE51045116039126E658882E9
:104E03008983A3A312578412112C8A128B13A8121D
:104E1300A913E849601E88828983A3E06016851080
:104E230082851183A3E0FA88828983A3E0C39A5021
:104E330003024D51E50AF510781012085012505232
:104E4300120DC6740112087AE970247C007D008576
:104E53000E82850F8374FFF0125434A3A3A3E06082
:104E630006125005126E68A90B125058120D2485B4
:104E73000E82850F83E0F47003A3E0F4603C90039B
:104E8300C2E064027003024D51125058900359124C
:104E930057F61204F9EA65087003EB65096003022B
:104EA3004D51EEFAEFFB9003591257F61204F985B0
:104EB3000E82850F83EAF0A3EBF0780812084C7D8D
:104EC30001AC0BA914125058120E08740212087A7E
:104ED300A90AEEFAEFFB120E508A088B09A808A95B
:104EE30009900376E0687003A3E0696003024FED65
:104EF300EEFAEFFB120C2E8A088B09A808A909E821
:104F030049606F88828983A3A3A3A3E06401600D32
:104F130088828983A3A3A3A3E064027055AC18AD70
:104F230019EEFAEFFB120BCE805690036FE060147C
:104F3300E50AF5107810120850125052120DC6747B
:104F43000112087AE50AF510781012085079027CEC
:104F5300FE7DFFEEFAEFFB120DC6740112087AE92B
:104F63006003024E72850E82850F8374FFF0A302E5
:104F73004EBC120FB8EAFCEBFDAA18AB19121D3890
:104F8300850C82850D83A3A3A3A3A3A3A3A3E0649A
:104F930001700E125005126E6874081208E8121D93
:104FA3003812522B12501EE04430F50878081208CC
:104FB3005074011208E088088909780812084C74B3
:104FC3000B1208E088088909780812084CE514F5E3
:104FD3000878081208507900EEFCEFFD12505812C1
:104FE3000D9C740612087A024D5112522BF583124E
:104FF300502EE50BF0120FD0741012087A7F0D02B9
:1050030005DFE50C2415F582E4350DF58322E50C67
:105013002417F582E4350DF583E022F583E0F812D9
:105023003721A32290038312525F22126941A3A363
:10503300A3A3A322E50D75F006A4F8AAF0EAF97478
:10504300EC28F582740C39F58312439DE8492279E3
:1050530001AC08AD09125E95350D12506122F5833E
:10506300E0FAA3E0FB2274EE12038174F012090E3E
:105073008A0C8B0DECFAEDFB750F089004031250AC
:105083004C6031126E6512112C8A088B09AC08AD85
:1050930009EC4D601F8C828D83A3E07017125A9E1A
:1050A3005001097A027B00120231E88C828D83F071
:1050B300A37407F012522B125243F50E8882898390
:1050C300125235E0FAE4CAFBEC2AFEE43BFF888285
:1050D3008983A3A3125235A3A3E0FBECF508E43BB9
:1050E300F50988828983A3A3A3A3A3A3A3E0F50B54
:1050F300E50AA2E45003750F10A2E55006740825D3
:105103000FF50F748F550A7007125011650F600A5F
:105113007AD37B00121EA0025226530A707800E550
:105123000AA2E4501FE50C241D1250152408FCA309
:10513300E03400FD74081208E8121D387808E50A07
:10514300C2E4F50AE50AA2E55022E50C241D12503B
:105153001528F8A3E03400F9E82408FCE439FDAA93
:1051630018AB19121D38E50AC2E5F50AA90EEEFAC5
:10517300EFFB120E3E90274D1262AE502989107537
:1051830011007403781012099F744D2510F5827471
:105193000D3511F583E0F8E50BC3985007E50BF0E7
:1051A30078008004807D7804900376E06E7003A31A
:1051B300E06F605FE87019E50AF50F780F12085089
:1051C300125252120DC6740112087AE97055800505
:1051D300740468704E780A12085074011208E0884B
:1051E3000C890D780C12084C740B1208E0880C899A
:1051F3000D780C12084CE50EF50A780A120850A92E
:105203000BAC08AD09EEFAEFFB120D9C7406120805
:105213007A8010780A120850125252120DC6740185
:1052230012087A7410024CADE50C241DF582E435A6
:105233000D22A3A3A3E0FC88828983A3A3A3A322B3
:10524300124975A3E0F50A88828983A3A3E0227932
:1052530001125E95350DF58312525F22E0FCA3E047
:10526300FDAA08AB092274EB12038174F512090E2F
:105273008A088B098C0A8D0B89147420120B01E0A8
:10528300F511F9120E3EE9F50C90274D1262AE505E
:105293001B750D007403780C12099F744B250CF5D4
:1052A30082740D350DF583124B17801E900359122E
:1052B300504C6010AA08AB091237221204F98A0E67
:1052C3008B0F8006750EFE750FFF7401120B0174B0
:1052D30008F07425120B01E0F510A2E450087401E4
:1052E300120B017410F0E510A2E550097401120BC2
:1052F30001E02408F0AA18AB191210248A0C8B0DB4
:10530300AE0CAF0DEE4F7003025414125419120F6A
:10531300B81246497421120B01E0F512A3E0F5130C
:1053230074031208F0AA0EAB0F120BCEE96013EE52
:10533300241612541C74031208E0EE2418123003CE
:105343008027E510A2E45022E50E65087004E50FFE
:1053530065097016EE241612541CEE2418F582E427
:105363003FF583E512F0A3E513F012543CF50CA3CB
:10537300E0F50D850C82F5837402F0A3E510125459
:1053830026E511125426A3E508F0E509850C82856C
:105393000D83A3A3A3125434E50AF0E50B850C8215
:1053A300850D83A3A3A3A3A3A3F0AA0EAB0F120E91
:1053B30002E92514850C82850D83A3A3A3A3A3A3CC
:1053C300A3F0750800E510A2E45013AC12AD13E589
:1053D3000C2408FAE4350DFB121D38750808E51096
:1053E300A2E5501B7423120B01126E68E50C25080D
:1053F300F8E4350DF9E82408FAE439FB121D388E78
:10540300828F83A3A3E50EF0A3E50F124586120C4A
:105413007C740B024FFDEE2417F582E43FF5837491
:1054230001F02212542A22F0850C82850D83A3A356
:1054330022A312542AA3A3A322124539E02274F40F
:105443001203818A088B09ECFEEDFF750B019003B3
:1054530076E065087004A3E065096013750B0078B6
:105463000B12085012107E740112087AE9F50B79B9
:1054730000AA08AB09120E508A088B09A808A909CB
:10548300900376E0687003A3E06970467900EEFA52
:10549300EFFB120E44EA4B60308A828B83A3A3A3F3
:1054A300A3A3A3E0541860217508FE7509FF7808CB
:1054B30012084C8A828B83A3A3120668126DC21250
:1054C3000E5C740412087A80097901EEFAEFFB127C
:1054D3000D1EA90B0249E874F21203817ED07F0BE3
:1054E3007A107B009003D0E0F9121D14EA4B4C4D67
:1054F30070179081B21206647A107B009003D0E09B
:10550300F9121D08740412087A900361E014F06024
:10551300030255BC90275BE493900361F07C007910
:10552300057A007B00120F468A088B090255B37C6B
:10553300007905AA08AB09120F468A0A8B0B850866
:1055430082850983A3A3A3A312504C605DE50824BD
:1055530004F8E43509F9888289831256DA88828946
:105563008312504C7044850882850983A3A3A3A3A7
:10557300A3A3E054046013850882850983A3A3A32E
:10558300A3A3A3A3A3E0F9120E2C850882850983A4
:10559300A3A3A3A3A3A3A3A3A37406F07AF08508EC
:1055A30082850983126333120E98850A08850B09D5
:1055B300E5084509600302553275080080608E8254
:1055C3008F83A3A3A3A3E0604CF46049EE240412E9
:1055D3005E7214F0703F8E828F83A3A3A3A3A3E014
:1055E3006403701579028E828F83126E688E828FA8
:1055F30083A3A3125784120DA28E828F83A3A3A326
:10560300A3A3E06401600E8E828F8374FEF0A30473
:105613001256C4E4F00508EE2407FE50010F90274C
:10562300531256A340987E008039120F6A8E087574
:1056330009007403780812099F74482508FC740D47
:105643003509FD7AAE7B0D120F58EA4B70DC8E08DC
:105653007509007403780812099F1256AB125BA0F8
:10566300E4F00E90274D126BEE501B8E0875090067
:105673007403780812099F1256B9E82407126F5170
:1056830014F070DE80A77B008009EB1256C860021D
:1056930014F00B90275D125A8B40EF804790275DE3
:1056A300E493F8E508C398221256B988828983A344
:1056B30074FEF0A3042274482508F8740D3509F923
:1056C300221264672275F006A4F8A9F074E828F59D
:1056D30082740C126F5822E024FFF0A3E034FFF031
:1056E3002212087A7F060205DF74F712038174DF42
:1056F30012090EECFEEDFF750800EE4F60691238DB
:10570300F0C8241FF582E43812504A605A8A828B0B
:1057130083125784AC18AD19EA241EF582E412579C
:10572300A9F9EA241F1227B0120FA0740B120B0160
:105733001257887003A3E069702D7402120B01E005
:1057430064017023741D120B011257F6E06401709B
:1057530016741D120B01125022A3E0F88E828F8360
:10576300E0687003750801A90874210243B3E50DCD
:1057730075F006A4F8EAF974EC28F582740C39F58F
:10578300831250632212578EE0682212579222121C
:1057930043A18E828F83A32275F016A4FAABF07413
:1057A300962AF58274083BF583E02274F412038190
:1057B300E97024790090035B1257F61204F98A0A00
:1057C3008B0BAE0AAF0B74FE6E700374FF6F701A0F
:1057D300902758E4936013790190035B1257F612F4
:1057E30004F98A0A8B0BAE0AAF0B120FEE0237A035
:1057F30090035D1269412274F612038174F3120956
:105803000E121B8E8A088B09AE08AF09900376E04F
:105813006E7003A3E06F60E9120FC4EA6E7002EBCF
:105823006F60DEEEFAEFFB12103CE970D4EE4F60CE
:10583300D0851882851983E4F004120B01EEF0A3DE
:10584300EF12438F120BE6E970B774FE6E700374A8
:10585300FF6F60ADEEFAEFFB740D02314AC082C0F8
:1058630083120FEE023F2B39F58312439DEE227410
:10587300F2120381EAFEEBFF8C0A8D0B890874FC9C
:105883006E700374FF6F7003025A657900120E5035
:105893008A0C8B0DAE0CAF0D740E120B01E0F509E3
:1058A300900376E06E7003A3E06F7009E509A2E64A
:1058B3004003025A65A909120E448A0C8B0DA80CE9
:1058C300A90DE849704679007AFE7BFF120E448ADF
:1058D3000C8B0DA80CA90DE849703174185509609B
:1058E300267B0080010B902753125A8B5019EB75BE
:1058F300F007A4F8A9F0126BF5541870E874D028D7
:10590300F8740B39F9801D7902025A6788828983FA
:10591300A3A3A3A3A3A3E0541860097418550970A3
:1059230003025A6588828983EEF0A3EFF074FE6563
:105933000A700474FF650B600A88828983A3A3122B
:105943005A92F088828983A3A3A3A3A3A3E509F0B2
:10595300A2E0500D88828983A3A3A3A3A3A3D2E2C9
:10596300F07401650888828983A3A3A3A3A3703578
:105973007401125AA9E05418602590274EE49388C5
:10598300828983A3A3A3A3126E64AA0AAB0B121189
:105993002C8B0DEA450D6003025A657E0080319021
:1059A3000375E080DAE064017003025A6588828936
:1059B30083A3A3A3A3A3A3E05418600790274EE4F3
:1059C300938004900374E012495AE508025A640E66
:1059D30090274A126BEE4003025A657D00802BED3F
:1059E30075F007A4F8A9F074D228F582740B125845
:1059F3006A75F017A4FAABF074602AF582740A1280
:105A03005ABC7003A3E06960C60D90275312331983
:105A130040CDE4936D70B8EE75F017A4F8A9F07457
:105A23006028FE740A39FF7C177D007900EEFAEFD7
:105A3300FB121B768E828F83125A92F0900383128D
:105A43005AAE12437A125A6A74AAF0125A74740143
:105A5300125A995001097A027B00120231125A7EBE
:105A6300E8F079000256E7EE240FF582E43FF58370
:105A730022EE240EF582E43FF58322EE240DF58217
:105A8300E43FF5832290275AE493F8EBC39822E589
:105A93000AF0A3E50B22F0125A9E22902746E493C4
:105AA30079002401F822124966A322125AB4A3A34F
:105AB30022125792A322F582E43BF583E068227415
:105AC300F21203818A088B09890C1262A7400579B7
:105AD30005025B9D121E5EAA08AB09120DD8E9F5FB
:105AE3000D90275DE493650D700A7AFE7BFF120D1E
:105AF300D8E9F50D90275DE493F8E50DC3984003CD
:105B0300025B9B1250376006125771121C4EE50C54
:105B1300602BE50D75F006A4F8A9F0125CDBF850D4
:105B23000109880A890BAA0CEA2AFAE433FB121C3E
:105B330048125BB112504C701B7901805DE50D7505
