:020000040000FA
:06000000020A800201CE9D
:03002B0002070FBA
:030033000207358C
:0300430002075B56
:0300530002010E99
:1000830002016201FF050301232100000000F71FA5
:1000930000000000FF000000FF00010188130000C2
:1000A3000020FD000200007C160000000000003666
:1000B3001700000000000000000000000000000026
:1000C300000000000000000000000000000000002D
:1000D300000612FFFF01010100C30C000000E8034A
:1000E300FFFF160DE80364006400B8010202000874
:1000F300000005020701051E02051E0A03B80B02D4
:100103000102E8030A050001220402C0E074F212AE
:1001130003E5A2AFE433F508D2AFAFA7AEA1EE5F1C
:100123005410600612140675A1EFEE5F54086008C0
:1001330012140C75A1F78023EEA2E092F0EFA2E077
:1001430082F05017906198E0F890075DE0C398A2A1
:10015300D265D0335002E8F075A1FEE5088063C094
:10016300E074F21203E5A2AFE433FED2AF9061A4D0
:10017300E0F8759B00E59158540860087591F712F3
:1001830014548023E59158541060087591EF1214AC
:100193005A8014E591A2E092F0E8A2E082F05007C1
:1001A300E0C2E0F01215A49061A3E0F8E5E9585429
:1001B30004600E12157A75E9FB906193E0A2E640A4
:1001C300F2EEA2E092AF7F01020444C0E074F212A7
:1001D30003E5A2AFE433FED2AF9061A5E0F8E5BF3B
:1001E300585404600675BFFB1215BC80D4C3E49851
:1001F300F8E499F91202318026C3E49AFAE49BFBEE
:10020300E920E7E9120231E498F8E499F922C3E41A
:1002130098F8E499F9120231E498F8E499F9C3E4FF
:100223009AFAE49BFB22EB20E7CFE920E7E0B90051
:1002330010BB0008E88AF084F8AAF022E4FBC8FAAD
:1002430022EB70227B10C833C8C933C9335007C3AC
:100253009AC3DBF280069A50012ADBEAC833F4C85A
:10026300C933F4C9FA2275F008E4C833C8C933C9DD
:1002730033C99AC99B5004C92AC93BD5F0ECFBC8C2
:1002830033F4C8E4C9FA22080808EAC0E0EBC0E086
:1002930086F0E7A4FA180986F0E7A42AFA18098673
:1002A300F0E7A42AFA180986F0E7A42AFA1986F0D7
:1002B300E7A4FBE5F02AFA190886F0E7A42BFBE58F
:1002C300F03AFA190886F0E7A42BFBE5F03AFA189E
:1002D300180986F0E7A4C5F02BFBE43AFA1908E7FE
:1002E300C5F0C6A426F6E5F03BFBE43AFA1886F01F
:1002F300E7A4F6E5F00826F6E43B08F6E43A08F648
:10030300D0E0FBD0E0FA22E4CFC0E0E4CEC0E0E4EA
:10031300CDC0E0E4CCC0E075F020E626F608E63375
:10032300F608E633F608E633F6181818EC33FCED56
:1003330033FDEE33FEEF33FFC3EC9709ED9709EE80
:100343009709EF97191919400FFFEC97FC09ED97DF
:10035300FD09EE97FE191906D5F0BFECF709EDF785
:1003630009EEF709EFF7191919D0E0FCD0E0FDD039
:10037300E0FED0E0FF222518C582C0E0E51934FF76
:10038300C583C0E0E518C3958224F810AF088583C0
:10039300198582188008858319858218D2AFCEF01B
:1003A300A3E520F0A37808E608F0A3DEFAEFF0A3B4
:1003B300E58124FAF8E608F0A3E608F0A3E608F0DE
:1003C300A30808E608F0A3E608F0A315811581D079
:1003D300E0FED0E0F8158115811581E8C0E0EEC09C
:1003E300E022C0D02518C582C0E0E51934FFC583DB
:1003F300C0E0E518C3958224F310AF0885831985FF
:1004030082188008858319858218D2AFC8F0A3E9C2
:10041300F0A3EAF0A3EBF0A37908E709F0A3D8FA75
:10042300ECF0A3EDF0A3EEF0A3EFF0A3D0E0F0A384
:10043300D0E0F0A3D0E0F0A3E520F0A3E5F0F0A333
:1004430022851983851882E0C0E0A3E0F9A3E0FACE
:10045300A3E0FBA37808E0F608A3DFFAE0FCA3E03F
:10046300FDA3E0FEA3E0FFA3E0C0E0A3E0C0E0A3A0
:10047300E0F5D0A3E0F520A3E0A3F5F010AF0885E5
:1004830083198582188008858319858218D2AFD095
:1004930082D083D0E0F8D0E032120AEEB900030232
:1004A30004DBE4900301789B790B8002F0A3D8FC72
:1004B300D9FA7A9B7B0D900086788979018015E4BF
:1004C30093A3AD82AE838A828B83F0A3AA82AB838C
:1004D3008D828E83D8E9D9E775820D7583C674033F
:1004E30012081E7582BC75831E740012081EE47305
:1004F3000575F0108E1A8F1B85821F85831E851844
:1005030082851983E0CEA3E0CF851F82851E83EB0E
:10051300C9EAC8EDCBECCAC3E833C8E933C9EA3347
:10052300CAEB33CBC3EA9EF51DEB9FF51CB3500416
:10053300AB1CAA1DEC33CCED33CDD5F0DAAE1AAF3C
:100543001B22D083D082ECC0E0EDC0E0E493A3FC97
:10055300E493A3FDED4C600D12061DEC24FFFCEDAE
:1005630034FFFD80EFE493A3FCE493A3FDED4C6023
:100573000D1206BAEC24FFFCED34FFFD80EFD0E052
:10058300FDD0E0FCE493A3C0E0E493C0E022D08379
:10059300D082E9C0E0E493A3C386F0C5F095F0F9F7
:1005A30008E493A386F0C5F095F0700BE493A3C31E
:1005B300994005E9048002A3E475F002A42582F5BD
:1005C30082E5F03583F583D0E0F9E493A3C0E0E45A
:1005D30093C0E022851983851882E0A3FEE0A3F58A
:1005E300207808E0A3F608DFFAE0A3FFE0A3C0E069
:1005F300E0A3C0E0E0A3C0E0E0A3C0E0E0A3C0E06C
:1006030010AF088582188583198008858218858331
:1006130019D2AFD083D082020824C0E0C3E49396FA
:10062300087401939618400FE493667008087401E8
:1006330093661870007019A3A3C3E493960874011A
:10064300939618A3A3400DD0E0D0E0D0E00205813B
:10065300A3A3A3A3A3A3D0E0227404800474028001
:1006630000CCC0E0EDC0E0E518C39CCCAD1950014F
:100673001D10AF068C188D1980068C188D19D2AFFA
:100683001207A0D0E0FDD0E0FC2274028000CCC0B1
:10069300E0EDC0E0E518C39CCCAD1950011D10AFCF
:1006A300068C188D1980068C188D19D2AF12077E0F
:1006B300D0E0FDD0E0FC22C0E0C0F088F0E4936617
:1006C30070080874019366187000A8F0A3A3700B58
:1006D300D0F0D0E0D0E0D0E0020581A3A3D0F0D0E9
:1006E300E022D083D082CCC0E0E493A3600612075B
:1006F300FF1470FAE493A360061208F01470FAD0A2
:10070300E0FCE493A3C0E0E493C0E022C0E0C0D0E7
:10071300E8C0E0E9C0E0A9A8D2AFC2C7E9A2E7E414
:1007230033F8E9A2E792AFD0E0F9D0E0F8D0D0D027
:10073300E032C0E074F21203E5A2AFE433FED2AFBD
:10074300E58BA2E05003121322758B00C2E8EEA2E0
:10075300E092AF7F01020444C0E074F21203E5A209
:10076300AFE433FED2AFC2C0E5D1A2E4500312130B
:1007730076EEA2E092AF7F01020444CAC0E0E493A4
:10078300A3C582CCC582C583CDC583F0A3C582CC66
:10079300C582C583CDC583DAE5D0E0CA22CAC0E0ED
:1007A300E0A3C582CCC582C583CDC583F0A3C58232
:1007B300CCC582C583CDC583DAE6D0E0CA227009F1
:1007C300080808226016181818C6C333C608C633AB
:1007D300C608C633C608C633C6D5E0EA22C008C376
:1007E300E096F50808A3E096420808A3E0964208BD
:1007F30008A3E09645087001D3D00822C0E0E49333
:10080300A3D39C5010E493A3C39C400AD0E0D0E050
:10081300D0E0020702A3A3A3D0E022C09FF59FE488
:1008230073D09F22D083D082C09FE493C0E0740131
:1008330093C0E0740293F59F227404800A740380CA
:1008430006740280027401C0E0F404120857D0E079
:10085300120ABD222518F58210AF08F518400C15B1
:10086300198008F51840021519D2AF8519832200A3
:10087300C0D0251810AF08F518500C05198008F5DD
:100883001850020519D2AFD0D022BB0102E722C013
:1008930082C08389828A83BB0003E08002E493D011
:1008A30083D082226016080808C6C313C618C6136D
:1008B300C618C613C618C613C6D5E0EA22C3E0C6D7
:1008C30096F608A3E0C696F608A3E0C696F608A334
:1008D300E0C696F6222518F8E43519F9222518FA08
:1008E300E43519FB222518FCE43519FD22C0E0E4A8
:1008F30093A36C7009D0E0D0E0D0E0020702A3A379
:10090300D0E022251810AF08F518400C15198008FF
:10091300F51840021519D2AF22E76670100809E7EF
:1009230066700A0809E76670040809E76622C3E0EF
:100933009608A3E09608A3E09608A3E096A2D265E2
:10094300D03322E066701008A3E066700A08A3E0C3
:1009530066700408A3E06622C3E096F008A3E0965D
:10096300F008A3E096F008A3E096F022C3E697F61A
:100973000809E697F60809E697F60809E697F622C6
:10098300C3E49396087401939608740293960874CB
:1009930003939622700422600D18C6C333C608C69B
:1009A30033C6D5E0F41822E647F60809E647F60809
:1009B30009E647F60809E647F622E026F008A3E031
:1009C30036F008A3E036F008A3E036F022E627F677
:1009D3000809E637F60809E637F60809E637F62286
:1009E300E657F60809E657F60809E657F60809E652
:1009F30057F622E056F608A3E056F608A3E056F6AB
:100A030008A3E056F622E026F608A3E036F608A38C
:100A1300E036F608A3E036F622E056F008A3E056E7
:100A2300F008A3E056F008A3E056F022E4C396F6DC
:100A330008E496F608E496F608E496F622600D08B4
:100A4300C6A2E713C618C613C6D5E0F322C6F4C67A
:100A530008C6F4C608C6F4C608C6F4C622C3E79699
:100A63000809E7960809E7960809E79622C3E0967E
:100A730008A3E09608A3E09608A3E0962275D000A9
:100A830075813F7518017519030002049CE6F0088F
:100A9300A3E6F008A3E6F008A3E6F022600C08C67C
:100AA300C313C618C613C6D5E0F422E0F608A3E0C4
:100AB300F608A3E0F608A3E0F622CAC0E0E6F0A336
:100AC30008DAFAD0E0FA22E8F0A3E9F0A3EAF0A307
:100AD300EBF022E0F8A3E0F9A3E0FAA3E0FB22E0C5
:100AE300FAA3E0FBA3E0FCA3E0FD22E5C754F8442E
:100AF30001F5C77901222518F582E43519F583221A
:100B0300C2AF75D69F02000022120827E4500012DC
:100B130008277D5100120827C451001208274752A5
:100B230000120827C854001208271C560012082771
:100B3300AF56001208273C5700120827A957001286
:100B43000827E857001208275E5800120827B359F0
:100B530000120827565A001208276E5A0012082757
:100B6300115B00120827995D001208273A5F0012F3
:100B730008275F5F001208270080021208275A80A7
:100B830002120827C480021208274D810212082787
:100B9300098202120827988202120827B1820212E0
:100BA3000827D682021208271483021208276383B8
:100BB300021208278C8302120827DB8302120827FC
:100BC3008784021208274F8502120827B485021270
:100BD30008278D86021208276C87021208277B8755
:100BE300021208278687021208277888021208272C
:100BF30089880212082701890212082789890212AB
:100C03000827ED8902120827D28A02120827038BCC
:100C1300021208274B8B02120827588B021208274F
:100C2300618B02120827618D02120827AE8E021211
:100C330008272D8F021208270191021208275E93BD
:100C4300021208277293021208277C9302120827C4
:100C53008693021208279093021208279A9302128E
:100C63000827A49302120827D39302120827099492
:100C73000212082714940212082738940212082734
:100C83005C9402120827BD940212082708950212E9
:100C930008272495021208278E9502120827DA9551
:100CA30002120827229602120827A2960212082788
:100CB300669802120827229902120827EB9902125A
:100CC3000827779C02120827CC9C02120827F49C61
:100CD300021208271B9E021208275F9E0212082792
:100CE300AF9E02120827649F021208270EA0021269
:100CF300082782A00212082722A102120827B4A102
:100D0300021208275282011208278482011208273F
:100D1300918401120827E484011208272A8501120D
:100D23000827BD850112082722860112082762863B
:100D330001120827C78701120827C3880112082751
:100D43008D8C01120827288D01120827288E011285
:100D530008278B8E01120827B78F011208274992A3
:100D630001120827D59201120827DF9201120827E2
:100D73000C9301120827DF93011208279D94011297
:100D83000827C69401120827F39401120827309705
:100D93000112082704980112082743980112082713
:100DA300C49801120827869901120827B8990112DD
:100DB3000827FF99011208273B9A011208278A9AEC
:100DC30001120827DE9A01120827589B01120827EF
:100DD300BD9B01120827249C01120827AE9D011216
:100DE30008277B9E011208278D9F0112082783A2E3
:100DF30001120827CAA4011208276DA501120827AA
:100E0300ABA50112082784A70112082797A701128F
:100E13000827A0A701120827A9A701120827BEA720
:100E230001120827DDA7011208278EA8011208273F
:100E3300E1A801120827EBA8011208276DA90112E6
:100E430008271AAA0112082729AB0112082741AC67
:100E53000112082739AD0112082750AD01120827E6
:100E63008DAD01120827ABAD01120827FEAD0112AB
:100E7300082730AE01120827D0AE01120827DBAFD6
:100E83000112082764B001120827DEB001120827F7
:100E93007AB101120827B7B20112082791B30112E0
:100EA3000827FCB301120827C5B401120827E8B4C8
:100EB30001120827CDB50112082711B60112082720
:100EC30069B601120827C7B601120827EBB601124B
:100ED300082716B7011208275DB70112082781B743
:100EE30001120827FAB70112082764B9011208276B
:100EF300A2B901120827CBB9011208279EBA011221
:100F03000827C8BA01120827D3BB0112082700809B
:100F13000312082738800312082759800312082771
:100F23009B8003120827FF800312082709810312FD
:100F33000827198103120827508103120827F9840F
:100F430003120827C18603120827B588031208274E
:100F5300538903120827DA8903120827A6BD011251
:100F630008270ABE0112082768BE01120827B3BE6C
:100F730001120827CEBE01120827F5BE0112082769
:100F830012BF011208271EBF01120827C2C0011297
:100F93000827DBC00112082757C1011208276AC1BD
:100FA300011208277AC10112082720C2011208275B
:100FB30090C301120827A3C40112082743C50112D5
:100FC30008274DC501120827BBC501120827CCC548
:100FD300011208270BC60112082739C60112082778
:100FE30006C7011208275DC701120827A2C701120D
:100FF3000827F8C70112082716C80112082764C872
:101003000112082732C90112082780C901120827D3
:10101300C2C90112082745CA011208276FCA011263
:101023000827A5CA01120827B4CA0112082712CB40
:10103300011208278ACB01120827CBCB01120827FC
:101043001ACC0112082745CC011208275FCC0112E4
:10105300082779CC011208274ECD0112082758CD55
:101063000112082793CD01120827A3CD01120827E7
:10107300ACCD01120827FDCD0112082711CE0112B4
:1010830008272FCF0112082744CF01120827DECFEC
:10109300011208275DD00112082700D10112082789
:1010A3000BD10112082755D20112082771D2011260
:1010B3000827C5D20112082733D3011208277FD38B
:1010C3000112082799D301120827DBD3011208273D
:1010D3003ED601120827D6D6011208274DD7011292
:1010E300082793D901120827ABD901120827AED9D3
:1010F30001120827BAD901120827CED901120827ED
:10110300D6D9011208270DDA0112082701DB0112D3
:1011130008278BDB011208270DDC0112082782DC6C
:10112300011208275ADD011208277CDD0112082766
:1011330013DE011208271FDE011208277CDE0112CD
:1011430008277FDE01120827EEDE011208273AE0A6
:10115300011208274DE101120827D8E101120827DF
:10116300EBE201120827B5E301120827E6E30112B7
:1011730008270CE40112082715E40112082744E4A8
:1011830001120827F4E401120827A4E50112082735
:1011930017E601120827C7E6011208273AE70112EA
:1011A300082779E701120827C2E70112082703E19C
:1011B300021208276EE102120827BAE10212082779
:1011C3000AE2021208278EE202120827D2E4021270
:1011D3000827F0E60212082770EA02120827ABEA92
:1011E30002120827C9EA0212082729EB021208276C
:1011F30051EB0212082782EB02120827AFEB02120F
:10120300082718EC021208270BD40212082787D4E8
:1012130002120827B3D402120827E5D402120827C2
:1012230047D60212082763D602120827A1D6021254
:1012330008272ED7021208278AD70212082750D868
:10124300021208270FD90212082754D902120827BD
:10125300B5D9021208272ADA0212082753DA021232
:10126300082794DA021208273BDC021208271FDD45
:1012730002120827D6DD02120827C3DE021208274E
:10128300FDDE0212082755DF0212082777DF02125C
:1012930008270FE002120827B6E00212082779A7F1
:1012A30003120827EDA703120827C1A90312082771
:1012B30018AB031208270CAC031208277EDB0312BA
:1012C30008278FDB031208272DDC0312082776CEAD
:1012D3000312082784CE0312082707E00312082706
:1012E300E7DC03120827F7DC0312082712DD0312D9
:1012F30008277ADD0312082787D9031208270BDA98
:101303000312082771DA0312082738D303120827B8
:101313005AD303120827C7D3031208270FD4031283
:10132300082768D40312082734D70312082749D79C
:10133300031208276ED703120827A6D7031208271C
:10134300C7D70312082754D80312082769D80312F2
:101353000827B5B403120827C3B4031208273CB502
:101363000312082711B603120827D0B70312082760
:101373000FDF0312082784DD03120827C8DD0312D9
:101383000827CBDD03120827D0DD03120827D3DD9E
:1013930003120827FCDD03120827FFDD03120827C9
:1013A30042F7021208276EF70212082714FA0212F4
:1013B30008276BFA02120827A7FA02120827BBFABA
:1013C30002120827D4FA02120827C5FB02120827C3
:1013D300A1FC02120827B5FC02120827C4D103128C
:1013E3000827E8D10312082701D2031208273FD2A6
:1013F3000312082775D203120827A8D2031208275D
:1014030014D30312082717D30312082721D3031277
:1014130008272ED303120827ACC003120827CFC016
:10142300031208271AC1031208277743001208275B
:1014330053C103120827B9C103120827C5C10312F8
:10144300082722C20312082746C2031208270CC327
:101453000312082719C3031208272AC303120827F4
:10146300CEDE03120827E6DE031208270CDF031281
:101473000827D6A2031208276CA4031208277AA40C
:10148300031208278EA403120827ABA4031208270C
:10149300D55000120827D3A40312082755A5031219
:1014A3000827BAA50312082750A60312082729A75D
:1014B3000312082739A70312082748A7031208278E
:1014C3004EDC0312082772DC031208279ADC03128E
:1014D3000827C2DC0312082715BB0312082781BBA8
:1014E30003120827A0BB0312082715BC0312082701
:1014F300DFBD03120827F8BD031208270FBE03122E
:10150300082718BE0312082736BE0312082740BE59
:10151300031208274ABE031208275DBE03120827D9
:10152300EABE0312082753BF0312082781BF031221
:101533000827D2BF031208271EC00312082739C089
:101543000312082743C00312082754C003120827B5
:1015530097C003120827A9FF011208275694031204
:101563000827829403120827A59403120827B89426
:1015730003120827D394031208273395031208276D
:10158300619503120827659903120827A29A03128B
:101593000827D49A031208273B9B03120827BB9CF6
:1015A30003120827E39C03120827F89C0312082759
:1015B300089D03120827489D031208278A9D0312DA
:1015C30008279A9D03120827A7D403120827B7D424
:1015D30003120827DBD40312082704D503120827B4
:1015E3002ED50312082752D50312082769D50312F3
:1015F300082797D503120827BAD503120827B9FF7E
:101603000212082713FC0112082723FC01120827E2
:101613003FFD0112082771FD0112082797FD0112F2
:101623000827BFFD01120827D1FD011208270DFE6F
:101633000112082773FE01120827AFFE01120827C3
:10164300F4FE0112082721FF011208274DFF0112A2
:101653000827F2D50312082710D60312082772D6DB
:10166300031208271FD7031208278ADA0312082751
:1016730024D00312082775D10312082763EC021242
:10168300082719ED021208273EED021208275EED26
:101693000212082772ED02120827CEED0212082764
:1016A300F2ED021208276DEF0212082795F00212DD
:1016B30008276FF102120827CCF10212082702F261
:1016C3000212082784F202120827DDF20212082709
:1016D300FEF20212082780F302120827B5F3021262
:1016E300082718F402120827D6F502120827A2F6D3
:1016F30002120827DAF6021208272EF70212082729
:10170300EECA031208270FCB0312082742CC031299
:1017130008276CCC0312082758C303120827CCC32D
:1017230003120827D7C303120827F8C30312082795
:101733008DC50212082790C50212082762C602123D
:1017430008279EC602120827DEC60212082710C702
:10175300021208273EC7021208277BC70212082776
:10176300A9C702120827A7C802120827EEC8021247
:10177300082730C902120827A9C90212082746CA36
:101783000212082769CA02120827D3CA02120827BD
:1017930041CC02120827F9CC02120827E6CD021227
:1017A3000827D3CE021208278CCF02120827C1CFF5
:1017B300021208272DD002120827C8D002120827C8
:1017C300F6D0021208279ED2021208271CD3021257
:1017D30008275CD302120827B9CC03120827CBCC05
:1017E30003120827B9CD0312082746CE0312082790
:1017F300A77E00120827DD7E00120827F97E00125B
:1018030008273B7F001208274B7F00120827DE7F43
:1018130000120827E87F00120827868A0312082788
:10182300908A03120827D78A03120827408B0312D2
:101833000827618B031208277A8B031208272C8C45
:1018430003120827968E031208279F8E0312082778
:10185300F08E03120827268F031208273D8F0312E9
:101863000827AA8F031208273A90031208277090BB
:1018730003120827B990031208271A9103120827A5
:10188300549103120827BC91031208270F920312E5
:1018930008275292031208278F9203120827A19256
:1018A30003120827B39203120827D29203120827C0
:1018B300DB9203120827A09303120827EC93031269
:1018C30008272A9403120827CA9D03120827109F8A
:1018D30003120827399F031208274A9F0312082778
:1018E30062A10312082782A10312082783DE0312D1
:1018F3000827AAC803120827E0C8031208272FC91C
:10190300031208278BCA03120827F7E701120827D7
:1019130035E90112082771E90112082740EB01128A
:1019230008276AEB0112082701EE0112082741EE8E
:1019330001120827D7EF011208276CF001120827BC
:10194300CAF00112082750F10112082788F1011289
:101953000827CAF1011208273BF301120827BFF435
:1019630001120827E8F60112082716F701120827C3
:1019730042F7011208274BF701120827A1F70112BA
:10198300082731F80112082734FB01120827B6FB98
:1019930001120827F1DF03120827B2B00312082748
:1019A300CBB00312082770B103120827B0B103129A
:1019B3000827C9B103120827FCB10312082749B24B
:1019C300031208277DB203120827BFB203120827A8
:1019D300A8B40312082774D803120827E6D8031201
:1019E300082724D90312082765D903120827985F0B
:1019F30000120827F05F00120827766000120827FC
:101A03004361001208278B6100120827326200121B
:101A130008277E6200120827C56200120827346374
:101A230000120827B765001208273A660012082734
:101A3300716600120827A966001208275D68001264
:101A43000827D86800120827AB6900120827E46941
:101A530000120827036A001208274E6A001208279B
:101A6300646A00120827716A00120827AA6A001222
:101A73000827BC6A001208273B6B00120827466B35
:101A8300001208279B6B00120827F06B001208272F
:101A93002F6C00120827446D00120827C16F001233
:101AA3000827EA7000120827337100120827EA7129
:101AB300001208270C72001208270F720012082761
:101AC3001972001208271C7200120827A372001251
:101AD3000827DC72001208270973001208274473D1
:101AE30000120827477300120827617300120827A2
:101AF3007C7300120827AB7300120827CB73001204
:101B030008270874001208274374001208274C752D
:101B13000012082706DE0312082712DE0312082725
:101B23004EDE03120827F37F001208271AB40212AD
:101B330008273DB4021208271AB5021208276CB50C
:101B430002120827C7B5021208271EB60212082779
:101B530066B602120827CDB60212082754B702123E
:101B63000827CCB70212082711B8021208277FBC36
:101B730002120827AFBE02120827E8BE0212082786
:101B830027BF0212082713C002120827D8C0021267
:101B930008274BC202120827F7C2021208270DC4F6
:101BA3000212082727A202120827C7A20212082737
:101BB30033A30212082743A302120827CBA302125E
:101BC300082727A40212082764A50212082788A55C
:101BD30002120827FFA50212082750A6021208279F
:101BE300B6A60212082711A7021208274BA8021251
:101BF300082753A902120827C9A902120827A5AB6F
:101C03000212082748AC02120827F2AC0212082776
:101C130057AD02120827C6AD02120827DCAE021226
:101C23000827BBB00212082748B102120827B9B12E
:101C330002120827BDB202120827AB76001208274A
:101C43001477001208275C7700120827AF77001279
:101C53000827157800120827777800120827FA78E2
:101C63000012082728790012082753790012082741
:101C7300697900120827C379001208279C7A001299
:101C83000827C07A00120827CA7A00120827CC7BDB
:101C930000120827B77C00120827597D0012082775
:101CA300C67D00120827DB7D00120827717E001213
:101CB300082735B803120827E8B803120827A7B97D
:101CC300031208270FBA0312082783BA031208273F
:101CD300C9FC02120827E4FC0212082728FD02129D
:101CE30008274EFD0212082770FD0212082788FDFF
:101CF3000212082732FE021208273CFE02120827AE
:101D030051FE0212082766FF021208276FFF021214
:101D1300082778FF0212082781FF0212082718AC50
:101D23000312082744B00312082749B003120827F7
:101D33004BB00312082730C7031208277EDF0312B4
:101D4300082747DF03120827AADF03120827D3DF78
:101D530003120827394300120827414200120827BB
:101D6300B440001208278440001208275140001293
:101D730008272D4000120827194000120827873F23
:101D830000120827283F00120827A13D0012082748
:101D93002E3D00120827153D00120827A73C00120C
:101DA30008276D3B00120827E03A00120827BA3AC9
:101DB30000120827F63900120827353800120827C1
:101DC300C8370012082799370012082796370012E0
:101DD30008278137001208274537001208272237C2
:101DE30000120827EB4D00120827304B001208277A
:101DF300F549001208271649001208273747001231
:101E03000827EF44001208273B3600120827FA354B
:101E130000120827DE3500120827AB350012082709
:101E23007444001208275035001208271F3500128A
:101E33000827E83100120827F630001208271B4450
:101E430000120827BA2F00120827C0A4031208277C
:101E5300952E00120827122E00120827D72D0012E4
:101E63000827832D00120827772D00120827E02C5E
:101E730000120827AE2B0012082755290012082745
:101E8300E22600120827962600120827782500125A
:101E930008270D25001208273724001208270823D6
:101EA30000120827A14300120827D4220012082792
:101EB300A2220012082738C10300000080FB0001A2
:101EC3003636010100010201000103010001040192
:101ED300060605020000070100340801000F09048B
:101EE30001010D0100FF0E08000017020000190197
:101EF30000FF1A0100011B0100FE1C0100081D0266
:101F030000001F0100012001000121020000230144
:101F1300000F240200002601000127010008280207
:101F230000FF2A0100072B0102402C0100002D01B4
:101F330000012E0100012F0100FF30010B1C3108AD
:101F430000003A0100083B01000F3C0100013D0184
:101F530000FF3E04000042040000460400004A045F
:101F630000004E04000052040000560400005A040E
:101F730000005E20FFFF36000100060000000F0096
:101F830000000000000000000000000003FFFF004D
:101F9300000403FFFF0000FFFF0FF4010005C4046A
:101FA3000320000100000B000000000000000003FC
:101FB300010F00000000000000000000000000000E
:101FC300000000000000000000000000000000000E
:101FD30000000000000000000000000000000000FE
:101FE30000000000000000000000000000000000EE
:101FF3000000000001037103010301030103010356
:10200300010322030203010310030003000300037F
:102013000003000300030003420300032403060339
:1020230000030003040312032503230325032303EF
:102033000403040300030003000344030003000339
:102043002303000365032100350381030003050314
:1020530000030003000300032503230303027102AB
:1020630030016002110270020102020202028002C8
:10207300100261023A0041006302730272026202BB
:10208300430200021302380000020002040212029B
:1020930000020002000200020402040237003700BB
:1020A3003C02440200023900000200026502000201
:1020B300350281020002050282028302000201014D
:1020C300710101010101110101013101010101014D
:1020D3008001100161013B0014006301730172016F
:1020E300620143010001130106013D0135000401B2
:1020F3001201000100010001000104010401330188
:1021030033013C0144013201360000010001650145
:1021130000013500810100010501820183010001F5
:1021230003007100300160001100700031022003D0
:10213300500480001000610000001400630073006D
:10214300720062004300000013000600000000005C
:10215300040012000000000000000000040004005E
:10216300370037003C02440000000000000000007C
:1021730065000000350081000000050000008300B9
:1021830000000100E61B02004A1B0300501B040071
:10219300561B05005C1B0600681B1100861B140000
:1021A3008C1B15007A1B1F00801BFFFF000007EC30
:1021B300FDFDFDECDCDCCCBCACAC9C9C8C7C7C6C79
:1021C3006C5C5C5C4C4C3C3C2C2C1C1C03EAF5E525
:1021D300D5D5C5B5A595958585757565655555455C
:1021E30045353525251515050A760D02460D055885
:1021F3000D074C0D0C2E0D0D3A0DFF000000160FB0
:1022030000000B150B020002220F3300000E5A6967
:1022130067426565416C6C69616E636530390103C2
:102223000507090B0D0F00020406080A0C0D3030D8
:1022330017181921301B1D1F303030161819202391
:102243001A1C1E3000393D3F373C3C362C442D00D0
:10225300034A49434E181A25050200011916181698
:1022630016182303000C0E020B040B0A0708000FB9
:10227300020402010101010902000000000000E85C
:1022830003000000BE040A3C003C000E00E8030407
:10229300030A1E1E0C040C0404FF0815280908C0B9
:1022A30082C08312120890030E7492F0A3741EF07E
:1022B300900310748CF0A3741EF09003127486F0D4
:1022C300A3741EF09003147480F0A3741EF0023CF8
:1022D300FD74F7120379E9FE900302E4F0EE900334
:1022E30001F07C877D0D7A037B031219E8900E18A9
:1022F300E090030BF090030C7473F0A3740DF012D1
:102303001E5C02407F74F41203798A088B09EB5434
:102313008070030223DB900301E0F91218628A0A3A
:102323008B0BAE0AAF0BEE4F70030223D2124AF8A7
:10233300E0F9123FBA90031C12470BA3A3A3A3A374
:10234300A3A3A3E0640270378A828B8312404D807B
:10235300078C828D83123FFCEC4D60208C828D8331
:10236300E06A7003A3E06B70E88C828D83A3A3E023
:102373006970DE900E1C125452F0804C121E388E7F
:10238300828F83E064017034EE241812242F120824
:102393004812420A12065CEE241212242F12084835
:1023A300125151120844122FAC120660EE24171278
:1023B300515D1211C6740A120872800CE064027037
:1023C30007EEFAEFFB121D90EEFAEFFB121850AA7C
:1023D30008E5096480FB8051EA5402600C900D9B70
:1023E3007401F0EA6402FA8040EA54046009121EA0
:1023F30056E50864048029EA54086029121E448BB8
:102403000BEA450B701690031EE4F0A3F0A3F0A3B0
:10241300F07A08FB900301E0F91219BEE50864089D
:10242300FAAB0980047A007B00022DD212505EF5CC
:102433000A780A2274F41203798A088B098A828B38
:10244300831255D312503D38F583E02409FA7B00FB
:1024530012184A8A0A8B0BAE0AAF0BEE4F700302B7
:1024630024FD8E828F837402F0A3E412431FA3A37F
:10247300A3A3E8F0A3E9123FD1A3A3A3A3A3A3A318
:10248300F0E5082403F8E4350912374A12503D3ABF
:10249300F583124704F0EE2409FAE43FFB8E828FA2
:1024A30083A3A3123C6FF5838882E0A2E58E828F1B
:1024B30083A3A3A3A3A3500474018001E4F0E5085C
:1024C3002403F88882898312404DEA12372E3BF5A4
:1024D30083122500120840EA12503D3B123CE28E63
:1024E300828F8312404B1218207403120872EEFA83
:1024F300EFFB900301E0F9121856022DD2E0F50824
:10250300A3E0F509750A0078082274F21203798AA8
:10251300088B09ECFAEDFB740E120AF9E0FC1212B7
:10252300388A0C8B0DAE0CAF0DEE4F6031AC08AD9D
:1025330009121226E96027AC08AD09EEFAEFFB1287
:10254300122CE970158E828F83122566EEFAEFFB4B
:10255300121220AA08AB091212507900800279B432
:10256300800EA3A3A3E0F508A3E0F50922120872E5
:102573007F060205D774EF12037974F71209068AEE
:102583000A8B0BECFEEDFF750DB3750C0075100097
:102593008002051090229AE493F8E510C398400353
:1025A30002268A851008AA087B001212988A088BD3
:1025B30009EA450960DC8A828B83A3A3A3A3A3E072
:1025C300250CF50CF50EC3E50A950EE50B940050AA
:1025D300C17C157D007900EEFAEFFB12182C8508FB
:1025E30082850983A3A3A3A3A3E0F8E50AC3950CFB
:1025F3002825E0F8E433F9E50828F582E50939F5FB
:10260300831244D61244EB120E06EAFCEBFDEEFAFB
:10261300EFFB1219E8850882850983A3E064017042
:102623000A12420A74011242D1803DAC18AD1985D9
:10263300088285098312404B121280E960307408C6
:10264300120AF9E0C0E012420AD0E0F07408120A5C
:10265300F9E06403700CAC18AD191246F21219E8D4
:10266300800C8518828519831242121244E585086D
:1026730082850983123738A3A31242D9C0E0124DD1
:1026830049D0E0F0750D00A90D74091208727F0995
:102693000205D774F7120379E9FE8A828B83A3A319
:1026A300A3A3A3A3E0540860338A828B83A3A3A3C9
:1026B300A3A3A3E0540260218A828B83A3A3A3A3D1
:1026C300A3A3A3A3A3E06406600F74E96E600A7476
:1026D300CD6E600574F06E7003121E7402407F7439
:1026E300E812037974F81209067406120AF91257EC
:1026F30036ECFEEDFF8917751500122934121244CA
:102703008A0A8B0BEA450B70030228F0EE241012A1
:1027130048D9A90A120C808A128B13EA4513700355
:102723000228F0EE2403F50CE43FF50DEE2406F544
:1027330008E43FF5097C0085088212509212124A80
:102743008A108B11850C82850D83E0851282851397
:1027530083A3A3A3123710851282851383A3A3A394
:10276300A3E8F0A3E9122FB4851282851383A3A3F0
:10277300A3A3A3A3A3124B25851282851383A3A32B
:10278300A3A3A3A3F0EE12372E3F1229451208404C
:1027930012503C3F123CE2851282851383A3124000
:1027A3004512182074031208727514007423120A58
:1027B300F9E0F5167424120AF9780C120AAE02280D
:1027C3007585108285118312404B1212868508820B
:1027D300850983A3EAF0A3EB122950A3A3123FDFD9
:1027E300122B94A2E6500F850882850983A3A3A325
:1027F300A3A3E0D2E1F0E51570678508828509831C
:10280300A312520F900364E0687003A3E069705150
:10281300850882850983A3A3A31248DE7510007877
:1028230010120848780C12083CE516F510781012BF
:1028330008487426120AF9120660900371120660A2
:1028430079007410120AF9123FC9121D60740A123A
:102853000872850882850983A3A3A3A3A3E0440583
:10286300F074012514FC12293412124A8A108B11B8
:102873000514E51045116050851408C3E508950A51
:10288300E4950B5043E51475F006A4F8A9F0E5129E
:1028930028F8E51339F9E8240CF508E439F5098536
:1028A3000882F583E4125F8BE0640160030227C4AE
:1028B3007515018508828509837401122950124D0B
:1028C3009EE8F0A3E90227DBAA12AB13120C867869
:1028D30012120844AD167424120AF9E0FCA917EE8B
:1028E300FAEFFB121E7A7402120872803A8E828FFC
:1028F30083A3A3A3E0C0E07403120AF9D0E0122F6C
:10290300B4C0E07404120AF9D0E0F0E50A450B7094
:10291300097405120AF974B980077405120AF97467
:1029230010123FEC121D6674081208727F10020524
:10293300D78E828F831243FA8E828F83A3A3A3E061
:10294300F922F5831234E6750E00780C22125F8F9C
:10295300A32274E912037974F31209068A0A8B0B12
:1029630089168C148D157424120AF91234E2AA0CF8
:10297300FB120C74E9F513AA0CAB0D120C7AE513D8
:102983007003022B56750E00800F8E828F83A3A3D4
:10299300A3A3A3E0D2E3F0050EE50C123B29350D0A
:1029A300F583E0F8E50EC3984003022B4DE5137061
:1029B30003022B4DE50E75F006A4F8A9F0E50C28EB
:1029C300F8E50D39F9E8240CFEE439FF8E828F8394
:1029D300A3A3A3A3A3E0A2E040BD750F007508085D
:1029E300750900E5156003750F207C087D007900EB
:1029F300AA18AB1912182C8E828F83E060379003CC
:102A0300B4E064017017E50FD2E3F50F7509108E7A
:102A1300828F83122B73123B6274FF8028430F0C47
:102A230075080C8E828F83A3122B69A3A3A3A31211
:102A33005793A38010E5166009E50FD2E6F50F75ED
:102A4300080A122B87F07402120AF9E50F124DCD12
:102A5300C0E07404120AF9D0E0F07405120AF91206
:102A63003FEA121D8A740C120AF9E06003022B304C
:102A73007408120AF912370B8E828F83A3A3A3A3C0
:102A8300F07408120AF9122B9D1234D8E514122B94
:102A93009460119003B4E0C0E07408120AF9123490
:102AA300EED0E0F0850C82850D83A3A3A3E0C0E004
:102AB3007408120AF91250B6D0E012400AC0E0744A
:102AC30008120AF91234F8D0E0F07408120AF91265
:102AD3002B691255F6124DD7E01255DFEAF0A3EB3E
:102AE300124DBFC0E01255C3D0E0F07408120AF9CA
:102AF300122CCC122B601239753B124DAC12372EAF
:102B0300124D43F510A3E0F5117512007810120869
:102B130040123CDDEA123FB23BF58312404D1218DE
:102B2300207403120872AA18AB19121D848E828FA7
:102B330083A3A3A3A3A3E0D2E0F0740C120AF9E0E9
:102B4300600302298D151302299A7900AA0CAB0D93
:102B5300121E6E740D1208727F0F0205D7A3A3A372
:102B6300A3125213EA22125213850A82850B83227F
:102B7300A3122B7822122B7C22123B57F985188241
:102B830085198322A3122B8C22122B7CE8F0A3E954
:102B930022122B9822125239E02212399C124B2A0C
:102BA30039F583E508F0A3E509F02274F0120379FF
:102BB30074E9120906EAFEEBFF89088E828F83A36C
:102BC300A3A3A3A3A3A3A3E0F9120C9E8A0C8B0DCA
:102BD300EA450D7003022CC7E50870157C048E824C
:102BE3008F83A3A3A3A3A3A3A3A3E0F9120CA4809D
:102BF3004F7C088E828F83A3A3A3A3A3A3A3A3E0E5
:102C0300F9120CA48A0A8B0BEA450B6033E508F52D
:102C1300097809120848850C82850D83A3A3A3A311
:102C2300A3A3A3E0FD8A828B83A3A3A3E0FC8A82F0
:102C33008B83A3122CCCE0F91211C0740112087219
:102C430012542D3F1248E8607B88828983124049E1
:102C53007406120AF9122CD612404D7408120AF99E
:102C6300122CD6A3A3E0C0E07410120AF9D0E0F04E
:102C7300850C82850D83A3124045740E120AF91246
:102C830057367411120AF9E4122B94FAA3E0CA24FA
:102C93001FF582E43AF58312381DC413135403FC61
:102CA30070027C0488828983E0F9780C12084474EA
:102CB3002059FD744059F974021208E0121E7A7407
:102CC3000212087274170236EB124400850A8285D9
:102CD3000B8322EAF0A3EB123B21A3A32274F71286
:102CE300037974FA120906E9FE7F018F087D0080DB
:102CF300047508000D1236B8E0F8EDC3985025EDC1
:102D030075F006A4F8A9F0EA28F8EB39F9E82411DC
:102D130012397BA2E050DA540C60D6E0A2E250D420
:102D23007F0080D08A828B83A3A3A3A3A3A3E07095
:102D33003EE508A2E0400574016E70338A828B83FE
:102D4300A3A3A3A3A3A37401125496E0C0E0740346
:102D5300120AF9D0E012548EE0C0E07404120AF9AA
:102D6300D0E0F07405120AF9EF123FEC121D6674FD
:102D73000602407CC082C0837901121E6E023CFDB4
:102D830074F4120379EA4B602D9003B0E06402708F
:102D930025900D9BE4F08A088B09F50AF50B78085A
:102DA30012083C7A027B00900301E0F91219B27415
:102DB300041208728012900D9B7401F07A027B005A
:102DC300900301E0F91219BE800574021208727FA4
:102DD300040205D7C082C083900DEAE075F005A414
:102DE300FCADF079007AF87B0B12182C7B00801273
:102DF300EB75F005A4F8A9F0122FA174FEF0A3045B
:102E0300F00B900DEAE0F8EBC39840E4023CFDC000
:102E130082C0837C007B0080037C010B900DEAE081
:102E2300F8EBC398504DEB75F005A4F8AAF0EAF956
:102E3300122F9A7003A3E0F460E1122F91E82403A8
:102E4300F850010988828983E024FFF0A3E034FF6E
:102E530012377AF9E84970C1EB75F005A4F8EAF97D
:102E6300122F918882898374FEF0A304122F8CE4BD
:102E7300F080A8ECA2E0501790824612065C7A0418
:102E83007B00900301E0F91219B274041208720274
:102E93003CFD74F7120379EAFEEBFF900DEAE07054
:102EA30003022F83EE24111250577003022F838ED7
:102EB300828F83A3124045120E66E96402600F8E6F
:102EC300828F83A3A3A3A3A3E07003022F837C00B9
:102ED300803CEE123B293F12520DEC75F005A4FA2B
:102EE300ADF0EDFB74F82AF582740B3BF583E068D3
:102EF3007003A3E0697016EE2412125057FBEDF92C
:102F030074FA2AF582740B12397E6B60780C900D7B
:102F1300EAE0F8ECC39840BA7C0080010C900DEA1B
:102F2300E0F8ECC398505EEC75F005A4F8A9F01234
:102F33002F9A7003A3E0F470E3122F91122FAC12B7
:102F43003EDEEAF0A3EB122FB488828983A3A31297
:102F53002F8CA3740C124B257A04FB900301E0F928
:102F63001219C4EA4B4C4D701790824612065C7AD4
:102F7300047B00900301E0F91219B2740412087281
:102F8300790102407F790080F91254B9A32274F8C1
:102F930028F8740B39F922122FA1E064FE2274F889
:102FA30028F582740B39F58322EE123B2D3FF5830E
:102FB30022F0124200E02274E812037974FC120931
:102FC300067402120AF9E4F0A3F090031C1249EF0D
:102FD300851882851983E4F0A3F075140190035ECC
:102FE300E0A2E350030230711219D08A088B098CD6
:102FF3000A8D0B8A0C8B0D8C0E8D0F90031E780C93
:103003001208C01230E67810790C120A6050077A61
:10301300017B000230E1850C14850D15850E1685A4
:103023000F177814791012030AA814A915900E1C0F
:10303300E0C398E4995003E0F5141230E6780C7974
:103043001012030AE4F512F5137808791012096FC8
:1030530090031E7808120A90801412520F90031CDA
:103063001244EBEEFAEFFB121904AE08AF09EE4F70
:1030730060648E828F83A3A3A3E0F8E514C3985002
:1030830029EE2403F582E43FF583A814E0C398F006
:1030930060217402120AF912522912472FEEF0A38B
:1030A300EF123F11FEA3E0FF80C48E828F83A3A3A0
:1030B300A3E4F08E828F83A3122565851882851978
:1030C300831248EA8E828F83A3A3A3A3608C122B5F
:1030D30074123769808A7402120AF912404D74041B
:1030E30002292C900E1AE0F510A3E0F511E4F51275
:1030F300F5132274F21203798A0A8B0BE9FE7A0024
:103103007B0090031C12256890031C1248EA601E82
:103113000A850882850983A3A3A3A31248EA600E44
:103123000AEA70010B88088909E8450970E3900EE3
:103133001D12520FC3EA98EB9940030231E57A0658
:103143007B001218FE8A0C8B0DA80CA90DE84970A0
:10315300030231E588828983E50AF0A3E50BF0EEEB
:1031630088828983A3A3F0900E1C1239C8A3A312EB
:103173003B1CE4F0A3F090031C1243F4600F85089A
:1031830082850983A3A3A3A31244EB801F90031C8E
:103193001244EB90035EE0A2E340111219D0EAF867
:1031A300EBF9ECFAEDFB90031E120ACA90035EE002
:1031B300A2E3502E7A087B00900301E0F91219C4B0
:1031C300EA4B4C4D701C900E1A125D8C7808120855
:1031D3003C7A087B00900301E0F91219B8740412D9
:1031E300087202257374F212037974F3120906EA62
:1031F300FEEBFF8E828F83A3A3A3A3A3A3A3A3A307
:10320300A3E0F50A900D9BE0700579BA0234CC7502
:103213000801750900750C00750D007C087D0079A7
:1032230000AA18AB1912182C7405120AF9740112AA
:103233003504540460127402120AF9E0D2E612351E
:103243000454087003750803E05410600674404585
:1032530008F508E0540860227402120AF9E044C039
:103263001235045420600A7403120AF9E0D2E08094
:10327300087403120AF9E0D2E1F08E828F83A3A3CC
:10328300A3A3A3A3A3A3E07016120E0C8518828533
:1032930019831257367402120AF9E0D2E2802C64C1
:1032A3000F70107402120AF912350C74044508F5F4
:1032B30008807B8E828F83A3A3A3A3A3A3A3A3E0EE
:1032C30064028E828F837006122B88F08060A3A322
:1032D300A3A3A3A3A3A3E06403700DAC18AD19EEDD
:1032E300FAEFFB121E0E80468E828F83A3A3A3A345
:1032F300A3A3A3A3E0640170359003B4E06010744A
:1033030002120AF912350C750910750AFF80187438
:1033130002120AF9E0440C12472F74FDF0A374FF64
:10332300F074044508F5088E828F831234E2EE248C
:1033330015125057A2E0503F7402120AF9E0540CE0
:10334300701B8E828F8312404D121C82E9700579A7
:10335300BB0234CC7402120AF9E0D2E5F0EE241574
:10336300125057A2E050107402120AF9E0540C6490
:10337300047004E0D2E5F0EE2411125057C0E0745B
:1033830004120AF9D0E0123FEC121D8A740C120ADF
:10339300F9E060030234C57408120AF9122B9DEE9A
:1033A3002418125057C0E01234D8D0E0124DB4E0C4
:1033B300C0E07408120AF91255D612504E38F5833C
:1033C300D0E0123B5C640170119003B4E0C0E07480
:1033D30008120AF91234EED0E0F07408120AF91256
:1033E3004D992417FAE43FFB8A828B83E0FCE8249F
:1033F3001CF582E439F583ECF0A3E4124411E0C038
:10340300E0E82422F582E439F583D0E0F074081271
:103413000AF91234F8E50AF07408120AF912399815
:1034230012397539F583E50CF0A3E50D1250CDFC87
:10343300A3E0FD125601ECF0A3ED1236E6124000B4
:103443001234D13912521CC0E0E8242FF582E4393A
:10345300F583D0E0F0EE241B125057C0E07408123D
:103463000AF91255EAD0E0F0EE241A125057C0E0E0
:103473007408120AF91255D61248CF38F583D0E0F2
:103483001256141225011208401241F21240007420
:103493000B120AF9123B3F1218207403120872EE42
:1034A30024151250575440601290032C1248EA60BE
:1034B3000AAA18AB19125F591204F1AA18AB191210
:1034C3001D84740C120AF9E0F9740D022570E824C6
:1034D30028F582E422E82412F582E439F5832212E6
:1034E30034E622E0F50CA3E0F50D221255DA124D75
:1034F3002A38F583221255DA2423F582E438F5833A
:1035030022F0EE241512505E22E0D2E31252391259
:10351300351622122B7CE8F0A3E9F02274F712038C
:10352300797E638A828B83E0600C7905120B72E9E2
:10353300F87456C398FE90035CE0600CF9120B72AA
:10354300E9F8EEC39824F2FEEEF902407F74F61216
:10355300037974FE1209068518828519831257367A
:10356300E9FEECFAEDFB9004C61248EA6035A818B0
:10357300A9198808890978081208447D01740E1274
:103583000AF9E0FCEEF99004C6123D911204F174BD
:10359300021208728B09EA450960047900800679F2
:1035A300B2800279B602371874F7120379E9FE90F4
:1035B300030E1248EA601F7409120AF9E0F508784D
:1035C30008120848EEF990030E123D911204F174AB
:1035D30001120872800279B602407F74F7120379F0
:1035E300E9FE79B574AB6E700B90030C12404D126B
:1035F30019E8790002407F74F5120379EAFEEBFFC4
:103603008C088D09750A01120E06EAFCEBFDEEFA31
:10361300EFFB1219E2E96401700B90036412375B4C
:103623001244EB800EAC08AD09EEFAEFFB120BA8C7
:10363300E9F50AA90A02585974F6120379EAFEEB6E
:10364300FF7A0C7B001218FEEA4B6066EE24201210
:1036530050578A828B83F0EE24211236C0F0EE2479
:10366300221236C0A3F0EE24231236C0A3A31248BD
:10367300EF1236C91244EBEE1234D23FF583123601
:10368300C9A3A3E8F0A3E91248FE8A828B83A3A30C
:10369300A3A3A3A3A3A3F0EE242F125057C0E012B9
:1036A30036B8D0E01240131236CEA3A3A3A3A312BD
:1036B30044EB02371DEA123B2D3BF5832212505E89
:1036C3008A828B83A322E01236CE22F8A3E0F98A02
:1036D300828B83A3A3A3A322F582E43FF583E4F0C3
:1036E300A3F022F0124D7F221208727F080205D741
:1036F3001236FB8882F58322F8E43FF988088909AA
:1037030022A3A3123B37A32212376FE022123CE914
:10371300F8A3E0F92274021208727F020205D7C0EF
:1037230082C08312378EE4F0023CFD12373222242A
:103733000EF582E422123FD822F583E02AFAA3E0B1
:103743003B227901020824F988828983E0FAA3E005
:10375300CA22123822A3A32212375F2212521785DC
:10376300088285098322123755A3A322123B57C827
:1037730012373238F58322124B1EF8A3E022C0829F
:10378300C08312378E7401F0023CFDEA12543C3BB5
:10379300F58322023745C082C08390032274DEF092
:1037A300A3741DF090032474D2F0A3741DF090034E
:1037B3002674CCF0A3741DF090032874D8F0A3747E
:1037C3001DF0023CFD74F4120379EAFEEBFF12389C
:1037D3002BF508120E0C8A0A8B0BA80AA90B8E82F2
:1037E3008F8312381D687003A3E069602AE508A27D
:1037F300E550248E828F83A3E0FB900322123D9138
:103803001204F18E828F831255D6240A1248E47073
:103813000612382BC2E5F0022DD2123822E022E044
:10382300FAA3E0F5838A82228E828F83123706A35E
:10383300E02274F4120379EA2408FCE43BFD8C8251
:103843008D83123998242012397BFE74035EF509A7
:10385300123B2839124D9788828983F0A3A882A945
:1038630083E5096009740265096003023901740C78
:103873005EF50860177408650860117404650870C4
:1038830013740265097005EEA2E4402A1239A124DB
:10389300231239CE740C6508701612398A24241247
:1038A30039B3FCA3E0CC1239753CF583A31239D4A8
:1038B300740265097005EEA2E4404312398A242696
:1038C3001239B3FFA3E0CF1248D5A31239D412396A
:1038D3008E24281239E31234D23CF583A31239D44F
:1038E300E508601274086508600C740C65086006CE
:1038F3007404650870081239A124221239CE1239D2
:10390300A11239697005EEA2E1500C1239A11248D7
:10391300CF3C123983801090030212398590030241
:10392300E004F088828983A3A882A983EEA2E750EA
:103933003212398A24211239E31239696025123986
:10394300A124301239CEEEA2E150188A828B83A3D0
:10395300A3A3A3A3A3A3A312374F2431F582E43A6D
:10396300123983022DD22421F582E43CF583E054FD
:1039730003222424F582E422F582E439F583E0224C
:10398300F5831239C8F022EA2408FC8C828D83E087
:10399300FFA3E0CF2212399C22125217E8228A8217
:1039A3008B83A3A3A3A3A3A3A3A3E0FCA3E0CC22A1
:1039B300F582E43FF5831239C8F0A3A882A9838C6A
:1039C300828D83E022E08882898322F582E43CF5BC
:1039D300831239D822E088828983F0A308A983223D
:1039E300F582E43FF5831239D88C828D83E0FCA302
:1039F300E0CC22C082C0838A828B8312382FF87472
:103A03000358F98A828B83A3A37401F0E9600574D8
:103A130002697061740C58FC601474086C600F7454
:103A2300046C70137402697005E8A2E4401D8A8275
:103A33008B83A3A37402F0740C6C700A8A828B8349
:103A4300A3A3E02402F07402697005E8A2E4402510
:103A53008A828B83A3A3E02404F0EC600F74086CC8
:103A6300600A740C6C600574046C70098A828B8321
:103A7300A3A3E004F0E8A2E750318A828B83A3A3D7
:103A8300E004125222F9A3E0F5838982A3A3A3E001
:103A9300540360178A828B83A3A3E004F0E8A2E1B6
:103AA30050098A828B83A3A3E004F08A828B83A3C9
:103AB300A3E004F0023CFDC082C0838A828B83A30F
:103AC300A3A3A3A3A3A3A3A3A31248EA600C8A827C
:103AD3008B83A3A3124045121904023CFD74F71211
:103AE3000379EAFEEBFF8E828F83124219A3A3A30D
:103AF300A3A3A3A3A3E4F0123B1CA3A3A3A3A3A385
:103B0300F0A3F0E812543C39F583E4F0121DB4EE4F
:103B1300FAEFFB121DC002407FA3123B2122125475
:103B2300B9A3A3A322E8123B2D22240BF582E4229E
:103B3300123B3722123B57F583888222123B4612EF
:103B4300440022123B4A22123B57C8242BF582E43D
:103B530038F58322E0F8A3E02212490BA3E02212F6
:103B630035198E828F83A3A3A32274F6120379746B
:103B7300F4120906123C7FFCA3E0F5838C82A3E0D8
:103B8300FC7402120AF9EC124B1A123C9E740412D2
:103B93000AF9123FF26C7012123C91123C767406D1
:103BA300120AF9123C63241A803A7402120AF9E0E9
:103BB30064016005E06406703CEA2402F8E43B1209
:103BC300374A124D873AF583E0C0E07403120AF9CD
:103BD300D0E0124B1A2413123C787406120AF9121D
:103BE3003C63241BF8A3E03400F97408120AF9E8D3
:103BF300F0A3E980297406120AF9E4F0A3123C8CBD
:103C0300123C767408120AF9123C6FC8241AF58222
:103C1300E438F583E0C0E0740A120AF9D0E0F074E6
:103C230006120AF91248EA602B7406120AF91240C6
:103C33004D120B9CE96401701B120E068A088B0956
:103C4300AC08AD097406120AF912404D1219E2E9E3
:103C530064017007AA18AB19121D5A740C02371AA3
:103C6300123C6722EAF0A3EB124B1E22123C67F8C8
:103C7300A3E0222412FAA3E03400FB228A828B837E
:103C8300A3A3A3A3A3A3122B8CF0123C9122EA2497
:103C930002F8E43BF988828983E0222402F8A3E056
:103CA3003400F922C082C08374FD120906123CC796
:103CB300C0E07402120AF9D0E0123FEC121D5474F2
:103CC30003023CFA8A828B83A3A3A3A3A3A3123583
:103CD300168A828B83123704E02212544A350BF57D
:103CE30083E0FC7D0022123CED22F08508828509E9
:103CF30083E022123D0E22120872D083D082020882
:103D030024123D0A24FB228A828B83A3A3123B370E
:103D1300E022C082C083123D04600624FC60078059
:103D230008121DA28003121D9C80CFC082C0839005
:103D33000E1FE07025900D91E0701F8A828B83A384
:103D4300A3A3A3A3E07013123D9560388A828B83EB
:103D5300A3A3125F58E06407602A8A828B83A3A31C
:103D6300A3A3A3A3A3A3E070128A828B83123D9B18
:103D730060097A347B01121B26800990032A123DC5
:103D8300911204F1023CFDEEFAEFFB900324123B87
:103D93003322123D0A640622123D0E64052274F694
:103DA30012037974FA120906EAFEEBFF7403120A8E
:103DB300F9124D3074031208E0121DA8125054601A
:103DC30003023ECB8518828519837432F074051281
:103DD3000AF9125786C0E07401120AF9D0E0123FC3
:103DE30005C0E07402120AF9D0E0123F0BF8A3E019
:103DF300F9E8496017E8241712397BFAE824161208
:103E0300397B2AF87401120AF9E028F0AA18AB19D1
:103E1300120BF68A088B09A808A909E8497003025E
:103E23003EC08E828F83123EDEA3A3123EFE124D4E
:103E3300873912400FC0E0E82420F582E439F58386
:103E4300D0E012400AC0E0E82421F582E439F5838A
:103E5300D0E0123F11C0E0E8242AF582E439F5836B
:103E6300D0E0F07405120AF9E0FCE8123ED62C12F9
:103E73003C78E8123FB239F583123EFE242DF582D9
:103E8300E439F583EC123F0BFAA3E0FBEA4B601B2A
:103E9300E8242BFAE439FB8E828F83A3A31239A57E
:103EA3002416F582E43CF583123EE68E828F83A3CB
:103EB300A3A3A3A3A3A3A3E8F0A3E9800AEEFAEFC5
:103EC300FB121DAE123ED0F0740602371A1242F8EE
:103ED300741022123B2D39F583E0221244008882AC
:103EE300898322E0FC8A828B83E02CFCA3E03400EC
:103EF300FD8A828B83ECF0A3EDF022EAF0A3EBF0D2
:103F0300E822123F16A3E022124415A3E022123F37
:103F130016E022123F1A22123F1E22F08E828F8356
:103F2300A3A3A3A32274F6120379EAFEEBFF1250B4
:103F3300547042121DBA8E828F83A3A3A3A3A3A39B
:103F4300A3A3A3A31248EA6006123D8A1204F11246
:103F53005054700B124041120BF0123F828015EE49
:103F630024081236F312404D12190485088285097C
:103F730083E4F0A3F0EEFAEFFB121DAE02371D123D
:103F830042F8E92274F6120379EAFEEBFF8C088DFE
:103F930009121C82E9700479018011AC08AD09EEA5
:103FA300FAEFFB900328123D911204F102371D240E
:103FB3002BF582E4227D00EE2402FAE43FFB22A3E8
:103FC300E08E828F8322124004EEFAEFFB2212422C
:103FD300D5123FD822E08E828F83A322E085088208
:103FE300850983A3A3A3227401F0AA18AB19221293
:103FF3003519740422A3A3A3A3A3A3A3A312400468
:1040030022E0FCA3E0FD22125232E022F583740188
:1040130012560FA3E022C082C083121DC690032A4A
:104023007496F0A3741DF0023CFDC082C0837C082B
:1040330079FF90030C12404D1218C2023CFD8E8290
:104043008F83A3A3A3A3A3A3A3A31244002274F760
:10405300120379E9FE12541F1248E8601A88828914
:1040630083A3E054037010EEFB123B2839F583124F
:1040730040ABE0F91211BA80031208727F01020506
:10408300D7C082C083EAF8EBF988828983A3A3A30C
:10409300A3A3E0FB88828983A3A3A3A31240ABA3BA
:1040A300E0F91211BA023CFDE0FA88828983A3A3E6
:1040B3002274F01203798A088B098C0A8D0B890FFD
:1040C300EA124D5BE02430FA7B0012184A8A0C8B0B
:1040D3000DAE0CAF0DEE4F70030241EF8E828F8356
:1040E30074011251701208407C177D00EE2419FAF6
:1040F300E43FFB1218207403120872850A0C850B27
:104103000D780C1208407C09123FB8121820740372
:104113001208727410120AF91242121244E5741250
:10412300120AF9124219E0C0E0124D7BD0E0124DA1
:10413300A3C0E01241F2D0E012422FC0E01249DAEC
:10414300D0E0F07414120AF9E0C0E01241FCD0E0B0
:10415300F0EE24271236DB7415120AF9120AD6126E
:10416300420A120ACA124D61E50F124234F8A3E063
:10417300F9EE240D1244E57419120AF9E0C0E012B5
:104183004D8DD0E01257A0E0602FEE24271246FA9F
:104193002430124221240E125777125F7D120840F9
:1041A300E50812503D3509123CE28A828B831240A6
:1041B3004D1218207403120872EE241A1250575429
:1041C30003601D90031A1248EA600CEEFAEFFB122B
:1041D3005F591204F18015EEFAEFFB121850800CB0
:1041E300EEFAEFFB900301E0F91218560236EEEEF9
:1041F3002411F582E43FF5832212420022EE2412B9
:10420300F582E43FF58322EE12504E3FF5832212EE
:104213005213EE240B221252138882898322F8E46C
:104223003FF98A828B83123519E508221254B5E0CF
:10423300221242D5A3A3A3A3A3A3A3A3E02274F1B1
:104243001203798A088B097A207B0012184A8A0A9A
:104253008B0BAE0AAF0BEE4F60728E828F837404AA
:104263001243318E828F83A3A3A3A31242D1123FA1
:10427300C21242D9F50CA3E0F50D750E00780C12AD
:1042830008407C107D00124D53121820740312084D
:1042930072850882850983123FF8EE2416FAE43FFB
:1042A300FB120B96850882850983A3A3A3A3A3A36B
:1042B300A3A3A3A3E0C0E01248B4D0E01242E9C034
:1042C300E0124D36D0E0124302121856801E1242FD
:1042D300D52212431522A3A3A3A3A31242E22212BF
:1042E3004315A3A3E022F0124D6FE0227F070205DE
:1042F300D71242F822EE240CF582E43FF58322F034
:10430300EEFAEFFB900CC3E0F922E8F0A3E91243C5
:104313001522F0850882850983A3A3221243232251
:10432300123CEDF8A3E0F98E828F83A3A3221243FC
:104333002312430DE02274F6120379EAFEEBFF7AAF
:10434300057B0012184AEA4B60278A828B83740824
:1043530012523F8A828B83A3A3E8F0A3E91240138E
:104363008A828B83A3A3A3A3F0900CC3E0F9121852
:104373005602371DC082C083E9900D9CF09003164E
:104383007402F0A3741EF090031874F0F0A3741D6C
:10439300F090031A7490F0A37414F0023CFD74F7C8
:1043A300120379EAFEEBFF8908EE4F70031212CE77
:1043B30090032E1248EA700890032E802212520FA7
:1043C30088828983A3A3A3A3A3A3A3A3A31243F4D0
:1043D30088828983A3A3A3A3A3A3A3A3A370DEEECD
:1043E300F0A3EF124411E4F0124406E508F0024092
:1043F3007F124400EA4B22A3A3A3A3A3A3E0FAA33F
:10440300E0FB22A312440B22123F1AA3A32212445D
:10441300152212490FA3A32274F712037990032ED6
:10442300800D8E828F83A3A3A3A3A3A3A3A3A3120D
:1044330049EFEE4F60348E828F83A3A3A3A3A3A37C
:10444300A3E06970DD8E828F83A3A3A3A3E06A70C8
:1044530003A3E06B70CC8E828F83A3A3A3A3A3A338
:10446300E06C70BEEEFAEFFB80047A007B00024042
:104473007F74F712037990032E1249EF90032E12E3
:104483002B64687002EB69701CE0C82409F582E4B0
:104493003812520D90032E1244EB90032E1249EF63
:1044A30080271249E2EE4F60208E828F83A3A3A35D
:1044B300A3A3122B60687002EB6970E68A828B8378
:1044C300A3A3A31244D61244EB121904EEFAEFFB92
:1044D30002407FA3A3A3A3A3A3124723A3A3A3A33E
:1044E300A322F582E43FF5831235192274F01203F7
:1044F3007974FA1209068A088B098A828B83A3A32B
:10450300A3A3A3A3A3A3E060336401602F8A828BD8
:104513008312404D120E66E9702285088285098355
:10452300A3A3A3A3A3A3A3A3E0640370147404121B
:1045330008E8AA08AB09121E0EE9701679020246B2
:10454300E385088285098312520F7404120AF91253
:1045530044EBE508241112576E2432123C781218EA
:10456300FE8A0A8B0BAE0AAF0BEE4F70030246E1D5
:104573007C327D00790012182C74021208E0850841
:1045830082850983A3A3A3A3A3A3A3A3A3E0F912EF
:1045930012027402120AF9E0C0E01248BED0E0F041
:1045A300EE242CF50AE43FF50B7403120AF9E085B7
:1045B3000A82850B83F07901EEFAEFFB121EA485C4
:1045C300080C85090D750E00780C1208407C1C7DC3
:1045D300001246F21218207403120872EE243012ED
:1045E30046FA24321242212411F8E43509F9E8FC91
:1045F300E9FD8C828D83124D991248C8124229120B
:104603004AF2125F7D1208408C828D8312470B128F
:10461300404D12182074031208727404120AF9121E
:10462300471F1244EB900302124704A3A3A3F09085
:104633000302E004F01219D0125732EE242A12506A
:1046430066750D00850A82850B83E0780C12099745
:104653008A828B83E50CF01246E8E50C12472FE4BF
:10466300F0E508241512576EA2E074015007120AF0
:10467300F974018004120AF9E4F0EE24271236FBE0
:10468300AA18AB191211EAE924FE85088285098369
:10469300F0EE242EF8E43FF9E8FCE9FD124713128B
:1046A3000231E88E828F83A3A3A3A3A3A3A3A3F0C2
:1046B3001247131202318B09EA4509600F8E828F6C
:1046C30083A3A3A3A3A3A3A3A3E004F0EE24201234
:1046D300505744081250C212188C79008002791086
:1046E30074060236EBEE2429F582E43FF58322EECD
:1046F300240BFAE43FFB22F8E43FF9E8FAE9FBEE86
:1047030022123FD8A3A3A3221240048A828B8322BE
:104713008C828D8312375FE0FA7B002212472322BB
:104723001252178E828F83A3A3A3A322F08518822C
:104733008519832274F4120379EAFEEBFF1219D070
:10474300125732900E14E0F8EE242B125057C398F0
:1047530040030248A21250727012EE242B125057DB
:10476300041248FEC0E01246E8D0E0F0EE2428121E
:104773005057FC7900800109EE242C125057F8E9B8
:10478300C3985026750801750900E978081209973E
:10479300125072550860E0E92CFC75080175090098
:1047A300E97808120997E04508F0EE24271248D962
:1047B300EE1248C8EC8A088AF0A4F8ABF0E42BF9AF
:1047C300E098F8A3E099F9C3E89508E99400EE406E
:1047D300352427125057F812507260301248BE1217
:1047E30048DEA3E4F0EC7050EE242012505744202E
:1047F300123B5CC0E0EE1248D5D0E0F0EE2430125C
:1048030048D9A3E080581246E974FFF0900354E0BE
:10481300FA900E17E0F508EA8508F0A4ABF075F0FE
:1048230064A4FAADF075F064EBA42DFB8E828F8344
:10483300A3A3EAF0A3EB80ACEE242012505754DF7D
:104843001248EFECF08C08EE24271250578508F03D
:10485300A4FAABF0EE2430F582E43F12373CFB12AE
:1048630048B4EAF0A3EB124906C0E0EE2425F58232
:10487300E43FF583D0E0F0EE241CF582E43FF583BA
:10488300E8124B259003301248EA600BECF9125FF3
:10489300591204F1E970171246F2121E32800F7B8F
:1048A300E9124B0B1211BAEEFAEFFB121E20022D86
:1048B300D2EE241EF582E43FF58322EE242DF58209
:1048C300E43FF583221248CF3FF58322242EF5825D
:1048D300E4221248F52212505EFA22123FD8A3F0C6
:1048E30022F582E438F58312399C4922F0EE12480E
:1048F300F5222426F582E43FF58322F0EE242A12E2
:10490300505E2212490BE02212490F22123F1EA3CE
:10491300A3A32274F412037990032E1249EF121900
:10492300D08A0A8B0B78FF79FF8020E0C39AFCA31F
:10493300E09BFDC3EC98ED99500E8E828F83A3A369
:10494300E0C39AF8A3E09BF91249E2EE4F605C8E54
:10495300828F8312404DE50AC39AFAE50B9BFB8EC7
:10496300828F83123FFEC3EA9CEB9D8E828F83A3CB
:10497300A340B8A3A3A3A3E06402701AEE240B120E
:10498300507560091249DA12404D121850EEFAEFD1
:10499300FB121E208007EEFAEFFB121DFC7A017B4F
:1049A30000900D9CE0F912188C802974FF68700345
:1049B30074FF69601F88088909E4F50AF50B780814
:1049C30012083C7A017B00900D9CE0F91219B27435
:1049D30004120872022DD2EE12544C3FF583228E3C
:1049E300828F83A3A3A3A3A3A3A3A3A3E0FEA3E014
:1049F300FF2274F01203798A088B09ECFAEDFB8924
:104A03000A7C01E508241112576EF9121E3E8A0C26
:104A13008B0DAE0CAF0DEE4F7003024AEFE50A604B
:104A230003024AEFE508124AF2124B0268600302DE
:104A33004AEFEE242C1248D9E82AF8E43400F98E20
:104A4300828F83A3A3A3A3A3A3A3A3E0FAE89AE972
:104A53009400C365D033401712576AF470117B007A
:104A6300124B0B1211BAEEFAEFFB121E20807D12CD
:104A7300576AF47040EE24291246FA242CF8E43FD6
:104A8300F9E8FCE9FD7508FF7509008C828D83E068
:104A930078081209978A828B83E508F0124AF8E5B1
:104AA30008F08C828D83124B0228F0EE123FB23F46
:104AB300F583E4801BE5082414F8E43509F9E0C024
:104AC300E0124AF8D0E0124B1AC0E01246E8D0E0F8
:104AD300F01219D01257321248BE123738A3124BB4
:104AE300257A01FB900D9CE0F912188C0236EE2416
:104AF30013124D7322EE242AF582E43FF58322E05C
:104B0300F8EE242812505E22EE242212505EFAEEB2
:104B1300241412505EF922124B1E22F088828983DC
:104B2300E022F0A3E4F022240FF582E42274EC12D5
:104B3300037974FE1209068A0A8B0B8C0E8D0F897A
:104B4300108A828B83A3A3E0F91211DE8A088B09F2
:104B5300AE08AF09EE4F70077A007B00024D207A52
:104B6300127B001218FE8A088B09EA4509700302BA
:104B73004D1C7C127D00790012182CAA18AB1985E4
:104B83000A82850B83A3A3E0F9121202E508240F1E
:104B9300F50CE43509F50D7401120AF9E0850C8270
:104BA300850D83F07902AA08AB09121EA4850E8233
:104BB300850F83124D9EA3A3A3E8F0A3E9124DBF73
:104BC300850882850983A3A3A3A3A3A3A3F07512D6
:104BD300FF751300850C82850D83E0781212099707
:104BE300125773E512125F34125F58E0C0E0124DA2
:104BF3006BD0E0124DCDF50CE508240D125777E587
:104C03000CF0E50A125041850CF0A4A9F02427FA10
:104C1300E439FB12184A8A0C8B0DAE0CAF0DE50874
:104C2300124D5B124D30EE4F7003024D0F8E828F8B
:104C330083741A124B258E828F83A3A3F0A3124D84
:104C4300DD12471F1244EBAC0EAD0F124D53121180
:104C5300FC850A82850B83A3A3A3E0C0E0124D7BEE
:104C6300D0E0F0900371124D992410124DA8124D0B
:104C73002A350B124D971239753FF583E8F0A3E9F6
:104C8300124DD7A3A3124D9924121244E5850A822B
:104C9300850B83A3A3E0C0E0124D49D0E0F0E50A01
:104CA300240C124D40C0E0EE124D2A3FF583D0E0B4
:104CB300F07416120AF9124219E0C0E0125760D0DC
:104CC300E012422FC0E0124D61D0E0124DA3C0E0CC
:104CD300124D8DD0E0124DB4E510F07418120AF99C
:104CE300120AD6EE241AF582E43FF583120ACAEEBD
:104CF3002427F8E43FF9EE2422124DA8124D87121F
:104D03004D43C0E0124D36D0E0F0800DAA08AB0948
:104D1300121E20750800750900AA08AB0974021257
:104D230008727F0C0205D72415F582E422EEF0A366
:104D3300EFF022EE241FF582E43FF58322F582E4AF
:104D4300350BF583E022EE2414F582E43FF583224C
:104D5300EE2406FAE43FFB222410124D7322EE24C4
:104D630017F582E43FF58322124D6F22E508240BE9
:104D7300F582E43509F58322124D7F22EE124B2A88
:104D83003FF583222412F582E422EE2418F582E40F
:104D93003FF58322F583125213EE2212375FA322CB
:104DA300122F8CE022F582E43FF583123519E50AD0
:104DB30022F0EE2419F582E43FF58322F0E50A247C
:104DC30011F582E4350BF583E022F012544A350BDA
:104DD300F583E022124DDDA3A322F0850A82850B21
:104DE30083A3A3A3A3A3A32274ED1203798A0A8B3B
:104DF3000B8C108D118912750900EA125041F508C8
:104E03009003301248EA600EA908125F591204F1A8
:104E1300E960030250377C028510828511831240BA
:104E23004DE50A2411124D40F9121E3E8A0C8B0DDA
:104E3300AE0CAF0DEE4F7054850A82850B83A3E051
:104E4300A2E040030250377415120AF912065C748B
:104E530017120AF9120660A912AC10AD11AA0AAB17
:104E63000B121DEA74061208728A0C8B0DAE0CAF7E
:104E73000DEE4F70030250378E828F83A3A3A3A33B
:104E8300A3A3A3A3E5081250C212188C85080C8EA5
:104E9300828F83A3A3A3A3A3A3A3A3E024FFF8E484
:104EA30034FFF9E8650C497003750901EE240B1210
:104EB30050757003024FE8850A82850B83A3E0A235
:104EC300E050037508001250A0E50C98E499C365FF
:104ED300D033401CE0F8EE240E1250572AF0750C24
:104EE300FF750D00E8780C1209971242F4E50CF0F7
:104EF300E50A12372E350B122945120840123CDD04
:104F030085080CEE240D125057850CF0A4FAABF073
:104F13001249DA1250B612373EFB121820740312EC
:104F23000872750C0112507A780C120997125054BA
:104F3300450CF0E509A2E0505BEE240C125066121A
:104F4300507A04780C1209978A828B83E0450C12FD
:104F530050CD85080C850CF0A4F8A9F0E50A125091
:104F63003D124D43FCE82CFCE439FD1249DA1250A2
:104F73008812521CF4701DEE240BF50CE43FF50D62
:104F830012503C3F125092121856850C82850D83A5
:104F930074FF80501219D0125732900354E0FA90E4
:104FA3000E17E0F50CEA850CF0A4FAABF0F8EBF978
:104FB300900E14E0F50CE8850CF0A4F8ACF0850C29
:104FC300F0E9A42CF9EA28F8EB39F9E875F064A4C0
:104FD300F8AAF075F064E9A42AF98E828F83A3A35B
:104FE300E8F0A3E9F01250A0125757E8650C7001DE
:104FF300E9600EEE240C1250756006E509A2E0503C
:1050030033EE240E125057C0E0E50A125046D0E0AA
:10501300F0125054C0E0E50A2414F582E4350BF590
:1050230083D0E0F0AC0AAD0B85108285118312406A
:105033004D120B247F0B0205D7EE12544C22125053
:1050430046E02212504E350BF583222413F582E4F9
:1050530022EE240C12505E22EE240FF582E43FF57B
:1050630083E022F8E43FF9E8FAE9FB750CFF22EE4E
:10507300242912505EF422750D0012505BF5F0E501
:105083000884E5F0221255DA2420F582E43822F56B
:1050930083124400850C82850D83E0F92285080C78
:1050A300EE240E12505EF812505BFAE82AF8E4344C
:1050B30000F9221255DA2422F582E438F58322F02E
:1050C3007A017B00900D9CE0F922F0EE240D125042
:1050D3005E22C082C083900D9CE0F9121856023CF8
:1050E300FD74F41203798A088B09EB5480703BEA50
:1050F300A2E05053121DF6E5086401FAAB09804B98
:105103008E828F83E06401701A12420A12065C12C7
:105113005151120844EE241212515D121DE474061B
:10512300120872EEFAEFFB121850900D9CE0F91280
:1051330018628A0A8B0BAE0AAF0BEE4F70C2AA0835
:10514300E5096480FB80047A007B00022DD2EE2403
:105153000FF50AE43FF50B780A2212505EF9EE24AC
:1051630002FCE43FFDEE2419FAE43FFB22F085083C
:105173000C85090D750E00780C22C082C083900344
:105183003280048C828D831251BE60288C828D8381
:10519300A3A3E069600574FF6970E88C828D83A323
:1051A300A3A3E06A7003A3E06B70D8EC2403FAE4D2
:1051B3003DFB80047A007B00023CFD124004EC4D71
:1051C3002274F7120379E9FC74FE6C70047D01808C
:1051D300027D0090033280096C70027D0188828910
:1051E300831248EA601F88828983A3A3A3E06A70BD
:1051F30003A3E06B70E7EDA2E088828983A3A3E0B9
:1052030050D6F9800279FE02407FF58312521322B1
:1052130012521722123B57F922F583ECF0A3EDF05B
:105223008A828B83E022E02401F0A3E0340022127F
:105233005239A3A3A322F08E828F8322122B98F8D4
:10524300A3E0F92274F61203798C828D83A3A3124F
:105253005480F0EA2417F582E43BF583E0C0E012C2
:105263005442D0E0F0EA241DF582E43B12520D12C1
:105273005425125480A3F0A3F0EA241FF582E43BE3
:10528300F5831249EFEC124D2A3DF583124D30128E
:10529300541FF583125461A3A3A3A3A3A3EEF0A306
:1052A300EF124B1AFE8C828D831254AD74035EFE93
:1052B300C394034003025412EE600574026E7077C8
:1052C3008C828D83E0540CFE740C6E700302537950
:1052D300E0A2E4400D88828983E08C828D83A3124F
:1052E30054C074086E60030253791254347401F08D
:1052F3008A828B83A3A3A3A3A312545B70128C8211
:105303008D83E0440C12548EA3A3125461124D30CA
:105313008C828D83E0A2E4401E12546F12549F507E
:10532300010912546FA3A312549F50010988828963
:10533300831254521254AD88828983E0C0E0EC2476
:1053430011F582E43DF583D0E01254AD8C828D8358
:10535300E0A2E7507888828983E0FE8C828D8312F5
:1053630054C074FC5E700C8C828D83A3E054036480
:1053730003701B025412125434E4F0740C6E600375
:105383000252F312546F1254A150850980828C8209
:105393008D83A3E05403603888828983E0C0E0EC06
:1053A30012504E3DF583D0E01254C18C828D83E0C0
:1053B30054036402701A88828983E0C0E0EC2414E9
:1053C300F582E43DF583D0E01254C18003A3E4F0F9
:1053D300EC12372E3D1244E9EC2410FEE43DFFEAC3
:1053E300241DF582E43BF583E0F5088E828F83E08C
:1053F300C3982508F508F0EA2417123C94C39508CE
:10540300C0E0125425D0E0124B1AC39508500A127B
:105413005425E4F0125442E4F002371DEA12542EEC
:105423003B22EC12542E3DF58322EE240DF582E44B
:1054330022EC12543C3DF58322240CF582E422EC49
:1054430012544C3DF58322E50A2410F582E422E050
:105453008C828D83A3A3A322E05403640122E0FE84
:10546300A3E0FF8C828D83A3A3A3A32288828983D5
:10547300E0F508A3E0FFE5088C828D8322E4125453
:105483008522F08C828D83A3A3A322125496A3A317
:10549300A3A322F08A828B83A3A3A322A3A3A3A300
:1054A300A3A3124D31E82402F8221254B5A882A90D
:1054B30083221254B922F088828983A322A312542F
:1054C300B508A9832274F512037974F31209068AC5
:1054D300088B09ECFEEDFF8E828F83E0540CF50AF6
:1054E300E0A2E75006E50AD2E7F50AE50AD2E1F5BC
:1054F3000A12545B7006E50AD2E4F50AE0A2E5500D
:1055030006E50AD2E5F50A7C087D007900AA18AB06
:105513001912182C7402120AF9E50A12560BE0C08C
:10552300E07403120AF9D0E012472F122BA6740578
:10553300120AF9123FEA121D8A740C120AF9E0707A
:105543007C7408120AF91255D6124D873812400F8F
:10555300C0E07408120AF91250B6D0E012400AC033
:10556300E07408120AF91234F8D0E0F07408120A51
:10557300F91255CB1255F6123B5C1255DF12573612
:10558300EE2411125057C0E01255C3D0E0F0EE24C0
:1055930014125057C0E07408120AF91255D6243178
:1055A300F582E438F583D0E0125614C0E074081293
:1055B3000AF91255EAD0E0123FEC121D8402585446
:1055C300E81248CF39F583221252138E828F832239
:1055D300A3A3A31255DA22123B57C822FAA3E0FB76
:1055E3001234D139F583221255DA2430F582E438A6
:1055F300F583221243FA125601EAF0A3EB22E824C0
:1056030026F582E439F5832212560F22125239A36A
:1056130022F0EE241312505E2274F71203797E00F7
:105623008A828B83A3A3A3A3A3A3A3A3A3E064025C
:10563300606B12378EE0706512541F1248E8605D8C
:1056430088828983E054037054A3A3A3A3A31256AF
:10565300A3E06A7003A3E06B7043888289831256C8
:10566300A3A3A312399224061250576A7003A3E02E
:105673006B702A88828983A3A3E0F88C828D83A32D
:10568300A3E0F9A3E0F5838982A3A3E068600D8C0E
:10569300828D83123CF6540C640470010E02354B68
:1056A300A3A3A3A31244008C828D832274F6120356
:1056B3007974FC120906EAFEEBFFECFAEDFB8A8231
:1056C3008B83A3E0540360169003181248EA605AD0
:1056D3007900EEFCEFFD125F591204F1804C85183E
:1056E30082851983124D307402120AF9125736ACAF
:1056F30018AD197A2A7B0B120DB88A088B09A808F2
:10570300A909E849602488828983A3A3A3A3A3A347
:10571300A3A3A37406F07A00888289831255D61254
:10572300543C38F583E0F9120D22740402371A8EC3
:10573300828F83EAF0A3EBF022C082C08390033A06
:105743007460F0A3740BF090033C7454F0A3740BD7
:10575300F0023CFDE824FF18E934FFF922EE241699
:10576300F582E43FF58322E5082414124D73E02209
:10577300E508240C124D73228E828F83F0A3AE8230
:10578300AF8322E0F88E828F83A3A3A3A3E0282212
:1057930012351985188285198374FFF022F0E50804
:1057A3002410124D732274F41203798A088B09783A
:1057B30008120844750A11750B00780A1208447C14
:1057C300007D007A3A7B001219887404120872E98A
:1057D3007010900334120AD6E50824111257771279
:1057E3000ACA022DD274F512037974EF120906E97D
:1057F300851882851983F08A088B09750A00780851
:105803001208407C107D007404120AF9AA82AB834B
:105813001218207403120872A818A9198808890994
:1058230078081208447508117509007808120844AD
:105833007C007D007A3B7B0012198274041208728B
:105843007C117D007900AA18AB1912182C741180F1
:1058530002740D1208727F030205D774ED120379E7
:1058630074EB120906890C7A117B001218FE8A0860
:105873008B09EA450970030259AB7808120844758D
:105883000A11750B00780A1208447C007D007A3BEC
:105893007B001219887404120872E9600302599795
:1058A300850882850983E0650C60030259977A11A4
:1058B3007B001218FE8A0A8B0BEA450B7003025910
:1058C30097780A120844750E11750F00780E1208A6
:1058D300447C007D007A3A7B001219887404120814
:1058E30072E960030259837808120844780E12089B
:1058F300447C007D007A3A7B0012198274041208FA
:1059030072780A120844780E1208447C007D007AEB
:105913003B7B00121982740412087290038D740188
:10592300F0900334E4F0A3F0A3F0A3F0850810850E
:105933000911F51278101208407C117D00740312CE
:1059430008E01218207403120872900334120AD666
:105953007411120AF9120ACAA818A919880E890F14
:10596300780E120844750E15750F00780E12084450
:105973007C007D007A827B00121982740412087203
:105983007C117D007900AA0AAB0B12182CAA0AAB72
:105993000B1219047C117D007900AA08AB091218B7
:1059A3002CAA08AB09121904741512087202503795
:1059B30074F212037974FF12090689088A098B0AA3
:1059C300ECFEEDFFEBC43354E0F8EA33333354F821
:1059D30045084812577B740F120AF912065CEEFA57
:1059E300EFFB1218B674041208728A0C8B0DAE0CFE
:1059F300AF0DE50A6015120E06EAFCEBFDEEFAEFB9
:105A0300FB1219E8EE2408FE50010F7401650970BA
:105A13003D750C3A750D00780C1208447402120897
:105A2300D8880C890D780C1208447C017D007A001B
:105A33007B00120F027404120872E9700B8518823E
:105A4300851983123FC380058E828F83E4F074012E
:105A5300022570E9F874020458F97402B90002804F
:105A630004C333D9FC541CF902082474F4120379D7
:105A730074FE1209068908750A3A750B00780A1232
:105A8300084474031208D8880A890B780A12084458
:105A93007C017D007A007B00120F027404120872ED
:105AA300E970607401120AF9E06508604E750A3BFB
:105AB300750B00780A12084474021208D8880A8900
:105AC3000B780A1208447C017D007A007B00120FD8
:105AD300027404120872E9702E851882851983E016
:105AE3006508701FE0F87401120AF9E0C398500FBB
:105AF300851882851983E0F9120B487E3A80067E69
:105B03003B80027E007F00EEFAEFFB022DCD74EBAB
:105B130012037974D7120906890D8A0E8B0F8C0C28
:105B23007401120AF9740E12472FECF07402120A70
:105B3300F9EDF090035CE0C0E07403120AF9D0E0E1
