:020000040000FA
:06000000020A800201CE9D
:03002B0002070FBA
:030033000207358C
:0300430002075B56
:0300530002010E99
:1000830002016201FF050301292100000000FD1F99
:1000930000000000FF000000FF00010188130000C2
:1000A3000020FD0002000082160000000000003C5A
:1000B3001700000000000000000000000000000026
:1000C300000000000000000000000000000000002D
:1000D300000612FFFF01010100050D000000E80307
:1000E300FFFF580DE80364006400B8010202000832
:1000F300000005020701051E02051E0A03B80B02D4
:100103000102E8030A050001220402C0E074F212AE
:1001130003E5A2AFE433F508D2AFAFA7AEA1EE5F1C
:100123005410600612140C75A1EFEE5F54086008BA
:1001330012141275A1F78023EEA2E092F0EFA2E071
:1001430082F05017906198E0F890079FE0C398A25F
:10015300D265D0335002E8F075A1FEE5088063C094
:10016300E074F21203E5A2AFE433FED2AF9061A4D0
:10017300E0F8759B00E59158540860087591F712F3
:10018300145A8023E59158541060087591EF1214A6
:10019300608014E591A2E092F0E8A2E082F05007BB
:1001A300E0C2E0F01215AA9061A3E0F8E5E9585423
:1001B30004600E12158075E9FB906193E0A2E6409E
:1001C300F2EEA2E092AF7F01020444C0E074F212A7
:1001D30003E5A2AFE433FED2AF9061A5E0F8E5BF3B
:1001E300585404600675BFFB1215C280D4C3E4984B
:1001F300F8E499F91202318026C3E49AFAE49BFBEE
:10020300E920E7E9120231E498F8E499F922C3E41A
:1002130098F8E499F9120231E498F8E499F9C3E4FF
:100223009AFAE49BFB22EB20E7CFE920E7E0B90051
:1002330010BB0008E88AF084F8AAF022E4FBC8FAAD
:1002430022EB70227B10C833C8C933C9335007C3AC
:100253009AC3DBF280069A50012ADBEAC833F4C85A
:10026300C933F4C9FA2275F008E4C833C8C933C9DD
:1002730033C99AC99B5004C92AC93BD5F0ECFBC8C2
:1002830033F4C8E4C9FA22080808EAC0E0EBC0E086
:1002930086F0E7A4FA180986F0E7A42AFA18098673
:1002A300F0E7A42AFA180986F0E7A42AFA1986F0D7
:1002B300E7A4FBE5F02AFA190886F0E7A42BFBE58F
:1002C300F03AFA190886F0E7A42BFBE5F03AFA189E
:1002D300180986F0E7A4C5F02BFBE43AFA1908E7FE
:1002E300C5F0C6A426F6E5F03BFBE43AFA1886F01F
:1002F300E7A4F6E5F00826F6E43B08F6E43A08F648
:10030300D0E0FBD0E0FA22E4CFC0E0E4CEC0E0E4EA
:10031300CDC0E0E4CCC0E075F020E626F608E63375
:10032300F608E633F608E633F6181818EC33FCED56
:1003330033FDEE33FEEF33FFC3EC9709ED9709EE80
:100343009709EF97191919400FFFEC97FC09ED97DF
:10035300FD09EE97FE191906D5F0BFECF709EDF785
:1003630009EEF709EFF7191919D0E0FCD0E0FDD039
:10037300E0FED0E0FF222518C582C0E0E51934FF76
:10038300C583C0E0E518C3958224F810AF088583C0
:10039300198582188008858319858218D2AFCEF01B
:1003A300A3E520F0A37808E608F0A3DEFAEFF0A3B4
:1003B300E58124FAF8E608F0A3E608F0A3E608F0DE
:1003C300A30808E608F0A3E608F0A315811581D079
:1003D300E0FED0E0F8158115811581E8C0E0EEC09C
:1003E300E022C0D02518C582C0E0E51934FFC583DB
:1003F300C0E0E518C3958224F310AF0885831985FF
:1004030082188008858319858218D2AFC8F0A3E9C2
:10041300F0A3EAF0A3EBF0A37908E709F0A3D8FA75
:10042300ECF0A3EDF0A3EEF0A3EFF0A3D0E0F0A384
:10043300D0E0F0A3D0E0F0A3E520F0A3E5F0F0A333
:1004430022851983851882E0C0E0A3E0F9A3E0FACE
:10045300A3E0FBA37808E0F608A3DFFAE0FCA3E03F
:10046300FDA3E0FEA3E0FFA3E0C0E0A3E0C0E0A3A0
:10047300E0F5D0A3E0F520A3E0A3F5F010AF0885E5
:1004830083198582188008858319858218D2AFD095
:1004930082D083D0E0F8D0E032120AEEB900030232
:1004A30004DBE490030178DD790B8002F0A3D8FC30
:1004B300D9FA7ADD7B0D900086788979018015E47D
:1004C30093A3AD82AE838A828B83F0A3AA82AB838C
:1004D3008D828E83D8E9D9E77582E57583C9740364
:1004E30012081E7582C275831E740012081EE473FF
:1004F3000575F0108E1A8F1B85821F85831E851844
:1005030082851983E0CEA3E0CF851F82851E83EB0E
:10051300C9EAC8EDCBECCAC3E833C8E933C9EA3347
:10052300CAEB33CBC3EA9EF51DEB9FF51CB3500416
:10053300AB1CAA1DEC33CCED33CDD5F0DAAE1AAF3C
:100543001B22D083D082ECC0E0EDC0E0E493A3FC97
:10055300E493A3FDED4C600D12061DEC24FFFCEDAE
:1005630034FFFD80EFE493A3FCE493A3FDED4C6023
:100573000D1206BAEC24FFFCED34FFFD80EFD0E052
:10058300FDD0E0FCE493A3C0E0E493C0E022D08379
:10059300D082E9C0E0E493A3C386F0C5F095F0F9F7
:1005A30008E493A386F0C5F095F0700BE493A3C31E
:1005B300994005E9048002A3E475F002A42582F5BD
:1005C30082E5F03583F583D0E0F9E493A3C0E0E45A
:1005D30093C0E022851983851882E0A3FEE0A3F58A
:1005E300207808E0A3F608DFFAE0A3FFE0A3C0E069
:1005F300E0A3C0E0E0A3C0E0E0A3C0E0E0A3C0E06C
:1006030010AF088582188583198008858218858331
:1006130019D2AFD083D082020824C0E0C3E49396FA
:10062300087401939618400FE493667008087401E8
:1006330093661870007019A3A3C3E493960874011A
:10064300939618A3A3400DD0E0D0E0D0E00205813B
:10065300A3A3A3A3A3A3D0E0227404800474028001
:1006630000CCC0E0EDC0E0E518C39CCCAD1950014F
:100673001D10AF068C188D1980068C188D19D2AFFA
:100683001207A0D0E0FDD0E0FC2274028000CCC0B1
:10069300E0EDC0E0E518C39CCCAD1950011D10AFCF
:1006A300068C188D1980068C188D19D2AF12077E0F
:1006B300D0E0FDD0E0FC22C0E0C0F088F0E4936617
:1006C30070080874019366187000A8F0A3A3700B58
:1006D300D0F0D0E0D0E0D0E0020581A3A3D0F0D0E9
:1006E300E022D083D082CCC0E0E493A3600612075B
:1006F300FF1470FAE493A360061208F01470FAD0A2
:10070300E0FCE493A3C0E0E493C0E022C0E0C0D0E7
:10071300E8C0E0E9C0E0A9A8D2AFC2C7E9A2E7E414
:1007230033F8E9A2E792AFD0E0F9D0E0F8D0D0D027
:10073300E032C0E074F21203E5A2AFE433FED2AFBD
:10074300E58BA2E05003121328758B00C2E8EEA2DA
:10075300E092AF7F01020444C0E074F21203E5A209
:10076300AFE433FED2AFC2C0E5D1A2E4500312130B
:100773007CEEA2E092AF7F01020444CAC0E0E4939E
:10078300A3C582CCC582C583CDC583F0A3C582CC66
:10079300C582C583CDC583DAE5D0E0CA22CAC0E0ED
:1007A300E0A3C582CCC582C583CDC583F0A3C58232
:1007B300CCC582C583CDC583DAE6D0E0CA227009F1
:1007C300080808226016181818C6C333C608C633AB
:1007D300C608C633C608C633C6D5E0EA22C008C376
:1007E300E096F50808A3E096420808A3E0964208BD
:1007F30008A3E09645087001D3D00822C0E0E49333
:10080300A3D39C5010E493A3C39C400AD0E0D0E050
:10081300D0E0020702A3A3A3D0E022C09FF59FE488
:1008230073D09F22D083D082C09FE493C0E0740131
:1008330093C0E0740293F59F227404800A740380CA
:1008430006740280027401C0E0F404120857D0E079
:10085300120ABD222518F58210AF08F518400C15B1
:10086300198008F51840021519D2AF8519832200A3
:10087300C0D0251810AF08F518500C05198008F5DD
:100883001850020519D2AFD0D022BB0102E722C013
:1008930082C08389828A83BB0003E08002E493D011
:1008A30083D082226016080808C6C313C618C6136D
:1008B300C618C613C618C613C6D5E0EA22C3E0C6D7
:1008C30096F608A3E0C696F608A3E0C696F608A334
:1008D300E0C696F6222518F8E43519F9222518FA08
:1008E300E43519FB222518FCE43519FD22C0E0E4A8
:1008F30093A36C7009D0E0D0E0D0E0020702A3A379
:10090300D0E022251810AF08F518400C15198008FF
:10091300F51840021519D2AF22E76670100809E7EF
:1009230066700A0809E76670040809E76622C3E0EF
:100933009608A3E09608A3E09608A3E096A2D265E2
:10094300D03322E066701008A3E066700A08A3E0C3
:1009530066700408A3E06622C3E096F008A3E0965D
:10096300F008A3E096F008A3E096F022C3E697F61A
:100973000809E697F60809E697F60809E697F622C6
:10098300C3E49396087401939608740293960874CB
:1009930003939622700422600D18C6C333C608C69B
:1009A30033C6D5E0F41822E647F60809E647F60809
:1009B30009E647F60809E647F622E026F008A3E031
:1009C30036F008A3E036F008A3E036F022E627F677
:1009D3000809E637F60809E637F60809E637F62286
:1009E300E657F60809E657F60809E657F60809E652
:1009F30057F622E056F608A3E056F608A3E056F6AB
:100A030008A3E056F622E026F608A3E036F608A38C
:100A1300E036F608A3E036F622E056F008A3E056E7
:100A2300F008A3E056F008A3E056F022E4C396F6DC
:100A330008E496F608E496F608E496F622600D08B4
:100A4300C6A2E713C618C613C6D5E0F322C6F4C67A
:100A530008C6F4C608C6F4C608C6F4C622C3E79699
:100A63000809E7960809E7960809E79622C3E0967E
:100A730008A3E09608A3E09608A3E0962275D000A9
:100A830075813F7518017519030002049CE6F0088F
:100A9300A3E6F008A3E6F008A3E6F022600C08C67C
:100AA300C313C618C613C6D5E0F422E0F608A3E0C4
:100AB300F608A3E0F608A3E0F622CAC0E0E6F0A336
:100AC30008DAFAD0E0FA22E8F0A3E9F0A3EAF0A307
:100AD300EBF022E0F8A3E0F9A3E0FAA3E0FB22E0C5
:100AE300FAA3E0FBA3E0FCA3E0FD22E5C754F8442E
:100AF30001F5C77901222518F582E43519F583221A
:100B0300C2AF75D69F02000022120827EA500012D6
:100B13000827835100120827CA51001208274D5293
:100B230000120827CE540012082722560012082765
:100B3300B55600120827425700120827AF57001274
:100B43000827EE5700120827645800120827B959DE
:100B5300001208275C5A00120827745A001208274B
:100B6300175B001208279F5D00120827405F0012E1
:100B73000827655F001208270080021208275A80A1
:100B830002120827C480021208274D810212082787
:100B9300098202120827988202120827B1820212E0
:100BA3000827D682021208271483021208276383B8
:100BB300021208278C8302120827DB8302120827FC
:100BC3008784021208274F8502120827B485021270
:100BD30008278D86021208276C87021208277B8755
:100BE300021208278687021208277888021208272C
:100BF30089880212082701890212082789890212AB
:100C03000827ED8902120827D28A02120827038BCC
:100C1300021208274B8B02120827588B021208274F
:100C2300618B02120827618D02120827AE8E021211
:100C330008272D8F021208270191021208275E93BD
:100C4300021208277293021208277C9302120827C4
:100C53008693021208279093021208279A9302128E
:100C63000827A49302120827D39302120827099492
:100C73000212082714940212082738940212082734
:100C83005C9402120827BD940212082708950212E9
:100C930008272495021208278E9502120827DA9551
:100CA30002120827229602120827A2960212082788
:100CB300669802120827229902120827EB9902125A
:100CC3000827779C02120827CC9C02120827F49C61
:100CD300021208271B9E021208275F9E0212082792
:100CE300AF9E02120827649F021208270EA0021269
:100CF300082782A00212082722A102120827B4A102
:100D0300021208275282011208278482011208273F
:100D1300918401120827E484011208272A8501120D
:100D23000827BD850112082722860112082762863B
:100D330001120827C78701120827C3880112082751
:100D43008D8C01120827288D01120827288E011285
:100D530008278B8E01120827B78F011208274992A3
:100D630001120827D59201120827DF9201120827E2
:100D73000C9301120827DF93011208279D94011297
:100D83000827C69401120827F39401120827309705
:100D93000112082704980112082743980112082713
:100DA300C49801120827869901120827B8990112DD
:100DB3000827FF99011208273B9A011208278A9AEC
:100DC30001120827DE9A01120827589B01120827EF
:100DD300BD9B01120827249C01120827AE9D011216
:100DE30008277B9E011208278D9F0112082783A2E3
:100DF30001120827CAA4011208276DA501120827AA
:100E0300ABA50112082784A70112082797A701128F
:100E13000827A0A701120827A9A701120827BEA720
:100E230001120827DDA7011208278EA8011208273F
:100E3300E1A801120827EBA8011208276DA90112E6
:100E430008271AAA0112082729AB0112082741AC67
:100E53000112082739AD0112082750AD01120827E6
:100E63008DAD01120827ABAD01120827FEAD0112AB
:100E7300082730AE01120827D0AE01120827DBAFD6
:100E83000112082764B001120827DEB001120827F7
:100E93007AB101120827B7B20112082791B30112E0
:100EA3000827FCB301120827C5B401120827E8B4C8
:100EB30001120827CDB50112082711B60112082720
:100EC30069B601120827C7B601120827EBB601124B
:100ED300082716B7011208275DB70112082781B743
:100EE30001120827FAB70112082764B9011208276B
:100EF300A2B901120827CBB9011208279EBA011221
:100F03000827C8BA01120827D3BB0112082700809B
:100F13000312082738800312082759800312082771
:100F23009B8003120827FF800312082709810312FD
:100F33000827198103120827508103120827F9840F
:100F430003120827C18603120827B588031208274E
:100F5300538903120827DA8903120827A6BD011251
:100F630008270ABE0112082768BE01120827B3BE6C
:100F730001120827CEBE01120827F5BE0112082769
:100F830012BF011208271EBF01120827C2C0011297
:100F93000827DBC00112082757C1011208276AC1BD
:100FA300011208277AC10112082720C2011208275B
:100FB30090C301120827A3C40112082743C50112D5
:100FC30008274DC501120827BBC501120827CCC548
:100FD300011208270BC60112082739C60112082778
:100FE30006C7011208275DC701120827A2C701120D
:100FF3000827F8C70112082716C80112082764C872
:101003000112082732C90112082780C901120827D3
:10101300C2C90112082745CA011208276FCA011263
:101023000827A5CA01120827B4CA0112082712CB40
:10103300011208278ACB01120827CBCB01120827FC
:101043001ACC0112082745CC011208275FCC0112E4
:10105300082779CC011208274ECD0112082758CD55
:101063000112082793CD01120827A3CD01120827E7
:10107300ACCD01120827FDCD0112082711CE0112B4
:1010830008272FCF0112082744CF01120827DECFEC
:10109300011208275DD00112082700D10112082789
:1010A3000BD10112082755D20112082771D2011260
:1010B3000827C5D20112082733D3011208277FD38B
:1010C3000112082799D301120827DBD3011208273D
:1010D3003ED601120827D6D6011208274DD7011292
:1010E300082793D901120827ABD901120827AED9D3
:1010F30001120827BAD901120827CED901120827ED
:10110300D6D9011208270DDA0112082701DB0112D3
:1011130008278BDB011208270DDC0112082782DC6C
:10112300011208275ADD011208277CDD0112082766
:1011330013DE011208271FDE011208277CDE0112CD
:1011430008277FDE01120827EEDE011208273AE0A6
:10115300011208274DE101120827D8E101120827DF
:10116300EBE201120827B5E301120827E6E30112B7
:1011730008270CE40112082715E40112082744E4A8
:1011830001120827F4E401120827A4E50112082735
:1011930017E601120827C7E6011208273AE70112EA
:1011A300082779E701120827C2E70112082703E19C
:1011B300021208276EE102120827BAE10212082779
:1011C3000AE2021208278EE202120827D2E4021270
:1011D3000827F0E60212082770EA02120827ABEA92
:1011E30002120827C9EA0212082729EB021208276C
:1011F30051EB0212082782EB02120827AFEB02120F
:10120300082718EC021208270BD40212082787D4E8
:1012130002120827B3D402120827E5D402120827C2
:1012230047D60212082763D602120827A1D6021254
:1012330008272ED7021208278AD70212082750D868
:10124300021208270FD90212082754D902120827BD
:10125300B5D9021208272ADA0212082753DA021232
:10126300082794DA021208273BDC021208271FDD45
:1012730002120827D6DD02120827C3DE021208274E
:10128300FDDE0212082755DF0212082777DF02125C
:1012930008270FE002120827B6E00212082742F7D8
:1012A30002120827C9F70212082753FA0212082765
:1012B300A8FB0212082760FC0212082759FD02123C
:1012C300082712DD0312082723DD03120827C1DDD7
:1012D300031208270AD00312082718D0031208277D
:1012E30094E1031208277BDE031208278BDE031227
:1012F3000827A6DE031208270EDF031208271BDBCD
:10130300031208279FDB0312082705DC03120827B3
:10131300CCD403120827EED4031208275BD503129B
:101323000827A3D503120827FCD503120827C8D81A
:1013330003120827DDD80312082702D9031208274E
:101343003AD9031208275BD903120827E8D90312F5
:101353000827FDD9031208279DB503120827ABB54B
:101363000312082724B603120827F9B60312082725
:10137300B8B8031208279CE00312082718DF0312EA
:1013830008275CDF031208275FDF0312082764DFE7
:101393000312082767DF0312082790DF03120827C9
:1013A30093DF03120827CA9D03120827F69D031231
:1013B30008279CA003120827F3A0031208272FA1D4
:1013C3000312082743A1031208275CA1031208276D
:1013D3004DA20312082729A3031208273DA30312D2
:1013E300082758D3031208277CD30312082795D361
:1013F30003120827D3D30312082709D4031208279B
:101403003CD403120827A8D403120827ABD4031231
:101413000827B5D403120827C2D40312082784C4AB
:1014230003120827A7C4031208277D4300120827C5
:1014330010C5031208272BC50312082791C50312F1
:1014430008279DC503120827FAC5031208271EC6DD
:1014530003120827E4C603120827F1C6031208275C
:1014630002C7031208275BE00312082773E0031285
:10147300082799E0031208275DA803120827F3A998
:101483000312082701AA0312082715AA0312082723
:10149300DB500012082747AA031208275AAA03128F
:1014A3000827DCAA0312082741AB03120827D7AB8E
:1014B30003120827B0AC03120827C0AC0312082795
:1014C300CFAC03120827E2DD0312082706DE03125E
:1014D30008272EDE0312082756DE03120827EDBE67
:1014E3000312082759BF0312082778BF03120827DE
:1014F300EDBF03120827B7C103120827D0C1031297
:101503000827E7C103120827F0C1031208270EC2F8
:101513000312082718C20312082722C2031208273E
:1015230035C203120827C2C2031208272BC30312B2
:10153300082759C303120827AAC303120827F6C3AF
:101543000312082711C4031208271BC40312082718
:101553002CC4031208276FC403120827A9FF011222
:101563000827569403120827829403120827A59488
:1015730003120827B89403120827D39403120827E9
:1015830033950312082761950312082765990312FF
:101593000827A29A03120827D49A031208273B9B11
:1015A30003120827BB9C03120827E39C0312082796
:1015B300F89C03120827089D03120827489D03126D
:1015C30008278A9D031208279A9D031208273BD6F2
:1015D300031208274BD6031208276FD603120827D6
:1015E30098D603120827C2D603120827E6D6031299
:1015F3000827FDD6031208272BD7031208274ED737
:101603000312082717E00312082713FC0112082707
:1016130023FC011208273FFD0112082771FD011267
:10162300082797FD01120827BFFD01120827D1FDE6
:10163300011208270DFE0112082773FE0112082765
:10164300AFFE01120827F4FE0112082721FF011241
:1016530008274DFF0112082786D703120827A4D7AE
:101663000312082706D803120827B3D80312082742
:101673001EDC03120827B8D10312082709D303126B
:10168300082763EC0212082719ED021208273EED22
:10169300021208275EED0212082772ED02120827D4
:1016A300CEED02120827F2ED021208276DEF0212A7
:1016B300082795F0021208276FF102120827CCF1D0
:1016C3000212082702F20212082784F202120827E4
:1016D300DDF202120827FEF20212082780F302123B
:1016E3000827B5F30212082718F402120827D6F5C3
:1016F30002120827A2F602120827DAF602120827B6
:101703002EF70212082782CC03120827A3CC031258
:101713000827D6CD0312082700CE0312082730C7A7
:1017230003120827A4C703120827AFC70312082709
:10173300D0C7031208278DC50212082790C50212CD
:10174300082762C6021208279EC602120827DEC6B1
:101753000212082710C7021208273EC702120827E1
:101763007BC702120827A9C702120827A7C80212BB
:101773000827EEC80212082730C902120827A9C990
:101783000212082746CA0212082769CA021208274A
:10179300D3CA0212082741CC02120827F9CC02123D
:1017A3000827E6CD02120827D3CE021208278CCFD2
:1017B30002120827C1CF021208272DD002120827D0
:1017C300C8D002120827F6D0021208279ED20212AE
:1017D30008271CD3021208275CD3021208274DCE18
:1017E300031208275FCE031208274DCF03120827E1
:1017F300DACF03120827AD7E00120827E37E00121A
:101803000827FF7E00120827417F00120827517F17
:1018130000120827E47F00120827EE7F0012082732
:10182300868A03120827908A03120827D78A03128D
:101833000827408B03120827618B031208277A8B32
:10184300031208272C8C03120827968E03120827ED
:101853009F8E03120827F08E03120827268F031288
:1018630008273D8F03120827AA8F031208273A90EF
:1018730003120827709003120827B9900312082750
:101883001A9103120827549103120827BC910312DB
:1018930008270F92031208275292031208278F92E8
:1018A30003120827A19203120827B39203120827F1
:1018B300D29203120827DB9203120827A093031284
:1018C3000827EC93031208272A940312082751A32D
:1018D3000312082797A403120827C0A4031208279A
:1018E300D1A403120827E9A60312082709A70312A4
:1018F3000827A9FF0212082765FD021208279BFD8E
:1019030002120827EAFD0212082746FF02120827DF
:10191300F7E70112082735E90112082771E90112D7
:10192300082740EB011208276AEB0112082701EE92
:101933000112082741EE01120827D7EF01120827E9
:101943006CF001120827CAF00112082750F10112A6
:10195300082788F101120827CAF1011208273BF36F
:1019630001120827BFF401120827E8F6011208271D
:1019730016F70112082742F7011208274BF7011245
:101983000827A1F70112082731F80112082734FBB1
:1019930001120827B6FB011208277EE1031208276C
:1019A3009AB103120827B3B10312082758B20312DE
:1019B300082798B203120827B1B203120827E4B22A
:1019C3000312082731B30312082765B3031208274C
:1019D300A7B30312082790B50312082708DA0312E6
:1019E30008277ADA03120827B8DA03120827F9DA84
:1019F300031208279E5F00120827F65F00120827CC
:101A03007C600012082749610012082791610012C7
:101A13000827386200120827846200120827CB6265
:101A2300001208273A6300120827BD650012082731
:101A3300406600120827776600120827AF66001277
:101A43000827636800120827DE6800120827B169B7
:101A530000120827EA6900120827096A00120827FA
:101A6300546A001208276A6A00120827776A00126C
:101A73000827B06A00120827C26A00120827416BC0
:101A8300001208274C6B00120827A16B00120827CD
:101A9300F66B00120827356C001208274A6D0012F6
:101AA3000827C76F00120827F07000120827397142
:101AB30000120827F071001208271272001208277B
:101AC3001572001208271F720012082722720012D3
:101AD3000827A97200120827E272001208270F7361
:101AE300001208274A73001208274D7300120827B3
:101AF300677300120827827300120827B17300125C
:101B03000827D173001208270E740012082749749E
:101B1300001208275275001208279ADF03120827BC
:101B2300A6DF03120827E2DF03120827F97F00125A
:101B330008271AB4021208273DB4021208271AB55F
:101B4300021208276CB502120827C7B5021208272C
:101B53001EB60212082766B602120827CDB6021275
:101B6300082754B702120827CCB70212082711B866
:101B7300021208277FBC02120827AFBE02120827F1
:101B8300E8BE0212082727BF0212082713C0021259
:101B93000827D8C0021208274BC202120827F7C22F
:101BA300021208270DC40212082727A202120827CF
:101BB300C7A20212082733A30212082743A3021263
:101BC3000827CBA30212082727A40212082764A51B
:101BD3000212082788A502120827FFA50212082768
:101BE30050A602120827B6A60212082711A702124E
:101BF30008274BA80212082753A902120827C9A9CC
:101C030002120827A5AB0212082748AC02120827C4
:101C1300F2AC0212082757AD02120827C6AD021212
:101C23000827DCAE02120827BBB00212082748B10E
:101C330002120827B9B102120827BDB202120827FF
:101C4300B176001208271A7700120827627700126C
:101C53000827B577001208271B78001208277D781C
:101C6300001208270079001208272E79001208278E
:101C73005979001208276F7900120827C9790012D1
:101C83000827A27A00120827C67A00120827D07AFA
:101C930000120827D27B00120827BD7C00120827F8
:101CA3005F7D00120827CC7D00120827E17D00121A
:101CB3000827777E001208270DBC03120827C0BC33
:101CC300031208277FBD03120827E7BD0312082765
:101CD3005BBE031208271DB90312082738B9031284
:101CE30008277CB903120827A2B903120827C4B92D
:101CF30003120827DCB90312082786BA0312082740
:101D030090BA03120827A5BA03120827BABB031215
:101D13000827C3BB03120827CCBB03120827D5BB74
:101D23000312082700AD031208272CB1031208275A
:101D330031B10312082733B10312082708CB03126A
:101D430008270BE103120827D4E00312082737E121
:101D53000312082760E1031208273F4300120827F4
:101D6300474200120827BA40001208278A4000128F
:101D730008275740001208273340001208271F4046
:101D8300001208278D3F001208272E3F0012082754
:101D9300A73D00120827343D001208271B3D0012FF
:101DA3000827AD3C00120827733B00120827E63AC8
:101DB30000120827C03A00120827FC39001208272E
:101DC3003B3800120827CE37001208279F3700122E
:101DD30008279C37001208278737001208274B373C
:101DE30000120827283700120827F14D0012082790
:101DF300364B00120827FB49001208271C49001222
:101E030008273D4700120827F544001208274136EA
:101E130000120827003600120827E43500120827AD
:101E2300B135001208277A440012082756350012EC
:101E33000827253500120827EE3100120827FC3049
:101E430000120827214400120827C02F0012082778
:101E530032AA031208279B2E00120827182E0012FD
:101E63000827DD2D00120827892D001208277D2D54
:101E730000120827E62C00120827B42B00120827AB
:101E83005B2900120827E826001208279C26001267
:101E930008277E25001208271325001208273D2452
:101EA300001208270E2300120827A7430012082751
:101EB300DA2200120827A82200120827F2C403001E
:101EC300000080FB00013636010100010201000120
:101ED30003010001040106060502000007010034A6
:101EE3000801000F090401010D0100FF0E080000A5
:101EF30017020000190100FF1A0100011B0100FE77
:101F03001C0100081D0200001F0100012001000147
:101F1300210200002301000F24020000260100011A
:101F230027010008280200FF2A0100072B010240B5
:101F33002C0100002D0100012E0100012F0100FFE3
:101F430030010B1C310800003A0100083B01000F6F
:101F53003C0100013D0100FF3E040000420400007B
:101F6300460400004A0400004E040000520400002E
:101F7300560400005A0400005E20FFFF36000100F3
:101F8300060000000F000000000000000000000039
:101F9300000003FFFF00000403FFFF0000FFFF0F2B
:101FA300F4010005C4040320000100000B0000003D
:101FB300000000000003010F00000000000000000B
:101FC300000000000000000000000000000000000E
:101FD30000000000000000000000000000000000FE
:101FE30000000000000000000000000000000000EE
:101FF3000000000000000000000001037103010362
:10200300010301030103010322030203010310037C
:102013000003000300030003000300030003420363
:102023000003240306030003000304031203250330
:102033002303250323030403040300030003000312
:102043004403000300032303000365032100350356
:1020530081030003050300030003000300032503BA
:1020630023030302710230016002110270020102B4
:10207300020202028002100261023A00410063027E
:10208300730272026202430200021302380000026A
:102093000002040212020002000200020002040213
:1020A3000402370037003C024402000239000002F8
:1020B300000265020002350281020002050282026B
:1020C30083020002010171010101010111010101FA
:1020D3003101010101018001100161013B00140084
:1020E30063017301720162014301000113010601DF
:1020F3003D0135000401120100010001000100014E
:1021030004010401330133013C014401320136006F
:102113000001000165010001350081010001050195
:10212300820183010001030071003001600011008E
:102133007000310220035004800010006100000091
:102143001400630073007200620043000000130078
:102153000600000000000400120000000000000060
:10216300000004000400370037003C024400000074
:102173000000000000006500000035008100000041
:1021830005000000830000000100EC1B0200501B4F
:102193000300561B04005C1B0500621B06006E1B3C
:1021A30011008C1B1400921B1500801B1F00861B43
:1021B300FFFF000007ECFDFDFDECDCDCCCBCACACB0
:1021C3009C9C8C7C7C6C6C5C5C5C4C4C3C3C2C2CFC
:1021D3001C1C03EAF5E5D5D5C5B5A595958585758B
:1021E30075656555554545353525251515050A7616
:1021F3000D02460D05580D074C0D0C2E0D0D3A0D15
:10220300FF000000160F00000B150B020002220F47
:102213003300000E5A6967426565416C6C69616EF3
:102223006365303901030507090B0D0F000204062E
:10223300080A0C0D303017181921301B1D1F3030C0
:102243003016181920231A1C1E3000393D3F373C25
:102253003C362C442D00034A49434E181A250502E7
:1022630000011916181616182303000C0E020B048E
:102273000B0A0708000F0204020101010109020011
:102283000000000000E803000000BE040A3C003C1C
:10229300000E00E80304030A1E1E0C040C0404FFD2
:1022A3000815280908C082C08312120890030E740F
:1022B30098F0A3741EF09003107492F0A3741EF0B0
:1022C300900312748CF0A3741EF09003147486F0C0
:1022D300A3741EF0023D0374F7120379E9FE900321
:1022E30002E4F0EE900301F07CC97D0D7A037B03D9
:1022F3001219EE900E5AE090030BF090030C74B594
:10230300F0A3740DF0121E6202408574F412037977
:102313008A088B09EB548070030223E1900301E0E8
:10232300F91218688A0A8B0BAE0AAF0BEE4F7003D3
:102333000223D8124AFEE0F9123FC090031C124751
:1023430011A3A3A3A3A3A3A3A3E0640270378A8268
:102353008B8312405380078C828D83124002EC4D95
:1023630060208C828D83E06A7003A3E06B70E88C3D
:10237300828D83A3A3E06970DE900E5E125458F041
:10238300804C121E3E8E828F83E064017034EE24F3
:102393001812243512084812421012065CEE241259
:1023A300122435120848125157120844122FB21240
:1023B3000660EE24171251631211C6740A120872D2
:1023C300800CE064027007EEFAEFFB121D96EEFA42
:1023D300EFFB121856AA08E5096480FB8051EA5402
:1023E30002600C900DDD7401F0EA6402FA8040EAA9
:1023F30054046009121E5CE50864048029EA540849
:102403006029121E4A8B0BEA450B701690031EE4DB
:10241300F0A3F0A3F0A3F07A08FB900301E0F91214
:1024230019C4E5086408FAAB0980047A007B00024A
:102433002DD8125064F50A780A2274F41203798AAB
:10244300088B098A828B831255D912504338F5833E
:10245300E02409FA7B001218508A0A8B0BAE0AAFEC
:102463000BEE4F70030225038E828F837402F0A359
:10247300E4124325A3A3A3A3E8F0A3E9123FD7A340
:10248300A3A3A3A3A3A3F0E5082403F8E435091247
:1024930037501250433AF58312470AF0EE2409FAF3
:1024A300E43FFB8E828F83A3A3123C75F58388825E
:1024B300E0A2E58E828F83A3A3A3A3A35004740198
:1024C3008001E4F0E5082403F888828983124053ED
:1024D300EA1237343BF583122506120840EA1250FC
:1024E300433B123CE88E828F8312405112182674AC
:1024F30003120872EEFAEFFB900301E0F912185C85
:10250300022DD8E0F508A3E0F509750A0078082242
:1025130074F21203798A088B09ECFAEDFB740E123C
:102523000AF9E0FC1212388A0C8B0DAE0CAF0DEEDB
:102533004F6031AC08AD09121226E96027AC08AD33
:1025430009EEFAEFFB12122CE970158E828F8312BB
:10255300256CEEFAEFFB121220AA08AB09121250F7
:102563007900800279B4800EA3A3A3E0F508A3E069
:10257300F509221208727F060205D774EF12037958
:1025830074F71209068A0A8B0BECFEEDFF750DB387
:10259300750C00751000800205109022A0E493F8DA
:1025A300E510C3984003022690851008AA087B0013
:1025B3001212988A088B09EA450960DC8A828B83A8
:1025C300A3A3A3A3A3E0250CF50CF50EC3E50A957D
:1025D3000EE50B940050C17C157D007900EEFAEFF7
:1025E300FB121832850882850983A3A3A3A3A3E062
:1025F300F8E50AC3950C2825E0F8E433F9E5082843
:10260300F582E50939F5831244DC1244F1120E0612
:10261300EAFCEBFDEEFAEFFB1219EE850882850961
:1026230083A3E06401700A12421074011242D7803E
:102633003DAC18AD198508828509831240511212E9
:1026430080E960307408120AF9E0C0E0124210D049
:10265300E0F07408120AF9E06403700CAC18AD19C9
:102663001246F81219EE800C8518828519831242DE
:10267300181244EB85088285098312373EA3A312FF
:1026830042DFC0E0124D4FD0E0F0750D00A90D748C
:10269300091208727F090205D774F7120379E9FE5C
:1026A3008A828B83A3A3A3A3A3A3E0540860338AE2
:1026B300828B83A3A3A3A3A3A3E0540260218A82F2
:1026C3008B83A3A3A3A3A3A3A3A3A3E06406600F85
:1026D30074E96E600A74CD6E600574F06E70031257
:1026E3001E7A02408574E812037974F8120906749D
:1026F30006120AF912573CECFEEDFF891775150017
:1027030012293A1212448A0A8B0BEA450B70030210
:1027130028F6EE24101248DFA90A120C808A128BC5
:1027230013EA451370030228F6EE2403F50CE43F85
:10273300F50DEE2406F508E43FF5097C00850882D3
:1027430012509812124A8A108B11850C82850D83C0
:10275300E0851282851383A3A3A312371685128201
:10276300851383A3A3A3A3E8F0A3E9122FBA8512C9
:1027730082851383A3A3A3A3A3A3A3124B2B851225
:1027830082851383A3A3A3A3A3A3F0EE1237343F3D
:1027930012294B1208401250423F123CE885128224
:1027A300851383A312404B12182674031208727503
:1027B30014007423120AF9E0F5167424120AF97846
:1027C3000C120AAE02287B851082851183124051B8
:1027D300121286850882850983A3EAF0A3EB1229E6
:1027E30056A3A3123FE5122B9AA2E6500F85088247
:1027F300850983A3A3A3A3A3E0D2E1F0E515706742
:10280300850882850983A3125215900364E06870DA
:1028130003A3E0697051850882850983A3A3A312EA
:1028230048E47510007810120848780C12083CE54B
:1028330016F51078101208487426120AF912066069
:1028430090037112066079007410120AF9123FCFD7
:10285300121D66740A120872850882850983A3A370
:10286300A3A3A3E04405F074012514FC12293A1232
:10287300124A8A108B110514E51045116050851416
:1028830008C3E508950AE4950B5043E51475F00673
:10289300A4F8A9F0E51228F8E51339F9E8240CF5B2
:1028A30008E439F509850882F583E4125F91E06451
:1028B3000160030227CA751501850882850983749F
:1028C30001122956124DA4E8F0A3E90227E1AA1246
:1028D300AB13120C867812120844AD167424120A34
:1028E300F9E0FCA917EEFAEFFB121E80740212083E
:1028F30072803A8E828F83A3A3A3E0C0E074031295
:102903000AF9D0E0122FBAC0E07404120AF9D0E039
:10291300F0E50A450B70097405120AF974B98007CA
:102923007405120AF97410123FF2121D6C74081226
:1029330008727F100205D78E828F831244008E8225
:102943008F83A3A3A3E0F922F5831234EC750E0061
:10295300780C22125F95A32274E912037974F3129F
:1029630009068A0A8B0B89168C148D157424120A96
:10297300F91234E8AA0CFB120C74E9F513AA0CAB98
:102983000D120C7AE5137003022B5C750E00800F99
:102993008E828F83A3A3A3A3A3E0D2E3F0050EE566
:1029A3000C123B2F350DF583E0F8E50EC398400379
:1029B300022B53E5137003022B53E50E75F006A4A7
:1029C300F8A9F0E50C28F8E50D39F9E8240CFEE444
:1029D30039FF8E828F83A3A3A3A3A3E0A2E040BD0C
:1029E300750F00750808750900E5156003750F205C
:1029F3007C087D007900AA18AB191218328E828FD9
:102A030083E060379003B4E064017017E50FD2E30D
:102A1300F50F7509108E828F83122B79123B687420
:102A2300FF8028430F0C75080C8E828F83A3122B13
:102A33006FA3A3A3A3125799A38010E5166009E51A
:102A43000FD2E6F50F75080A122B8DF07402120AE5
:102A5300F9E50F124DD3C0E07404120AF9D0E0F087
:102A63007405120AF9123FF0121D90740C120AF940
:102A7300E06003022B367408120AF91237118E82B2
:102A83008F83A3A3A3A3F07408120AF9122BA31232
:102A930034DEE514122B9A60119003B4E0C0E074A5
:102AA30008120AF91234F4D0E0F0850C82850D8304
:102AB300A3A3A3E0C0E07408120AF91250BCD0E04B
:102AC300124010C0E07408120AF91234FED0E0F08C
:102AD3007408120AF9122B6F1255FC124DDDE01225
:102AE30055E5EAF0A3EB124DC5C0E01255C9D0E09D
:102AF300F07408120AF9122CD2122B6612397B3B9E
:102B0300124DB2123734124D49F510A3E0F5117589
:102B130012007810120840123CE3EA123FB83BF56A
:102B2300831240531218267403120872AA18AB19A1
:102B3300121D8A8E828F83A3A3A3A3A3E0D2E0F006
:102B4300740C120AF9E0600302299315130229A0F9
:102B53007900AA0CAB0D121E74740D1208727F0F4C
:102B63000205D7A3A3A3A3125219EA22125219856D
:102B73000A82850B8322A3122B7E22122B8222121E
:102B83003B5DF985188285198322A3122B922212A9
:102B93002B82E8F0A3E922122B9E2212523FE0225D
:102BA3001239A2124B3039F583E508F0A3E509F099
:102BB3002274F012037974E9120906EAFEEBFF8925
:102BC300088E828F83A3A3A3A3A3A3A3A3E0F912D5
:102BD3000C9E8A0C8B0DEA450D7003022CCDE50883
:102BE30070157C048E828F83A3A3A3A3A3A3A3A3A3
:102BF300E0F9120CA4804F7C088E828F83A3A3A3D9
:102C0300A3A3A3A3A3E0F9120CA48A0A8B0BEA459E
:102C13000B6033E508F5097809120848850C8285AD
:102C23000D83A3A3A3A3A3A3A3E0FD8A828B83A302
:102C3300A3A3E0FC8A828B83A3122CD2E0F91211A6
:102C4300C074011208721254333F1248EE607B883D
:102C530082898312404F7406120AF9122CDC124047
:102C6300537408120AF9122CDCA3A3E0C0E0741019
:102C7300120AF9D0E0F0850C82850D83A312404B34
:102C8300740E120AF912573C7411120AF9E4122B4A
:102C93009AFAA3E0CA241FF582E43AF58312382393
:102CA300C413135403FC70027C0488828983E0F903
:102CB300780C120844742059FD744059F9740212B7
:102CC30008E0121E80740212087274170236F112A1
:102CD3004406850A82850B8322EAF0A3EB123B2785
:102CE300A3A32274F712037974FA120906E9FE7F8B
:102CF300018F087D0080047508000D1236BEE0F8D0
:102D0300EDC3985025ED75F006A4F8A9F0EA28F86C
:102D1300EB39F9E82411123981A2E050DA540C603E
:102D2300D6E0A2E250D47F0080D08A828B83A3A313
:102D3300A3A3A3A3E0703EE508A2E0400574016EDF
:102D430070338A828B83A3A3A3A3A3A37401125416
:102D53009CE0C0E07403120AF9D0E0125494E0C07E
:102D6300E07404120AF9D0E0F07405120AF9EF12C4
:102D73003FF2121D6C7406024082C082C083790147
:102D8300121E74023D0374F4120379EA4B602D9012
:102D930003B0E064027025900DDDE4F08A088B092E
:102DA300F50AF50B780812083C7A027B00900301C0
:102DB300E0F91219B874041208728012900DDD74D0
:102DC30001F07A027B00900301E0F91219C4800537
:102DD30074021208727F040205D7C082C083900E6A
:102DE3002CE075F005A4FCADF079007A3A7B0C1267
:102DF30018327B008012EB75F005A4F8A9F0122FAE
:102E0300A774FEF0A304F00B900E2CE0F8EBC3982C
:102E130040E4023D03C082C0837C007B0080037CCE
:102E2300010B900E2CE0F8EBC398504DEB75F005B9
:102E3300A4F8AAF0EAF9122FA07003A3E0F460E16A
:102E4300122F97E82403F850010988828983E0242C
:102E5300FFF0A3E034FF123780F9E84970C1EB7546
:102E6300F005A4F8EAF9122F978882898374FEF09B
:102E7300A304122F92E4F080A8ECA2E050179082F2
:102E83004612065C7A047B00900301E0F91219B83C
:102E93007404120872023D0374F7120379EAFEEB1D
:102EA300FF900E2CE07003022F89EE241112505D67
:102EB3007003022F898E828F83A312404B120E66FA
:102EC300E96402600F8E828F83A3A3A3A3A3E070A0
:102ED30003022F897C00803CEE123B2F3F125213DA
:102EE300EC75F005A4FAADF0EDFB743A2AF58274A3
:102EF3000C3BF583E0687003A3E0697016EE2412BF
:102F030012505DFBEDF9743C2AF582740C1239847E
:102F13006B60780C900E2CE0F8ECC39840BA7C0000
:102F230080010C900E2CE0F8ECC398505EEC75F029
:102F330005A4F8A9F0122FA07003A3E0F470E31224
:102F43002F97122FB2123EE4EAF0A3EB122FBA88A6
:102F5300828983A3A3122F92A3740C124B2B7A049E
:102F6300FB900301E0F91219CAEA4B4C4D7017901C
:102F7300824612065C7A047B00900301E0F9121981
:102F8300B874041208727901024085790080F9123D
:102F930054BFA322743A28F8740C39F922122FA7CC
:102FA300E064FE22743A28F582740C39F58322EE2C
:102FB300123B333FF58322F0124206E02274E812FB
:102FC300037974FC1209067402120AF9E4F0A3F0FF
:102FD30090031C1249F5851882851983E4F0A3F048
:102FE30075140190035EE0A2E350030230771219D7
:102FF300D68A088B098C0A8D0B8A0C8B0D8C0E8D4F
:103003000F90031E780C1208C01230EC7810790C64
:10301300120A6050077A017B000230E7850C1485A1
:103023000D15850E16850F177814791012030AA84B
:1030330014A915900E5EE0C398E4995003E0F514CB
:103043001230EC780C791012030AE4F512F51378B8
:1030530008791012096F90031E7808120A908014E1
:1030630012521590031C1244F1EEFAEFFB12190AE7
:10307300AE08AF09EE4F60648E828F83A3A3A3E0F3
:10308300F8E514C3985029EE2403F582E43FF58351
:10309300A814E0C398F060217402120AF912522FA7
:1030A300124735EEF0A3EF123F17FEA3E0FF80C4F3
:1030B3008E828F83A3A3A3E4F08E828F83A3122532
:1030C3006B8518828519831248F08E828F83A3A3A0
:1030D300A3A3608C122B7A12376F808A7402120AB0
:1030E300F91240537404022932900E5CE0F510A3E8
:1030F300E0F511E4F512F5132274F21203798A0A4A
:103103008B0BE9FE7A007B0090031C12256E900363
:103113001C1248F0601E0A850882850983A3A3A3B5
:10312300A31248F0600E0AEA70010B88088909E8C7
:10313300450970E3900E5F125215C3EA98EB99406C
:10314300030231EB7A067B001219048A0C8B0DA85B
:103153000CA90DE84970030231EB88828983E50AE3
:10316300F0A3E50BF0EE88828983A3A3F0900E5EB3
:103173001239CEA3A3123B22E4F0A3F090031C1256
:1031830043FA600F850882850983A3A3A3A312448E
:10319300F1801F90031C1244F190035EE0A2E34010
:1031A300111219D6EAF8EBF9ECFAEDFB90031E12B3
:1031B3000ACA90035EE0A2E3502E7A087B009003D4
:1031C30001E0F91219CAEA4B4C4D701C900E5C12C7
:1031D3005D92780812083C7A087B00900301E0F9BD
:1031E3001219BE740412087202257974F21203795B
:1031F30074F3120906EAFEEBFF8E828F83A3A3A367
:10320300A3A3A3A3A3A3A3E0F50A900DDDE0700598
:1032130079BA0234D2750801750900750C00750D71
:10322300007C087D007900AA18AB191218327405C6
:10323300120AF9740112350A540460127402120A54
:10324300F9E0D2E612350A54087003750803E05416
:1032530010600674404508F508E0540860227402C3
:10326300120AF9E044C012350A5420600A740312AA
:103273000AF9E0D2E080087403120AF9E0D2E1F01F
:103283008E828F83A3A3A3A3A3A3A3A3E070161289
:103293000E0C85188285198312573C7402120AF9A1
:1032A300E0D2E2802C640F70107402120AF9123516
:1032B3001274044508F508807B8E828F83A3A3A331
:1032C300A3A3A3A3A3E064028E828F837006122BB1
:1032D3008EF08060A3A3A3A3A3A3A3A3E0640370BE
:1032E3000DAC18AD19EEFAEFFB121E1480468E8258
:1032F3008F83A3A3A3A3A3A3A3A3E0640170359027
:1033030003B4E060107402120AF912351275091041
:10331300750AFF80187402120AF9E0440C1247354B
:1033230074FDF0A374FFF074044508F5088E828FD2
:10333300831234E8EE241512505DA2E0503F74026C
:10334300120AF9E0540C701B8E828F8312405312C1
:103353001C88E9700579BB0234D27402120AF9E0C1
:10336300D2E5F0EE241512505DA2E0501074021263
:103373000AF9E0540C64047004E0D2E5F0EE241181
:1033830012505DC0E07404120AF9D0E0123FF21249
:103393001D90740C120AF9E060030234CB74081216
:1033A3000AF9122BA3EE241812505DC0E01234DE8A
:1033B300D0E0124DBAE0C0E07408120AF91255DCED
:1033C30012505438F583D0E0123B626401701190BF
:1033D30003B4E0C0E07408120AF91234F4D0E0F048
:1033E3007408120AF9124D9F2417FAE43FFB8A82EC
:1033F3008B83E0FCE8241CF582E439F583ECF0A32D
:10340300E4124417E0C0E0E82422F582E439F583AE
:10341300D0E0F07408120AF91234FEE50AF07408D9
:10342300120AF912399E12397B39F583E50CF0A3A0
:10343300E50D1250D3FCA3E0FD125607ECF0A3ED0B
:103443001236EC1240061234D739125222C0E0E889
:10345300242FF582E439F583D0E0F0EE241B1250DB
:103463005DC0E07408120AF91255F0D0E0F0EE24C2
:103473001A12505DC0E07408120AF91255DC1248A2
:10348300D538F583D0E012561A12250712084012D8
:1034930041F8124006740B120AF9123B4512182622
:1034A3007403120872EE241512505D54406012909A
:1034B300032C1248F0600AAA18AB19125F5F1204BA
:1034C300F1AA18AB19121D8A740C120AF9E0F974E7
:1034D3000D022576E82428F582E422E82412F582F9
:1034E300E439F583221234EC22E0F50CA3E0F50D68
:1034F300221255E0124D3038F583221255E0242371
:10350300F582E438F58322F0EE241512506422E0AC
:10351300D2E312523F12351C22122B82E8F0A3E9A8
:10352300F02274F71203797E638A828B83E0600C46
:103533007905120B72E9F87456C398FE90035CE0A8
:10354300600CF9120B72E9F8EEC39824F2FEEEF95F
:1035530002408574F612037974FE120906851882F7
:1035630085198312573CE9FEECFAEDFB9004C61271
:1035730048F06035A818A91988088909780812083D
:10358300447D01740E120AF9E0FCEEF99004C612B0
:103593003D971204F174021208728B09EA4509601F
:1035A300047900800679B2800279B602371E74F777
:1035B300120379E9FE90030E1248F0601F7409129A
:1035C3000AF9E0F5087808120848EEF990030E129C
:1035D3003D971204F17401120872800279B6024019
:1035E3008574F7120379E9FE79B574AB6E700B90AD
:1035F300030C1240531219EE790002408574F51240
:103603000379EAFEEBFF8C088D09750A01120E0699
:10361300EAFCEBFDEEFAEFFB1219E8E96401700B2B
:103623009003641237611244F1800EAC08AD09EEC9
:10363300FAEFFB120BA8E9F50AA90A02585F74F620
:10364300120379EAFEEBFF7A0C7B00121904EA4BB2
:103653006066EE242012505D8A828B83F0EE242173
:103663001236C6F0EE24221236C6A3F0EE2423123D
:1036730036C6A3A31248F51236CF1244F1EE123424
:10368300D83FF5831236CFA3A3E8F0A3E912490488
:103693008A828B83A3A3A3A3A3A3A3A3F0EE242FC4
:1036A30012505DC0E01236BED0E01240191236D47B
:1036B300A3A3A3A3A31244F1023723EA123B333B90
:1036C300F583221250648A828B83A322E01236D4BC
:1036D30022F8A3E0F98A828B83A3A3A3A322F58212
:1036E300E43FF583E4F0A3F022F0124D85221208A3
:1036F300727F080205D71237018882F58322F8E426
:103703003FF98808890922A3A3123B3DA32212375C
:1037130075E022123CEFF8A3E0F92274021208725A
:103723007F020205D7C082C083123794E4F0023DC2
:103733000312373822240EF582E422123FDE22F5EB
:1037430083E02AFAA3E03B227901020824F9888264
:103753008983E0FAA3E0CA22123828A3A3221237EE
:10376300652212521D8508828509832212375BA3C5
:10377300A322123B5DC812373838F58322124B243B
:10378300F8A3E022C082C0831237947401F0023D93
:1037930003EA1254423BF5832202374BC082C083B3
:1037A30090032274E4F0A3741DF090032474D8F002
:1037B300A3741DF090032674D2F0A3741DF090033C
:1037C3002874DEF0A3741DF0023D0374F412037930
:1037D300EAFEEBFF123831F508120E0C8A0A8B0B46
:1037E300A80AA90B8E828F83123823687003A3E083
:1037F30069602AE508A2E550248E828F83A3E0FB4B
:10380300900322123D971204F18E828F831255DCAE
:10381300240A1248EA7006123831C2E5F0022DD8A4
:10382300123828E022E0FAA3E0F5838A82228E820E
:103833008F8312370CA3E02274F4120379EA24086D
:10384300FCE43BFD8C828D8312399E242012398146
:10385300FE74035EF509123B2E39124D9D88828951
:1038630083F0A3A882A983E509600974026509604E
:1038730003023907740C5EF5086017740865086065
:1038830011740465087013740265097005EEA2E4EF
:10389300402A1239A724231239D4740C65087016F0
:1038A30012399024241239B9FCA3E0CC12397B3CA1
:1038B300F583A31239DA740265097005EEA2E440B8
:1038C3004312399024261239B9FFA3E0CF1248DB03
:1038D300A31239DA12399424281239E91234D83C64
:1038E300F583A31239DAE508601274086508600CE1
:1038F300740C650860067404650870081239A724FF
:10390300221239D41239A712396F7005EEA2E15091
:103913000C1239A71248D53C123989801090030242
:1039230012398B900302E004F088828983A3A88272
:10393300A983EEA2E7503212399024211239E912F9
:10394300396F60251239A724301239D4EEA2E15021
:10395300188A828B83A3A3A3A3A3A3A3A31237557C
:103963002431F582E43A123989022DD82421F582D3
:10397300E43CF583E05403222424F582E422F58217
:10398300E439F583E022F5831239CEF022EA2408E4
:10399300FC8C828D83E0FFA3E0CF221239A2221296
:1039A300521DE8228A828B83A3A3A3A3A3A3A3A369
:1039B300E0FCA3E0CC22F582E43FF5831239CEF09C
:1039C300A3A882A9838C828D83E022E088828983E5
:1039D30022F582E43CF5831239DE22E08882898372
:1039E300F0A308A98322F582E43FF5831239DE8C24
:1039F300828D83E0FCA3E0CC22C082C0838A828BC9
:103A030083123835F8740358F98A828B83A3A3741D
:103A130001F0E960057402697061740C58FC60146C
:103A230074086C600F74046C70137402697005E899
:103A3300A2E4401D8A828B83A3A37402F0740C6CEE
:103A4300700A8A828B83A3A3E02402F07402697054
:103A530005E8A2E440258A828B83A3A3E02404F033
:103A6300EC600F74086C600A740C6C600574046C71
:103A730070098A828B83A3A3E004F0E8A2E75031A4
:103A83008A828B83A3A3E004125228F9A3E0F5836F
:103A93008982A3A3A3E0540360178A828B83A3A321
:103AA300E004F0E8A2E150098A828B83A3A3E00437
:103AB300F08A828B83A3A3E004F0023D03C082C09B
:103AC300838A828B83A3A3A3A3A3A3A3A3A3A312E6
:103AD30048F0600C8A828B83A3A312404B12190A0D
:103AE300023D0374F7120379EAFEEBFF8E828F83A4
:103AF30012421FA3A3A3A3A3A3A3A3E4F0123B22F5
:103B0300A3A3A3A3A3A3F0A3F0E812544239F5831C
:103B1300E4F0121DBAEEFAEFFB121DC6024085A3B4
:103B2300123B27221254BFA3A3A322E8123B332242
:103B3300240BF582E422123B3D22123B5DF5838880
:103B43008222123B4C12440622123B5022123B5D4E
:103B5300C8242BF582E438F58322E0F8A3E022128F
:103B63004911A3E02212351F8E828F83A3A3A322C0
:103B730074F612037974F4120906123C85FCA3E06F
:103B8300F5838C82A3E0FC7402120AF9EC124B2039
:103B9300123CA47404120AF9123FF86C7012123C1E
:103BA30097123C7C7406120AF9123C69241A803A73
:103BB3007402120AF9E064016005E06406703CEAED
:103BC3002402F8E43B123750124D8D3AF583E0C0DE
:103BD300E07403120AF9D0E0124B202413123C7E46
:103BE3007406120AF9123C69241BF8A3E03400F9A5
:103BF3007408120AF9E8F0A3E980297406120AF995
:103C0300E4F0A3123C92123C7C7408120AF9123CB1
:103C130075C8241AF582E438F583E0C0E0740A120B
:103C23000AF9D0E0F07406120AF91248F0602B7416
:103C330006120AF9124053120B9CE96401701B121D
:103C43000E068A088B09AC08AD097406120AF9122C
:103C530040531219E8E964017007AA18AB19121D41
:103C630060740C023720123C6D22EAF0A3EB124B76
:103C73002422123C6DF8A3E0222412FAA3E03400BC
:103C8300FB228A828B83A3A3A3A3A3A3122B92F069
:103C9300123C9722EA2402F8E43BF988828983E004
:103CA300222402F8A3E03400F922C082C08374FD09
:103CB300120906123CCDC0E07402120AF9D0E012D8
:103CC3003FF2121D5A7403023D008A828B83A3A321
:103CD300A3A3A3A312351C8A828B8312370AE02283
:103CE300125450350BF583E0FC7D0022123CF32285
:103CF300F0850882850983E022123D14221208729E
:103D0300D083D082020824123D1024FB228A828BA6
:103D130083A3A3123B3DE022C082C083123D0A600D
:103D23000624FC60078008121DA88003121DA280D0
:103D3300CFC082C083900E61E07025900DD3E070F8
:103D43001F8A828B83A3A3A3A3A3E07013123D9BBB
:103D530060388A828B83A3A3125F5EE06407602AC4
:103D63008A828B83A3A3A3A3A3A3A3A3E070128A32
:103D7300828B83123DA160097A347B01121B2C8054
:103D83000990032A123D971204F1023D03EEFAEF64
:103D9300FB900324123B3922123D10640622123D8C
:103DA3001464052274F612037974FA120906EAFE02
:103DB300EBFF7403120AF9124D3674031208E01272
:103DC3001DAE12505A6003023ED1851882851983B5
:103DD3007432F07405120AF912578CC0E0740112A0
:103DE3000AF9D0E0123F0BC0E07402120AF9D0E0E6
:103DF300123F11F8A3E0F9E8496017E824171239D4
:103E030081FAE824161239812AF87401120AF9E0BA
:103E130028F0AA18AB19120BF68A088B09A808A96F
:103E230009E8497003023EC68E828F83123EE4A3E3
:103E3300A3123F04124D8D39124015C0E0E824202F
:103E4300F582E439F583D0E0124010C0E0E8242184
:103E5300F582E439F583D0E0123F17C0E0E8242A65
:103E6300F582E439F583D0E0F07405120AF9E0FC39
:103E7300E8123EDC2C123C7EE8123FB839F583127F
:103E83003F04242DF582E439F583EC123F11FAA3A4
:103E9300E0FBEA4B601BE8242BFAE439FB8E828FAC
:103EA30083A3A31239AB2416F582E43CF583123EB7
:103EB300EC8E828F83A3A3A3A3A3A3A3A3E8F0A35E
:103EC300E9800AEEFAEFFB121DB4123ED6F0740637
:103ED3000237201242FE741022123B3339F583E07D
:103EE300221244068882898322E0FC8A828B83E043
:103EF3002CFCA3E03400FD8A828B83ECF0A3EDF06D
:103F030022EAF0A3EBF0E822123F1CA3E0221244C2
:103F13001BA3E022123F1CE022123F2022123F2467
:103F230022F08E828F83A3A3A3A32274F6120379B4
:103F3300EAFEEBFF12505A7042121DC08E828F832D
:103F4300A3A3A3A3A3A3A3A3A3A31248F06006124E
:103F53003D901204F112505A700B124047120BF0AD
:103F6300123F888015EE24081236F91240531219B5
:103F73000A850882850983E4F0A3F0EEFAEFFB12C9
:103F83001DB40237231242FEE92274F6120379EAC2
:103F9300FEEBFF8C088D09121C88E97004790180FF
:103FA30011AC08AD09EEFAEFFB900328123D97120E
:103FB30004F1023723242BF582E4227D00EE240250
:103FC300FAE43FFB22A3E08E828F832212400AEEA3
:103FD300FAEFFB221242DB123FDE22E08E828F8356
:103FE300A322E0850882850983A3A3A3227401F099
:103FF300AA18AB192212351F740422A3A3A3A3A3E7
:10400300A3A3A312400A22E0FCA3E0FD221252382C
:10401300E022F5837401125615A3E022C082C08307
:10402300121DCC90032A749CF0A3741DF0023D036F
:10403300C082C0837C0879FF90030C12405312188E
:10404300C8023D038E828F83A3A3A3A3A3A3A3A329
:104053001244062274F7120379E9FE12542512481A
:10406300EE601A88828983A3E054037010EEFB127A
:104073003B2E39F5831240B1E0F91211BA800312D5
:1040830008727F010205D7C082C083EAF8EBF98882
:10409300828983A3A3A3A3A3E0FB88828983A3A329
:1040A300A3A31240B1A3E0F91211BA023D03E0FA4F
:1040B30088828983A3A32274F01203798A088B0967
:1040C3008C0A8D0B890FEA124D61E02430FA7B00D4
:1040D3001218508A0C8B0DAE0CAF0DEE4F7003020D
:1040E30041F58E828F8374011251761208407C173A
:1040F3007D00EE2419FAE43FFB121826740312081C
:1041030072850A0C850B0D780C1208407C09123F4E
:10411300BE12182674031208727410120AF912429E
:10412300181244EB7412120AF912421FE0C0E01293
:104133004D81D0E0124DA9C0E01241F8D0E0124207
:1041430035C0E01249E0D0E0F07414120AF9E0C07F
:10415300E0124202D0E0F0EE24271236E174151289
:104163000AF9120AD6124210120ACA124D67E50F53
:1041730012423AF8A3E0F9EE240D1244EB7419123B
:104183000AF9E0C0E0124D93D0E01257A6E0602F89
:10419300EE24271247002430124227240E12577DA3
:1041A300125F83120840E5081250433509123CE8B8
:1041B3008A828B831240531218267403120872EEFC
:1041C300241A12505D5403601D90031A1248F060C4
:1041D3000CEEFAEFFB125F5F1204F18015EEFAEFBB
:1041E300FB121856800CEEFAEFFB900301E0F91274
:1041F300185C0236F4EE2411F582E43FF5832212B3
:10420300420622EE2412F582E43FF58322EE125099
:10421300543FF58322125219EE240B2212521988AD
:1042230082898322F8E43FF98A828B8312351FE562
:1042330008221254BBE0221242DBA3A3A3A3A3A32D
:10424300A3A3E02274F11203798A088B097A207BF5
:10425300001218508A0A8B0BAE0AAF0BEE4F607236
:104263008E828F8374041243378E828F83A3A3A31A
:10427300A31242D7123FC81242DFF50CA3E0F50D9B
:10428300750E00780C1208407C107D00124D5912F7
:1042930018267403120872850882850983123FFE6B
:1042A300EE2416FAE43FFB120B96850882850983F8
:1042B300A3A3A3A3A3A3A3A3A3A3E0C0E01248BA09
:1042C300D0E01242EFC0E0124D3CD0E0124308129E
:1042D300185C801E1242DB2212431B22A3A3A3A35A
:1042E300A31242E82212431BA3A3E022F0124D754E
:1042F300E0227F070205D71242FE22EE240CF5824C
:10430300E43FF58322F0EEFAEFFB900D05E0F9228E
:10431300E8F0A3E912431B22F0850882850983A3F1
:10432300A32212432922123CF3F8A3E0F98E828FD1
:1043330083A3A322124329124313E02274F6120328
:1043430079EAFEEBFF7A057B00121850EA4B6027EF
:104353008A828B8374081252458A828B83A3A3E8D3
:10436300F0A3E91240198A828B83A3A3A3A3F0903D
:104373000D05E0F912185C023723C082C083E9906F
:104383000DDEF09003167408F0A3741EF09003186A
:1043930074F6F0A3741DF090031A7490F0A37414D0
:1043A300F0023D0374F7120379EAFEEBFF8908EE8E
:1043B3004F70031212D490032E1248F0700890032A
:1043C3002E802212521588828983A3A3A3A3A3A3B9
:1043D300A3A3A31243FA88828983A3A3A3A3A3A3BA
:1043E300A3A3A370DEEEF0A3EF124417E4F012448C
:1043F3000CE508F0024085124406EA4B22A3A3A36E
:10440300A3A3A3E0FAA3E0FB22A312441122123FC9
:1044130020A3A32212441B22124915A3A32274F73B
:1044230012037990032E800D8E828F83A3A3A3A3FF
:10443300A3A3A3A3A31249F5EE4F60348E828F8307
:10444300A3A3A3A3A3A3A3E06970DD8E828F83A399
:10445300A3A3A3E06A7003A3E06B70CC8E828F8367
:10446300A3A3A3A3A3A3E06C70BEEEFAEFFB8004A7
:104473007A007B0002408574F712037990032E12B1
:1044830049F590032E122B6A687002EB69701CE0E9
:10449300C82409F582E43812521390032E1244F112
:1044A30090032E1249F580271249E8EE4F60208EC3
:1044B300828F83A3A3A3A3A3122B66687002EB6965
:1044C30070E68A828B83A3A3A31244DC1244F11205
:1044D300190AEEFAEFFB024085A3A3A3A3A3A31239
:1044E3004729A3A3A3A3A322F582E43FF5831235AF
:1044F3001F2274F012037974FA1209068A088B09D1
:104503008A828B83A3A3A3A3A3A3A3A3E06033649F
:1045130001602F8A828B83124053120E66E9702248
:10452300850882850983A3A3A3A3A3A3A3A3E0640C
:1045330003701474041208E8AA08AB09121E14E9E4
:10454300701679020246E98508828509831252159D
:104553007404120AF91244F1E50824111257742461
:1045630032123C7E1219048A0A8B0BAE0AAF0BEE91
:104573004F70030246E77C327D00790012183274D3
:10458300021208E0850882850983A3A3A3A3A3A33A
:10459300A3A3A3E0F91212027402120AF9E0C0E025
:1045A3001248C4D0E0F0EE242CF50AE43FF50B7476
:1045B30003120AF9E0850A82850B83F07901EEFA8A
:1045C300EFFB121EAA85080C85090D750E00780CE9
:1045D3001208407C1C7D001246F812182674031240
:1045E3000872EE243012470024321242272411F8B5
:1045F300E43509F9E8FCE9FD8C828D83124D9F12A5
:1046030048CE12422F124AF8125F831208408C825E
:104613008D83124711124053121826740312087225
:104623007404120AF91247251244F1900302124747
:104633000AA3A3A3F0900302E004F01219D61257C1
:1046430038EE242A12506C750D00850A82850B837F
:10465300E0780C1209978A828B83E50CF01246EE00
:10466300E50C124735E4F0E5082415125774A2E06F
:1046730074015007120AF974018004120AF9E4F074
:10468300EE2427123701AA18AB191211EAE924FE06
:10469300850882850983F0EE242EF8E43FF9E8FCCF
:1046A300E9FD124719120231E88E828F83A3A3A377
:1046B300A3A3A3A3A3F01247191202318B09EA455E
:1046C30009600F8E828F83A3A3A3A3A3A3A3A3E055
:1046D30004F0EE242012505D44081250C8121892C0
:1046E30079008002791074060236F1EE2429F582EE
:1046F300E43FF58322EE240BFAE43FFB22F8E43F88
:10470300F9E8FAE9FBEE22123FDEA3A3A32212404B
:104713000A8A828B83228C828D83123765E0FA7B2F
:1047230000221247292212521D8E828F83A3A3A334
:10473300A322F08518828519832274F4120379EA7F
:10474300FEEBFF1219D6125738900E56E0F8EE24FE
:104753002B12505DC39840030248A8125078701280
:10476300EE242B12505D04124904C0E01246EED031
:10477300E0F0EE242812505DFC7900800109EE245C
:104783002C12505DF8E9C39850267508017509008D
:10479300E97808120997125078550860E0E92CFC73
:1047A300750801750900E97808120997E04508F0D2
:1047B300EE24271248DFEE1248CEEC8A088AF0A4D2
:1047C300F8ABF0E42BF9E098F8A3E099F9C3E89586
:1047D30008E99400EE4035242712505DF812507812
:1047E30060301248C41248E4A3E4F0EC7050EE24A5
:1047F3002012505D4420123B62C0E0EE1248DBD031
:10480300E0F0EE24301248DFA3E080581246EF7444
:10481300FFF0900354E0FA900E59E0F508EA85089A
:10482300F0A4ABF075F064A4FAADF075F064EBA4FA
:104833002DFB8E828F83A3A3EAF0A3EB80ACEE243F
:104843002012505D54DF1248F5ECF08C08EE24275B
:1048530012505D8508F0A4FAABF0EE2430F582E443
:104863003F123742FB1248BAEAF0A3EB12490CC0DD
:10487300E0EE2425F582E43FF583D0E0F0EE241C3E
:10488300F582E43FF583E8124B2B9003301248F096
:10489300600BECF9125F5F1204F1E970171246F82E
:1048A300121E38800F7BE9124B111211BAEEFAEF88
:1048B300FB121E26022DD8EE241EF582E43FF5835B
:1048C30022EE242DF582E43FF583221248D53FF5ED
:1048D3008322242EF582E4221248FB22125064FA2A
:1048E30022123FDEA3F022F582E438F5831239A2C7
:1048F3004922F0EE1248FB222426F582E43FF58399
:1049030022F0EE242A12506422124911E0221249A5
:104913001522123F24A3A3A32274F4120379900354
:104923002E1249F51219D68A0A8B0B78FF79FF806C
:1049330020E0C39AFCA3E09BFDC3EC98ED99500ED5
:104943008E828F83A3A3E0C39AF8A3E09BF9124955
:10495300E8EE4F605C8E828F83124053E50AC39A60
:10496300FAE50B9BFB8E828F83124004C3EA9CEB18
:104973009D8E828F83A3A340B8A3A3A3A3E0640265
:10498300701AEE240B12507B60091249E012405357
:10499300121856EEFAEFFB121E268007EEFAEFFB13
:1049A300121E027A017B00900DDEE0F9121892804C
:1049B3002974FF68700374FF69601F88088909E41C
:1049C300F50AF50B780812083C7A017B00900DDE9E
:1049D300E0F91219B87404120872022DD8EE1254B9
:1049E300523FF583228E828F83A3A3A3A3A3A3A302
:1049F300A3A3E0FEA3E0FF2274F01203798A088BDD
:104A030009ECFAEDFB890A7C01E5082411125774BD
:104A1300F9121E448A0C8B0DAE0CAF0DEE4F7003D2
:104A2300024AF5E50A6003024AF5E508124AF8125C
:104A33004B08686003024AF5EE242C1248DFE82A8B
:104A4300F8E43400F98E828F83A3A3A3A3A3A3A3C3
:104A5300A3E0FAE89AE99400C365D03340171257EC
:104A630070F470117B00124B111211BAEEFAEFFBC6
:104A7300121E26807D125770F47040EE24291247CF
:104A830000242CF8E43FF9E8FCE9FD7508FF7509FB
:104A9300008C828D83E078081209978A828B83E5E4
:104AA30008F0124AFEE508F08C828D83124B082829
:104AB300F0EE123FB83FF583E4801BE5082414F8B9
:104AC300E43509F9E0C0E0124AFED0E0124B20C001
:104AD300E01246EED0E0F01219D61257381248C44D
:104AE30012373EA3124B2B7A01FB900DDEE0F91235
:104AF30018920236F42413124D7922EE242AF582F9
:104B0300E43FF58322E0F8EE242812506422EE24D9
:104B130022125064FAEE2414125064F922124B2428
:104B230022F088828983E022F0A3E4F022240FF5A7
:104B330082E42274EC12037974FE1209068A0A8B4A
:104B43000B8C0E8D0F89108A828B83A3A3E0F9123D
:104B530011DE8A088B09AE08AF09EE4F70077A00A1
:104B63007B00024D267A127B001219048A088B09F6
:104B7300EA45097003024D227C127D007900121868
:104B830032AA18AB19850A82850B83A3A3E0F91215
:104B93001202E508240FF50CE43509F50D74011232
:104BA3000AF9E0850C82850D83F07902AA08AB0926
:104BB300121EAA850E82850F83124DA4A3A3A3E818
:104BC300F0A3E9124DC5850882850983A3A3A3A396
:104BD300A3A3A3F07512FF751300850C82850D83C3
:104BE300E07812120997125779E512125F3A125FB1
:104BF3005EE0C0E0124D71D0E0124DD3F50CE50834
:104C0300240D12577DE50CF0E50A125047850CF090
:104C1300A4A9F02427FAE439FB1218508A0C8B0D4F
:104C2300AE0CAF0DE508124D61124D36EE4F700319
:104C3300024D158E828F83741A124B2B8E828F83B3
:104C4300A3A3F0A3124DE31247251244F1AC0EAD1A
:104C53000F124D591211FC850A82850B83A3A3A35E
:104C6300E0C0E0124D81D0E0F0900371124D9F241B
:104C730010124DAE124D30350B124D9D12397B3F44
:104C8300F583E8F0A3E9124DDDA3A3124D9F24128F
:104C93001244EB850A82850B83A3A3E0C0E0124D87
:104CA3004FD0E0F0E50A240C124D46C0E0EE124D61
:104CB300303FF583D0E0F07416120AF912421FE078
:104CC300C0E0125766D0E0124235C0E0124D67D003
:104CD300E0124DA9C0E0124D93D0E0124DBAE51099
:104CE300F07418120AF9120AD6EE241AF582E43F78
:104CF300F583120ACAEE2427F8E43FF9EE242212C0
:104D03004DAE124D8D124D49C0E0124D3CD0E0F036
:104D1300800DAA08AB09121E26750800750900AAA2
:104D230008AB0974021208727F0C0205D72415F52B
:104D330082E422EEF0A3EFF022EE241FF582E43F9B
:104D4300F58322F582E4350BF583E022EE2414F596
:104D530082E43FF58322EE2406FAE43FFB2224108B
:104D6300124D7922EE2417F582E43FF58322124D8A
:104D73007522E508240BF582E43509F58322124DEB
:104D83008522EE124B303FF583222412F582E42272
:104D9300EE2418F582E43FF58322F583125219EECF
:104DA30022123765A322122F92E022F582E43FF507
:104DB3008312351FE50A22F0EE2419F582E43FF54C
:104DC3008322F0E50A2411F582E4350BF583E02212
:104DD300F0125450350BF583E022124DE3A3A322C6
:104DE300F0850A82850B83A3A3A3A3A3A32274ED57
:104DF3001203798A0A8B0B8C108D118912750900A5
:104E0300EA125047F5089003301248F0600EA908E3
:104E1300125F5F1204F1E9600302503D7C028510CA
:104E230082851183124053E50A2411124D46F9126B
:104E33001E448A0C8B0DAE0CAF0DEE4F7054850AD9
:104E430082850B83A3E0A2E0400302503D74151258
:104E53000AF912065C7417120AF9120660A912AC59
:104E630010AD11AA0AAB0B121DF074061208728A58
:104E73000C8B0DAE0CAF0DEE4F700302503D8E82C6
:104E83008F83A3A3A3A3A3A3A3A3E5081250C812CC
:104E9300189285080C8E828F83A3A3A3A3A3A3A335
:104EA300A3E024FFF8E434FFF9E8650C49700375C7
:104EB3000901EE240B12507B7003024FEE850A8228
:104EC300850B83A3E0A2E050037508001250A6E50A
:104ED3000C98E499C365D033401CE0F8EE240E121D
:104EE300505D2AF0750CFF750D00E8780C120997D8
:104EF3001242FAE50CF0E50A123734350B12294B4E
:104F0300120840123CE385080CEE240D12505D8517
:104F13000CF0A4FAABF01249E01250BC123744FB78
:104F23001218267403120872750C01125080780C43
:104F330012099712505A450CF0E509A2E0505BEEB6
:104F4300240C12506C12508004780C1209978A8238
:104F53008B83E0450C1250D385080C850CF0A4F824
:104F6300A9F0E50A125043124D49FCE82CFCE43940
:104F7300FD1249E012508E125222F4701DEE240BE2
:104F8300F50CE43FF50D1250423F12509812185C95
:104F9300850C82850D8374FF80501219D612573801
:104FA300900354E0FA900E59E0F50CEA850CF0A456
:104FB300FAABF0F8EBF9900E56E0F50CE8850CF03F
:104FC300A4F8ACF0850CF0E9A42CF9EA28F8EB3945
:104FD300F9E875F064A4F8AAF075F064E9A42AF975
:104FE3008E828F83A3A3E8F0A3E9F01250A6125791
:104FF3005DE8650C7001E9600EEE240C12507B60D5
:1050030006E509A2E05033EE240E12505DC0E0E540
:105013000A12504CD0E0F012505AC0E0E50A2414B2
:10502300F582E4350BF583D0E0F0AC0AAD0B8510C7
:1050330082851183124053120B247F0B0205D7EE96
:105043001254522212504CE022125054350BF58365
:10505300222413F582E422EE240C12506422EE245F
:105063000FF582E43FF583E022F8E43FF9E8FAE93B
:10507300FB750CFF22EE2429125064F422750D00F7
:10508300125061F5F0E50884E5F0221255E0242082
:10509300F582E43822F583124406850C82850D835C
:1050A300E0F92285080CEE240E125064F8125061C8
:1050B300FAE82AF8E43400F9221255E02422F582B2
:1050C300E438F58322F07A017B00900DDEE0F922CB
:1050D300F0EE240D12506422C082C083900DDEE0F6
:1050E300F912185C023D0374F41203798A088B09E0
:1050F300EB5480703BEAA2E05053121DFCE50864B8
:1051030001FAAB09804B8E828F83E06401701A121F
:10511300421012065C125157120844EE2412125127
:1051230063121DEA7406120872EEFAEFFB121856A8
:10513300900DDEE0F91218688A0A8B0BAE0AAF0BEA
:10514300EE4F70C2AA08E5096480FB80047A007BF5
:1051530000022DD8EE240FF50AE43FF50B780A225E
:10516300125064F9EE2402FCE43FFDEE2419FAE444
:105173003FFB22F085080C85090D750E00780C2283
:10518300C082C08390033280048C828D831251C409
:1051930060288C828D83A3A3E069600574FF697026
:1051A300E88C828D83A3A3A3E06A7003A3E06B70F2
:1051B300D8EC2403FAE43DFB80047A007B00023D33
:1051C3000312400AEC4D2274F7120379E9FC74FED2
:1051D3006C70047D0180027D0090033280096C7045
:1051E300027D01888289831248F0601F8882898347
:1051F300A3A3A3E06A7003A3E06B70E7EDA2E088CA
:10520300828983A3A3E050D6F9800279FE02408508
:10521300F5831252192212521D22123B5DF922F517
:1052230083ECF0A3EDF08A828B83E022E02401F08B
:10523300A3E034002212523FA3A3A322F08E828F55
:105243008322122B9EF8A3E0F92274F61203798CC1
:10525300828D83A3A3125486F0EA2417F582E43BDC
:10526300F583E0C0E0125448D0E0F0EA241DF58253
:10527300E43B12521312542B125486A3F0A3F0EA08
:10528300241FF582E43BF5831249F5EC124D303DC2
:10529300F583124D36125425F583125467A3A3A345
:1052A300A3A3A3EEF0A3EF124B20FE8C828D8312F7
:1052B30054B374035EFEC394034003025418EE60B8
:1052C3000574026E70778C828D83E0540CFE740C2F
:1052D3006E700302537FE0A2E4400D88828983E06D
:1052E3008C828D83A31254C674086E600302537FAD
:1052F30012543A7401F08A828B83A3A3A3A3A3124B
:10530300546170128C828D83E0440C125494A3A3D5
:10531300125467124D368C828D83E0A2E4401E1234
:1053230054751254A5500109125475A3A31254A520
:10533300500109888289831254581254B388828990
:1053430083E0C0E0EC2411F582E43DF583D0E01264
:1053530054B38C828D83E0A2E7507888828983E0FE
:10536300FE8C828D831254C674FC5E700C8C828D0D
:1053730083A3E054036403701B02541812543AE4E9
:10538300F0740C6E60030252F91254751254A75054
:10539300850980828C828D83A3E0540360388882E0
:1053A3008983E0C0E0EC1250543DF583D0E0125401
:1053B300C78C828D83E054036402701A88828983C8
:1053C300E0C0E0EC2414F582E43DF583D0E0125410
:1053D300C78003A3E4F0EC1237343D1244EFEC240E
:1053E30010FEE43DFFEA241DF582E43BF583E0F57E
:1053F300088E828F83E0C3982508F508F0EA241706
:10540300123C9AC39508C0E012542BD0E0124B20F3
:10541300C39508500A12542BE4F0125448E4F002E6
:105423003723EA1254343B22EC1254343DF58322E1
:10543300EE240DF582E422EC1254423DF58322243E
:105443000CF582E422EC1254523DF58322E50A2442
:1054530010F582E422E08C828D83A3A3A322E0547F
:1054630003640122E0FEA3E0FF8C828D83A3A3A348
:10547300A32288828983E0F508A3E0FFE5088C82F4
:105483008D8322E412548B22F08C828D83A3A3A3F9
:105493002212549CA3A3A3A322F08A828B83A3A3E7
:1054A300A322A3A3A3A3A3A3124D37E82402F822A4
:1054B3001254BBA882A983221254BF22F088828986
:1054C30083A322A31254BB08A9832274F512037980
:1054D30074F31209068A088B09ECFEEDFF8E828FA6
:1054E30083E0540CF50AE0A2E75006E50AD2E7F59B
:1054F3000AE50AD2E1F50A1254617006E50AD2E41C
:10550300F50AE0A2E55006E50AD2E5F50A7C087D36
:10551300007900AA18AB191218327402120AF9E5BD
:105523000A125611E0C0E07403120AF9D0E01247E0
:1055330035122BAC7405120AF9123FF0121D907448
:105543000C120AF9E0707C7408120AF91255DC1285
:105553004D8D38124015C0E07408120AF91250BC80
:10556300D0E0124010C0E07408120AF91234FED0E1
:10557300E0F07408120AF91255D11255FC123B627D
:105583001255E512573CEE241112505DC0E012553E
:10559300C9D0E0F0EE241412505DC0E07408120A82
:1055A300F91255DC2431F582E438F583D0E0125644
:1055B3001AC0E07408120AF91255F0D0E0123FF253
:1055C300121D8A02585AE81248D539F5832212521D
:1055D300198E828F8322A3A3A31255E022123B5D6F
:1055E300C822FAA3E0FB1234D739F583221255E01F
:1055F3002430F582E438F58322124400125607EA78
:10560300F0A3EB22E82426F582E439F5832212562F
:10561300152212523FA322F0EE2413125064227477
:10562300F71203797E008A828B83A3A3A3A3A3A388
:10563300A3A3A3E06402606B123794E07065125475
:10564300251248EE605D88828983E054037054A379
:10565300A3A3A3A31256A9E06A7003A3E06B70434C
:10566300888289831256A9A3A3123998240612505B
:105673005D6A7003A3E06B702A88828983A3A3E029
:10568300F88C828D83A3A3E0F9A3E0F5838982A339
:10569300A3E068600D8C828D83123CFC540C64047F
:1056A30070010E023551A3A3A3A31244068C828D6D
:1056B300832274F612037974FC120906EAFEEBFFE7
:1056C300ECFAEDFB8A828B83A3E05403601690030C
:1056D300181248F0605A7900EEFCEFFD125F5F127A
:1056E30004F1804C851882851983124D3674021299
:1056F3000AF912573CAC18AD197A2A7B0B120DB874
:105703008A088B09A808A909E84960248882898343
:10571300A3A3A3A3A3A3A3A3A37406F07A008882DD
:1057230089831255DC12544238F583E0F9120D22B5
:1057330074040237208E828F83EAF0A3EBF022C039
:1057430082C08390033A7460F0A3740BF090033C1F
:105753007454F0A3740BF0023D03E824FF18E934FA
:10576300FFF922EE2416F582E43FF58322E50824AF
:1057730014124D79E022E508240C124D79228E8211
:105783008F83F0A3AE82AF8322E0F88E828F83A350
:10579300A3A3A3E0282212351F85188285198374D9
:1057A300FFF022F0E5082410124D792274F412035D
:1057B300798A088B097808120844750A11750B0059
:1057C300780A1208447C007D007A3A7B0012198E15
:1057D3007404120872E97010900334120AD6E508B3
:1057E300241112577D120ACA022DD874F5120379B7
:1057F30074EF120906E9851882851983F08A088BEC
:1058030009750A0078081208407C107D00740412A0
:105813000AF9AA82AB831218267403120872A81815
:10582300A9198808890978081208447508117509A7
:105833000078081208447C007D007A3B7B00121933
:105843008874041208727C117D007900AA18AB19C0
:1058530012183274118002740D1208727F0302054C
:10586300D774ED12037974EB120906890C7A117B54
:10587300001219048A088B09EA450970030259B119
:105883007808120844750A11750B00780A12084447
:105893007C007D007A3B7B0012198E74041208721F
:1058A300E9600302599D850882850983E0650C60E0
:1058B3000302599D7A117B001219048A0A8B0BEAA1
:1058C300450B700302599D780A120844750E117531
:1058D3000F00780E1208447C007D007A3A7B001298
:1058E300198E7404120872E9600302598978081248
:1058F3000844780E1208447C007D007A3A7B00123B
:1059030019887404120872780A120844780E12086F
:10591300447C007D007A3B7B0012198874041208D2
:105923007290038D7401F0900334E4F0A3F0A3F0BC
:10593300A3F0850810850911F51278101208407C30
:10594300117D0074031208E0121826740312087202
:10595300900334120AD67411120AF9120ACAA8184B
:10596300A919880E890F780E120844750E15750F44
:1059730000780E1208447C007D007A827B001219A5
:105983008874041208727C117D007900AA0AAB0B9B
:10599300121832AA0AAB0B12190A7C117D00790086
:1059A300AA08AB09121832AA08AB0912190A74150E
:1059B30012087202503D74F212037974FF12090641
:1059C30089088A098B0AECFEEDFFEBC43354E0F837
:1059D300EA33333354F8450848125781740F120AD7
:1059E300F912065CEEFAEFFB1218BC74041208728B
:1059F3008A0C8B0DAE0CAF0DE50A6015120E06EA8C
:105A0300FCEBFDEEFAEFFB1219EEEE2408FE50015B
:105A13000F74016509703D750C3A750D00780C1211
:105A2300084474021208D8880C890D780C120844B3
:105A33007C017D007A007B00120F0274041208724D
:105A4300E9700B851882851983123FC980058E8200
:105A53008F83E4F07401022576E9F874020458F99F
:105A63007402B900028004C333D9FC541CF9020840
:105A73002474F412037974FE1209068908750A3A2C
:105A8300750B00780A12084474031208D8880A892F
:105A93000B780A1208447C017D007A007B00120F08
:105AA300027404120872E970607401120AF9E06565
:105AB30008604E750A3B750B00780A12084474029D
:105AC3001208D8880A890B780A1208447C017D00E1
:105AD3007A007B00120F027404120872E9702E859B
:105AE3001882851983E06508701FE0F87401120AB3
:105AF300F9E0C398500F851882851983E0F9120BDA
:105B0300487E3A80067E3B80027E007F00EEFAEFFD
:105B1300FB022DD374EB12037974D7120906890D96
:105B23008A0E8B0F8C0C7401120AF9740E1247350E
:105B3300ECF07402120AF9EDF090035CE0C0E0743B
