:020000040000FA
:06000000020AAA0201CE73
:03002B0002075F6A
:0300330002057152
:030043000207852C
:0300530002010E99
:03006B0002054546
:1000830002016201FF050301412100000000152068
:1000930000000000FF000000FF00010188130000C2
:1000A3000020FD00020000A0160000000000005A1E
:1000B3001700000000000000000000000000000026
:1000C300000000000000000000000000000000002D
:1000D300000612FFFF01010100C10C000000E8034C
:1000E300FFFF140DE80364006400B8010202000876
:1000F300000005020701051E02051E0A03B80B02D4
:100103000102E8030A050001220402C0E074F212AE
:1001130003E5A2AFE433F508D2AFAFA7AEA1EE5F1C
:100123005410600612142A75A1EFEE5F540860089C
:1001330012143075A1F78023EEA2E092F0EFA2E053
:1001430082F05017906198E0F890075BE0C398A2A3
:10015300D265D0335002E8F075A1FEE5088063C094
:10016300E074F21203E5A2AFE433FED2AF9061A4D0
:10017300E0F8759B00E59158540860087591F712F3
:1001830014788023E59158541060087591EF121488
:100193007E8014E591A2E092F0E8A2E082F050079D
:1001A300E0C2E0F01215C89061A3E0F8E5E9585405
:1001B30004600E12159E75E9FB906193E0A2E64080
:1001C300F2EEA2E092AF7F01020444C0E074F212A7
:1001D30003E5A2AFE433FED2AF9061A5E0F8E5BF3B
:1001E300585404600675BFFB1215E080D4C3E4982D
:1001F300F8E499F91202318026C3E49AFAE49BFBEE
:10020300E920E7E9120231E498F8E499F922C3E41A
:1002130098F8E499F9120231E498F8E499F9C3E4FF
:100223009AFAE49BFB22EB20E7CFE920E7E0B90051
:1002330010BB0008E88AF084F8AAF022E4FBC8FAAD
:1002430022EB70227B10C833C8C933C9335007C3AC
:100253009AC3DBF280069A50012ADBEAC833F4C85A
:10026300C933F4C9FA2275F008E4C833C8C933C9DD
:1002730033C99AC99B5004C92AC93BD5F0ECFBC8C2
:1002830033F4C8E4C9FA22080808EAC0E0EBC0E086
:1002930086F0E7A4FA180986F0E7A42AFA18098673
:1002A300F0E7A42AFA180986F0E7A42AFA1986F0D7
:1002B300E7A4FBE5F02AFA190886F0E7A42BFBE58F
:1002C300F03AFA190886F0E7A42BFBE5F03AFA189E
:1002D300180986F0E7A4C5F02BFBE43AFA1908E7FE
:1002E300C5F0C6A426F6E5F03BFBE43AFA1886F01F
:1002F300E7A4F6E5F00826F6E43B08F6E43A08F648
:10030300D0E0FBD0E0FA22E4CFC0E0E4CEC0E0E4EA
:10031300CDC0E0E4CCC0E075F020E626F608E63375
:10032300F608E633F608E633F6181818EC33FCED56
:1003330033FDEE33FEEF33FFC3EC9709ED9709EE80
:100343009709EF97191919400FFFEC97FC09ED97DF
:10035300FD09EE97FE191906D5F0BFECF709EDF785
:1003630009EEF709EFF7191919D0E0FCD0E0FDD039
:10037300E0FED0E0FF222518C582C0E0E51934FF76
:10038300C583C0E0E518C3958224F810AF088583C0
:10039300198582188008858319858218D2AFCEF01B
:1003A300A3E520F0A37808E608F0A3DEFAEFF0A3B4
:1003B300E58124FAF8E608F0A3E608F0A3E608F0DE
:1003C300A30808E608F0A3E608F0A315811581D079
:1003D300E0FED0E0F8158115811581E8C0E0EEC09C
:1003E300E022C0D02518C582C0E0E51934FFC583DB
:1003F300C0E0E518C3958224F310AF0885831985FF
:1004030082188008858319858218D2AFC8F0A3E9C2
:10041300F0A3EAF0A3EBF0A37908E709F0A3D8FA75
:10042300ECF0A3EDF0A3EEF0A3EFF0A3D0E0F0A384
:10043300D0E0F0A3D0E0F0A3E520F0A3E5F0F0A333
:1004430022851983851882E0C0E0A3E0F9A3E0FACE
:10045300A3E0FBA37808E0F608A3DFFAE0FCA3E03F
:10046300FDA3E0FEA3E0FFA3E0C0E0A3E0C0E0A3A0
:10047300E0F5D0A3E0F520A3E0A3F5F010AF0885E5
:1004830083198582188008858319858218D2AFD095
:1004930082D083D0E0F8D0E032120B18B900030207
:1004A30004DBE49003017899790B8002F0A3D8FC74
:1004B300D9FA7A997B0D900086788979018015E4C1
:1004C30093A3AD82AE838A828B83F0A3AA82AB838C
:1004D3008D828E83D8E9D9E77582827583C47403CC
:1004E3001208487582DA75831E7400120848E47393
:1004F3000575F0108E1A8F1B85821F85831E851844
:1005030082851983E0CEA3E0CF851F82851E83EB0E
:10051300C9EAC8EDCBECCAC3E833C8E933C9EA3347
:10052300CAEB33CBC3EA9EF51DEB9FF51CB3500416
:10053300AB1CAA1DEC33CCED33CDD5F0DAAE1AAF3C
:100543001B22C0E074F21203E5A2AFE433FED2AF84
:100553009005157401F0E589A2E150031213467565
:100563008900C2C5EEA2E092AF7F01020444C0E05D
:1005730074F21203E5A2AFE433FED2AF9005147414
:1005830001F0E58BA2E05003121346758B00C2E81D
:1005930080D2D083D082ECC0E0EDC0E0E493A3FC32
:1005A300E493A3FDED4C600D12066DEC24FFFCED0E
:1005B30034FFFD80EFE493A3FCE493A3FDED4C60D3
:1005C3000D12070AEC24FFFCED34FFFD80EFD0E0B1
:1005D300FDD0E0FCE493A3C0E0E493C0E0228519DE
:1005E30083851882E0A3FEE0A3F5207808E0A3F654
:1005F30008DFFAE0A3FFE0A3C0E0E0A3C0E0E0A3CC
:10060300C0E0E0A3C0E0E0A3C0E010AF088582181B
:100613008583198008858218858319D2AFD083D04A
:100623008202084ED083D082E9C0E0E493A3C3865C
:10063300F0C5F095F0F908E493A386F0C5F095F0C2
:10064300700BE493A3C3994005E9048002A3E47506
:10065300F002A42582F582E5F03583F583D0E0F935
:10066300E493A3C0E0E493C0E022C0E0C3E4939624
:10067300087401939618400FE49366700808740198
:1006830093661870007019A3A3C3E49396087401CA
:10069300939618A3A3400DD0E0D0E0D0E00205D19B
:1006A300A3A3A3A3A3A3D0E02274048004740280B1
:1006B30000CCC0E0EDC0E0E518C39CCCAD195001FF
:1006C3001D10AF068C188D1980068C188D19D2AFAA
:1006D3001207CAD0E0FDD0E0FC2274028000CCC037
:1006E300E0EDC0E0E518C39CCCAD1950011D10AF7F
:1006F300068C188D1980068C188D19D2AF1207A895
:10070300D0E0FDD0E0FC22C0E0C0F088F0E49366C6
:1007130070080874019366187000A8F0A3A3700B07
:10072300D0F0D0E0D0E0D0E00205D1A3A3D0F0D048
:10073300E022D083D082CCC0E0E493A36006120809
:100743000A1470FAE493A3600612091A1470FAD01B
:10075300E0FCE493A3C0E0E493C0E022C0E0C0D097
:10076300E8C0E0E9C0E0A9A8D2AFC2C7E9A2E7E4C4
:1007730033F8E9A2E792AFD0E0F9D0E0F8D0D0D0D7
:10078300E032C0E074F21203E5A2AFE433FED2AF6D
:10079300C2C0E5D1A2E4500312139AEEA2E092AFD5
:1007A3007F01020444CAC0E0E493A3C582CCC5829E
:1007B300C583CDC583F0A3C582CCC582C583CDC512
:1007C30083DAE5D0E0CA22CAC0E0E0A3C582CCC583
:1007D30082C583CDC583F0A3C582CCC582C583CD35
:1007E300C583DAE6D0E0CA22700908080822601639
:1007F300181818C6C333C608C633C608C633C60896
:10080300C633C6D5E0EA22C0E0E493A3D39C5010DC
:10081300E493A3C39C400AD0E0D0E0D0E0020752A7
:10082300A3A3A3D0E022C008C3E096F50808A3E081
:1008330096420808A3E096420808A3E0964508708C
:1008430001D3D00822C09FF59FE473D09F22D083A9
:10085300D082C09FE493C0E0740193C0E07402931C
:10086300F59F227404800A74038006740280027464
:1008730001C0E0F404120881D0E0120AE72225182F
:10088300F58210AF08F518400C15198008F51840CB
:10089300021519D2AF8519832200C0D0251810AFD5
:1008A30008F518500C05198008F51850020519D2DF
:1008B300AFD0D022BB0102E722C082C08389828AE3
:1008C30083BB0003E08002E493D083D082226016CE
:1008D300080808C6C313C618C613C618C613C61815
:1008E300C613C6D5E0EA22C3E0C696F608A3E0C65F
:1008F30096F608A3E0C696F608A3E0C696F6222568
:1009030018F8E43519F9222518FAE43519FB2225DC
:1009130018FCE43519FD22C0E0E493A36C7009D000
:10092300E0D0E0D0E0020752A3A3D0E022251810C4
:10093300AF08F518400C15198008F5184002151971
:10094300D2AF22E76670100809E766700A0809E764
:100953006670040809E76622C3E09608A3E09608D8
:10096300A3E09608A3E096A2D265D03322E0667096
:100973001008A3E066700A08A3E066700408A3E009
:100983006622C3E096F008A3E096F008A3E096F091
:1009930008A3E096F022C3E697F60809E697F6085F
:1009A30009E697F60809E697F622C3E493960874D6
:1009B3000193960874029396087403939622700425
:1009C30022600D18C6C333C608C633C6D5E0F41873
:1009D30022E647F60809E647F60809E647F6080956
:1009E300E647F622E026F008A3E036F008A3E03657
:1009F300F008A3E036F022E627F60809E637F60802
:100A030009E637F60809E637F622E657F60809E657
:100A130057F60809E657F60809E657F622E056F6B0
:100A230008A3E056F608A3E056F608A3E056F6221C
:100A3300E026F608A3E036F608A3E036F608A3E0BE
:100A430036F622E056F008A3E056F008A3E056F08D
:100A530008A3E056F022E4C396F608E496F608E409
:100A630096F608E496F622600D08C6A2E713C618A8
:100A7300C613C6D5E0F322C6F4C608C6F4C608C634
:100A8300F4C608C6F4C622C3E7960809E796080920
:100A9300E7960809E79622C3E09608A3E09608A321
:100AA300E09608A3E0962275D00075813F75180182
:100AB3007519030002049CE6F008A3E6F008A3E618
:100AC300F008A3E6F022600C08C6C313C618C613C9
:100AD300C6D5E0F422E0F608A3E0F608A3E0F608A2
:100AE300A3E0F622CAC0E0E6F0A308DAFAD0E0FAFF
:100AF30022E8F0A3E9F0A3EAF0A3EBF022E0F8A3E5
:100B0300E0F9A3E0FAA3E0FB22E0FAA3E0FBA3E011
:100B1300FCA3E0FD22E5C754F84401F5C77901229F
:100B23002518F582E43519F58322C2AF75D69F02E5
:100B33000000221208510251001208519B51001269
:100B43000851E25100120851655200120851E6544F
:100B5300001208513A5600120851CD56001208519E
:100B63005A5700120851C75700120851065800126D
:100B730008517C5800120851D15900120851745A77
:100B8300001208518C5A001208512F5B00120851B1
:100B9300B75D00120851585F001208517D5F0012C3
:100BA30008510080021208515A8002120851C48071
:100BB300021208514D810212085109820212085192
:100BC300988202120851B18202120851D68202128F
:100BD30008511483021208516383021208518C8353
:100BE30002120851DB830212085187840212085152
:100BF3004F8502120851B485021208518D860212E4
:100C030008516C87021208517B87021208518687AC
:100C13000212085178880212085189880212085179
:100C2300018902120851898902120851ED890212C1
:100C33000851D28A02120851038B021208514B8BBE
:100C430002120851588B02120851618B021208518B
:100C5300618D02120851AE8E021208512D8F0212BD
:100C630008510191021208515E93021208517293C6
:100C7300021208517C930212085186930212085102
:100C83009093021208519A9302120851A4930212EC
:100C93000851D39302120851099402120851149473
:100CA300021208513894021208515C94021208513E
:100CB300BD9402120851089502120851249502129C
:100CC30008518E9502120851DA95021208512296A4
:100CD30002120851A2960212085166980212085194
:100CE300229902120851EB9902120851779C0212C1
:100CF3000851CC9C02120851F49C021208511B9E0D
:100D0300021208515F9E02120851AF9E021208514F
:100D1300649F021208510EA00212085182A002120F
:100D2300085122A102120851B4A102120851EE8106
:100D3300011208512082011208512D840112085119
:100D4300808401120851C684011208515985011289
:100D53000851BE8501120851FE85011208516387AF
:100D6300011208515F8801120851298C01120851A0
:100D7300C48C01120851C48D01120851278E01122F
:100D83000851538F01120851E591011208517192D4
:100D9300011208517B9201120851A89201120851C5
:100DA3007B93011208513994011208516294011284
:100DB30008518F9401120851CC9601120851A09743
:100DC30001120851DF97011208516098011208516E
:100DD3002299011208515499011208519B99011249
:100DE3000851D79901120851269A011208517A9A8B
:100DF30001120851F49A01120851599B011208512A
:100E0300C09B011208514A9D01120851179E0112FD
:100E13000851299F011208511FA20112085166A40B
:100E23000112085109A50112085147A501120851E1
:100E330020A70112085133A7011208513CA7011240
:100E4300085145A7011208515AA70112085179A761
:100E5300011208512AA8011208517DA80112085154
:100E630087A80112085109A901120851B6A9011254
:100E73000851C5AA01120851DDAB01120851D5ACC6
:100E830001120851ECAC0112085129AD01120851AD
:100E930047AD011208519AAD01120851CCAD0112B0
:100EA30008516CAE0112085177AF0112085100B01E
:100EB300011208517AB00112085116B101120851FA
:100EC30053B2011208512DB30112085198B3011204
:100ED300085161B40112085184B40112085169B573
:100EE30001120851ADB50112085105B6011208519E
:100EF30063B60112085187B601120851B2B6011246
:100F03000851F9B6011208511DB70112085196B7DD
:100F13000112085100B9011208513EB901120851DA
:100F230067B9011208513ABA0112085164BA0112A1
:100F330008516FBB01120851008003120851388019
:100F4300031208515980031208519B800312085160
:100F5300FF800312085109810312085119810312FA
:100F63000851508103120851F98403120851C186B4
:100F730003120851B588031208515389031208510B
:100F8300DA890312085142BD01120851A6BD0112AC
:100F9300085104BE011208514FBE011208516ABE26
:100FA3000112085191BE01120851AEBE011208513F
:100FB300BABE011208515EC00112085177C0011276
:100FC3000851F3C00112085106C10112085116C19C
:100FD30001120851BCC1011208512CC3011208515E
:100FE3003FC401120851DFC401120851E9C40112C0
:100FF300085157C50112085168C501120851A7C508
:1010030001120851D5C501120851A2C60112085197
:10101300F9C6011208513EC70112085194C70112C3
:101023000851B2C70112085100C801120851CEC8B5
:10103300011208511CC9011208515EC9011208515D
:10104300E1C9011208510BCA0112085141CA011228
:10105300085150CA01120851AECA0112085126CBD9
:101063000112085167CB01120851B6CB0112085186
:10107300E1CB01120851FBCB0112085115CC01122F
:101083000851EACC01120851F4CC011208512FCDBA
:10109300011208513FCD0112085148CD01120851E8
:1010A30099CD01120851ADCD01120851CBCE0112D9
:1010B3000851E0CE011208517ACF01120851F9CF3D
:1010C300011208519CD001120851A7D001120851F6
:1010D300F1D1011208510DD20112085161D201124E
:1010E3000851CFD2011208511BD30112085135D335
:1010F3000112085177D301120851DAD501120851B0
:1011030072D601120851E9D6011208512FD90112E2
:10111300085147D9011208514AD90112085156D929
:10112300011208516AD90112085172D901120851EA
:10113300A9D9011208519DDA0112085127DB0112C6
:101143000851A9DB011208511EDC01120851F6DC1B
:101153000112085118DD01120851AFDD01120851C7
:10116300BBDD0112085118DE011208511BDE01120A
:1011730008518ADE01120851D6DF01120851E9E055
:101183000112085174E10112085187E2011208515A
:1011930051E30112085182E301120851A8E301123D
:1011A3000851B1E301120851E0E30112085190E440
:1011B3000112085140E501120851B3E5011208512B
:1011C30063E601120851D6E60112085115E7011230
:1011D30008515EE70112085103E1021208516EE162
:1011E30002120851BAE1021208510AE2021208512E
:1011F3008EE202120851D2E402120851F0E6021202
:10120300085170EA02120851ABEA02120851C9EA06
:101213000212085129EB0212085151EB0212085134
:1012230082EB02120851AFEB0212085118EC0212C2
:1012330008510BD40212085187D402120851B3D4B7
:1012430002120851E5D40212085147D6021208517E
:1012530063D602120851A1D6021208512ED70212E8
:1012630008518AD70212085150D8021208510FD9D7
:101273000212085154D902120851B5D90212085169
:101283002ADA0212085153DA0212085194DA0212CE
:1012930008513BDC021208511FDD02120851D6DD52
:1012A30002120851C3DE02120851FDDE0212085178
:1012B30055DF0212085177DF021208510FE00212C4
:1012C3000851B6E002120851A1AF0312085115B03C
:1012D30003120851D9B1031208514EB20312085137
:1012E30011B3031208511DB3031208518AD8031214
:1012F30008519BD80312085139D903120851F0CC75
:1013030003120851FECC03120851C6DD0312085123
:1013130053D90312085163D9031208517ED903121A
:10132300085103DA0312085193D60312085117D751
:10133300031208517DD7031208510DDA0312085125
:101343002FDA031208518FDA03120851C57E0012F7
:101353000851D37E00120851FE7E00120851367FD9
:1013630000120851397F00120851C67F001208513C
:10137300DB7F001208512AB30312085138B303125A
:101383000851B1B30312085186B40312085145B68C
:1013930003120851E4DC0312085151DB0312085114
:1013A30095DB0312085198DB031208519DDB0312EE
:1013B3000851A0DB03120851C9DB03120851CCDB2F
:1013C3000312085142F7021208516EF70212085134
:1013D30014FA021208516BFA02120851A7FA021208
:1013E3000851BBFA02120851D4FA02120851C5FB84
:1013F30002120851A1FC02120851B5FC0212085155
:101403003ED00312085162D0031208517BD003125D
:101413000851B9D003120851EFD00312085122D159
:10142300031208518ED10312085191D103120851AE
:101433009BD103120851A8D10312085121BF0312F3
:10144300085144BF031208518FBF0312085195433B
:1014530000120851C8BF031208512EC003120851CD
:101463003AC00312085197C003120851BBC00312BC
:10147300085181C1031208518EC1031208519FC143
:1014830003120851A3DC03120851BBDC03120851F9
:10149300E1DC03120851D6A2031208516CA4031213
:1014A30008517AA4031208518EA403120851ABA465
:1014B30003120851F35000120851D3A40312085128
:1014C30055A503120851BAA50312085150A60312D9
:1014D300085129A70312085139A70312085148A735
:1014E30003120851B8DA03120851DCDA0312085167
:1014F30004DB031208512CDB031208518AB90312CF
:101503000851F6B90312085115BA031208518ABAE1
:101513000312085154BC031208516DBC0312085145
:1015230084BC031208518DBC03120851ABBC0312D7
:101533000851B5BC03120851BFBC03120851D2BCF9
:10154300031208515FBD03120851C8BD03120851AD
:10155300F6BD0312085147BE0312085193BE03128E
:101563000851AEBE03120851B8BE03120851C9BEDA
:10157300031208510CBF0312085158DC031208511F
:10158300569403120851829403120851A59403122E
:101593000851B89403120851D39403120851339598
:1015A30003120851619503120851659903120851FA
:1015B300A29A03120851D49A031208513B9B0312B7
:1015C3000851BB9C03120851E39C03120851F89C79
:1015D30003120851089D03120851489D0312085134
:1015E3008A9D031208519A9D03120851B2D1031226
:1015F3000851C2D103120851E6D1031208510FD288
:101603000312085139D2031208515DD20312085153
:1016130074D203120851A2D203120851C5D2031285
:101623000851B9FF0212085113AC0312085123AC3D
:10163300031208513FAD0312085171AD0312085153
:1016430097AD03120851BFAD03120851D1AD031278
:1016530008510DAE0312085173AE03120851AFAE19
:1016630003120851F4AE0312085121AF03120851BB
:101673004DAF03120851FDD2031208511BD30312BD
:1016830008517DD3031208512AD40312085196D767
:10169300031208519ECE03120851EFCF03120851D3
:1016A30063EC0212085119ED021208513EED0212C9
:1016B30008515EED0212085172ED02120851CEED8F
:1016C30002120851F2ED021208516DEF0212085195
:1016D30095F0021208516FF102120851CCF1021277
:1016E300085102F20212085184F202120851DDF28B
:1016F30002120851FEF20212085180F3021208513D
:10170300B5F30212085118F402120851D6F5021269
:101713000851A2F602120851DAF6021208512EF706
:101723000212085168C90312085189C903120851EA
:10173300BCCA03120851E6CA03120851CDC10312F1
:10174300085141C2031208514CC2031208516DC221
:10175300031208518DC50212085190C50212085197
:1017630062C6021208519EC602120851DEC6021258
:10177300085110C7021208513EC7021208517BC715
:1017830002120851A9C702120851A7C80212085130
:10179300EEC80212085130C902120851A9C9021237
:1017A300085146CA0212085169CA02120851D3CA23
:1017B3000212085141CC02120851F9CC021208510D
:1017C300E6CD02120851D3CE021208518CCF021279
:1017D3000851C1CF021208512DD002120851C8D0AE
:1017E30002120851F6D0021208519ED20212085179
:1017F3001CD3021208515CD30212085133CB0312DB
:10180300085145CB0312085133CC03120851C0CC05
:10181300031208513FD40312085175D4031208511F
:1018230091D403120851D3D403120851E3D4031201
:10183300085176D503120851868A03120851908AFB
:1018430003120851D78A03120851408B031208511F
:10185300618B031208517A8B031208512C8C0312EB
:101863000851968E031208519F8E03120851F08E71
:1018730003120851268F031208513D8F031208519A
:10188300AA8F031208513A90031208517090031261
:101893000851B990031208511A9103120851549137
:1018A30003120851BC91031208510F9203120851FD
:1018B3005292031208518F9203120851A1920312FC
:1018C3000851B39203120851D29203120851DB92CA
:1018D30003120851A09303120851EC930312085109
:1018E3002A9403120851CA9D03120851109F031230
:1018F3000851399F031208514A9F0312085162A1EC
:101903000312085182A103120851B2FF01120851B8
:1019130024C7031208515AC703120851A9C7031257
:10192300085105C90312085193E701120851D1E880
:10193300011208510DE901120851DCEA01120851A4
:1019430006EB011208519DED01120851DDED011264
:10195300085173EF0112085108F00112085166F0A3
:1019630001120851ECF00112085124F1011208513F
:1019730066F101120851D7F2011208515BF401120A
:10198300085184F601120851B2F601120851DEF62D
:1019930001120851E7F6011208513DF701120851EF
:1019A300CDF701120851D0FA0112085152FB01126E
:1019B3000851E67F00120851AFFB01120851C8FB22
:1019C300011208516DFC01120851ADFC01120851BE
:1019D300C6FC01120851F9FC0112085146FD01121F
:1019E30008517AFD01120851BCFD01120851A5FFEF
:1019F3000112085180D503120851F2D50312085180
:101A030030D60312085171D603120851B65F001283
:101A130008510E6000120851946000120851616170
:101A230000120851A96100120851506200120851B6
:101A33009C6200120851E3620012085152630012C3
:101A43000851D565001208515866001208518F6677
:101A530000120851C766001208517B680012085132
:101A6300F66800120851C96900120851026A00128F
:101A73000851216A001208516C6A00120851826AE7
:101A8300001208518F6A00120851C86A00120851E7
:101A9300DA6A00120851596B00120851646B001284
:101AA3000851B96B001208510E6C001208514D6CAD
:101AB30000120851626D00120851DF6F00120851C5
:101AC3000871001208515171001208510872001276
:101AD30008512A72001208512D72001208513772F0
:101AE300001208513A7200120851C17200120851D3
:101AF300FA72001208512773001208516273001220
:101B030008516573001208517F73001208519A73CC
:101B130000120851C97300120851E97300120851E9
:101B23002674001208516174001208516A7500127C
:101B33000851D3DB03120851DFDB031208511BDC0E
:101B430003120851FC7F001208511AB40212085103
:101B53003DB4021208511AB5021208516CB50212B3
:101B63000851C7B5021208511EB60212085166B6D3
:101B730002120851CDB60212085154B7021208518D
:101B8300CCB70212085111B8021208517FBC0212DD
:101B93000851AFBE02120851E8BE0212085127BF16
:101BA3000212085113C002120851D8C00212085180
:101BB3004BC202120851F7C2021208510DC402129D
:101BC300085127A202120851C7A20212085133A3D7
:101BD3000212085143A302120851CBA30212085167
:101BE30027A40212085164A50212085188A5021203
:101BF3000851FFA50212085150A602120851B6A6B9
:101C03000212085111A7021208514BA802120851DF
:101C130053A902120851C9A902120851A5AB021215
:101C2300085148AC02120851F2AC0212085157ADE8
:101C330002120851C6AD02120851DCAE021208515D
:101C4300BBB00212085148B102120851B9B10212D5
:101C53000851BDB202120851C976001208513277F9
:101C6300001208517A7700120851CD7700120851FB
:101C73003378001208519578001208511879001230
:101C83000851467900120851717900120851877979
:101C930000120851E17900120851BA7A0012085172
:101CA300DE7A00120851E87A00120851EA7B00122A
:101CB3000851D57C00120851777D00120851E47D4C
:101CC30000120851F97D001208518F7E001208514D
:101CD300AAB6031208515DB7031208511CB80312C8
:101CE300085184B803120851F8B803120851C9FC0B
:101CF30002120851E4FC0212085128FD0212085195
:101D03004EFD0212085170FD0212085188FD0212A5
:101D1300085132FE021208513CFE0212085151FED4
:101D23000212085166FF021208516FFF0212085196
:101D330078FF0212085181FF0212085179A703129A
:101D43000851A5AB03120851AAAB03120851ACAB5F
:101D530003120851AAC50312085153DD0312085197
:101D63001CDD031208517FDD03120851A8DD0312A5
:101D730008515743001208515F4200120851D240E4
:101D830000120851A240001208516F40001208517E
:101D93004B4000120851374000120851A53F001272
:101DA3000851463F00120851BF3D001208514C3DF7
:101DB30000120851333D00120851C53C001208516E
:101DC3008B3B00120851FE3A00120851D83A001218
:101DD3000851143A00120851533800120851E637DB
:101DE30000120851B73700120851B43700120851D6
:101DF3009F37001208516337001208514037001211
:101E03000851094E001208514E4B00120851134A53
:101E13000012085134490012085155470012085165
:101E23000D45001208515936001208511836001298
:101E33000851FC3500120851C9350012085192446B
:101E4300001208516E35001208513D350012085139
:101E5300063200120851143100120851394400129D
:101E63000851D82F00120851C0A403120851B32EF1
:101E730000120851302E00120851F52D001208519E
:101E8300A12D00120851952D00120851FE2C0012AD
:101E93000851CC2B00120851732900120851002756
:101EA30000120851B4260012085196250012085159
:101EB3002B25001208515524001208512623001225
:101EC3000851BF4300120851F22200120851C022E8
:101ED30000120851ADBF0300000080FB000136363D
:101EE30001010001020100010301000104010606D2
:101EF30005020000070100340801000F0904010175
:101F03000D0100FF0E08000017020000190100FF79
:101F13001A0100011B0100FE1C0100081D02000044
:101F23001F01000120010001210200002301000F15
:101F3300240200002601000127010008280200FFF7
:101F43002A0100072B0102402C0100002D01000192
:101F53002E0100012F0100FF30010B1C310800008E
:101F63003A0100083B01000F3C0100013D0100FF65
:101F73003E04000042040000460400004A0400003E
:101F83004E04000052040000560400005A040000EE
:101F93005E20FFFF36000100060000000F00000076
:101FA3000000000000000000000003FFFF00000429
:101FB30003FFFF0000FFFF0FF4010005C40403202B
:101FC300000100000B000000000000000003010FEF
:101FD30000000000000000000000000000000000FE
:101FE30000000000000000000000000000000000EE
:101FF30000000000000000000000000000000000DE
:1020030000000000000000000000000000000000CD
:102013000000010371030103010301030103010331
:102023002203020301031003000300030003000360
:102033000003000300034203000324030603000319
:1020430000030403120325032303250323030403CB
:1020530004030003000300034403000300032303FA
:102063000003650321003503810300030503000317
:10207300000300030003250323030302710230015D
:1020830060021102700201020202020280021002C7
:1020930061023A0041006302730272026202430268
:1020A30000021302380000020002040212020002BE
:1020B30000020002000204020402370037003C025F
:1020C30044020002390000020002650200023502E8
:1020D30081020002050282028302000201017101F2
:1020E300010101011101010131010101010180011E
:1020F300100161013B00140063017301720162016D
:1021030043010001130106013D01350004011201E1
:102113000001000100010001040104013301330146
:102123003C01440132013600000100016501000158
:1021330035008101000105018201830100010300D3
:10214300710030016000110070003102200350045F
:10215300800010006100000014006300730072002F
:1021630062004300000013000600000000000400AA
:10217300120000000000000000000400040037000B
:1021830037003C024400000000000000000065002E
:1021930000003500810000000500000083000000FE
:1021A3000100041C0200681B03006E1B0400741B67
:1021B30005007A1B0600861B1100A41B1400AA1B32
:1021C3001500981B1F009E1BFFFF000007ECFDFD81
:1021D300FDECDCDCCCBCACAC9C9C8C7C7C6C6C5C8B
:1021E3005C5C4C4C3C3C2C2C1C1C03EAF5E5D5D523
:1021F300C5B5A5959585857575656555554545356C
:102203003525251515050AA00D02700D05820D074C
:10221300760D0C580D0D640DFF000000160F000025
:102223000B150B020002220F3300000E5A6967429E
:102233006565416C6C69616E63653039010305073F
:10224300090B0D0F00020406080A0C0D3030171895
:102253001921301B1D1F30303016181920231A1C6A
:102263001E3000393D3F373C3C362C442D00034A99
:1022730049434E181A250502000119161816161897
:102283002303000C0E020B040B0A0708000F0204C1
:1022930002010101010902000000000000E803003F
:1022A3000000BE040A3C003C000E00E80304030ADD
:1022B3001E1E0C040C0404FF0815280908C082C064
:1022C3008312123290030E74B0F0A3741EF09003C5
:1022D3001074AAF0A3741EF090031274A4F0A374F4
:1022E3001EF0900314749EF0A3741EF0023D1B7441
:1022F300F7120379E9FE900302E4F0EE900301F094
:102303007C857D0D7A037B03121A06900E16E090EE
:10231300030BF090030C7471F0A3740DF0121E7A8A
:1023230002409D74F41203798A088B09EB54807080
:10233300030223F9900301E0F91218808A0A8B0B38
:10234300AE0AAF0BEE4F70030223F0124B16E0F907
:10235300123FD890031C124729A3A3A3A3A3A3A3AB
:10236300A3E0640270378A828B8312406B80078CF0
:10237300828D8312401AEC4D60208C828D83E06A3B
:102383007003A3E06B70E88C828D83A3A3E0697074
:10239300DE900E1A125470F0804C121E568E828FED
:1023A30083E064017034EE241812244D1208721273
:1023B30042281206ACEE241212244D120872125156
:1023C3006F12086E122FCA1206B0EE241712517B39
:1023D3001211F0740A12089C800CE064027007EE7C
:1023E300FAEFFB121DAEEEFAEFFB12186EAA08E528
:1023F300096480FB8051EA5402600C900D997401CA
:10240300F0EA6402FA8040EA54046009121E74E59B
:102413000864048029EA54086029121E628B0BEABF
:10242300450B701690031EE4F0A3F0A3F0A3F07A1B
:1024330008FB900301E0F91219DCE5086408FAAB24
:102443000980047A007B00022DF012507CF50A7893
:102453000A2274F41203798A088B098A828B831205
:1024630055F112505B38F583E02409FA7B0012180A
:10247300688A0A8B0BAE0AAF0BEE4F700302251B63
:102483008E828F837402F0A3E412433DA3A3A3A31C
:10249300E8F0A3E9123FEFA3A3A3A3A3A3A3F0E54B
:1024A300082403F8E4350912376812505B3AF583C0
:1024B300124722F0EE2409FAE43FFB8E828F83A3B6
:1024C300A3123C8DF5838882E0A2E58E828F83A3DD
:1024D300A3A3A3A3500474018001E4F0E50824033B
:1024E300F88882898312406BEA12374C3BF58312DA
:1024F300251E12086AEA12505B3B123D008E828F42
:102503008312406912183E740312089CEEFAEFFB23
:10251300900301E0F9121874022DF0E0F508A3E02E
:10252300F509750A0078082274F21203798A088B78
:1025330009ECFAEDFB740E120B23E0FC1212628A13
:102543000C8B0DAE0CAF0DEE4F6031AC08AD091224
:102553001250E96027AC08AD09EEFAEFFB121256F0
:10256300E970158E828F83122584EEFAEFFB121227
:102573004AAA08AB0912127A7900800279B4800E54
:10258300A3A3A3E0F508A3E0F5092212089C7F06A4
:102593000205E174EF12037974F71209308A0A8B8A
:1025A3000BECFEEDFF750DB3750C0075100080028A
:1025B30005109022B8E493F8E510C398400302266F
:1025C300A8851008AA087B001212C28A088B09EAA0
:1025D300450960DC8A828B83A3A3A3A3A3E0250C14
:1025E300F50CF50EC3E50A950EE50B940050C17C7E
:1025F300157D007900EEFAEFFB12184A85088285F3
:102603000983A3A3A3A3A3E0F8E50AC3950C282594
:10261300E0F8E433F9E50828F582E50939F5831292
:1026230044F4124509120E30EAFCEBFDEEFAEFFB1F
:10263300121A06850882850983A3E06401700A12D1
:10264300422874011242EF803DAC18AD198508820F
:102653008509831240691212AAE960307408120BCB
:1026630023E0C0E0124228D0E0F07408120B23E00C
:102673006403700CAC18AD19124710121A06800CC3
:102683008518828519831242301245038508828595
:102693000983123756A3A31242F7C0E0124D67D045
:1026A300E0F0750D00A90D740912089C7F0902055D
:1026B300E174F7120379E9FE8A828B83A3A3A3A3B0
:1026C300A3A3E0540860338A828B83A3A3A3A3A3A9
:1026D300A3E0540260218A828B83A3A3A3A3A3A3B1
:1026E300A3A3A3E06406600F74E96E600A74CD6E61
:1026F300600574F06E7003121E9202409D74E8121E
:10270300037974F81209307406120B23125754EC30
:10271300FEEDFF891775150012295212126E8A0AEF
:102723008B0BEA450B700302290EEE24101248F7B7
:10273300A90A120CAA8A128B13EA45137003022901
:102743000EEE2403F50CE43FF50DEE2406F508E444
:102753003FF5097C008508821250B01212748A106A
:102763008B11850C82850D83E0851282851383A3EB
:10277300A3A312372E851282851383A3A3A3A3E8F1
:10278300F0A3E9122FD2851282851383A3A3A3A3F7
:10279300A3A3A3124B43851282851383A3A3A3A3ED
:1027A300A3A3F0EE12374C3F12296312086A1250AA
:1027B3005A3F123D00851282851383A31240631290
:1027C300183E740312089C7514007423120B23E043
:1027D300F5167424120B23780C120AD80228938559
:1027E30010828511831240691212B085088285090F
:1027F30083A3EAF0A3EB12296EA3A3123FFD122BCE
:10280300B2A2E6500F850882850983A3A3A3A3A3DD
:10281300E0D2E1F0E5157067850882850983A3128C
:10282300522D900364E0687003A3E069705185083A
:1028330082850983A3A3A31248FC751000781012A4
:102843000872780C120866E516F5107810120872F3
:102853007426120B231206B09003711206B079008E
:102863007410120B23123FE7121D7E740A12089C88
:10287300850882850983A3A3A3A3A3E04405F07479
:10288300012514FC1229521212748A108B1105149B
:10289300E51045116050851408C3E508950AE495D1
:1028A3000B5043E51475F006A4F8A9F0E51228F8D7
:1028B300E51339F9E8240CF508E439F509850882AC
:1028C300F583E4125FA9E0640160030227E2751552
:1028D30001850882850983740112296E124DBCE8B3
:1028E300F0A3E90227F9AA12AB13120CB078121263
:1028F300086EAD167424120B23E0FCA917EEFAEF51
:10290300FB121E98740212089C803A8E828F83A356
:10291300A3A3E0C0E07403120B23D0E0122FD2C0B4
:10292300E07404120B23D0E0F0E50A450B70097440
:1029330005120B2374B980077405120B237410124C
:10294300400A121D84740812089C7F100205E18E50
:10295300828F831244188E828F83A3A3A3E0F9226C
:10296300F583123504750E00780C22125FADA32295
:1029730074E912037974F31209308A0A8B0B8916EE
:102983008C148D157424120B23123500AA0CFB1220
:102993000C9EE9F513AA0CAB0D120CA4E5137003FE
:1029A300022B74750E00800F8E828F83A3A3A3A3C3
:1029B300A3E0D2E3F0050EE50C123B47350DF5839A
:1029C300E0F8E50EC3984003022B6BE51370030296
:1029D3002B6BE50E75F006A4F8A9F0E50C28F8E5D5
:1029E3000D39F9E8240CFEE439FF8E828F83A3A30B
:1029F300A3A3A3E0A2E040BD750F00750808750905
:102A030000E5156003750F207C087D007900AA1886
:102A1300AB1912184A8E828F83E060379003B4E0BB
:102A230064017017E50FD2E3F50F7509108E828FDD
:102A330083122B91123B8074FF8028430F0C75087F
:102A43000C8E828F83A3122B87A3A3A3A31257B148
:102A5300A38010E5166009E50FD2E6F50F75080AA5
:102A6300122BA5F07402120B23E50F124DEBC0E0FD
:102A73007404120B23D0E0F07405120B23124008E8
:102A8300121DA8740C120B23E06003022B4E740872
:102A9300120B231237298E828F83A3A3A3A3F0746F
:102AA30008120B23122BBB1234F6E514122BB2605F
:102AB300119003B4E0C0E07408120B2312350CD05C
:102AC300E0F0850C82850D83A3A3A3E0C0E0740826
:102AD300120B231250D4D0E0124028C0E074081225
:102AE3000B23123516D0E0F07408120B23122B8738
:102AF300125614124DF5E01255FDEAF0A3EB124DF8
:102B0300DDC0E01255E1D0E0F07408120B23122C63
:102B1300EA122B7E1239933B124DCA12374C124DD7
:102B230061F510A3E0F511751200781012086A120E
:102B33003CFBEA123FD03BF58312406B12183E7404
:102B43000312089CAA18AB19121DA28E828F83A3AD
:102B5300A3A3A3A3E0D2E0F0740C120B23E0600361
:102B63000229AB15130229B87900AA0CAB0D121E6A
:102B73008C740D12089C7F0F0205E1A3A3A3A3127B
:102B83005231EA22125231850A82850B8322A31223
:102B93002B9622122B9A22123B75F98518828519DE
:102BA3008322A3122BAA22122B9AE8F0A3E9221262
:102BB3002BB622125257E0221239BA124B4839F57A
:102BC30083E508F0A3E509F02274F012037974E9B0
:102BD300120930EAFEEBFF89088E828F83A3A3A339
:102BE300A3A3A3A3A3E0F9120CC88A0C8B0DEA4597
:102BF3000D7003022CE5E50870157C048E828F832B
:102C0300A3A3A3A3A3A3A3A3E0F9120CCE804F7C99
:102C1300088E828F83A3A3A3A3A3A3A3A3E0F91284
:102C23000CCE8A0A8B0BEA450B6033E508F509786D
:102C330009120872850C82850D83A3A3A3A3A3A302
:102C4300A3E0FD8A828B83A3A3A3E0FC8A828B8308
:102C5300A3122CEAE0F91211EA740112089C12542F
:102C63004B3F124906607B88828983124067740652
:102C7300120B23122CF412406B7408120B23122C28
:102C8300F4A3A3E0C0E07410120B23D0E0F0850C92
:102C930082850D83A3124063740E120B23125754C3
:102CA3007411120B23E4122BB2FAA3E0CA241FF50A
:102CB30082E43AF58312383BC413135403FC7002C5
:102CC3007C0488828983E0F9780C12086E74205999
:102CD300FD744059F9740212090A121E9874021203
:102CE300089C741702370912441E850A82850B83D8
:102CF30022EAF0A3EB123B3FA3A32274F71203795A
:102D030074FA120930E9FE7F018F087D0080047593
:102D130008000D1236D6E0F8EDC3985025ED75F096
:102D230006A4F8A9F0EA28F8EB39F9E824111239D6
:102D330099A2E050DA540C60D6E0A2E250D47F00AE
:102D430080D08A828B83A3A3A3A3A3A3E0703EE5D1
:102D530008A2E0400574016E70338A828B83A3A3BB
:102D6300A3A3A3A374011254B4E0C0E07403120B31
:102D730023D0E01254ACE0C0E07404120B23D0E083
:102D8300F07405120B23EF12400A121D847406021D
:102D9300409AC082C0837901121E8C023D1B74F4D9
:102DA300120379EA4B602D9003B0E0640270259022
:102DB3000D99E4F08A088B09F50AF50B78081208D7
:102DC300667A027B00900301E0F91219D0740412B1
:102DD300089C8012900D997401F07A027B00900395
:102DE30001E0F91219DC8005740212089C7F0402C9
:102DF30005E1C082C083900DE8E075F005A4FCAD49
:102E0300F079007AF67B0B12184A7B008012EB757F
:102E1300F005A4F8A9F0122FBF74FEF0A304F00B81
:102E2300900DE8E0F8EBC39840E4023D1BC082C07C
:102E3300837C007B0080037C010B900DE8E0F8EBC2
:102E4300C398504DEB75F005A4F8AAF0EAF9122FD8
:102E5300B87003A3E0F460E1122FAFE82403F85045
:102E6300010988828983E024FFF0A3E034FF12374D
:102E730098F9E84970C1EB75F005A4F8EAF9122F47
:102E8300AF8882898374FEF0A304122FAAE4F08032
:102E9300A8ECA2E050179081E01206AC7A047B0004
:102EA300900301E0F91219D0740412089C023D1B2F
:102EB30074F7120379EAFEEBFF900DE8E07003026A
:102EC3002FA1EE24111250757003022FA18E828F51
:102ED30083A3124063120E90E96402600F8E828F07
:102EE30083A3A3A3A3A3E07003022FA17C00803CD0
:102EF300EE123B473F12522BEC75F005A4FAADF0EE
:102F0300EDFB74F62AF582740B3BF583E0687003DE
:102F1300A3E0697016EE2412125075FBEDF974F8F4
:102F23002AF582740B12399C6B60780C900DE8E0E3
:102F3300F8ECC39840BA7C0080010C900DE8E0F8EF
:102F4300ECC398505EEC75F005A4F8A9F0122FB805
:102F53007003A3E0F470E3122FAF122FCA123EFCEA
:102F6300EAF0A3EB122FD288828983A3A3122FAA9C
:102F7300A3740C124B437A04FB900301E0F912197A
:102F8300E2EA4B4C4D70179081E01206AC7A047B59
:102F930000900301E0F91219D0740412089C79011E
:102FA30002409D790080F91254D7A32274F628F8C1
:102FB300740B39F922122FBFE064FE2274F628F550
:102FC30082740B39F58322EE123B4B3FF58322F0DB
:102FD30012421EE02274E812037974FC1209307461
:102FE30002120B23E4F0A3F090031C124A0D851880
:102FF30082851983E4F0A3F075140190035EE0A2C7
:10300300E3500302308F1219EE8A088B098C0A8D64
:103013000B8A0C8B0D8C0E8D0F90031E780C1208EF
:10302300EA1231047810790C120A8A50077A017B6C
:10303300000230FF850C14850D15850E16850F17BC
:103043007814791012030AA814A915900E1AE0C374
:1030530098E4995003E0F514123104780C791012B6
:10306300030AE4F512F5137808791012099990030D
:103073001E7808120ABA801412522D90031C1245AE
:1030830009EEFAEFFB121922AE08AF09EE4F6064A6
:103093008E828F83A3A3A3E0F8E514C3985029EE8F
:1030A3002403F582E43FF583A814E0C398F060217C
:1030B3007402120B2312524712474DEEF0A3EF1284
:1030C3003F2FFEA3E0FF80C48E828F83A3A3A3E4DC
:1030D300F08E828F83A3122583851882851983122C
:1030E30049088E828F83A3A3A3A3608C122B921211
:1030F3003787808A7402120B2312406B74040229EF
:103103004A900E18E0F510A3E0F511E4F512F5135B
:103113002274F21203798A0A8B0BE9FE7A007B0090
:1031230090031C12258690031C124908601E0A8511
:103133000882850983A3A3A3A3124908600E0AEAA0
:1031430070010B88088909E8450970E3900E1B128A
:10315300522DC3EA98EB9940030232037A067B00AF
:1031630012191C8A0C8B0DA80CA90DE849700302D7
:10317300320388828983E50AF0A3E50BF0EE8882A7
:103183008983A3A3F0900E1A1239E6A3A3123B3A44
:10319300E4F0A3F090031C124412600F85088285AB
:1031A3000983A3A3A3A3124509801F90031C1245FF
:1031B3000990035EE0A2E340111219EEEAF8EBF97D
:1031C300ECFAEDFB90031E120AF490035EE0A2E317
:1031D300502E7A087B00900301E0F91219E2EA4BC2
:1031E3004C4D701C900E18125DAA78081208667A6E
:1031F300087B00900301E0F91219D6740412089CAD
:1032030002259174F212037974F3120930EAFEEB8A
:10321300FF8E828F83A3A3A3A3A3A3A3A3A3A3E04C
:10322300F50A900D99E0700579BA0234EA75080140
:10323300750900750C00750D007C087D007900AAE6
:1032430018AB1912184A7405120B23740112352294
:10325300540460127402120B23E0D2E61235225496
:10326300087003750803E05410600674404508F5C0
:1032730008E0540860227402120B23E044C01235A4
:10328300225420600A7403120B23E0D2E0800874F6
:1032930003120B23E0D2E1F08E828F83A3A3A3A3B7
:1032A300A3A3A3A3E07016120E3685188285198393
:1032B3001257547402120B23E0D2E2802C640F7075
:1032C300107402120B2312352A74044508F5088082
:1032D3007B8E828F83A3A3A3A3A3A3A3A3E06402F0
:1032E3008E828F837006122BA6F08060A3A3A3A304
:1032F300A3A3A3A3E06403700DAC18AD19EEFAEF1A
:10330300FB121E2C80468E828F83A3A3A3A3A3A3A9
:10331300A3A3E0640170359003B4E060107402125B
:103323000B2312352A750910750AFF8018740212CF
:103333000B23E0440C12474D74FDF0A374FFF074AB
:10334300044508F5088E828F83123500EE2415128A
:103353005075A2E0503F7402120B23E0540C701B13
:103363008E828F8312406B121CA0E9700579BB0219
:1033730034EA7402120B23E0D2E5F0EE2415125066
:1033830075A2E050107402120B23E0540C64047015
:1033930004E0D2E5F0EE2411125075C0E07404127B
:1033A3000B23D0E012400A121DA8740C120B23E069
:1033B30060030234E37408120B23122BBBEE2418B0
:1033C300125075C0E01234F6D0E0124DD2E0C0E0E6
:1033D3007408120B231255F412506C38F583D0E0A5
:1033E300123B7A640170119003B4E0C0E0740812D8
:1033F3000B2312350CD0E0F07408120B23124DB7D7
:103403002417FAE43FFB8A828B83E0FCE8241CF553
:1034130082E439F583ECF0A3E412442FE0C0E0E842
:103423002422F582E439F583D0E0F07408120B23EB
:10343300123516E50AF07408120B231239B6123945
:103443009339F583E50CF0A3E50D1250EBFCA3E0F3
:10345300FD12561FECF0A3ED12370412401E123476
:10346300EF3912523AC0E0E8242FF582E439F583AC
:10347300D0E0F0EE241B125075C0E07408120B2349
:10348300125608D0E0F0EE241A125075C0E074080A
:10349300120B231255F41248ED38F583D0E012567F
:1034A3003212251F12086A12421012401E740B12A8
:1034B3000B23123B5D12183E740312089CEE241575
:1034C3001250755440601290032C124908600AAAE6
:1034D30018AB19125F771204F1AA18AB19121DA2C7
:1034E300740C120B23E0F9740D02258EE82428F5E1
:1034F30082E422E82412F582E439F58322123504AA
:1035030022E0F50CA3E0F50D221255F8124D4838D0
:10351300F583221255F82423F582E438F58322F04B
:10352300EE241512507C22E0D2E3125257123534A6
:1035330022122B9AE8F0A3E9F02274F71203797EA2
:10354300638A828B83E0600C7905120B9CE9F87423
:1035530056C398FE90035CE0600CF9120B9CE9F8EB
:10356300EEC39824F2FEEEF902409D74F61203793D
:1035730074FE120930851882851983125754E9FEA7
:10358300ECFAEDFB9004C61249086035A818A91996
:1035930088088909780812086E7D01740E120B23BE
:1035A300E0FCEEF99004C6123DAF1204F17402126E
:1035B300089C8B09EA450960047900800679B2808A
:1035C3000279B602373674F7120379E9FE90030ED7
:1035D300124908601F7409120B23E0F508780812DA
:1035E3000872EEF990030E123DAF1204F17401124A
:1035F300089C800279B602409D74F7120379E9FEB4
:1036030079B574AB6E700B90030C12406B121A06F3
:10361300790002409D74F5120379EAFEEBFF8C08F2
:103623008D09750A01120E30EAFCEBFDEEFAEFFB91
:10363300121A00E96401700B900364123779124582
:1036430009800EAC08AD09EEFAEFFB120BD2E9F5D7
:103653000AA90A02587774F6120379EAFEEBFF7A95
:103663000C7B0012191CEA4B6066EE242012507585
:103673008A828B83F0EE24211236DEF0EE242212AE
:1036830036DEA3F0EE24231236DEA3A312490D1275
:1036930036E7124509EE1234F03FF5831236E7A3FD
:1036A300A3E8F0A3E912491C8A828B83A3A3A3A3F3
:1036B300A3A3A3A3F0EE242F125075C0E01236D6B5
:1036C300D0E01240311236ECA3A3A3A3A312450901
:1036D30002373BEA123B4B3BF5832212507C8A8232
:1036E3008B83A322E01236EC22F8A3E0F98A828BC3
:1036F30083A3A3A3A322F582E43FF583E4F0A3F01D
:1037030022F0124D9D2212089C7F080205E1123718
:10371300198882F58322F8E43FF98808890922A3EE
:10372300A3123B55A32212378DE022123D07F8A3C3
:10373300E0F922740212089C7F020205E1C082C0F4
:10374300831237ACE4F0023D1B12375022240EF5EE
:1037530082E422123FF622F583E02AFAA3E03B2219
:10376300790102084EF988828983E0FAA3E0CA222C
:10377300123840A3A32212377D22125235850882C4
:1037830085098322123773A3A322123B75C812370C
:103793005038F58322124B3CF8A3E022C082C08349
:1037A3001237AC7401F0023D1BEA12545A3BF58305
:1037B30022023763C082C08390032274FCF0A37497
:1037C3001DF090032474F0F0A3741DF0900326748D
:1037D300EAF0A3741DF090032874F6F0A3741DF0AF
:1037E300023D1B74F4120379EAFEEBFF123849F52C
:1037F30008120E368A0A8B0BA80AA90B8E828F83B6
:1038030012383B687003A3E069602AE508A2E5501B
:10381300248E828F83A3E0FB900322123DAF120418
:10382300F18E828F831255F4240A12490270061214
:103833003849C2E5F0022DF0123840E022E0FAA345
:10384300E0F5838A82228E828F83123724A3E022BB
:1038530074F4120379EA2408FCE43BFD8C828D8323
:103863001239B62420123999FE74035EF509123B0E
:103873004639124DB588828983F0A3A882A983E5CE
:1038830009600974026509600302391F740C5EF54F
:103893000860177408650860117404650870137470
:1038A3000265097005EEA2E4402A1239BF242312EF
:1038B30039EC740C650870161239A824241239D116
:1038C300FCA3E0CC1239933CF583A31239F27402C2
:1038D30065097005EEA2E440431239A82426123983
:1038E300D1FFA3E0CF1248F3A31239F21239AC246B
:1038F30028123A011234F03CF583A31239F2E50899
:10390300601274086508600C740C65086006740422
:10391300650870081239BF24221239EC1239BF121C
:1039230039877005EEA2E1500C1239BF1248ED3C05
:103933001239A180109003021239A3900302E0040C
:10394300F088828983A3A882A983EEA2E75032126A
:1039530039A82421123A0112398760251239BF246C
:10396300301239ECEEA2E150188A828B83A3A3A311
:10397300A3A3A3A3A312376D2431F582E43A12392A
:10398300A1022DF02421F582E43CF583E0540322C7
:103993002424F582E422F582E439F583E022F583D9
:1039A3001239E6F022EA2408FC8C828D83E0FFA31F
:1039B300E0CF221239BA22125235E8228A828B834F
:1039C300A3A3A3A3A3A3A3A3E0FCA3E0CC22F58218
:1039D300E43FF5831239E6F0A3A882A9838C828D94
:1039E30083E022E08882898322F582E43CF5831216
:1039F30039F622E088828983F0A308A98322F5821D
:103A0300E43FF5831239F68C828D83E0FCA3E0CC8E
:103A130022C082C0838A828B8312384DF874035884
:103A2300F98A828B83A3A37401F0E96005740269A8
:103A33007061740C58FC601474086C600F74046C2F
:103A430070137402697005E8A2E4401D8A828B83B7
:103A5300A3A37402F0740C6C700A8A828B83A3A3F1
:103A6300E02402F07402697005E8A2E440258A822A
:103A73008B83A3A3E02404F0EC600F74086C600A4A
:103A8300740C6C600574046C70098A828B83A3A325
:103A9300E004F0E8A2E750318A828B83A3A3E00419
:103AA300125240F9A3E0F5838982A3A3A3E0540350
:103AB30060178A828B83A3A3E004F0E8A2E1500994
:103AC3008A828B83A3A3E004F08A828B83A3A3E07F
:103AD30004F0023D1BC082C0838A828B83A3A3A30D
:103AE300A3A3A3A3A3A3A3124908600C8A828B8375
:103AF300A3A3124063121922023D1B74F712037928
:103B0300EAFEEBFF8E828F83124237A3A3A3A3A304
:103B1300A3A3A3E4F0123B3AA3A3A3A3A3A3F0A3F9
:103B2300F0E812545A39F583E4F0121DD2EEFAEF9D
:103B3300FB121DDE02409DA3123B3F221254D7A36A
:103B4300A3A322E8123B4B22240BF582E422123B6F
:103B53005522123B75F583888222123B6412441E60
:103B630022123B6822123B75C8242BF582E438F5F8
:103B73008322E0F8A3E022124929A3E02212353779
:103B83008E828F83A3A3A32274F612037974F41293
:103B93000930123C9DFCA3E0F5838C82A3E0FC7406
:103BA30002120B23EC124B38123CBC7404120B238D
:103BB3001240106C7012123CAF123C947406120B3C
:103BC30023123C81241A803A7402120B23E064010D
:103BD3006005E06406703CEA2402F8E43B123768AF
:103BE300124DA53AF583E0C0E07403120B23D0E035
:103BF300124B382413123C967406120B23123C8189
:103C0300241BF8A3E03400F97408120B23E8F0A393
:103C1300E980297406120B23E4F0A3123CAA123C98
:103C2300947408120B23123C8DC8241AF582E438CD
:103C3300F583E0C0E0740A120B23D0E0F07406129F
:103C43000B23124908602B7406120B2312406B12CC
:103C53000BC6E96401701B120E308A088B09AC088D
:103C6300AD097406120B2312406B121A00E96401AA
:103C73007007AA18AB19121D78740C023738123C5E
:103C83008522EAF0A3EB124B3C22123C85F8A3E019
:103C9300222412FAA3E03400FB228A828B83A3A39B
:103CA300A3A3A3A3122BAAF0123CAF22EA2402F887
:103CB300E43BF988828983E0222402F8A3E03400FC
:103CC300F922C082C08374FD120930123CE5C0E0C2
:103CD3007402120B23D0E012400A121D7274030205
:103CE3003D188A828B83A3A3A3A3A3A31235348A8B
:103CF300828B83123722E022125468350BF583E05E
:103D0300FC7D0022123D0B22F0850882850983E0A9
:103D130022123D2C2212089CD083D08202084E121C
:103D23003D2824FB228A828B83A3A3123B55E022E6
:103D3300C082C083123D22600624FC600780081203
:103D43001DC08003121DBA80CFC082C083900E1D98
:103D5300E07025900D8FE0701F8A828B83A3A3A34D
:103D6300A3A3E07013123DB360388A828B83A3A3AD
:103D7300125F76E06407602A8A828B83A3A3A3A3DE
:103D8300A3A3A3A3E070128A828B83123DB96009B7
:103D93007A347B01121B44800990032A123DAF122F
:103DA30004F1023D1BEEFAEFFB900324123B512278
:103DB300123D28640622123D2C64052274F6120378
:103DC3007974FA120930EAFEEBFF7403120B231223
:103DD3004D4E740312090A121DC61250726003027B
:103DE3003EE98518828519837432F07405120B231A
:103DF3001257A4C0E07401120B23D0E0123F23C07A
:103E0300E07402120B23D0E0123F29F8A3E0F9E893
:103E1300496017E82417123999FAE82416123999D8
:103E23002AF87401120B23E028F0AA18AB19120C1C
:103E3300208A088B09A808A909E8497003023EDE15
:103E43008E828F83123EFCA3A3123F1C124DA53911
:103E530012402DC0E0E82420F582E439F583D0E058
:103E6300124028C0E0E82421F582E439F583D0E04C
:103E7300123F2FC0E0E8242AF582E439F583D0E02D
:103E8300F07405120B23E0FCE8123EF42C123C966E
:103E9300E8123FD039F583123F1C242DF582E43913
:103EA300F583EC123F29FAA3E0FBEA4B601BE824FD
:103EB3002BFAE439FB8E828F83A3A31239C3241612
:103EC300F582E43CF583123F048E828F83A3A3A380
:103ED300A3A3A3A3A3E8F0A3E9800AEEFAEFFB12DE
:103EE3001DCC123EEEF074060237381243167410DE
:103EF30022123B4B39F583E02212441E88828983C8
:103F030022E0FC8A828B83E02CFCA3E03400FD8A50
:103F1300828B83ECF0A3EDF022EAF0A3EBF0E8222E
:103F2300123F34A3E022124433A3E022123F34E0D1
:103F330022123F3822123F3C22F08E828F83A3A3AA
:103F4300A3A32274F6120379EAFEEBFF12507270F8
:103F530042121DD88E828F83A3A3A3A3A3A3A3A3DB
:103F6300A3A31249086006123DA81204F11250726D
:103F7300700B12405F120C1A123FA08015EE24083A
:103F830012371112406B121922850882850983E4C6
:103F9300F0A3F0EEFAEFFB121DCC02373B124316EF
:103FA300E92274F6120379EAFEEBFF8C088D0912FD
:103FB3001CA0E9700479018011AC08AD09EEFAEF99
:103FC300FB900328123DAF1204F102373B242BF57B
:103FD30082E4227D00EE2402FAE43FFB22A3E08E7A
:103FE300828F8322124022EEFAEFFB221242F31257
:103FF3003FF622E08E828F83A322E0850882850923
:1040030083A3A3A3227401F0AA18AB192212353794
:10401300740422A3A3A3A3A3A3A3A312402222E075
:10402300FCA3E0FD22125250E022F58374011256E4
:104033002DA3E022C082C083121DE490032A74B42E
:10404300F0A3741DF0023D1BC082C0837C0879FF7E
:1040530090030C12406B1218E0023D1B8E828F837B
:10406300A3A3A3A3A3A3A3A312441E2274F712031F
:1040730079E9FE12543D124906601A88828983A3A6
:10408300E054037010EEFB123B4639F5831240C92E
:10409300E0F91211E4800312089C7F010205E1C0DC
:1040A30082C083EAF8EBF988828983A3A3A3A3A33D
:1040B300E0FB88828983A3A3A3A31240C9A3E0F9E9
:1040C3001211E4023D1BE0FA88828983A3A32274C0
:1040D300F01203798A088B098C0A8D0B890FEA1277
:1040E3004D79E02430FA7B001218688A0C8B0DAEF0
:1040F3000CAF0DEE4F700302420D8E828F8374015D
:1041030012518E12086A7C177D00EE2419FAE43FDF
:10411300FB12183E740312089C850A0C850B0D785C
:104123000C12086A7C09123FD612183E7403120857
:104133009C7410120B231242301245037412120B9B
:1041430023124237E0C0E0124D99D0E0124DC1C0B6
:10415300E0124210D0E012424DC0E01249F8D0E024
:10416300F07414120B23E0C0E012421AD0E0F0EE18
:1041730024271236F97415120B23120B001242284E
:10418300120AF4124D7FE50F124252F8A3E0F9EE42
:10419300240D1245037419120B23E0C0E0124DAB3A
:1041A300D0E01257BEE0602FEE24271247182430C8
:1041B30012423F240E125795125F9B12086AE508BC
:1041C30012505B3509123D008A828B8312406B12B9
:1041D300183E740312089CEE241A1250755403609F
:1041E3001D90031A124908600CEEFAEFFB125F7779
:1041F3001204F18015EEFAEFFB12186E800CEEFA42
:10420300EFFB900301E0F912187402370CEE24114E
:10421300F582E43FF5832212421E22EE2412F58238
:10422300E43FF58322EE12506C3FF58322125231A4
:10423300EE240B221252318882898322F8E43FF95B
:104243008A828B83123537E508221254D3E0221277
:1042530042F3A3A3A3A3A3A3A3A3E02274F1120392
:10426300798A088B097A207B001218688A0A8B0BDB
:10427300AE0AAF0BEE4F60728E828F8374041243CB
:104283004F8E828F83A3A3A3A31242EF123FE012A8
:1042930042F7F50CA3E0F50D750E00780C12086AD1
:1042A3007C107D00124D7112183E740312089C8518
:1042B3000882850983124016EE2416FAE43FFB12A6
:1042C3000BC0850882850983A3A3A3A3A3A3A3A3E8
:1042D300A3A3E0C0E01248D2D0E0124307C0E0122B
:1042E3004D54D0E0124320121874801E1242F32260
:1042F30012433322A3A3A3A3A312430022124333E3
:10430300A3A3E022F0124D8DE0227F070205E11204
:10431300431622EE240CF582E43FF58322F0EEFAF5
:10432300EFFB900CC1E0F922E8F0A3E9124333223A
:10433300F0850882850983A3A32212434122123DFB
:104343000BF8A3E0F98E828F83A3A32212434112B9
:10435300432BE02274F6120379EAFEEBFF7A057B26
:1043630000121868EA4B60278A828B837408125202
:104373005D8A828B83A3A3E8F0A3E91240318A828A
:104383008B83A3A3A3A3F0900CC1E0F912187402CA
:10439300373BC082C083E9900D9AF09003167420D6
:1043A300F0A3741EF0900318740EF0A3741EF09023
:1043B300031A74B4F0A37414F0023D1B74F71203D0
:1043C30079EAFEEBFF8908EE4F70031212FE9003A9
:1043D3002E124908700890032E802212522D8882D3
:1043E3008983A3A3A3A3A3A3A3A3A3124412888291
:1043F3008983A3A3A3A3A3A3A3A3A370DEEEF0A324
:10440300EF12442FE4F0124424E508F002409D1219
:10441300441EEA4B22A3A3A3A3A3A3E0FAA3E0FBB6
:1044230022A312442922123F38A3A3221244332287
:1044330012492DA3A32274F712037990032E800D42
:104443008E828F83A3A3A3A3A3A3A3A3A3124A0D23
:10445300EE4F60348E828F83A3A3A3A3A3A3A3E011
:104463006970DD8E828F83A3A3A3A3E06A7003A385
:10447300E06B70CC8E828F83A3A3A3A3A3A3E06C72
:1044830070BEEEFAEFFB80047A007B0002409D745D
:10449300F712037990032E124A0D90032E122B82EA
:1044A300687002EB69701CE0C82409F582E43812D5
:1044B300522B90032E12450990032E124A0D80278A
:1044C300124A00EE4F60208E828F83A3A3A3A3A37F
:1044D300122B7E687002EB6970E68A828B83A3A33A
:1044E300A31244F4124509121922EEFAEFFB02401B
:1044F3009DA3A3A3A3A3A3124741A3A3A3A3A3225F
:10450300F582E43FF5831235372274F01203797490
:10451300FA1209308A088B098A828B83A3A3A3A387
:10452300A3A3A3A3E060336401602F8A828B831269
:10453300406B120E90E97022850882850983A3A33C
:10454300A3A3A3A3A3A3E064037014740412091226
:10455300AA08AB09121E2CE97016790202470185DD
:10456300088285098312522D7404120B2312450904
:10457300E508241112578C2432123C9612191C8A16
:104583000A8B0BAE0AAF0BEE4F70030246FF7C3271
:104593007D00790012184A740212090A850882857F
:1045A3000983A3A3A3A3A3A3A3A3A3E0F912122C98
:1045B3007402120B23E0C0E01248DCD0E0F0EE24DA
:1045C3002CF50AE43FF50B7403120B23E0850A82F2
:1045D300850B83F07901EEFAEFFB121EC285080CFE
:1045E30085090D750E00780C12086A7C1C7D00127B
:1045F300471012183E740312089CEE243012471819
:10460300243212423F2411F8E43509F9E8FCE9FDAC
:104613008C828D83124DB71248E6124247124B101B
:10462300125F9B12086A8C828D8312472912406B9A
:1046330012183E740312089C7404120B2312473D94
:10464300124509900302124722A3A3A3F090030289
:10465300E004F01219EE125750EE242A125084751A
:104663000D00850A82850B83E0780C1209C18A82CA
:104673008B83E50CF0124706E50C12474DE4F0E599
:1046830008241512578CA2E074015007120B2374EF
:10469300018004120B23E4F0EE2427123719AA1821
:1046A300AB19121214E924FE850882850983F0EE02
:1046B300242EF8E43FF9E8FCE9FD124731120231F8
:1046C300E88E828F83A3A3A3A3A3A3A3A3F012477C
:1046D300311202318B09EA4509600F8E828F83A361
:1046E300A3A3A3A3A3A3A3E004F0EE242012507575
:1046F30044081250E01218AA790080027910740657
:10470300023709EE2429F582E43FF58322EE240BD8
:10471300FAE43FFB22F8E43FF9E8FAE9FBEE221260
:104723003FF6A3A3A3221240228A828B83228C8288
:104733008D8312377DE0FA7B002212474122125209
:10474300358E828F83A3A3A3A322F08518828519B4
:10475300832274F4120379EAFEEBFF1219EE125767
:1047630050900E12E0F8EE242B125075C3984003BC
:104773000248C01250907012EE242B12507504128E
:10478300491CC0E0124706D0E0F0EE242812507511
:10479300FC7900800109EE242C125075F8E9C398C6
:1047A3005026750801750900E978081209C11250ED
:1047B30090550860E0E92CFC750801750900E9785B
:1047C300081209C1E04508F0EE24271248F7EE125B
:1047D30048E6EC8A088AF0A4F8ABF0E42BF9E098F9
:1047E300F8A3E099F9C3E89508E99400EE4035246D
:1047F30027125075F812509060301248DC1248FCB2
:10480300A3E4F0EC7050EE24201250754420123BC8
:104813007AC0E0EE1248F3D0E0F0EE24301248F70D
:10482300A3E0805812470774FFF0900354E0FA9016
:104833000E15E0F508EA8508F0A4ABF075F064A462
:10484300FAADF075F064EBA42DFB8E828F83A3A3E6
:10485300EAF0A3EB80ACEE242012507554DF12492A
:104863000DECF08C08EE24271250758508F0A4FA9D
:10487300ABF0EE2430F582E43F12375AFB1248D2F4
:10488300EAF0A3EB124924C0E0EE2425F582E43FCD
:10489300F583D0E0F0EE241CF582E43FF583E812C3
:1048A3004B43900330124908600BECF9125F771207
:1048B30004F1E97017124710121E50800F7BE912A2
:1048C3004B291211E4EEFAEFFB121E3E022DF0EE1D
:1048D300241EF582E43FF58322EE242DF582E43F86
:1048E300F583221248ED3FF58322242EF582E4223C
:1048F3001249132212507CFA22123FF6A3F022F53A
:1049030082E438F5831239BA4922F0EE12491322B0
:104913002426F582E43FF58322F0EE242A12507C0C
:1049230022124929E02212492D22123F3CA3A3A3BC
:104933002274F412037990032E124A0D1219EE8A8F
:104943000A8B0B78FF79FF8020E0C39AFCA3E09BDE
:10495300FDC3EC98ED99500E8E828F83A3A3E0C321
:104963009AF8A3E09BF9124A00EE4F605C8E828FA7
:104973008312406BE50AC39AFAE50B9BFB8E828F89
:104983008312401CC3EA9CEB9D8E828F83A3A340BA
:10499300B8A3A3A3A3E06402701AEE240B125093EE
:1049A30060091249F812406B12186EEEFAEFFB120F
:1049B3001E3E8007EEFAEFFB121E1A7A017B00906F
:1049C3000D9AE0F91218AA802974FF68700374FF26
:1049D30069601F88088909E4F50AF50B780812084D
:1049E300667A017B00900D9AE0F91219D0740412D3
:1049F300089C022DF0EE12546A3FF583228E828FBB
:104A030083A3A3A3A3A3A3A3A3A3E0FEA3E0FF22E3
:104A130074F01203798A088B09ECFAEDFB890A7C9E
:104A230001E508241112578CF9121E5C8A0C8B0DB8
:104A3300AE0CAF0DEE4F7003024B0DE50A6003029F
:104A43004B0DE508124B10124B20686003024B0D0F
:104A5300EE242C1248F7E82AF8E43400F98E828F0A
:104A630083A3A3A3A3A3A3A3A3E0FAE89AE99400CF
:104A7300C365D0334017125788F470117B00124B73
:104A8300291211E4EEFAEFFB121E3E807D125788C5
:104A9300F47040EE2429124718242CF8E43FF9E877
:104AA300FCE9FD7508FF7509008C828D83E07808A9
:104AB3001209C18A828B83E508F0124B16E508F0D0
:104AC3008C828D83124B2028F0EE123FD03FF5836A
:104AD300E4801BE5082414F8E43509F9E0C0E0128A
:104AE3004B16D0E0124B38C0E0124706D0E0F0126C
:104AF30019EE1257501248DC123756A3124B437A61
:104B030001FB900D9AE0F91218AA02370C24131234
:104B13004D9122EE242AF582E43FF58322E0F8EE5C
:104B2300242812507C22EE242212507CFAEE241404
:104B330012507CF922124B3C22F088828983E022B6
:104B4300F0A3E4F022240FF582E42274EC1203793B
:104B530074FE1209308A0A8B0B8C0E8D0F89108A12
:104B6300828B83A3A3E0F91212088A088B09AE088B
:104B7300AF09EE4F70077A007B00024D3E7A127B3D
:104B83000012191C8A088B09EA45097003024D3A81
:104B93007C127D00790012184AAA18AB19850A8283
:104BA300850B83A3A3E0F912122CE508240FF50C5F
:104BB300E43509F50D7401120B23E0850C82850D94
:104BC30083F07902AA08AB09121EC2850E82850FF3
:104BD30083124DBCA3A3A3E8F0A3E9124DDD85081E
:104BE30082850983A3A3A3A3A3A3A3F07512FF75CF
:104BF3001300850C82850D83E078121209C11257C8
:104C030091E512125F52125F76E0C0E0124D89D037
:104C1300E0124DEBF50CE508240D125795E50CF069
:104C2300E50A12505F850CF0A4A9F02427FAE439B1
:104C3300FB1218688A0C8B0DAE0CAF0DE508124DF4
:104C430079124D4EEE4F7003024D2D8E828F837479
:104C53001A124B438E828F83A3A3F0A3124DFB1230
:104C6300473D124509AC0EAD0F124D711212268548
:104C73000A82850B83A3A3A3E0C0E0124D99D0E081
:104C8300F0900371124DB72410124DC6124D4835E2
:104C93000B124DB51239933FF583E8F0A3E9124D9A
:104CA300F5A3A3124DB72412124503850A82850B7F
:104CB30083A3A3E0C0E0124D67D0E0F0E50A240C23
:104CC300124D5EC0E0EE124D483FF583D0E0F07424
:104CD30016120B23124237E0C0E012577ED0E012C7
:104CE300424DC0E0124D7FD0E0124DC1C0E0124DE5
:104CF300ABD0E0124DD2E510F07418120B23120B57
:104D030000EE241AF582E43FF583120AF4EE242719
:104D1300F8E43FF9EE2422124DC6124DA5124D615F
:104D2300C0E0124D54D0E0F0800DAA08AB09121E6A
:104D33003E750800750900AA08AB09740212089CA5
:104D43007F0C0205E12415F582E422EEF0A3EFF0D7
:104D530022EE241FF582E43FF58322F582E4350B2E
:104D6300F583E022EE2414F582E43FF58322EE245A
:104D730006FAE43FFB222410124D9122EE2417F58C
:104D830082E43FF58322124D8D22E508240BF58240
:104D9300E43509F58322124D9D22EE124B483FF56F
:104DA30083222412F582E422EE2418F582E43FF5EF
:104DB3008322F583125231EE2212377DA322122F62
:104DC300AAE022F582E43FF583123537E50A22F0A3
:104DD300EE2419F582E43FF58322F0E50A2411F568
:104DE30082E4350BF583E022F0125468350BF5832A
:104DF300E022124DFBA3A322F0850A82850B83A335
:104E0300A3A3A3A3A32274ED1203798A0A8B0B8CA9
:104E1300108D118912750900EA12505FF50890038D
:104E230030124908600EA908125F771204F1E96095
:104E3300030250557C0285108285118312406BE575
:104E43000A2411124D5EF9121E5C8A0C8B0DAE0CF6
:104E5300AF0DEE4F7054850A82850B83A3E0A2E069
:104E630040030250557415120B231206AC7417122B
:104E73000B231206B0A912AC10AD11AA0AAB0B1288
:104E83001E08740612089C8A0C8B0DAE0CAF0DEE37
:104E93004F70030250558E828F83A3A3A3A3A3A3B2
:104EA300A3A3E5081250E01218AA85080C8E828F7E
:104EB30083A3A3A3A3A3A3A3A3E024FFF8E434FF42
:104EC300F9E8650C497003750901EE240B12509340
:104ED3007003025006850A82850B83A3E0A2E0508B
:104EE300037508001250BEE50C98E499C365D033EE
:104EF300401CE0F8EE240E1250752AF0750CFF7575
:104F03000D00E8780C1209C1124312E50CF0E50A12
:104F130012374C350B12296312086A123CFB8508C1
:104F23000CEE240D125075850CF0A4FAABF0124967
:104F3300F81250D412375CFB12183E740312089C0B
:104F4300750C01125098780C1209C1125072450C5D
:104F5300F0E509A2E0505BEE240C12508412509845
:104F630004780C1209C18A828B83E0450C1250EB42
:104F730085080C850CF0A4F8A9F0E50A12505B1221
:104F83004D61FCE82CFCE439FD1249F81250A612DD
:104F9300523AF4701DEE240BF50CE43FF50D12505C
:104FA3005A3F1250B0121874850C82850D8374FF1A
:104FB30080501219EE125750900354E0FA900E15D8
:104FC300E0F50CEA850CF0A4FAABF0F8EBF9900EDF
:104FD30012E0F50CE8850CF0A4F8ACF0850CF0E9D0
:104FE300A42CF9EA28F8EB39F9E875F064A4F8AAD7
:104FF300F075F064E9A42AF98E828F83A3A3E8F005
:10500300A3E9F01250BE125775E8650C7001E96010
:105013000EEE240C1250936006E509A2E05033EE25
:10502300240E125075C0E0E50A125064D0E0F0126D
:105033005072C0E0E50A2414F582E4350BF583D001
:10504300E0F0AC0AAD0B85108285118312406B1220
:105053000B4E7F0B0205E1EE12546A22125064E0FC
:105063002212506C350BF583222413F582E422EED1
:10507300240C12507C22EE240FF582E43FF583E0EA
:1050830022F8E43FF9E8FAE9FB750CFF22EE242944
:1050930012507CF422750D00125079F5F0E5088466
:1050A300E5F0221255F82420F582E43822F5831224
:1050B300441E850C82850D83E0F92285080CEE24BD
:1050C3000E12507CF8125079FAE82AF8E43400F909
:1050D300221255F82422F582E438F58322F07A016E
:1050E3007B00900D9AE0F922F0EE240D12507C2201
:1050F300C082C083900D9AE0F9121874023D1B74AC
:10510300F41203798A088B09EB5480703BEAA2E01E
:105113005053121E14E5086401FAAB09804B8E82CA
:105123008F83E06401701A1242281206AC12516F89
:1051330012086EEE241212517B121E02740612081C
:105143009CEEFAEFFB12186E900D9AE0F91218809C
:105153008A0A8B0BAE0AAF0BEE4F70C2AA08E509A1
:105163006480FB80047A007B00022DF0EE240FF5AF
:105173000AE43FF50B780A2212507CF9EE2402FC74
:10518300E43FFDEE2419FAE43FFB22F085080C8589
:10519300090D750E00780C22C082C0839003328003
:1051A300048C828D831251DC60288C828D83A3A3AF
:1051B300E069600574FF6970E88C828D83A3A3A303
:1051C300E06A7003A3E06B70D8EC2403FAE43DFBC0
:1051D30080047A007B00023D1B124022EC4D2274B6
:1051E300F7120379E9FC74FE6C70047D0180027D83
:1051F3000090033280096C70027D018882898312DA
:105203004908601F88828983A3A3A3E06A7003A36C
:10521300E06B70E7EDA2E088828983A3A3E050D618
:10522300F9800279FE02409DF58312523122125217
:105233003522123B75F922F583ECF0A3EDF08A8257
:105243008B83E022E02401F0A3E0340022125257C2
:10525300A3A3A322F08E828F8322122BB6F8A3E09E
:10526300F92274F61203798C828D83A3A312549EC0
:10527300F0EA2417F582E43BF583E0C0E0125460C2
:10528300D0E0F0EA241DF582E43B12522B12544382
:1052930012549EA3F0A3F0EA241FF582E43BF583A6
:1052A300124A0DEC124D483DF583124D4E12543DFA
:1052B300F58312547FA3A3A3A3A3A3EEF0A3EF123A
:1052C3004B38FE8C828D831254CB74035EFEC394E1
:1052D300034003025430EE600574026E70778C82D3
:1052E3008D83E0540CFE740C6E7003025397E0A29E
:1052F300E4400D88828983E08C828D83A31254DE7F
:1053030074086E60030253971254527401F08A8238
:105313008B83A3A3A3A3A312547970128C828D83CE
:10532300E0440C1254ACA3A312547F124D4E8C8252
:105333008D83E0A2E4401E12548D1254BD50010926
:1053430012548DA3A31254BD50010988828983127C
:1053530054701254CB88828983E0C0E0EC2411F5A9
:1053630082E43DF583D0E01254CB8C828D83E0A29E
:10537300E7507888828983E0FE8C828D831254DE25
:1053830074FC5E700C8C828D83A3E0540364037001
:105393001B025430125452E4F0740C6E6003025337
:1053A3001112548D1254BF50850980828C828D83D3
:1053B300A3E05403603888828983E0C0E0EC125094
:1053C3006C3DF583D0E01254DF8C828D83E054036F
:1053D3006402701A88828983E0C0E0EC2414F582A9
:1053E300E43DF583D0E01254DF8003A3E4F0EC1234
:1053F300374C3D124507EC2410FEE43DFFEA241D23
:10540300F582E43BF583E0F5088E828F83E0C39851
:105413002508F508F0EA2417123CB2C39508C0E04A
:10542300125443D0E0124B38C39508500A12544328
:10543300E4F0125460E4F002373BEA12544C3B228E
:10544300EC12544C3DF58322EE240DF582E422EC5C
:1054530012545A3DF58322240CF582E422EC1254B3
:105463006A3DF58322E50A2410F582E422E08C826A
:105473008D83A3A3A322E05403640122E0FEA3E0EF
:10548300FF8C828D83A3A3A3A32288828983E0F563
:1054930008A3E0FFE5088C828D8322E41254A32243
:1054A300F08C828D83A3A3A3221254B4A3A3A3A33A
:1054B30022F08A828B83A3A3A322A3A3A3A3A3A3E0
:1054C300124D4FE82402F8221254D3A882A9832252
:1054D3001254D722F088828983A322A31254D308BB
:1054E300A9832274F512037974F31209308A088BA5
:1054F30009ECFEEDFF8E828F83E0540CF50AE0A2E7
:10550300E75006E50AD2E7F50AE50AD2E1F50A1201
:1055130054797006E50AD2E4F50AE0A2E55006E5FF
:105523000AD2E5F50A7C087D007900AA18AB1912A6
:10553300184A7402120B23E50A125629E0C0E074DC
:1055430003120B23D0E012474D122BC47405120B28
:1055530023124008121DA8740C120B23E0707C74F4
:1055630008120B231255F4124DA53812402DC0E03A
:105573007408120B231250D4D0E0124028C0E074F8
:1055830008120B23123516D0E0F07408120B231205
:1055930055E9125614123B7A1255FD125754EE2454
:1055A30011125075C0E01255E1D0E0F0EE24141250
:1055B3005075C0E07408120B231255F42431F582A0
:1055C300E438F583D0E0125632C0E07408120B239E
:1055D300125608D0E012400A121DA2025872E812B5
:1055E30048ED39F583221252318E828F8322A3A391
:1055F300A31255F822123B75C822FAA3E0FB12341A
:10560300EF39F583221255F82430F582E438F58317
:105613002212441812561FEAF0A3EB22E82426F5BF
:1056230082E439F5832212562D22125257A322F017
:10563300EE241312507C2274F71203797E008A82BF
:105643008B83A3A3A3A3A3A3A3A3A3E06402606B7D
:105653001237ACE0706512543D124906605D8882D2
:105663008983E054037054A3A3A3A3A31256C1E0F8
:105673006A7003A3E06B7043888289831256C1A3C7
:10568300A31239B024061250756A7003A3E06B703D
:105693002A88828983A3A3E0F88C828D83A3A3E065
:1056A300F9A3E0F5838982A3A3E068600D8C828D62
:1056B30083123D14540C640470010E023569A3A3D4
:1056C300A3A312441E8C828D832274F61203797471
:1056D300FC120930EAFEEBFFECFAEDFB8A828B83C6
:1056E300A3E054036016900318124908605A790026
:1056F300EEFCEFFD125F771204F1804C8518828572
:105703001983124D4E7402120B23125754AC18AD69
:10571300197A547B0B120DE28A088B09A808A90990
:10572300E849602488828983A3A3A3A3A3A3A3A393
:10573300A37406F07A00888289831255F412545AAE
:1057430038F583E0F9120D4C74040237388E828FDA
:1057530083EAF0A3EBF022C082C08390033A748AF9
:10576300F0A3740BF090033C747EF0A3740BF0026F
:105773003D1BE824FF18E934FFF922EE2416F582D5
:10578300E43FF58322E5082414124D91E022E50855
:10579300240C124D91228E828F83F0A3AE82AF83AD
:1057A30022E0F88E828F83A3A3A3A3E028221235DD
:1057B3003785188285198374FFF022F0E5082410D9
:1057C300124D912274F41203798A088B0978081216
:1057D300086E750A11750B00780A12086E7C007D3D
:1057E300007A3A7B001219A6740412089CE970101F
:1057F300900334120B00E5082411125795120AF492
:10580300022DF074F512037974EF120930E985184B
:1058130082851983F08A088B09750A0078081208B3
:105823006A7C107D007404120B23AA82AB831218C6
:105833003E740312089CA818A919880889097808D6
:1058430012086E750811750900780812086E7C003D
:105853007D007A3B7B001219A0740412089C7C1112
:105863007D007900AA18AB1912184A7411800274CA
:105873000D12089C7F030205E174ED12037974EBAA
:10588300120930890C7A117B0012191C8A088B09C2
:10589300EA450970030259C9780812086E750A119E
:1058A300750B00780A12086E7C007D007A3B7B0042
:1058B3001219A6740412089CE960030259B58508FD
:1058C30082850983E0650C60030259B57A117B0078
:1058D30012191C8A0A8B0BEA450B70030259B5781F
:1058E3000A12086E750E11750F00780E12086E7C81
:1058F300007D007A3A7B001219A6740412089CE911
:1059030060030259A1780812086E780E12086E7CA3
:10591300007D007A3A7B001219A0740412089C7867
:105923000A12086E780E12086E7C007D007A3B7BAB
:10593300001219A0740412089C90038D7401F09056
:105943000334E4F0A3F0A3F0A3F085081085091154
:10595300F512781012086A7C117D00740312090A8B
:1059630012183E740312089C900334120B00741136
:10597300120B23120AF4A818A919880E890F780E9E
:1059830012086E750E15750F00780E12086E7C00E6
:105993007D007A827B001219A0740412089C7C118A
:1059A3007D007900AA0AAB0B12184AAA0AAB0B12A4
:1059B30019227C117D007900AA08AB0912184AAAA2
:1059C30008AB09121922741512089C02505574F27F
:1059D30012037974FF12093089088A098B0AECFED5
:1059E300EDFFEBC43354E0F8EA33333354F845089E
:1059F30048125799740F120B231206ACEEFAEFFB01
:105A03001218D4740412089C8A0C8B0DAE0CAF0DC3
:105A1300E50A6015120E30EAFCEBFDEEFAEFFB121D
:105A23001A06EE2408FE50010F74016509703D75D6
:105A33000C3A750D00780C12086E74021209028874
:105A43000C890D780C12086E7C017D007A007B00B6
:105A5300120F2C740412089CE9700B8518828519A7
:105A630083123FE180058E828F83E4F07401022567
:105A73008EE9F874020458F97402B900028004C371
:105A830033D9FC541CF902084E74F412037974FEE2
:105A93001209308908750A3A750B00780A12086EE4
:105AA3007403120902880A890B780A12086E7C01B2
:105AB3007D007A007B00120F2C740412089CE9709D
:105AC300607401120B23E06508604E750A3B750B89
:105AD30000780A12086E7402120902880A890B7888
:105AE3000A12086E7C017D007A007B00120F2C7471
:105AF3000412089CE9702E851882851983E06508D5
:105B0300701FE0F87401120B23E0C398500F85183F
:105B130082851983E0F9120B727E3A80067E3B8000
:105B2300027E007F00EEFAEFFB022DEB74EB120313
