:020000040000FA
:06000000020A9E0201CE7F
:03002B0002075376
:030033000206437F
:0300430002077938
:0300530002010E99
:03006B0002061D6D
:1000830002016201FF050301412100000000152068
:1000930000000000FF000000FF00010188130000C2
:1000A3000020FD000200009A16000000000000542A
:1000B3001700000000000000000000000000000026
:1000C300000000000000000000000000000000002D
:1000D300000612FFFF01010100C10C000000E8034C
:1000E300FFFF140DE80364006400B8010202000876
:1000F300000005020701051E02051E0A03B80B02D4
:100103000102E8030A050001220402C0E074F212AE
:1001130003E5A2AFE433F508D2AFAFA7AEA1EE5F1C
:100123005410600612142475A1EFEE5F54086008A2
:1001330012142A75A1F78023EEA2E092F0EFA2E059
:1001430082F05017906198E0F890075BE0C398A2A3
:10015300D265D0335002E8F075A1FEE5088063C094
:10016300E074F21203E5A2AFE433FED2AF9061A4D0
:10017300E0F8759B00E59158540860087591F712F3
:1001830014728023E59158541060087591EF12148E
:10019300788014E591A2E092F0E8A2E082F05007A3
:1001A300E0C2E0F01215C29061A3E0F8E5E958540B
:1001B30004600E12159875E9FB906193E0A2E64086
:1001C300F2EEA2E092AF7F01020444C0E074F212A7
:1001D30003E5A2AFE433FED2AF9061A5E0F8E5BF3B
:1001E300585404600675BFFB1215DA80D4C3E49833
:1001F300F8E499F91202318026C3E49AFAE49BFBEE
:10020300E920E7E9120231E498F8E499F922C3E41A
:1002130098F8E499F9120231E498F8E499F9C3E4FF
:100223009AFAE49BFB22EB20E7CFE920E7E0B90051
:1002330010BB0008E88AF084F8AAF022E4FBC8FAAD
:1002430022EB70227B10C833C8C933C9335007C3AC
:100253009AC3DBF280069A50012ADBEAC833F4C85A
:10026300C933F4C9FA2275F008E4C833C8C933C9DD
:1002730033C99AC99B5004C92AC93BD5F0ECFBC8C2
:1002830033F4C8E4C9FA22080808EAC0E0EBC0E086
:1002930086F0E7A4FA180986F0E7A42AFA18098673
:1002A300F0E7A42AFA180986F0E7A42AFA1986F0D7
:1002B300E7A4FBE5F02AFA190886F0E7A42BFBE58F
:1002C300F03AFA190886F0E7A42BFBE5F03AFA189E
:1002D300180986F0E7A4C5F02BFBE43AFA1908E7FE
:1002E300C5F0C6A426F6E5F03BFBE43AFA1886F01F
:1002F300E7A4F6E5F00826F6E43B08F6E43A08F648
:10030300D0E0FBD0E0FA22E4CFC0E0E4CEC0E0E4EA
:10031300CDC0E0E4CCC0E075F020E626F608E63375
:10032300F608E633F608E633F6181818EC33FCED56
:1003330033FDEE33FEEF33FFC3EC9709ED9709EE80
:100343009709EF97191919400FFFEC97FC09ED97DF
:10035300FD09EE97FE191906D5F0BFECF709EDF785
:1003630009EEF709EFF7191919D0E0FCD0E0FDD039
:10037300E0FED0E0FF222518C582C0E0E51934FF76
:10038300C583C0E0E518C3958224F810AF088583C0
:10039300198582188008858319858218D2AFCEF01B
:1003A300A3E520F0A37808E608F0A3DEFAEFF0A3B4
:1003B300E58124FAF8E608F0A3E608F0A3E608F0DE
:1003C300A30808E608F0A3E608F0A315811581D079
:1003D300E0FED0E0F8158115811581E8C0E0EEC09C
:1003E300E022C0D02518C582C0E0E51934FFC583DB
:1003F300C0E0E518C3958224F310AF0885831985FF
:1004030082188008858319858218D2AFC8F0A3E9C2
:10041300F0A3EAF0A3EBF0A37908E709F0A3D8FA75
:10042300ECF0A3EDF0A3EEF0A3EFF0A3D0E0F0A384
:10043300D0E0F0A3D0E0F0A3E520F0A3E5F0F0A333
:1004430022851983851882E0C0E0A3E0F9A3E0FACE
:10045300A3E0FBA37808E0F608A3DFFAE0FCA3E03F
:10046300FDA3E0FEA3E0FFA3E0C0E0A3E0C0E0A3A0
:10047300E0F5D0A3E0F520A3E0A3F5F010AF0885E5
:1004830083198582188008858319858218D2AFD095
:1004930082D083D0E0F8D0E032120B0CB900030213
:1004A30004DBE49003017899790B8002F0A3D8FC74
:1004B300D9FA7A997B0D900086788979018015E4C1
:1004C30093A3AD82AE838A828B83F0A3AA82AB838C
:1004D3008D828E83D8E9D9E775826A7583C57403E3
:1004E30012083C7582DA75831E740012083CE473AB
:1004F3000575F0108E1A8F1B85821F85831E851844
:1005030082851983E0CEA3E0CF851F82851E83EB0E
:10051300C9EAC8EDCBECCAC3E833C8E933C9EA3347
:10052300CAEB33CBC3EA9EF51DEB9FF51CB3500416
:10053300AB1CAA1DEC33CCED33CDD5F0DAAE1AAF3C
:100543001B22D083D082ECC0E0EDC0E0E493A3FC97
:10055300E493A3FDED4C600D120661EC24FFFCED6A
:1005630034FFFD80EFE493A3FCE493A3FDED4C6023
:100573000D1206FEEC24FFFCED34FFFD80EFD0E00E
:10058300FDD0E0FCE493A3C0E0E493C0E022D08379
:10059300D082E9C0E0E493A3C386F0C5F095F0F9F7
:1005A30008E493A386F0C5F095F0700BE493A3C31E
:1005B300994005E9048002A3E475F002A42582F5BD
:1005C30082E5F03583F583D0E0F9E493A3C0E0E45A
:1005D30093C0E022851983851882E0A3FEE0A3F58A
:1005E300207808E0A3F608DFFAE0A3FFE0A3C0E069
:1005F300E0A3C0E0E0A3C0E0E0A3C0E0E0A3C0E06C
:1006030010AF088582188583198008858218858331
:1006130019D2AFD083D082020842C0E074F2120331
:10062300E5A2AFE433FED2AFE589A2E15003121392
:1006330040758900C2C5EEA2E092AF7F0102044477
:10064300C0E074F21203E5A2AFE433FED2AFE58B50
:10065300A2E05003121340758B00C2E880D8C0E0BB
:10066300C3E49396087401939618400FE49366705D
:100673000808740193661870007019A3A3C3E49368
:1006830096087401939618A3A3400DD0E0D0E0D050
:10069300E0020581A3A3A3A3A3A3D0E02274048053
:1006A3000474028000CCC0E0EDC0E0E518C39CCC2C
:1006B300AD1950011D10AF068C188D1980068C18CA
:1006C3008D19D2AF1207BED0E0FDD0E0FC22740238
:1006D3008000CCC0E0EDC0E0E518C39CCCAD195060
:1006E300011D10AF068C188D1980068C188D19D238
:1006F300AF12079CD0E0FDD0E0FC22C0E0C0F08840
:10070300F0E4936670080874019366187000A8F00B
:10071300A3A3700BD0F0D0E0D0E0D0E0020581A31A
:10072300A3D0F0D0E022D083D082CCC0E0E493A366
:10073300600612081D1470FAE493A3600612090EF2
:100743001470FAD0E0FCE493A3C0E0E493C0E02289
:10075300C0E0C0D0E8C0E0E9C0E0A9A8D2AFC2C7FA
:10076300E9A2E7E433F8E9A2E792AFD0E0F9D0E0F9
:10077300F8D0D0D0E032C0E074F21203E5A2AFE4C7
:1007830033FED2AFC2C0E5D1A2E45003121394EEFC
:10079300A2E092AF7F01020444CAC0E0E493A3C580
:1007A30082CCC582C583CDC583F0A3C582CCC58267
:1007B300C583CDC583DAE5D0E0CA22CAC0E0E0A391
:1007C300C582CCC582C583CDC583F0A3C582CCC504
:1007D30082C583CDC583DAE6D0E0CA227009080852
:1007E30008226016181818C6C333C608C633C608CD
:1007F300C633C608C633C6D5E0EA22C008C3E096AE
:10080300F50808A3E096420808A3E096420808A367
:10081300E09645087001D3D00822C0E0E493A3D347
:100823009C5010E493A3C39C400AD0E0D0E0D0E0F6
:10083300020746A3A3A3D0E022C09FF59FE473D091
:100843009F22D083D082C09FE493C0E0740193C001
:10085300E0740293F59F227404800A740380067483
:100863000280027401C0E0F404120875D0E0120A99
:10087300DB222518F58210AF08F518400C151980F6
:1008830008F51840021519D2AF8519832200C0D08C
:10089300251810AF08F518500C05198008F51850E5
:1008A300020519D2AFD0D022BB0102E722C082C019
:1008B3008389828A83BB0003E08002E493D083D0E0
:1008C30082226016080808C6C313C618C613C618C2
:1008D300C613C618C613C6D5E0EA22C3E0C696F609
:1008E30008A3E0C696F608A3E0C696F608A3E0C6FA
:1008F30096F6222518F8E43519F9222518FAE43575
:1009030019FB222518FCE43519FD22C0E0E493A36A
:100913006C7009D0E0D0E0D0E0020746A3A3D0E09A
:1009230022251810AF08F518400C15198008F51882
:1009330040021519D2AF22E76670100809E7667006
:100943000A0809E76670040809E76622C3E0960807
:10095300A3E09608A3E09608A3E096A2D265D0335D
:1009630022E066701008A3E066700A08A3E06670D0
:100973000408A3E06622C3E096F008A3E096F0081B
:10098300A3E096F008A3E096F022C3E697F60809E1
:10099300E697F60809E697F60809E697F622C3E410
:1009A30093960874019396087402939608740393BC
:1009B3009622700422600D18C6C333C608C633C618
:1009C300D5E0F41822E647F60809E647F60809E6F3
:1009D30047F60809E647F622E026F008A3E036F0DA
:1009E30008A3E036F008A3E036F022E627F608096C
:1009F300E637F60809E637F60809E637F622E6573A
:100A0300F60809E657F60809E657F60809E657F621
:100A130022E056F608A3E056F608A3E056F608A32C
:100A2300E056F622E026F608A3E036F608A3E03601
:100A3300F608A3E036F622E056F008A3E056F008E5
:100A4300A3E056F008A3E056F022E4C396F608E4C8
:100A530096F608E496F608E496F622600D08C6A218
:100A6300E713C618C613C6D5E0F322C6F4C608C6F4
:100A7300F4C608C6F4C608C6F4C622C3E796080936
:100A8300E7960809E7960809E79622C3E09608A3C4
:100A9300E09608A3E09608A3E0962275D00075813E
:100AA3003F7518017519030002049CE6F008A3E6DC
:100AB300F008A3E6F008A3E6F022600C08C6C3130F
:100AC300C618C613C6D5E0F422E0F608A3E0F6087C
:100AD300A3E0F608A3E0F622CAC0E0E6F0A308DA32
:100AE300FAD0E0FA22E8F0A3E9F0A3EAF0A3EBF0EE
:100AF30022E0F8A3E0F9A3E0FAA3E0FB22E0FAA3E3
:100B0300E0FBA3E0FCA3E0FD22E5C754F84401F5B4
:100B1300C77901222518F582E43519F58322C2AF7E
:100B230075D69F02000022120845025100120845A3
:100B33009B5100120845E25100120845655200120C
:100B43000845E654001208453A5600120845CD56AA
:100B5300001208455A5700120845C75700120845A6
:100B63000658001208457C5800120845D159001256
:100B73000845745A001208458C5A001208452F5B29
:100B830000120845B75D00120845585F001208457A
:100B93007D5F001208450080021208455A80021248
:100BA3000845C480021208454D8102120845098296
:100BB30002120845988202120845B18202120845C2
:100BC300D682021208451483021208456383021277
:100BD30008458C8302120845DB830212084587848B
:100BE300021208454F8502120845B48502120845D2
:100BF3008D86021208456C87021208457B87021214
:100C030008458687021208457888021208458988B4
:100C13000212084501890212084589890212084512
:100C2300ED8902120845D28A02120845038B02128B
:100C330008454B8B02120845588B02120845618BFD
:100C430002120845618D02120845AE8E0212084554
:100C53002D8F021208450191021208455E9302127C
:100C630008457293021208457C9302120845869345
:100C7300021208459093021208459A9302120845FE
:100C8300A49302120845D393021208450994021251
:100C930008451494021208453894021208455C94DE
:100CA30002120845BD940212084508950212084530
:100CB3002495021208458E9502120845DA95021210
:100CC3000845229602120845A29602120845669824
:100CD30002120845229902120845EB9902120845AF
:100CE300779C02120845CC9C02120845F49C021220
:100CF30008451B9E021208455F9E02120845AF9EDF
:100D030002120845649F021208450EA0021208450C
:100D130082A00212084522A102120845B4A10212C0
:100D23000845318201120845638201120845708427
:100D330001120845C38401120845098501120845BB
:100D43009C8501120845018601120845418601125E
:100D53000845A68701120845A288011208456C8C34
:100D630001120845078D01120845078E0112084537
:100D73006A8E01120845968F0112084528920112C6
:100D83000845B49201120845BE9201120845EB9240
:100D930001120845BE93011208457C9401120845CF
:100DA300A59401120845D294011208450F97011228
:100DB3000845E39701120845229801120845A398B4
:100DC30001120845659901120845979901120845D2
:100DD300DE99011208451A9A01120845699A01120F
:100DE3000845BD9A01120845379B011208459C9B93
:100DF30001120845039C011208458D9D0112084507
:100E03005A9E011208456C9F0112084562A2011205
:100E13000845A9A4011208454CA5011208458AA555
:100E23000112084563A70112084576A70112084578
:100E33007FA70112084588A7011208459DA7011243
:100E43000845BCA7011208456DA801120845C0A8B2
:100E530001120845CAA8011208454CA90112084508
:100E6300F9A90112084508AB0112084520AC01128B
:100E7300084518AD011208452FAD011208456CADA8
:100E8300011208458AAD01120845DDAD011208457E
:100E93000FAE01120845AFAE01120845BAAF0112F9
:100EA300084543B001120845BDB00112084559B1C8
:100EB3000112084596B20112084570B301120845A4
:100EC300DBB301120845A4B401120845C7B40112EB
:100ED3000845ACB501120845F0B50112084548B6FE
:100EE30001120845A6B601120845CAB60112084503
:100EF300F5B6011208453CB70112084560B7011267
:100F03000845D9B70112084543B90112084581B90B
:100F130001120845AAB9011208457DBA0112084514
:100F2300A7BA01120845B2BB01120845008003129B
:100F330008453880031208455980031208459B80F1
:100F430003120845FF80031208450981031208456F
:100F5300198103120845508103120845F9840312CD
:100F63000845C18603120845B5880312084553890D
:100F730003120845DA890312084585BD01120845A5
:100F8300E9BD0112084547BE0112084592BE011290
:100F93000845ADBE01120845D4BE01120845F1BE95
:100FA30001120845FDBE01120845A1C00112084502
:100FB300BAC00112084536C10112084549C10112E0
:100FC300084559C101120845FFC1011208456FC305
:100FD3000112084582C40112084522C501120845C1
:100FE3002CC5011208459AC501120845ABC501126B
:100FF3000845EAC50112084518C601120845E5C6A9
:10100300011208453CC70112084581C70112084572
:10101300D7C701120845F5C70112084543C8011295
:10102300084511C9011208455FC901120845A1C944
:101033000112084524CA011208454ECA0112084587
:1010430084CA0112084593CA01120845F1CA011264
:10105300084569CB01120845AACB01120845F9CB13
:101063000112084524CC011208453ECC0112084563
:1010730058CC011208452DCD0112084537CD011278
:10108300084572CD0112084582CD011208458BCD6A
:1010930001120845DCCD01120845F0CD01120845C7
:1010A3000ECF0112084523CF01120845BDCF01120F
:1010B30008453CD001120845DFD001120845EAD0AB
:1010C3000112084534D20112084550D201120845D5
:1010D300A4D20112084512D3011208455ED30112AE
:1010E300084578D301120845BAD3011208451DD625
:1010F30001120845B5D6011208452CD7011208453F
:1011030072D9011208458AD9011208458DD90112F5
:10111300084599D901120845ADD901120845B5D939
:1011230001120845ECD901120845E0DA011208451D
:101133006ADB01120845ECDB0112084561DC011290
:10114300084539DD011208455BDD01120845F2DD72
:1011530001120845FEDD011208455BDE0112084558
:101163005EDE01120845CDDE0112084519E00112C9
:1011730008452CE101120845B7E101120845CAE20E
:101183000112084594E301120845C5E3011208451D
:10119300EBE301120845F4E30112084523E40112CD
:1011A3000845D3E40112084583E501120845F6E535
:1011B30001120845A6E60112084519E70112084580
:1011C30058E701120845A1E70112084503E102129D
:1011D30008456EE102120845BAE1021208450AE227
:1011E300021208458EE202120845D2E402120845B3
:1011F300F0E60212084570EA02120845ABEA021251
:101203000845C9EA0212084529EB0212084551EBC9
:101213000212084582EB02120845AFEB02120845A1
:1012230018EC021208450BD40212084587D40212A7
:101233000845B3D402120845E5D40212084547D63F
:101243000212084563D602120845A1D602120845C8
:101253002ED7021208458AD70212084550D8021227
:1012630008450FD90212084554D902120845B5D9C9
:10127300021208452ADA0212084553DA0212084517
:1012830094DA021208453BDC021208451FDD021204
:101293000845D6DD02120845C3DE02120845FDDE0D
:1012A3000212084555DF0212084577DF021208458E
:1012B3000FE002120845B6E00212084513AC031210
:1012C300084587AC0312084514AF031208456BB0F9
:1012D3000312084577B003120845E7DA03120845FD
:1012E300F8DA0312084596DB03120845D3CD03123F
:1012F3000845E1CD03120845ADDF0312084550DC74
:101303000312084560DC031208457BDC0312084521
:10131300E3DC03120845F0D80312084574D903121D
:101323000845DAD90312084595D203120845B7D206
:101333000312084524D3031208456CD3031208454E
:10134300C5D303120845C57E00120845D37E00129B
:101353000845FE7E00120845367F00120845397F96
:1013630000120845C67F00120845DB7F00120845BE
:1013730012B40312084520B40312084599B40312AA
:1013830008456EB5031208452DB703120845CBDE99
:1013930003120845EDDC0312084531DD031208454D
:1013A30034DD0312084539DD031208453CDD031221
:1013B300084565DD0312084568DD0312084542F759
:1013C300021208456EF70212084514FA0212084584
:1013D3006BFA02120845A7FA02120845BBFA021279
:1013E3000845D4FA02120845C5FB02120845A1FCC0
:1013F30002120845B5FC0212084521D10312084523
:1014030045D1031208455ED1031208459CD103124E
:101413000845D2D10312084505D20312084571D2FB
:101423000312084574D2031208457ED203120845FD
:101433008BD20312084509C0031208452CC00312BE
:10144300084577C003120845954300120845B0C00C
:101453000312084516C10312084522C103120845A9
:101463007FC103120845A3C10312084569C20312D1
:10147300084576C20312084587C2031208458ADE6F
:1014830003120845A2DE03120845C8DE031208450D
:10149300D6A2031208456CA4031208457AA40312CA
:1014A30008458EA403120845ABA403120845F35064
:1014B30000120845D3A40312084555A50312084595
:1014C300BAA50312084550A60312084529A703121B
:1014D300084539A70312084548A703120845B7DB97
:1014E30003120845DBDB0312084503DC031208453E
:1014F3002BDC0312084572BA03120845DEBA031245
:101503000845FDBA0312084572BB031208453CBDEA
:101513000312084555BD031208456CBD0312084567
:1015230075BD0312084593BD031208459DBD031203
:101533000845A7BD03120845BABD0312084547BEB7
:1015430003120845B0BE03120845DEBE0312084568
:101553002FBF031208457BBF0312084596BF031232
:101563000845A0BF03120845B1BF03120845F4BFE5
:1015730003120845F4DD0312084556940312084587
:10158300829403120845A59403120845B8940312E4
:101593000845D39403120845339503120845619512
:1015A30003120845659903120845A29A03120845D8
:1015B300D49A031208453B9B03120845BB9C0312B4
:1015C3000845E39C03120845F89C03120845089D4F
:1015D30003120845489D031208458A9D03120845D6
:1015E3009A9D0312084550D50312084560D503128E
:1015F300084584D503120845ADD503120845D7D550
:1016030003120845FBD50312084512D603120845F9
:1016130040D60312084563D603120845B9FF0212E8
:10162300084584B00312084594B003120845B0B1CD
:1016330003120845E2B10312084508B20312084534
:1016430030B20312084542B2031208457EB20312B8
:101653000845E4B20312084520B30312084565B3F5
:101663000312084592B303120845BEB3031208459B
:101673009BD603120845B9D6031208451BD703129C
:101683000845C8D703120845F3D90312084581CF8B
:1016930003120845D2D00312084563EC0212084531
:1016A30019ED021208453EED021208455EED0212E5
:1016B300084572ED02120845CEED02120845F2ED1F
:1016C300021208456DEF0212084595F00212084513
:1016D3006FF102120845CCF10212084502F2021220
:1016E300084584F202120845DDF202120845FEF2B3
:1016F3000212084580F302120845B5F302120845A9
:1017030018F402120845D6F502120845A2F6021291
:101713000845DAF6021208452EF7021208454BCAAD
:10172300031208456CCA031208459FCB03120845F0
:10173300C9CB03120845B5C20312084529C30312D6
:10174300084534C30312084555C3031208458DC524
:101753000212084590C50212084562C602120845E6
:101763009EC602120845DEC60212084510C70212C1
:1017730008453EC7021208457BC702120845A9C7A0
:1017830002120845A7C802120845EEC8021208450E
:1017930030C902120845A9C90212084546CA0212F5
:1017A300084569CA02120845D3CA0212084541CC4A
:1017B30002120845F9CC02120845E6CD021208458B
:1017C300D3CE021208458CCF02120845C1CF0212B4
:1017D30008452DD002120845C8D002120845F6D09C
:1017E300021208459ED2021208451CD30212084574
:1017F3005CD30212084516CC0312084528CC031209
:10180300084516CD03120845A3CD0312084504D499
:10181300031208453AD40312084556D40312084567
:1018230098D403120845A8D4031208453BD50312E4
:10183300084545D503120845868A03120845908A50
:1018430003120845D78A03120845408B0312084543
:10185300618B031208457A8B031208452C8C031203
:101863000845968E031208459F8E03120845F08E95
:1018730003120845268F031208453D8F03120845BE
:10188300AA8F031208453A90031208457090031279
:101893000845B990031208451A910312084554915B
:1018A30003120845BC91031208450F920312084521
:1018B3005292031208458F9203120845A192031214
:1018C3000845B39203120845D29203120845DB92EE
:1018D30003120845A09303120845EC93031208452D
:1018E3002A9403120845CA9D03120845109F031248
:1018F3000845399F031208454A9F0312084562A110
:101903000312084582A1031208453FDE031208456E
:1019130007C8031208453DC8031208458CC80312C3
:101923000845E8C903120845D6E70112084514E93A
:101933000112084550E9011208451FEB0112084541
:1019430049EB01120845E0ED0112084520EE0112B2
:101953000845B6EF011208454BF001120845A9F0FE
:10196300011208452FF10112084567F101120845DC
:10197300A9F1011208451AF3011208459EF4011258
:101983000845C7F601120845F5F60112084521F787
:10199300011208452AF70112084580F7011208458C
:1019A30010F80112084513FB0112084595FB0112BB
:1019B3000845E67F00120845F2FB011208450BFCBF
:1019C30001120845B0FC01120845F0FC011208455C
:1019D30009FD011208453CFD0112084589FD01126C
:1019E3000845BDFD01120845FFFD01120845E8FF4A
:1019F30001120845DDD7031208454FD803120845E5
:101A03008DD803120845CED803120845B65F0012DD
:101A130008450E6000120845946000120845616194
:101A230000120845A96100120845506200120845DA
:101A33009C6200120845E3620012084552630012DB
:101A43000845D565001208455866001208458F669B
:101A530000120845C766001208457B680012084556
:101A6300F66800120845C96900120845026A0012A7
:101A73000845216A001208456C6A00120845826A0B
:101A8300001208458F6A00120845C86A001208450B
:101A9300DA6A00120845596B00120845646B00129C
:101AA3000845B96B001208450E6C001208454D6CD1
:101AB30000120845626D00120845DF6F00120845E9
:101AC300087100120845517100120845087200128E
:101AD30008452A72001208452D7200120845377214
:101AE300001208453A7200120845C17200120845F7
:101AF300FA72001208452773001208456273001238
:101B030008456573001208457F73001208459A73F0
:101B130000120845C97300120845E973001208450D
:101B23002674001208456174001208456A75001294
:101B330008456FDD031208457BDD03120845B7DD59
:101B430003120845FC7F001208451AB40212084527
:101B53003DB4021208451AB5021208456CB50212CB
:101B63000845C7B5021208451EB60212084566B6F7
:101B730002120845CDB60212084554B702120845B1
:101B8300CCB70212084511B8021208457FBC0212F5
:101B93000845AFBE02120845E8BE0212084527BF3A
:101BA3000212084513C002120845D8C002120845A4
:101BB3004BC202120845F7C2021208450DC40212B5
:101BC300084527A202120845C7A20212084533A3FB
:101BD3000212084543A302120845CBA3021208458B
:101BE30027A40212084564A50212084588A502121B
:101BF3000845FFA50212084550A602120845B6A6DD
:101C03000212084511A7021208454BA80212084503
:101C130053A902120845C9A902120845A5AB02122D
:101C2300084548AC02120845F2AC0212084557AD0C
:101C330002120845C6AD02120845DCAE0212084581
:101C4300BBB00212084548B102120845B9B10212ED
:101C53000845BDB202120845C9760012084532771D
:101C6300001208457A7700120845CD77001208451F
:101C73003378001208459578001208451879001248
:101C8300084546790012084571790012084587799D
:101C930000120845E17900120845BA7A0012084596
:101CA300DE7A00120845E87A00120845EA7B001242
:101CB3000845D57C00120845777D00120845E47D70
:101CC30000120845F97D001208458F7E0012084571
:101CD30092B70312084545B80312084504B9031225
:101CE30008456CB903120845E0B903120845C9FC5D
:101CF30002120845E4FC0212084528FD02120845B9
:101D03004EFD0212084570FD0212084588FD0212BD
:101D1300084532FE021208453CFE0212084551FEF8
:101D23000212084566FF021208456FFF02120845BA
:101D330078FF0212084581FF0212084579A70312B2
:101D43000845A5AB03120845AAAB03120845ACAB83
:101D5300031208458DC6031208453ADF03120845EE
:101D630003DF0312084566DF031208458FDF031202
:101D730008455743001208455F4200120845D24008
:101D830000120845A240001208456F4000120845A2
:101D93004B4000120845374000120845A53F00128A
:101DA3000845463F00120845BF3D001208454C3D1B
:101DB30000120845333D00120845C53C0012084592
:101DC3008B3B00120845FE3A00120845D83A001230
:101DD3000845143A00120845533800120845E637FF
:101DE30000120845B73700120845B43700120845FA
:101DF3009F37001208456337001208454037001229
:101E03000845094E001208454E4B00120845134A77
:101E13000012084534490012084555470012084589
:101E23000D450012084559360012084518360012B0
:101E33000845FC3500120845C9350012084592448F
:101E4300001208456E35001208453D35001208455D
:101E530006320012084514310012084539440012B5
:101E63000845D82F00120845C0A403120845B32E15
:101E730000120845302E00120845F52D00120845C2
:101E8300A12D00120845952D00120845FE2C0012C5
:101E93000845CC2B0012084573290012084500277A
:101EA30000120845B426001208459625001208457D
:101EB3002B2500120845552400120845262300123D
:101EC3000845BF4300120845F22200120845C0220C
:101ED3000012084595C00300000080FB0001363660
:101EE30001010001020100010301000104010606D2
:101EF30005020000070100340801000F0904010175
:101F03000D0100FF0E08000017020000190100FF79
:101F13001A0100011B0100FE1C0100081D02000044
:101F23001F01000120010001210200002301000F15
:101F3300240200002601000127010008280200FFF7
:101F43002A0100072B0102402C0100002D01000192
:101F53002E0100012F0100FF30010B1C310800008E
:101F63003A0100083B01000F3C0100013D0100FF65
:101F73003E04000042040000460400004A0400003E
:101F83004E04000052040000560400005A040000EE
:101F93005E20FFFF36000100060000000F00000076
:101FA3000000000000000000000003FFFF00000429
:101FB30003FFFF0000FFFF0FF4010005C40403202B
:101FC300000100000B000000000000000003010FEF
:101FD30000000000000000000000000000000000FE
:101FE30000000000000000000000000000000000EE
:101FF30000000000000000000000000000000000DE
:1020030000000000000000000000000000000000CD
:102013000000010371030103010301030103010331
:102023002203020301031003000300030003000360
:102033000003000300034203000324030603000319
:1020430000030403120325032303250323030403CB
:1020530004030003000300034403000300032303FA
:102063000003650321003503810300030503000317
:10207300000300030003250323030302710230015D
:1020830060021102700201020202020280021002C7
:1020930061023A0041006302730272026202430268
:1020A30000021302380000020002040212020002BE
:1020B30000020002000204020402370037003C025F
:1020C30044020002390000020002650200023502E8
:1020D30081020002050282028302000201017101F2
:1020E300010101011101010131010101010180011E
:1020F300100161013B00140063017301720162016D
:1021030043010001130106013D01350004011201E1
:102113000001000100010001040104013301330146
:102123003C01440132013600000100016501000158
:1021330035008101000105018201830100010300D3
:10214300710030016000110070003102200350045F
:10215300800010006100000014006300730072002F
:1021630062004300000013000600000000000400AA
:10217300120000000000000000000400040037000B
:1021830037003C024400000000000000000065002E
:1021930000003500810000000500000083000000FE
:1021A3000100041C0200681B03006E1B0400741B67
:1021B30005007A1B0600861B1100A41B1400AA1B32
:1021C3001500981B1F009E1BFFFF000007ECFDFD81
:1021D300FDECDCDCCCBCACAC9C9C8C7C7C6C6C5C8B
:1021E3005C5C4C4C3C3C2C2C1C1C03EAF5E5D5D523
:1021F300C5B5A5959585857575656555554545356C
:102203003525251515050A940D02640D05760D0770
:102213006A0D0C4C0D0D580DFF000000160F000049
:102223000B150B020002220F3300000E5A6967429E
:102233006565416C6C69616E63653039010305073F
:10224300090B0D0F00020406080A0C0D3030171895
:102253001921301B1D1F30303016181920231A1C6A
:102263001E3000393D3F373C3C362C442D00034A99
:1022730049434E181A250502000119161816161897
:102283002303000C0E020B040B0A0708000F0204C1
:1022930002010101010902000000000000E803003F
:1022A3000000BE040A3C003C000E00E80304030ADD
:1022B3001E1E0C040C0404FF0815280908C082C064
:1022C3008312122690030E74B0F0A3741EF09003D1
:1022D3001074AAF0A3741EF090031274A4F0A374F4
:1022E3001EF0900314749EF0A3741EF0023D1B7441
:1022F300F7120379E9FE900302E4F0EE900301F094
:102303007C857D0D7A037B03121A06900E16E090EE
:10231300030BF090030C7471F0A3740DF0121E7A8A
:1023230002409D74F41203798A088B09EB54807080
:10233300030223F9900301E0F91218808A0A8B0B38
:10234300AE0AAF0BEE4F70030223F0124B16E0F907
:10235300123FD890031C124729A3A3A3A3A3A3A3AB
:10236300A3E0640270378A828B8312406B80078CF0
:10237300828D8312401AEC4D60208C828D83E06A3B
:102383007003A3E06B70E88C828D83A3A3E0697074
:10239300DE900E1A125470F0804C121E568E828FED
:1023A30083E064017034EE241812244D120866127F
:1023B30042281206A0EE241212244D12086612516E
:1023C3006F120862122FCA1206A4EE241712517B51
:1023D3001211E4740A120890800CE064027007EE94
:1023E300FAEFFB121DAEEEFAEFFB12186EAA08E528
:1023F300096480FB8051EA5402600C900D997401CA
:10240300F0EA6402FA8040EA54046009121E74E59B
:102413000864048029EA54086029121E628B0BEABF
:10242300450B701690031EE4F0A3F0A3F0A3F07A1B
:1024330008FB900301E0F91219DCE5086408FAAB24
:102443000980047A007B00022DF012507CF50A7893
:102453000A2274F41203798A088B098A828B831205
:1024630055F112505B38F583E02409FA7B0012180A
:10247300688A0A8B0BAE0AAF0BEE4F700302251B63
:102483008E828F837402F0A3E412433DA3A3A3A31C
:10249300E8F0A3E9123FEFA3A3A3A3A3A3A3F0E54B
:1024A300082403F8E4350912376812505B3AF583C0
:1024B300124722F0EE2409FAE43FFB8E828F83A3B6
:1024C300A3123C8DF5838882E0A2E58E828F83A3DD
:1024D300A3A3A3A3500474018001E4F0E50824033B
:1024E300F88882898312406BEA12374C3BF58312DA
:1024F300251E12085EEA12505B3B123D008E828F4E
:102503008312406912183E7403120890EEFAEFFB2F
:10251300900301E0F9121874022DF0E0F508A3E02E
:10252300F509750A0078082274F21203798A088B78
:1025330009ECFAEDFB740E120B17E0FC1212568A2B
:102543000C8B0DAE0CAF0DEE4F6031AC08AD091224
:102553001244E96027AC08AD09EEFAEFFB12124A08
:10256300E970158E828F83122584EEFAEFFB121227
:102573003EAA08AB0912126E7900800279B4800E6C
:10258300A3A3A3E0F508A3E0F509221208907F06B0
:102593000205D774EF12037974F71209248A0A8BA0
:1025A3000BECFEEDFF750DB3750C0075100080028A
:1025B30005109022B8E493F8E510C398400302266F
:1025C300A8851008AA087B001212B68A088B09EAAC
:1025D300450960DC8A828B83A3A3A3A3A3E0250C14
:1025E300F50CF50EC3E50A950EE50B940050C17C7E
:1025F300157D007900EEFAEFFB12184A85088285F3
:102603000983A3A3A3A3A3E0F8E50AC3950C282594
:10261300E0F8E433F9E50828F582E50939F5831292
:1026230044F4124509120E24EAFCEBFDEEFAEFFB2B
:10263300121A06850882850983A3E06401700A12D1
:10264300422874011242EF803DAC18AD198508820F
:1026530085098312406912129EE960307408120BD7
:1026630017E0C0E0124228D0E0F07408120B17E024
:102673006403700CAC18AD19124710121A06800CC3
:102683008518828519831242301245038508828595
:102693000983123756A3A31242F7C0E0124D67D045
:1026A300E0F0750D00A90D74091208907F09020569
:1026B300D774F7120379E9FE8A828B83A3A3A3A3BA
:1026C300A3A3E0540860338A828B83A3A3A3A3A3A9
:1026D300A3E0540260218A828B83A3A3A3A3A3A3B1
:1026E300A3A3A3E06406600F74E96E600A74CD6E61
:1026F300600574F06E7003121E9202409D74E8121E
:10270300037974F81209247406120B17125754EC48
:10271300FEEDFF89177515001229521212628A0AFB
:102723008B0BEA450B700302290EEE24101248F7B7
:10273300A90A120C9E8A128B13EA4513700302290D
:102743000EEE2403F50CE43FF50DEE2406F508E444
:102753003FF5097C008508821250B01212688A1076
:102763008B11850C82850D83E0851282851383A3EB
:10277300A3A312372E851282851383A3A3A3A3E8F1
:10278300F0A3E9122FD2851282851383A3A3A3A3F7
:10279300A3A3A3124B43851282851383A3A3A3A3ED
:1027A300A3A3F0EE12374C3F12296312085E1250B6
:1027B3005A3F123D00851282851383A31240631290
:1027C300183E74031208907514007423120B17E05B
:1027D300F5167424120B17780C120ACC0228938571
:1027E30010828511831240691212A485088285091B
:1027F30083A3EAF0A3EB12296EA3A3123FFD122BCE
:10280300B2A2E6500F850882850983A3A3A3A3A3DD
:10281300E0D2E1F0E5157067850882850983A3128C
:10282300522D900364E0687003A3E069705185083A
:1028330082850983A3A3A31248FC751000781012A4
:102843000866780C12085AE516F510781012086617
:102853007426120B171206A49003711206A47900B2
:102863007410120B17123FE7121D7E740A120890A0
:10287300850882850983A3A3A3A3A3E04405F07479
:10288300012514FC1229521212688A108B110514A7
:10289300E51045116050851408C3E508950AE495D1
:1028A3000B5043E51475F006A4F8A9F0E51228F8D7
:1028B300E51339F9E8240CF508E439F509850882AC
:1028C300F583E4125FA9E0640160030227E2751552
:1028D30001850882850983740112296E124DBCE8B3
:1028E300F0A3E90227F9AA12AB13120CA47812126F
:1028F3000862AD167424120B17E0FCA917EEFAEF69
:10290300FB121E987402120890803A8E828F83A362
:10291300A3A3E0C0E07403120B17D0E0122FD2C0C0
:10292300E07404120B17D0E0F0E50A450B7009744C
:1029330005120B1774B980077405120B1774101264
:10294300400A121D8474081208907F100205D78E66
:10295300828F831244188E828F83A3A3A3E0F9226C
:10296300F583123504750E00780C22125FADA32295
:1029730074E912037974F31209248A0A8B0B8916FA
:102983008C148D157424120B17123500AA0CFB122C
:102993000C92E9F513AA0CAB0D120C98E513700316
:1029A300022B74750E00800F8E828F83A3A3A3A3C3
:1029B300A3E0D2E3F0050EE50C123B47350DF5839A
:1029C300E0F8E50EC3984003022B6BE51370030296
:1029D3002B6BE50E75F006A4F8A9F0E50C28F8E5D5
:1029E3000D39F9E8240CFEE439FF8E828F83A3A30B
:1029F300A3A3A3E0A2E040BD750F00750808750905
:102A030000E5156003750F207C087D007900AA1886
:102A1300AB1912184A8E828F83E060379003B4E0BB
:102A230064017017E50FD2E3F50F7509108E828FDD
:102A330083122B91123B8074FF8028430F0C75087F
:102A43000C8E828F83A3122B87A3A3A3A31257B148
:102A5300A38010E5166009E50FD2E6F50F75080AA5
:102A6300122BA5F07402120B17E50F124DEBC0E009
:102A73007404120B17D0E0F07405120B1712400800
:102A8300121DA8740C120B17E06003022B4E74087E
:102A9300120B171237298E828F83A3A3A3A3F0747B
:102AA30008120B17122BBB1234F6E514122BB2606B
:102AB300119003B4E0C0E07408120B1712350CD068
:102AC300E0F0850C82850D83A3A3A3E0C0E0740826
:102AD300120B171250D4D0E0124028C0E074081231
:102AE3000B17123516D0E0F07408120B17122B8750
:102AF300125614124DF5E01255FDEAF0A3EB124DF8
:102B0300DDC0E01255E1D0E0F07408120B17122C6F
:102B1300EA122B7E1239933B124DCA12374C124DD7
:102B230061F510A3E0F511751200781012085E121A
:102B33003CFBEA123FD03BF58312406B12183E7404
:102B430003120890AA18AB19121DA28E828F83A3B9
:102B5300A3A3A3A3E0D2E0F0740C120B17E060036D
:102B63000229AB15130229B87900AA0CAB0D121E6A
:102B73008C740D1208907F0F0205D7A3A3A3A31291
:102B83005231EA22125231850A82850B8322A31223
:102B93002B9622122B9A22123B75F98518828519DE
:102BA3008322A3122BAA22122B9AE8F0A3E9221262
:102BB3002BB622125257E0221239BA124B4839F57A
:102BC30083E508F0A3E509F02274F012037974E9B0
:102BD300120924EAFEEBFF89088E828F83A3A3A345
:102BE300A3A3A3A3A3E0F9120CBC8A0C8B0DEA45A3
:102BF3000D7003022CE5E50870157C048E828F832B
:102C0300A3A3A3A3A3A3A3A3E0F9120CC2804F7CA5
:102C1300088E828F83A3A3A3A3A3A3A3A3E0F91284
:102C23000CC28A0A8B0BEA450B6033E508F5097879
:102C330009120866850C82850D83A3A3A3A3A3A30E
:102C4300A3E0FD8A828B83A3A3A3E0FC8A828B8308
:102C5300A3122CEAE0F91211DE7401120890125447
:102C63004B3F124906607B88828983124067740652
:102C7300120B17122CF412406B7408120B17122C40
:102C8300F4A3A3E0C0E07410120B17D0E0F0850C9E
:102C930082850D83A3124063740E120B17125754CF
:102CA3007411120B17E4122BB2FAA3E0CA241FF516
:102CB30082E43AF58312383BC413135403FC7002C5
:102CC3007C0488828983E0F9780C120862742059A5
:102CD300FD744059F974021208FE121E9874021210
:102CE3000890741702370912441E850A82850B83E4
:102CF30022EAF0A3EB123B3FA3A32274F71203795A
:102D030074FA120924E9FE7F018F087D008004759F
:102D130008000D1236D6E0F8EDC3985025ED75F096
:102D230006A4F8A9F0EA28F8EB39F9E824111239D6
:102D330099A2E050DA540C60D6E0A2E250D47F00AE
:102D430080D08A828B83A3A3A3A3A3A3E0703EE5D1
:102D530008A2E0400574016E70338A828B83A3A3BB
:102D6300A3A3A3A374011254B4E0C0E07403120B31
:102D730017D0E01254ACE0C0E07404120B17D0E09B
:102D8300F07405120B17EF12400A121D8474060229
:102D9300409AC082C0837901121E8C023D1B74F4D9
:102DA300120379EA4B602D9003B0E0640270259022
:102DB3000D99E4F08A088B09F50AF50B78081208D7
:102DC3005A7A027B00900301E0F91219D0740412BD
:102DD30008908012900D997401F07A027B009003A1
:102DE30001E0F91219DC800574021208907F0402D5
:102DF30005D7C082C083900DE8E075F005A4FCAD53
:102E0300F079007AF67B0B12184A7B008012EB757F
:102E1300F005A4F8A9F0122FBF74FEF0A304F00B81
:102E2300900DE8E0F8EBC39840E4023D1BC082C07C
:102E3300837C007B0080037C010B900DE8E0F8EBC2
:102E4300C398504DEB75F005A4F8AAF0EAF9122FD8
:102E5300B87003A3E0F460E1122FAFE82403F85045
:102E6300010988828983E024FFF0A3E034FF12374D
:102E730098F9E84970C1EB75F005A4F8EAF9122F47
:102E8300AF8882898374FEF0A304122FAAE4F08032
:102E9300A8ECA2E050179082231206A07A047B00CC
:102EA300900301E0F91219D07404120890023D1B3B
:102EB30074F7120379EAFEEBFF900DE8E07003026A
:102EC3002FA1EE24111250757003022FA18E828F51
:102ED30083A3124063120E84E96402600F8E828F13
:102EE30083A3A3A3A3A3E07003022FA17C00803CD0
:102EF300EE123B473F12522BEC75F005A4FAADF0EE
:102F0300EDFB74F62AF582740B3BF583E0687003DE
:102F1300A3E0697016EE2412125075FBEDF974F8F4
:102F23002AF582740B12399C6B60780C900DE8E0E3
:102F3300F8ECC39840BA7C0080010C900DE8E0F8EF
:102F4300ECC398505EEC75F005A4F8A9F0122FB805
:102F53007003A3E0F470E3122FAF122FCA123EFCEA
:102F6300EAF0A3EB122FD288828983A3A3122FAA9C
:102F7300A3740C124B437A04FB900301E0F912197A
:102F8300E2EA4B4C4D70179082231206A07A047B21
:102F930000900301E0F91219D0740412089079012A
:102FA30002409D790080F91254D7A32274F628F8C1
:102FB300740B39F922122FBFE064FE2274F628F550
:102FC30082740B39F58322EE123B4B3FF58322F0DB
:102FD30012421EE02274E812037974FC120924746D
:102FE30002120B17E4F0A3F090031C124A0D85188C
:102FF30082851983E4F0A3F075140190035EE0A2C7
:10300300E3500302308F1219EE8A088B098C0A8D64
:103013000B8A0C8B0D8C0E8D0F90031E780C1208EF
:10302300DE1231047810790C120A7E50077A017B84
:10303300000230FF850C14850D15850E16850F17BC
:103043007814791012030AA814A915900E1AE0C374
:1030530098E4995003E0F514123104780C791012B6
:10306300030AE4F512F5137808791012098D900319
:103073001E7808120AAE801412522D90031C1245BA
:1030830009EEFAEFFB121922AE08AF09EE4F6064A6
:103093008E828F83A3A3A3E0F8E514C3985029EE8F
:1030A3002403F582E43FF583A814E0C398F060217C
:1030B3007402120B1712524712474DEEF0A3EF1290
:1030C3003F2FFEA3E0FF80C48E828F83A3A3A3E4DC
:1030D300F08E828F83A3122583851882851983122C
:1030E30049088E828F83A3A3A3A3608C122B921211
:1030F3003787808A7402120B1712406B74040229FB
:103103004A900E18E0F510A3E0F511E4F512F5135B
:103113002274F21203798A0A8B0BE9FE7A007B0090
:1031230090031C12258690031C124908601E0A8511
:103133000882850983A3A3A3A3124908600E0AEAA0
:1031430070010B88088909E8450970E3900E1B128A
:10315300522DC3EA98EB9940030232037A067B00AF
:1031630012191C8A0C8B0DA80CA90DE849700302D7
:10317300320388828983E50AF0A3E50BF0EE8882A7
:103183008983A3A3F0900E1A1239E6A3A3123B3A44
:10319300E4F0A3F090031C124412600F85088285AB
:1031A3000983A3A3A3A3124509801F90031C1245FF
:1031B3000990035EE0A2E340111219EEEAF8EBF97D
:1031C300ECFAEDFB90031E120AE890035EE0A2E323
:1031D300502E7A087B00900301E0F91219E2EA4BC2
:1031E3004C4D701C900E18125DAA780812085A7A7A
:1031F300087B00900301E0F91219D67404120890B9
:1032030002259174F212037974F3120924EAFEEB96
:10321300FF8E828F83A3A3A3A3A3A3A3A3A3A3E04C
:10322300F50A900D99E0700579BA0234EA75080140
:10323300750900750C00750D007C087D007900AAE6
:1032430018AB1912184A7405120B177401123522A0
:10325300540460127402120B17E0D2E612352254A2
:10326300087003750803E05410600674404508F5C0
:1032730008E0540860227402120B17E044C01235B0
:10328300225420600A7403120B17E0D2E080087402
:1032930003120B17E0D2E1F08E828F83A3A3A3A3C3
:1032A300A3A3A3A3E07016120E2A8518828519839F
:1032B3001257547402120B17E0D2E2802C640F7081
:1032C300107402120B1712352A74044508F508808E
:1032D3007B8E828F83A3A3A3A3A3A3A3A3E06402F0
:1032E3008E828F837006122BA6F08060A3A3A3A304
:1032F300A3A3A3A3E06403700DAC18AD19EEFAEF1A
:10330300FB121E2C80468E828F83A3A3A3A3A3A3A9
:10331300A3A3E0640170359003B4E060107402125B
:103323000B1712352A750910750AFF8018740212DB
:103333000B17E0440C12474D74FDF0A374FFF074B7
:10334300044508F5088E828F83123500EE2415128A
:103353005075A2E0503F7402120B17E0540C701B1F
:103363008E828F8312406B121CA0E9700579BB0219
:1033730034EA7402120B17E0D2E5F0EE2415125072
:1033830075A2E050107402120B17E0540C64047021
:1033930004E0D2E5F0EE2411125075C0E07404127B
:1033A3000B17D0E012400A121DA8740C120B17E081
:1033B30060030234E37408120B17122BBBEE2418BC
:1033C300125075C0E01234F6D0E0124DD2E0C0E0E6
:1033D3007408120B171255F412506C38F583D0E0B1
:1033E300123B7A640170119003B4E0C0E0740812D8
:1033F3000B1712350CD0E0F07408120B17124DB7EF
:103403002417FAE43FFB8A828B83E0FCE8241CF553
:1034130082E439F583ECF0A3E412442FE0C0E0E842
:103423002422F582E439F583D0E0F07408120B17F7
:10343300123516E50AF07408120B171239B6123951
:103443009339F583E50CF0A3E50D1250EBFCA3E0F3
:10345300FD12561FECF0A3ED12370412401E123476
:10346300EF3912523AC0E0E8242FF582E439F583AC
:10347300D0E0F0EE241B125075C0E07408120B1755
:10348300125608D0E0F0EE241A125075C0E074080A
:10349300120B171255F41248ED38F583D0E012568B
:1034A3003212251F12085E12421012401E740B12B4
:1034B3000B17123B5D12183E7403120890EE24158D
:1034C3001250755440601290032C124908600AAAE6
:1034D30018AB19125F771204F1AA18AB19121DA2C7
:1034E300740C120B17E0F9740D02258EE82428F5ED
:1034F30082E422E82412F582E439F58322123504AA
:1035030022E0F50CA3E0F50D221255F8124D4838D0
:10351300F583221255F82423F582E438F58322F04B
:10352300EE241512507C22E0D2E3125257123534A6
:1035330022122B9AE8F0A3E9F02274F71203797EA2
:10354300638A828B83E0600C7905120B90E9F8742F
:1035530056C398FE90035CE0600CF9120B90E9F8F7
:10356300EEC39824F2FEEEF902409D74F61203793D
:1035730074FE120924851882851983125754E9FEB3
:10358300ECFAEDFB9004C61249086035A818A91996
:103593008808890978081208627D01740E120B17D6
:1035A300E0FCEEF99004C6123DAF1204F17402126E
:1035B30008908B09EA450960047900800679B28096
:1035C3000279B602373674F7120379E9FE90030ED7
:1035D300124908601F7409120B17E0F508780812E6
:1035E3000866EEF990030E123DAF1204F174011256
:1035F3000890800279B602409D74F7120379E9FEC0
:1036030079B574AB6E700B90030C12406B121A06F3
:10361300790002409D74F5120379EAFEEBFF8C08F2
:103623008D09750A01120E24EAFCEBFDEEFAEFFB9D
:10363300121A00E96401700B900364123779124582
:1036430009800EAC08AD09EEFAEFFB120BC6E9F5E3
:103653000AA90A02587774F6120379EAFEEBFF7A95
:103663000C7B0012191CEA4B6066EE242012507585
:103673008A828B83F0EE24211236DEF0EE242212AE
:1036830036DEA3F0EE24231236DEA3A312490D1275
:1036930036E7124509EE1234F03FF5831236E7A3FD
:1036A300A3E8F0A3E912491C8A828B83A3A3A3A3F3
:1036B300A3A3A3A3F0EE242F125075C0E01236D6B5
:1036C300D0E01240311236ECA3A3A3A3A312450901
:1036D30002373BEA123B4B3BF5832212507C8A8232
:1036E3008B83A322E01236EC22F8A3E0F98A828BC3
:1036F30083A3A3A3A322F582E43FF583E4F0A3F01D
:1037030022F0124D9D221208907F080205D712372E
:10371300198882F58322F8E43FF98808890922A3EE
:10372300A3123B55A32212378DE022123D07F8A3C3
:10373300E0F92274021208907F020205D7C082C00A
:10374300831237ACE4F0023D1B12375022240EF5EE
:1037530082E422123FF622F583E02AFAA3E03B2219
:103763007901020842F988828983E0FAA3E0CA2238
:10377300123840A3A32212377D22125235850882C4
:1037830085098322123773A3A322123B75C812370C
:103793005038F58322124B3CF8A3E022C082C08349
:1037A3001237AC7401F0023D1BEA12545A3BF58305
:1037B30022023763C082C08390032274FCF0A37497
:1037C3001DF090032474F0F0A3741DF0900326748D
:1037D300EAF0A3741DF090032874F6F0A3741DF0AF
:1037E300023D1B74F4120379EAFEEBFF123849F52C
:1037F30008120E2A8A0A8B0BA80AA90B8E828F83C2
:1038030012383B687003A3E069602AE508A2E5501B
:10381300248E828F83A3E0FB900322123DAF120418
:10382300F18E828F831255F4240A12490270061214
:103833003849C2E5F0022DF0123840E022E0FAA345
:10384300E0F5838A82228E828F83123724A3E022BB
:1038530074F4120379EA2408FCE43BFD8C828D8323
:103863001239B62420123999FE74035EF509123B0E
:103873004639124DB588828983F0A3A882A983E5CE
:1038830009600974026509600302391F740C5EF54F
:103893000860177408650860117404650870137470
:1038A3000265097005EEA2E4402A1239BF242312EF
:1038B30039EC740C650870161239A824241239D116
:1038C300FCA3E0CC1239933CF583A31239F27402C2
:1038D30065097005EEA2E440431239A82426123983
:1038E300D1FFA3E0CF1248F3A31239F21239AC246B
:1038F30028123A011234F03CF583A31239F2E50899
:10390300601274086508600C740C65086006740422
:10391300650870081239BF24221239EC1239BF121C
:1039230039877005EEA2E1500C1239BF1248ED3C05
:103933001239A180109003021239A3900302E0040C
:10394300F088828983A3A882A983EEA2E75032126A
:1039530039A82421123A0112398760251239BF246C
:10396300301239ECEEA2E150188A828B83A3A3A311
:10397300A3A3A3A3A312376D2431F582E43A12392A
:10398300A1022DF02421F582E43CF583E0540322C7
:103993002424F582E422F582E439F583E022F583D9
:1039A3001239E6F022EA2408FC8C828D83E0FFA31F
:1039B300E0CF221239BA22125235E8228A828B834F
:1039C300A3A3A3A3A3A3A3A3E0FCA3E0CC22F58218
:1039D300E43FF5831239E6F0A3A882A9838C828D94
:1039E30083E022E08882898322F582E43CF5831216
:1039F30039F622E088828983F0A308A98322F5821D
:103A0300E43FF5831239F68C828D83E0FCA3E0CC8E
:103A130022C082C0838A828B8312384DF874035884
:103A2300F98A828B83A3A37401F0E96005740269A8
:103A33007061740C58FC601474086C600F74046C2F
:103A430070137402697005E8A2E4401D8A828B83B7
:103A5300A3A37402F0740C6C700A8A828B83A3A3F1
:103A6300E02402F07402697005E8A2E440258A822A
:103A73008B83A3A3E02404F0EC600F74086C600A4A
:103A8300740C6C600574046C70098A828B83A3A325
:103A9300E004F0E8A2E750318A828B83A3A3E00419
:103AA300125240F9A3E0F5838982A3A3A3E0540350
:103AB30060178A828B83A3A3E004F0E8A2E1500994
:103AC3008A828B83A3A3E004F08A828B83A3A3E07F
:103AD30004F0023D1BC082C0838A828B83A3A3A30D
:103AE300A3A3A3A3A3A3A3124908600C8A828B8375
:103AF300A3A3124063121922023D1B74F712037928
:103B0300EAFEEBFF8E828F83124237A3A3A3A3A304
:103B1300A3A3A3E4F0123B3AA3A3A3A3A3A3F0A3F9
:103B2300F0E812545A39F583E4F0121DD2EEFAEF9D
:103B3300FB121DDE02409DA3123B3F221254D7A36A
:103B4300A3A322E8123B4B22240BF582E422123B6F
:103B53005522123B75F583888222123B6412441E60
:103B630022123B6822123B75C8242BF582E438F5F8
:103B73008322E0F8A3E022124929A3E02212353779
:103B83008E828F83A3A3A32274F612037974F41293
:103B93000924123C9DFCA3E0F5838C82A3E0FC7412
:103BA30002120B17EC124B38123CBC7404120B17A5
:103BB3001240106C7012123CAF123C947406120B3C
:103BC30017123C81241A803A7402120B17E0640125
:103BD3006005E06406703CEA2402F8E43B123768AF
:103BE300124DA53AF583E0C0E07403120B17D0E041
:103BF300124B382413123C967406120B17123C8195
:103C0300241BF8A3E03400F97408120B17E8F0A39F
:103C1300E980297406120B17E4F0A3123CAA123CA4
:103C2300947408120B17123C8DC8241AF582E438D9
:103C3300F583E0C0E0740A120B17D0E0F0740612AB
:103C43000B17124908602B7406120B1712406B12E4
:103C53000BBAE96401701B120E248A088B09AC08A5
:103C6300AD097406120B1712406B121A00E96401B6
:103C73007007AA18AB19121D78740C023738123C5E
:103C83008522EAF0A3EB124B3C22123C85F8A3E019
:103C9300222412FAA3E03400FB228A828B83A3A39B
:103CA300A3A3A3A3122BAAF0123CAF22EA2402F887
:103CB300E43BF988828983E0222402F8A3E03400FC
:103CC300F922C082C08374FD120924123CE5C0E0CE
:103CD3007402120B17D0E012400A121D7274030211
:103CE3003D188A828B83A3A3A3A3A3A31235348A8B
:103CF300828B83123722E022125468350BF583E05E
:103D0300FC7D0022123D0B22F0850882850983E0A9
:103D130022123D2C22120890D083D0820208421234
:103D23003D2824FB228A828B83A3A3123B55E022E6
:103D3300C082C083123D22600624FC600780081203
:103D43001DC08003121DBA80CFC082C083900E1D98
:103D5300E07025900D8FE0701F8A828B83A3A3A34D
:103D6300A3A3E07013123DB360388A828B83A3A3AD
:103D7300125F76E06407602A8A828B83A3A3A3A3DE
:103D8300A3A3A3A3E070128A828B83123DB96009B7
:103D93007A347B01121B44800990032A123DAF122F
:103DA30004F1023D1BEEFAEFFB900324123B512278
:103DB300123D28640622123D2C64052274F6120378
:103DC3007974FA120924EAFEEBFF7403120B17123B
:103DD3004D4E74031208FE121DC612507260030288
:103DE3003EE98518828519837432F07405120B1726
:103DF3001257A4C0E07401120B17D0E0123F23C086
:103E0300E07402120B17D0E0123F29F8A3E0F9E89F
:103E1300496017E82417123999FAE82416123999D8
:103E23002AF87401120B17E028F0AA18AB19120C28
:103E3300148A088B09A808A909E8497003023EDE21
:103E43008E828F83123EFCA3A3123F1C124DA53911
:103E530012402DC0E0E82420F582E439F583D0E058
:103E6300124028C0E0E82421F582E439F583D0E04C
:103E7300123F2FC0E0E8242AF582E439F583D0E02D
:103E8300F07405120B17E0FCE8123EF42C123C967A
:103E9300E8123FD039F583123F1C242DF582E43913
:103EA300F583EC123F29FAA3E0FBEA4B601BE824FD
:103EB3002BFAE439FB8E828F83A3A31239C3241612
:103EC300F582E43CF583123F048E828F83A3A3A380
:103ED300A3A3A3A3A3E8F0A3E9800AEEFAEFFB12DE
:103EE3001DCC123EEEF074060237381243167410DE
:103EF30022123B4B39F583E02212441E88828983C8
:103F030022E0FC8A828B83E02CFCA3E03400FD8A50
:103F1300828B83ECF0A3EDF022EAF0A3EBF0E8222E
:103F2300123F34A3E022124433A3E022123F34E0D1
:103F330022123F3822123F3C22F08E828F83A3A3AA
:103F4300A3A32274F6120379EAFEEBFF12507270F8
:103F530042121DD88E828F83A3A3A3A3A3A3A3A3DB
:103F6300A3A31249086006123DA81204F11250726D
:103F7300700B12405F120C0E123FA08015EE240846
:103F830012371112406B121922850882850983E4C6
:103F9300F0A3F0EEFAEFFB121DCC02373B124316EF
:103FA300E92274F6120379EAFEEBFF8C088D0912FD
:103FB3001CA0E9700479018011AC08AD09EEFAEF99
:103FC300FB900328123DAF1204F102373B242BF57B
:103FD30082E4227D00EE2402FAE43FFB22A3E08E7A
:103FE300828F8322124022EEFAEFFB221242F31257
:103FF3003FF622E08E828F83A322E0850882850923
:1040030083A3A3A3227401F0AA18AB192212353794
:10401300740422A3A3A3A3A3A3A3A312402222E075
:10402300FCA3E0FD22125250E022F58374011256E4
:104033002DA3E022C082C083121DE490032A74B42E
:10404300F0A3741DF0023D1BC082C0837C0879FF7E
:1040530090030C12406B1218E0023D1B8E828F837B
:10406300A3A3A3A3A3A3A3A312441E2274F712031F
:1040730079E9FE12543D124906601A88828983A3A6
:10408300E054037010EEFB123B4639F5831240C92E
:10409300E0F91211D880031208907F010205D7C0FE
:1040A30082C083EAF8EBF988828983A3A3A3A3A33D
:1040B300E0FB88828983A3A3A3A31240C9A3E0F9E9
:1040C3001211D8023D1BE0FA88828983A3A32274CC
:1040D300F01203798A088B098C0A8D0B890FEA1277
:1040E3004D79E02430FA7B001218688A0C8B0DAEF0
:1040F3000CAF0DEE4F700302420D8E828F8374015D
:1041030012518E12085E7C177D00EE2419FAE43FEB
:10411300FB12183E7403120890850A0C850B0D7868
:104123000C12085E7C09123FD612183E7403120863
:10413300907410120B171242301245037412120BB3
:1041430017124237E0C0E0124D99D0E0124DC1C0C2
:10415300E0124210D0E012424DC0E01249F8D0E024
:10416300F07414120B17E0C0E012421AD0E0F0EE24
:1041730024271236F97415120B17120AF412422867
:10418300120AE8124D7FE50F124252F8A3E0F9EE4E
:10419300240D1245037419120B17E0C0E0124DAB46
:1041A300D0E01257BEE0602FEE24271247182430C8
:1041B30012423F240E125795125F9B12085EE508C8
:1041C30012505B3509123D008A828B8312406B12B9
:1041D300183E7403120890EE241A125075540360AB
:1041E3001D90031A124908600CEEFAEFFB125F7779
:1041F3001204F18015EEFAEFFB12186E800CEEFA42
:10420300EFFB900301E0F912187402370CEE24114E
:10421300F582E43FF5832212421E22EE2412F58238
:10422300E43FF58322EE12506C3FF58322125231A4
:10423300EE240B221252318882898322F8E43FF95B
:104243008A828B83123537E508221254D3E0221277
:1042530042F3A3A3A3A3A3A3A3A3E02274F1120392
:10426300798A088B097A207B001218688A0A8B0BDB
:10427300AE0AAF0BEE4F60728E828F8374041243CB
:104283004F8E828F83A3A3A3A31242EF123FE012A8
:1042930042F7F50CA3E0F50D750E00780C12085EDD
:1042A3007C107D00124D7112183E74031208908524
:1042B3000882850983124016EE2416FAE43FFB12A6
:1042C3000BB4850882850983A3A3A3A3A3A3A3A3F4
:1042D300A3A3E0C0E01248D2D0E0124307C0E0122B
:1042E3004D54D0E0124320121874801E1242F32260
:1042F30012433322A3A3A3A3A312430022124333E3
:10430300A3A3E022F0124D8DE0227F070205D7120E
:10431300431622EE240CF582E43FF58322F0EEFAF5
:10432300EFFB900CC1E0F922E8F0A3E9124333223A
:10433300F0850882850983A3A32212434122123DFB
:104343000BF8A3E0F98E828F83A3A32212434112B9
:10435300432BE02274F6120379EAFEEBFF7A057B26
:1043630000121868EA4B60278A828B837408125202
:104373005D8A828B83A3A3E8F0A3E91240318A828A
:104383008B83A3A3A3A3F0900CC1E0F912187402CA
:10439300373BC082C083E9900D9AF09003167420D6
:1043A300F0A3741EF0900318740EF0A3741EF09023
:1043B300031A74AEF0A37414F0023D1B74F71203D6
:1043C30079EAFEEBFF8908EE4F70031212EC9003BB
:1043D3002E124908700890032E802212522D8882D3
:1043E3008983A3A3A3A3A3A3A3A3A3124412888291
:1043F3008983A3A3A3A3A3A3A3A3A370DEEEF0A324
:10440300EF12442FE4F0124424E508F002409D1219
:10441300441EEA4B22A3A3A3A3A3A3E0FAA3E0FBB6
:1044230022A312442922123F38A3A3221244332287
:1044330012492DA3A32274F712037990032E800D42
:104443008E828F83A3A3A3A3A3A3A3A3A3124A0D23
:10445300EE4F60348E828F83A3A3A3A3A3A3A3E011
:104463006970DD8E828F83A3A3A3A3E06A7003A385
:10447300E06B70CC8E828F83A3A3A3A3A3A3E06C72
:1044830070BEEEFAEFFB80047A007B0002409D745D
:10449300F712037990032E124A0D90032E122B82EA
:1044A300687002EB69701CE0C82409F582E43812D5
:1044B300522B90032E12450990032E124A0D80278A
:1044C300124A00EE4F60208E828F83A3A3A3A3A37F
:1044D300122B7E687002EB6970E68A828B83A3A33A
:1044E300A31244F4124509121922EEFAEFFB02401B
:1044F3009DA3A3A3A3A3A3124741A3A3A3A3A3225F
:10450300F582E43FF5831235372274F01203797490
:10451300FA1209248A088B098A828B83A3A3A3A393
:10452300A3A3A3A3E060336401602F8A828B831269
:10453300406B120E84E97022850882850983A3A348
:10454300A3A3A3A3A3A3E064037014740412090632
:10455300AA08AB09121E2CE97016790202470185DD
:10456300088285098312522D7404120B1712450910
:10457300E508241112578C2432123C9612191C8A16
:104583000A8B0BAE0AAF0BEE4F70030246FF7C3271
:104593007D00790012184A74021208FE850882858C
:1045A3000983A3A3A3A3A3A3A3A3A3E0F9121220A4
:1045B3007402120B17E0C0E01248DCD0E0F0EE24E6
:1045C3002CF50AE43FF50B7403120B17E0850A82FE
:1045D300850B83F07901EEFAEFFB121EC285080CFE
:1045E30085090D750E00780C12085E7C1C7D001287
:1045F300471012183E7403120890EE243012471825
:10460300243212423F2411F8E43509F9E8FCE9FDAC
:104613008C828D83124DB71248E6124247124B101B
:10462300125F9B12085E8C828D8312472912406BA6
:1046330012183E74031208907404120B1712473DAC
:10464300124509900302124722A3A3A3F090030289
:10465300E004F01219EE125750EE242A125084751A
:104663000D00850A82850B83E0780C1209B58A82D6
:104673008B83E50CF0124706E50C12474DE4F0E599
:1046830008241512578CA2E074015007120B1774FB
:10469300018004120B17E4F0EE2427123719AA182D
:1046A300AB19121208E924FE850882850983F0EE0E
:1046B300242EF8E43FF9E8FCE9FD124731120231F8
:1046C300E88E828F83A3A3A3A3A3A3A3A3F012477C
:1046D300311202318B09EA4509600F8E828F83A361
:1046E300A3A3A3A3A3A3A3E004F0EE242012507575
:1046F30044081250E01218AA790080027910740657
:10470300023709EE2429F582E43FF58322EE240BD8
:10471300FAE43FFB22F8E43FF9E8FAE9FBEE221260
:104723003FF6A3A3A3221240228A828B83228C8288
:104733008D8312377DE0FA7B002212474122125209
:10474300358E828F83A3A3A3A322F08518828519B4
:10475300832274F4120379EAFEEBFF1219EE125767
:1047630050900E12E0F8EE242B125075C3984003BC
:104773000248C01250907012EE242B12507504128E
:10478300491CC0E0124706D0E0F0EE242812507511
:10479300FC7900800109EE242C125075F8E9C398C6
:1047A3005026750801750900E978081209B51250F9
:1047B30090550860E0E92CFC750801750900E9785B
:1047C300081209B5E04508F0EE24271248F7EE1267
:1047D30048E6EC8A088AF0A4F8ABF0E42BF9E098F9
:1047E300F8A3E099F9C3E89508E99400EE4035246D
:1047F30027125075F812509060301248DC1248FCB2
:10480300A3E4F0EC7050EE24201250754420123BC8
:104813007AC0E0EE1248F3D0E0F0EE24301248F70D
:10482300A3E0805812470774FFF0900354E0FA9016
:104833000E15E0F508EA8508F0A4ABF075F064A462
:10484300FAADF075F064EBA42DFB8E828F83A3A3E6
:10485300EAF0A3EB80ACEE242012507554DF12492A
:104863000DECF08C08EE24271250758508F0A4FA9D
:10487300ABF0EE2430F582E43F12375AFB1248D2F4
:10488300EAF0A3EB124924C0E0EE2425F582E43FCD
:10489300F583D0E0F0EE241CF582E43FF583E812C3
:1048A3004B43900330124908600BECF9125F771207
:1048B30004F1E97017124710121E50800F7BE912A2
:1048C3004B291211D8EEFAEFFB121E3E022DF0EE29
:1048D300241EF582E43FF58322EE242DF582E43F86
:1048E300F583221248ED3FF58322242EF582E4223C
:1048F3001249132212507CFA22123FF6A3F022F53A
:1049030082E438F5831239BA4922F0EE12491322B0
:104913002426F582E43FF58322F0EE242A12507C0C
:1049230022124929E02212492D22123F3CA3A3A3BC
:104933002274F412037990032E124A0D1219EE8A8F
:104943000A8B0B78FF79FF8020E0C39AFCA3E09BDE
:10495300FDC3EC98ED99500E8E828F83A3A3E0C321
:104963009AF8A3E09BF9124A00EE4F605C8E828FA7
:104973008312406BE50AC39AFAE50B9BFB8E828F89
:104983008312401CC3EA9CEB9D8E828F83A3A340BA
:10499300B8A3A3A3A3E06402701AEE240B125093EE
:1049A30060091249F812406B12186EEEFAEFFB120F
:1049B3001E3E8007EEFAEFFB121E1A7A017B00906F
:1049C3000D9AE0F91218AA802974FF68700374FF26
:1049D30069601F88088909E4F50AF50B780812084D
:1049E3005A7A017B00900D9AE0F91219D0740412DF
:1049F3000890022DF0EE12546A3FF583228E828FC7
:104A030083A3A3A3A3A3A3A3A3A3E0FEA3E0FF22E3
:104A130074F01203798A088B09ECFAEDFB890A7C9E
:104A230001E508241112578CF9121E5C8A0C8B0DB8
:104A3300AE0CAF0DEE4F7003024B0DE50A6003029F
:104A43004B0DE508124B10124B20686003024B0D0F
:104A5300EE242C1248F7E82AF8E43400F98E828F0A
:104A630083A3A3A3A3A3A3A3A3E0FAE89AE99400CF
:104A7300C365D0334017125788F470117B00124B73
:104A8300291211D8EEFAEFFB121E3E807D125788D1
:104A9300F47040EE2429124718242CF8E43FF9E877
:104AA300FCE9FD7508FF7509008C828D83E07808A9
:104AB3001209B58A828B83E508F0124B16E508F0DC
:104AC3008C828D83124B2028F0EE123FD03FF5836A
:104AD300E4801BE5082414F8E43509F9E0C0E0128A
:104AE3004B16D0E0124B38C0E0124706D0E0F0126C
:104AF30019EE1257501248DC123756A3124B437A61
:104B030001FB900D9AE0F91218AA02370C24131234
:104B13004D9122EE242AF582E43FF58322E0F8EE5C
:104B2300242812507C22EE242212507CFAEE241404
:104B330012507CF922124B3C22F088828983E022B6
:104B4300F0A3E4F022240FF582E42274EC1203793B
:104B530074FE1209248A0A8B0B8C0E8D0F89108A1E
:104B6300828B83A3A3E0F91211FC8A088B09AE0898
:104B7300AF09EE4F70077A007B00024D3E7A127B3D
:104B83000012191C8A088B09EA45097003024D3A81
:104B93007C127D00790012184AAA18AB19850A8283
:104BA300850B83A3A3E0F9121220E508240FF50C6B
:104BB300E43509F50D7401120B17E0850C82850DA0
:104BC30083F07902AA08AB09121EC2850E82850FF3
:104BD30083124DBCA3A3A3E8F0A3E9124DDD85081E
:104BE30082850983A3A3A3A3A3A3A3F07512FF75CF
:104BF3001300850C82850D83E078121209B51257D4
:104C030091E512125F52125F76E0C0E0124D89D037
:104C1300E0124DEBF50CE508240D125795E50CF069
:104C2300E50A12505F850CF0A4A9F02427FAE439B1
:104C3300FB1218688A0C8B0DAE0CAF0DE508124DF4
:104C430079124D4EEE4F7003024D2D8E828F837479
:104C53001A124B438E828F83A3A3F0A3124DFB1230
:104C6300473D124509AC0EAD0F124D7112121A8554
:104C73000A82850B83A3A3A3E0C0E0124D99D0E081
:104C8300F0900371124DB72410124DC6124D4835E2
:104C93000B124DB51239933FF583E8F0A3E9124D9A
:104CA300F5A3A3124DB72412124503850A82850B7F
:104CB30083A3A3E0C0E0124D67D0E0F0E50A240C23
:104CC300124D5EC0E0EE124D483FF583D0E0F07424
:104CD30016120B17124237E0C0E012577ED0E012D3
:104CE300424DC0E0124D7FD0E0124DC1C0E0124DE5
:104CF300ABD0E0124DD2E510F07418120B17120A64
:104D0300F4EE241AF582E43FF583120AE8EE242731
:104D1300F8E43FF9EE2422124DC6124DA5124D615F
:104D2300C0E0124D54D0E0F0800DAA08AB09121E6A
:104D33003E750800750900AA08AB097402120890B1
:104D43007F0C0205D72415F582E422EEF0A3EFF0E1
:104D530022EE241FF582E43FF58322F582E4350B2E
:104D6300F583E022EE2414F582E43FF58322EE245A
:104D730006FAE43FFB222410124D9122EE2417F58C
:104D830082E43FF58322124D8D22E508240BF58240
:104D9300E43509F58322124D9D22EE124B483FF56F
:104DA30083222412F582E422EE2418F582E43FF5EF
:104DB3008322F583125231EE2212377DA322122F62
:104DC300AAE022F582E43FF583123537E50A22F0A3
:104DD300EE2419F582E43FF58322F0E50A2411F568
:104DE30082E4350BF583E022F0125468350BF5832A
:104DF300E022124DFBA3A322F0850A82850B83A335
:104E0300A3A3A3A3A32274ED1203798A0A8B0B8CA9
:104E1300108D118912750900EA12505FF50890038D
:104E230030124908600EA908125F771204F1E96095
:104E3300030250557C0285108285118312406BE575
:104E43000A2411124D5EF9121E5C8A0C8B0DAE0CF6
:104E5300AF0DEE4F7054850A82850B83A3E0A2E069
:104E630040030250557415120B171206A074171243
:104E73000B171206A4A912AC10AD11AA0AAB0B12A0
:104E83001E0874061208908A0C8B0DAE0CAF0DEE43
:104E93004F70030250558E828F83A3A3A3A3A3A3B2
:104EA300A3A3E5081250E01218AA85080C8E828F7E
:104EB30083A3A3A3A3A3A3A3A3E024FFF8E434FF42
:104EC300F9E8650C497003750901EE240B12509340
:104ED3007003025006850A82850B83A3E0A2E0508B
:104EE300037508001250BEE50C98E499C365D033EE
:104EF300401CE0F8EE240E1250752AF0750CFF7575
:104F03000D00E8780C1209B5124312E50CF0E50A1E
:104F130012374C350B12296312085E123CFB8508CD
:104F23000CEE240D125075850CF0A4FAABF0124967
:104F3300F81250D412375CFB12183E740312089017
:104F4300750C01125098780C1209B5125072450C69
:104F5300F0E509A2E0505BEE240C12508412509845
:104F630004780C1209B58A828B83E0450C1250EB4E
:104F730085080C850CF0A4F8A9F0E50A12505B1221
:104F83004D61FCE82CFCE439FD1249F81250A612DD
:104F9300523AF4701DEE240BF50CE43FF50D12505C
:104FA3005A3F1250B0121874850C82850D8374FF1A
:104FB30080501219EE125750900354E0FA900E15D8
:104FC300E0F50CEA850CF0A4FAABF0F8EBF9900EDF
:104FD30012E0F50CE8850CF0A4F8ACF0850CF0E9D0
:104FE300A42CF9EA28F8EB39F9E875F064A4F8AAD7
:104FF300F075F064E9A42AF98E828F83A3A3E8F005
:10500300A3E9F01250BE125775E8650C7001E96010
:105013000EEE240C1250936006E509A2E05033EE25
:10502300240E125075C0E0E50A125064D0E0F0126D
:105033005072C0E0E50A2414F582E4350BF583D001
:10504300E0F0AC0AAD0B85108285118312406B1220
:105053000B427F0B0205D7EE12546A22125064E012
:105063002212506C350BF583222413F582E422EED1
:10507300240C12507C22EE240FF582E43FF583E0EA
:1050830022F8E43FF9E8FAE9FB750CFF22EE242944
:1050930012507CF422750D00125079F5F0E5088466
:1050A300E5F0221255F82420F582E43822F5831224
:1050B300441E850C82850D83E0F92285080CEE24BD
:1050C3000E12507CF8125079FAE82AF8E43400F909
:1050D300221255F82422F582E438F58322F07A016E
:1050E3007B00900D9AE0F922F0EE240D12507C2201
:1050F300C082C083900D9AE0F9121874023D1B74AC
:10510300F41203798A088B09EB5480703BEAA2E01E
:105113005053121E14E5086401FAAB09804B8E82CA
:105123008F83E06401701A1242281206A012516F95
:10513300120862EE241212517B121E027406120828
:1051430090EEFAEFFB12186E900D9AE0F9121880A8
:105153008A0A8B0BAE0AAF0BEE4F70C2AA08E509A1
:105163006480FB80047A007B00022DF0EE240FF5AF
:105173000AE43FF50B780A2212507CF9EE2402FC74
:10518300E43FFDEE2419FAE43FFB22F085080C8589
:10519300090D750E00780C22C082C0839003328003
:1051A300048C828D831251DC60288C828D83A3A3AF
:1051B300E069600574FF6970E88C828D83A3A3A303
:1051C300E06A7003A3E06B70D8EC2403FAE43DFBC0
:1051D30080047A007B00023D1B124022EC4D2274B6
:1051E300F7120379E9FC74FE6C70047D0180027D83
:1051F3000090033280096C70027D018882898312DA
:105203004908601F88828983A3A3A3E06A7003A36C
:10521300E06B70E7EDA2E088828983A3A3E050D618
:10522300F9800279FE02409DF58312523122125217
:105233003522123B75F922F583ECF0A3EDF08A8257
:105243008B83E022E02401F0A3E0340022125257C2
:10525300A3A3A322F08E828F8322122BB6F8A3E09E
:10526300F92274F61203798C828D83A3A312549EC0
:10527300F0EA2417F582E43BF583E0C0E0125460C2
:10528300D0E0F0EA241DF582E43B12522B12544382
:1052930012549EA3F0A3F0EA241FF582E43BF583A6
:1052A300124A0DEC124D483DF583124D4E12543DFA
:1052B300F58312547FA3A3A3A3A3A3EEF0A3EF123A
:1052C3004B38FE8C828D831254CB74035EFEC394E1
:1052D300034003025430EE600574026E70778C82D3
:1052E3008D83E0540CFE740C6E7003025397E0A29E
:1052F300E4400D88828983E08C828D83A31254DE7F
:1053030074086E60030253971254527401F08A8238
:105313008B83A3A3A3A3A312547970128C828D83CE
:10532300E0440C1254ACA3A312547F124D4E8C8252
:105333008D83E0A2E4401E12548D1254BD50010926
:1053430012548DA3A31254BD50010988828983127C
:1053530054701254CB88828983E0C0E0EC2411F5A9
:1053630082E43DF583D0E01254CB8C828D83E0A29E
:10537300E7507888828983E0FE8C828D831254DE25
:1053830074FC5E700C8C828D83A3E0540364037001
:105393001B025430125452E4F0740C6E6003025337
:1053A3001112548D1254BF50850980828C828D83D3
:1053B300A3E05403603888828983E0C0E0EC125094
:1053C3006C3DF583D0E01254DF8C828D83E054036F
:1053D3006402701A88828983E0C0E0EC2414F582A9
:1053E300E43DF583D0E01254DF8003A3E4F0EC1234
:1053F300374C3D124507EC2410FEE43DFFEA241D23
:10540300F582E43BF583E0F5088E828F83E0C39851
:105413002508F508F0EA2417123CB2C39508C0E04A
:10542300125443D0E0124B38C39508500A12544328
:10543300E4F0125460E4F002373BEA12544C3B228E
:10544300EC12544C3DF58322EE240DF582E422EC5C
:1054530012545A3DF58322240CF582E422EC1254B3
:105463006A3DF58322E50A2410F582E422E08C826A
:105473008D83A3A3A322E05403640122E0FEA3E0EF
:10548300FF8C828D83A3A3A3A32288828983E0F563
:1054930008A3E0FFE5088C828D8322E41254A32243
:1054A300F08C828D83A3A3A3221254B4A3A3A3A33A
:1054B30022F08A828B83A3A3A322A3A3A3A3A3A3E0
:1054C300124D4FE82402F8221254D3A882A9832252
:1054D3001254D722F088828983A322A31254D308BB
:1054E300A9832274F512037974F31209248A088BB1
:1054F30009ECFEEDFF8E828F83E0540CF50AE0A2E7
:10550300E75006E50AD2E7F50AE50AD2E1F50A1201
:1055130054797006E50AD2E4F50AE0A2E55006E5FF
:105523000AD2E5F50A7C087D007900AA18AB1912A6
:10553300184A7402120B17E50A125629E0C0E074E8
:1055430003120B17D0E012474D122BC47405120B34
:1055530017124008121DA8740C120B17E0707C740C
:1055630008120B171255F4124DA53812402DC0E046
:105573007408120B171250D4D0E0124028C0E07404
:1055830008120B17123516D0E0F07408120B17121D
:1055930055E9125614123B7A1255FD125754EE2454
:1055A30011125075C0E01255E1D0E0F0EE24141250
:1055B3005075C0E07408120B171255F42431F582AC
:1055C300E438F583D0E0125632C0E07408120B17AA
:1055D300125608D0E012400A121DA2025872E812B5
:1055E30048ED39F583221252318E828F8322A3A391
:1055F300A31255F822123B75C822FAA3E0FB12341A
:10560300EF39F583221255F82430F582E438F58317
:105613002212441812561FEAF0A3EB22E82426F5BF
:1056230082E439F5832212562D22125257A322F017
:10563300EE241312507C2274F71203797E008A82BF
:105643008B83A3A3A3A3A3A3A3A3A3E06402606B7D
:105653001237ACE0706512543D124906605D8882D2
:105663008983E054037054A3A3A3A3A31256C1E0F8
:105673006A7003A3E06B7043888289831256C1A3C7
:10568300A31239B024061250756A7003A3E06B703D
:105693002A88828983A3A3E0F88C828D83A3A3E065
:1056A300F9A3E0F5838982A3A3E068600D8C828D62
:1056B30083123D14540C640470010E023569A3A3D4
:1056C300A3A312441E8C828D832274F61203797471
:1056D300FC120924EAFEEBFFECFAEDFB8A828B83D2
:1056E300A3E054036016900318124908605A790026
:1056F300EEFCEFFD125F771204F1804C8518828572
:105703001983124D4E7402120B17125754AC18AD75
:10571300197A487B0B120DD68A088B09A808A909A8
:10572300E849602488828983A3A3A3A3A3A3A3A393
:10573300A37406F07A00888289831255F412545AAE
:1057430038F583E0F9120D4074040237388E828FE6
:1057530083EAF0A3EBF022C082C08390033A747E05
:10576300F0A3740BF090033C7472F0A3740BF0027B
:105773003D1BE824FF18E934FFF922EE2416F582D5
:10578300E43FF58322E5082414124D91E022E50855
:10579300240C124D91228E828F83F0A3AE82AF83AD
:1057A30022E0F88E828F83A3A3A3A3E028221235DD
:1057B3003785188285198374FFF022F0E5082410D9
:1057C300124D912274F41203798A088B0978081216
:1057D3000862750A11750B00780A1208627C007D55
:1057E300007A3A7B001219A67404120890E970102B
:1057F300900334120AF4E5082411125795120AE8AB
:10580300022DF074F512037974EF120924E9851857
:1058130082851983F08A088B09750A0078081208B3
:105823005E7C107D007404120B17AA82AB831218DE
:105833003E7403120890A818A919880889097808E2
:1058430012086275081175090078081208627C0055
:105853007D007A3B7B001219A074041208907C111E
:105863007D007900AA18AB1912184A7411800274CA
:105873000D1208907F030205D774ED12037974EBC0
:10588300120924890C7A117B0012191C8A088B09CE
:10589300EA450970030259C97808120862750A11AA
:1058A300750B00780A1208627C007D007A3B7B004E
:1058B3001219A67404120890E960030259B5850809
:1058C30082850983E0650C60030259B57A117B0078
:1058D30012191C8A0A8B0BEA450B70030259B5781F
:1058E3000A120862750E11750F00780E1208627C99
:1058F300007D007A3A7B001219A67404120890E91D
:1059030060030259A17808120862780E1208627CBB
:10591300007D007A3A7B001219A074041208907873
:105923000A120862780E1208627C007D007A3B7BC3
:10593300001219A0740412089090038D7401F09062
:105943000334E4F0A3F0A3F0A3F085081085091154
:10595300F512781012085E7C117D0074031208FEA4
:1059630012183E7403120890900334120AF474114F
:10597300120B17120AE8A818A919880E890F780EB6
:10598300120862750E15750F00780E1208627C00FE
:105993007D007A827B001219A074041208907C1196
:1059A3007D007900AA0AAB0B12184AAA0AAB0B12A4
:1059B30019227C117D007900AA08AB0912184AAAA2
:1059C30008AB09121922741512089002505574F28B
:1059D30012037974FF12092489088A098B0AECFEE1
:1059E300EDFFEBC43354E0F8EA33333354F845089E
:1059F30048125799740F120B171206A0EEFAEFFB19
:105A03001218D474041208908A0C8B0DAE0CAF0DCF
:105A1300E50A6015120E24EAFCEBFDEEFAEFFB1229
:105A23001A06EE2408FE50010F74016509703D75D6
:105A33000C3A750D00780C12086274021208F6888D
:105A43000C890D780C1208627C017D007A007B00C2
:105A5300120F207404120890E9700B8518828519BF
:105A630083123FE180058E828F83E4F07401022567
:105A73008EE9F874020458F97402B900028004C371
:105A830033D9FC541CF902084274F412037974FEEE
:105A93001209248908750A3A750B00780A120862FC
:105AA30074031208F6880A890B780A1208627C01CB
:105AB3007D007A007B00120F207404120890E970B5
:105AC300607401120B17E06508604E750A3B750B95
:105AD30000780A12086274021208F6880A890B78A1
:105AE3000A1208627C017D007A007B00120F207489
:105AF30004120890E9702E851882851983E06508E1
:105B0300701FE0F87401120B17E0C398500F85184B
:105B130082851983E0F9120B667E3A80067E3B800C
:105B2300027E007F00EEFAEFFB022DEB74EB120313
