:020000040000FA
:06000000020AEA0201CE33
:03002B0002075F6A
:0300330002057152
:030043000207AB06
:0300530002010E99
:03006B0002054546
:1000830002016201FF0503010B2200000000DF20D3
:1000930000000000FF000000FF00010188130000C2
:1000A3000020FD00020000581700000000000012AD
:1000B3001800000000000000000000000000000025
:1000C300000000000000000000000000000000002D
:1000D300000612FFFF01010100C50C000000E80348
:1000E300FFFF180DE80364006400B8010202000872
:1000F300000005020701051E02051E0A03B80B02D4
:100103000102E8030A050001220402C0E074F212AE
:1001130003E5A2AFE433F508D2AFAFA7AEA1EE5F1C
:10012300541060061214E275A1EFEE5F54086008E4
:100133001214E875A1F78023EEA2E092F0EFA2E09B
:1001430082F05017906198E0F890075FE0C398A29F
:10015300D265D0335002E8F075A1FEE5088063C094
:10016300E074F21203E5A2AFE433FED2AF9061A4D0
:10017300E0F8759B00E59158540860087591F712F3
:1001830015308023E59158541060087591EF121FC4
:10019300328014E591A2E092F0E8A2E082F05007E9
:1001A300E0C2E0F01216809061A3E0F8E5E958544C
:1001B30004600E12165675E9FB906193E0A2E640C7
:1001C300F2EEA2E092AF7F01020444C0E074F212A7
:1001D30003E5A2AFE433FED2AF9061A5E0F8E5BF3B
:1001E300585404600675BFFB12169880D4C3E49874
:1001F300F8E499F91202318026C3E49AFAE49BFBEE
:10020300E920E7E9120231E498F8E499F922C3E41A
:1002130098F8E499F9120231E498F8E499F9C3E4FF
:100223009AFAE49BFB22EB20E7CFE920E7E0B90051
:1002330010BB0008E88AF084F8AAF022E4FBC8FAAD
:1002430022EB70227B10C833C8C933C9335007C3AC
:100253009AC3DBF280069A50012ADBEAC833F4C85A
:10026300C933F4C9FA2275F008E4C833C8C933C9DD
:1002730033C99AC99B5004C92AC93BD5F0ECFBC8C2
:1002830033F4C8E4C9FA22080808EAC0E0EBC0E086
:1002930086F0E7A4FA180986F0E7A42AFA18098673
:1002A300F0E7A42AFA180986F0E7A42AFA1986F0D7
:1002B300E7A4FBE5F02AFA190886F0E7A42BFBE58F
:1002C300F03AFA190886F0E7A42BFBE5F03AFA189E
:1002D300180986F0E7A4C5F02BFBE43AFA1908E7FE
:1002E300C5F0C6A426F6E5F03BFBE43AFA1886F01F
:1002F300E7A4F6E5F00826F6E43B08F6E43A08F648
:10030300D0E0FBD0E0FA22E4CFC0E0E4CEC0E0E4EA
:10031300CDC0E0E4CCC0E075F020E626F608E63375
:10032300F608E633F608E633F6181818EC33FCED56
:1003330033FDEE33FEEF33FFC3EC9709ED9709EE80
:100343009709EF97191919400FFFEC97FC09ED97DF
:10035300FD09EE97FE191906D5F0BFECF709EDF785
:1003630009EEF709EFF7191919D0E0FCD0E0FDD039
:10037300E0FED0E0FF222518C582C0E0E51934FF76
:10038300C583C0E0E518C3958224F810AF088583C0
:10039300198582188008858319858218D2AFCEF01B
:1003A300A3E520F0A37808E608F0A3DEFAEFF0A3B4
:1003B300E58124FAF8E608F0A3E608F0A3E608F0DE
:1003C300A30808E608F0A3E608F0A315811581D079
:1003D300E0FED0E0F8158115811581E8C0E0EEC09C
:1003E300E022C0D02518C582C0E0E51934FFC583DB
:1003F300C0E0E518C3958224F310AF0885831985FF
:1004030082188008858319858218D2AFC8F0A3E9C2
:10041300F0A3EAF0A3EBF0A37908E709F0A3D8FA75
:10042300ECF0A3EDF0A3EEF0A3EFF0A3D0E0F0A384
:10043300D0E0F0A3D0E0F0A3E520F0A3E5F0F0A333
:1004430022851983851882E0C0E0A3E0F9A3E0FACE
:10045300A3E0FBA37808E0F608A3DFFAE0FCA3E03F
:10046300FDA3E0FEA3E0FFA3E0C0E0A3E0C0E0A3A0
:10047300E0F5D0A3E0F520A3E0A3F5F010AF0885E5
:1004830083198582188008858319858218D2AFD095
:1004930082D083D0E0F8D0E032120B58B9000302C7
:1004A30004DBE490030178DD790B8002F0A3D8FC30
:1004B300D9FA7ADD7B0D900086788979018015E47D
:1004C30093A3AD82AE838A828B83F0A3AA82AB838C
:1004D3008D828E83D8E9D9E775827F7583DA7403B9
:1004E30012086E7582A475831F740012086EE4737C
:1004F3000575F0108E1A8F1B85821F85831E851844
:1005030082851983E0CEA3E0CF851F82851E83EB0E
:10051300C9EAC8EDCBECCAC3E833C8E933C9EA3347
:10052300CAEB33CBC3EA9EF51DEB9FF51CB3500416
:10053300AB1CAA1DEC33CCED33CDD5F0DAAE1AAF3C
:100543001B22C0E074F21203E5A2AFE433FED2AF84
:100553009005197401F0E589A2E150031213FE75A9
:100563008900C2C5EEA2E092AF7F01020444C0E05D
:1005730074F21203E5A2AFE433FED2AF9005187410
:1005830001F0E58BA2E050031213FE758B00C2E865
:1005930080D2D083D082ECC0E0EDC0E0E493A3FC32
:1005A300E493A3FDED4C600D12066DEC24FFFCED0E
:1005B30034FFFD80EFE493A3FCE493A3FDED4C60D3
:1005C3000D12070AEC24FFFCED34FFFD80EFD0E0B1
:1005D300FDD0E0FCE493A3C0E0E493C0E0228519DE
:1005E30083851882E0A3FEE0A3F5207808E0A3F654
:1005F30008DFFAE0A3FFE0A3C0E0E0A3C0E0E0A3CC
:10060300C0E0E0A3C0E0E0A3C0E010AF088582181B
:100613008583198008858218858319D2AFD083D04A
:1006230082020874D083D082E9C0E0E493A3C38636
:10063300F0C5F095F0F908E493A386F0C5F095F0C2
:10064300700BE493A3C3994005E9048002A3E47506
:10065300F002A42582F582E5F03583F583D0E0F935
:10066300E493A3C0E0E493C0E022C0E0C3E4939624
:10067300087401939618400FE49366700808740198
:1006830093661870007019A3A3C3E49396087401CA
:10069300939618A3A3400DD0E0D0E0D0E00205D19B
:1006A300A3A3A3A3A3A3D0E02274048004740280B1
:1006B30000CCC0E0EDC0E0E518C39CCCAD195001FF
:1006C3001D10AF068C188D1980068C188D19D2AFAA
:1006D3001207F0D0E0FDD0E0FC2274028000CCC011
:1006E300E0EDC0E0E518C39CCCAD1950011D10AF7F
:1006F300068C188D1980068C188D19D2AF1207CE6F
:10070300D0E0FDD0E0FC22C0E0C0F088F0E49366C6
:1007130070080874019366187000A8F0A3A3700B07
:10072300D0F0D0E0D0E0D0E00205D1A3A3D0F0D048
:10073300E022D083D082CCC0E0E493A36006120809
:10074300301470FAE493A3600612095A1470FAD0B5
:10075300E0FCE493A3C0E0E493C0E022C0E0C0D097
:10076300E8C0E0E9C0E0A9A8D2AFC2C7E9A2E7E4C4
:1007730033F8E9A2E792AFD0E0F9D0E0F8D0D0D0D7
:10078300E032C008C3E096F50808A3E096420808E3
:10079300A3E096420808A3E0964208A2D265D033AC
:1007A300E5087001D3D00822C0E074F21203E5A279
:1007B300AFE433FED2AFC2C0E5D1A2E450031214BA
:1007C30046EEA2E092AF7F01020444CAC0E0E49384
:1007D300A3C582CCC582C583CDC583F0A3C582CC16
:1007E300C582C583CDC583DAE5D0E0CA22CAC0E09D
:1007F300E0A3C582CCC582C583CDC583F0A3C582E2
:10080300CCC582C583CDC583DAE6D0E0CA22C00851
:10081300C3E096F50808A3E096420808A3E09642D1
:100823000808A3E09645087001D3D00822C0E0E48D
:1008330093A3D39C5010E493A3C39C400AD0E0D06D
:10084300E0D0E0020752A3A3A3D0E0227009080876
:1008530008226016181818C6C333C608C633C6085C
:10086300C633C608C633C6D5E0EA22C09FF59FE467
:1008730073D09F22D083D082C09FE493C0E07401E1
:1008830093C0E0740293F59F227404800A7403807A
:1008930006740280027401C0E0F4041208C2D0E0BE
:1008A300120B272200C0D0251810AF08F518500CE2
:1008B30005198008F51850020519D2AFD0D02225AA
:1008C30018F58210AF08F518400C15198008F518B3
:1008D30040021519D2AF851983226017080808C68C
:1008E300A2E713C618C613C618C613C618C613C67E
:1008F300D5E0E922BB0102E722C082C08389828A54
:1009030083BB0003E08002E493D083D0822260168D
:10091300080808C6C313C618C613C618C613C618D4
:10092300C613C6D5E0EA222518F8E43519F92225BD
:1009330018FAE43519FB222518FCE43519FD22C306
:10094300E0C696F608A3E0C696F608A3E0C696F6B8
:1009530008A3E0C696F622C0E0E493A36C7009D026
:10096300E0D0E0D0E0020752A3A3D0E02225181084
:10097300AF08F518400C15198008F5184002151931
:10098300D2AF22C3E09608A3E09608A3E09608A39B
:10099300E096A2D265D03322E066701008A3E06629
:1009A300700A08A3E066700408A3E06622E7667095
:1009B300100809E766700A0809E76670040809E782
:1009C3006622C3E096F008A3E096F008A3E096F051
:1009D30008A3E096F022C3E697F60809E697F6081F
:1009E30009E697F60809E697F622C3E49396087496
:1009F3000193960874029396087403939622E6472C
:100A0300F60809E647F60809E647F60809E647F651
:100A130022700422600D18C6C333C608C633C6D578
:100A2300E0F41822E026F008A3E036F008A3E0364D
:100A3300F008A3E036F022E657F60809E657F60871
:100A430009E657F60809E657F622E056F608A3E04A
:100A530056F608A3E056F608A3E056F622E026F67B
:100A630008A3E036F608A3E036F608A3E036F6223C
:100A7300E056F008A3E056F008A3E056F008A3E020
:100A830056F022E627F60809E637F60809E637F6B0
:100A93000809E637F622E4C396F608E496F608E476
:100AA30096F608E496F622600D08C6A2E713C61868
:100AB300C613C6D5E0F322C6F4C608C6F4C608C6F4
:100AC300F4C608C6F4C622C3E7960809E7960809E0
:100AD300E7960809E79622C3E09608A3E09608A3E1
:100AE300E09608A3E0962275D00075813F75180142
:100AF3007519030002049CE6F008A3E6F008A3E6D8
:100B0300F008A3E6F022600C08C6C313C618C61388
:100B1300C6D5E0F422E0F608A3E0F608A3E0F60861
:100B2300A3E0F622CAC0E0E6F0A308DAFAD0E0FABE
:100B330022E8F0A3E9F0A3EAF0A3EBF022E0F8A3A4
:100B4300E0F9A3E0FAA3E0FB22E0FAA3E0FBA3E0D1
:100B5300FCA3E0FD22E5C754F84401F5C77901225F
:100B63002518F582E43519F58322C2AF75D69F02A5
:100B7300000022120877AC52001208772F5300129C
:100B83000877B05500120877045700120877975773
:100B9300001208772458001208779158001208773A
:100BA300D058001208774659001208779B5A001252
:100BB30008773E5B00120877565B00120877F95BF3
:100BC30000120877815E001208772260001208770E
:100BD3004760001208770080021208775A800212D9
:100BE3000877C480021208774D81021208770982C0
:100BF30002120877988202120877B18202120877EC
:100C0300D6820212087714830212087763830212D2
:100C130008778C8302120877DB83021208778784B4
:100C2300021208774F8502120877B48502120877FB
:100C33008D86021208776C87021208777B8702126F
:100C430008778687021208777888021208778988DE
:100C5300021208770189021208778989021208773C
:100C6300ED8902120877D28A02120877038B0212E7
:100C730008774B8B02120877588B02120877618B27
:100C830002120877618D02120877AE8E021208777E
:100C93002D8F021208770191021208775E930212D8
:100CA30008777293021208777C930212087786936F
:100CB300021208779093021208779A930212087728
:100CC300A49302120877D3930212087709940212AD
:100CD30008771494021208773894021208775C9408
:100CE30002120877BD94021208770895021208775A
:100CF3002495021208778E9502120877DA9502126C
:100D03000877229602120877A2960212087766984D
:100D130002120877229902120877EB9902120877D8
:100D2300779C02120877CC9C02120877F49C02127B
:100D330008771B9E021208775F9E02120877AF9E08
:100D430002120877649F021208770EA00212087736
:100D530082A00212087722A102120877B4A102121C
:100D630008775983011208778B83011208779885D6
:100D730001120877EB850112087731860112087793
:100D8300C48601120877298701120877698701123F
:100D93000877CE8801120877CA8901120877948DE3
:100DA300011208772F8E011208772F8F011208770F
:100DB300928F01120877BE900112087750930112A7
:100DC3000877DC9301120877E693011208771394EE
:100DD30001120877E69401120877A49501120877A7
:100DE300CD9501120877FA95011208773798011209
:100DF30008770B99011208774A9901120877CB9962
:100E0300011208778D9A01120877BF9A01120877A9
:100E1300069B01120877429B01120877919B0112EE
:100E23000877E59B011208775F9C01120877C49C41
:100E3300011208772B9D01120877B59E01120877DE
:100E4300829F0112087794A0011208778AA30112E6
:100E53000877D1A50112087774A601120877B2A604
:100E6300011208778BA8011208779EA80112087750
:100E7300A7A801120877B0A801120877C5A8011224
:100E83000877E4A80112087795A901120877E8A961
:100E930001120877F2A90112087774AA01120877E0
:100EA30021AB0112087730AC0112087748AD01126B
:100EB300087740AE0112087757AE0112087794AE57
:100EC30001120877B2AE0112087705AF0112087755
:100ED30037AF01120877D7AF01120877E2B00112DA
:100EE30008776BB101120877E5B10112087781B277
:100EF30001120877BEB30112087798B4011208777C
:100F030003B501120877CCB501120877EFB50112CA
:100F13000877D4B60112087718B70112087770B7AB
:100F230001120877CEB701120877F2B701120877DA
:100F33001DB80112087764B80112087788B8011246
:100F4300087701B9011208776BBA01120877A9BAB9
:100F530001120877D2BA01120877A5BB01120877EC
:100F6300CFBB01120877DABC01120877608B03123A
:100F73000877988B03120877B98B03120877FB8BDA
:100F8300031208775F8C03120877698C03120877C2
:100F9300798C03120877B08C0312087759900312E7
:100FA3000877219203120877159403120877B394F4
:100FB300031208773A9503120877ADBE011208773A
:100FC30011BF011208776FBF01120877BABF011270
:100FD3000877D5BF01120877FCBF0112087719C043
:100FE3000112087725C001120877C9C101120877D9
:100FF300E2C1011208775EC20112087771C20112C1
:10100300087781C20112087727C30112087797C4B2
:1010130001120877AAC5011208774AC60112087798
:1010230054C601120877C2C601120877D3C601124B
:10103300087712C70112087740C7011208770DC855
:101043000112087764C801120877A9C8011208774A
:10105300FFC8011208771DC9011208776BC9011275
:10106300087739CA0112087787CA01120877C9CAF3
:10107300011208774CCB0112087776CB011208775F
:10108300ACCB01120877BBCB0112087719CC011244
:10109300087791CC01120877D2CC0112087721CDC1
:1010A300011208774CCD0112087766CD011208773B
:1010B30080CD0112087755CE011208775FCE011259
:1010C30008779ACE01120877AACE01120877B3CE19
:1010D3000112087704CF0112087718CF011208779D
:1010E30036D0011208774BD001120877E5D00112F0
:1010F300087764D10112087707D20112087712D258
:10110300011208775CD30112087778D301120877AC
:10111300CCD3011208773AD40112087786D401128E
:101123000877A0D401120877E2D40112087745D7D3
:1011330001120877DDD70112087754D80112087716
:101143009ADA01120877B2DA01120877B5DA0112D6
:101153000877C1DA01120877D5DA01120877DDDAE8
:101163000112087714DB0112087708DC01120877F3
:1011730092DC0112087714DD0112087789DD011270
:10118300087761DE0112087783DE011208771ADF20
:101193000112087726DF0112087783DF011208772F
:1011A30086DF01120877F5DF0112087741E10112AA
:1011B300087754E201120877DFE201120877F2E3BD
:1011C30001120877BCE401120877EDE401120877F5
:1011D30013E5011208771CE5011208774BE50112AC
:1011E3000877FBE501120877ABE6011208771EE7E3
:1011F30001120877CEE70112087741E80112087758
:1012030080E801120877C9E8011208770080031209
:1012130008776B8003120877B7800312087707817A
:10122300031208778B8103120877CF8303120877A1
:10123300ED85031208776D8903120877A8890312D5
:101243000877C68903120877268A031208774E8A1D
:10125300031208777F8A03120877AC8A0312087790
:10126300158B03120877E0E7021208775CE8021295
:10127300087788E802120877BAE8021208771CEAAE
:101283000212087738EA0212087776EA0212087720
:1012930003EB021208775FEB0212087725EC0212C8
:1012A3000877E4EC0212087729ED021208778AED39
:1012B30002120877FFED0212087728EE0212087770
:1012C30069EE0212087710F002120877F4F00212A6
:1012D3000877ABF10212087798F202120877D2F27C
:1012E300021208772AF3021208774CF302120877E6
:1012F300E4F3021208778BF40212087727A2021292
:10130300087798A202120877F9A202120877B8A305
:101313000212087741A40212087751A60212087735
:10132300D3A60212087767A80212087789AA0212C5
:10133300087796AB021208779AAC02120877E0ADF1
:10134300021208770CAE021208776EAF021208770A
:1013530041B00212087775B102120877A3B10212E5
:101363000877FDB2021208773AB302120877B4B3D2
:10137300021208773CB4021208777BB40212087792
:1013830074B5021208772AA9031208779EA90312DB
:10139300087704AC0312087779AC031208773DADE4
:1013A30003120877EBAE03120877CDF30312087725
:1013B300DEF3031208777CF40312087776E803124E
:1013C300087784E80312087720FA031208770FF6E8
:1013D300031208771FF60312087734F6031208770F
:1013E300B9F603120877D8F0031208775CF10312F9
:1013F3000877C2F103120877B7FF02120877D9FF03
:1014030002120877DBF10312087706F2031208775A
:101413003EF20312087741F203120877CEF2031269
:10142300087782CE0312087790CE0312087709CF8C
:1014330003120877DECF031208779DD103120877D2
:1014430046F9031208775AF5031208779EF503123B
:101453000877A3F503120877A6F503120877CFF5EB
:1014630003120877D2F503120877D9F50312087728
:10147300FDF50312087706F603120877F8AE031298
:10148300087724AF03120877CAB10312087721B291
:10149300031208775DB20312087771B2031208775B
:1014A3008AB2031208777BB30312087757B4031287
:1014B30008776BB403120877C4EB03120877E8EBE1
:1014C3000312087701EC031208770345001208772B
:1014D30075EC03120877A8EC0312087714ED0312D6
:1014E300087717ED0312087721ED031208772EED25
:1014F3000312087749DD031208776CDD03120877BE
:10150300B7DD03120877D5DD03120877F0DD031288
:10151300087756DE0312087762DE03120877BFDE10
:1015230003120877E3DE03120877A9DF03120877B3
:10153300B6DF0312087765520012087705F9031224
:1015430008771DF90312087743F9031208778BB95B
:101553000312087721BB031208772FBB0312087706
:1015630043BB0312087760BB0312087775BB0312F2
:10157300087788BB031208770ABC031208776FBC8D
:101583000312087705BD03120877DEBD031208773F
:10159300EEBD03120877FDBD03120877CAF60312E6
:1015A3000877EEF60312087716F7031208773EF76B
:1015B30003120877F2D4031208775ED50312087773
:1015C3007DD503120877F2D503120877BCD703122F
:1015D3000877D5D703120877ECD703120877F5D726
:1015E3000312087713D8031208771DD8031208775C
:1015F30027D8031208773AD803120877C7D80312FB
:10160300087730D9031208775ED903120877AFD968
:1016130003120877FBD90312087716DA0312087747
:1016230020DA0312087731DA0312087774DA031227
:101633000877977F00120877B69F03120877E29F17
:101643000312087705A00312087718A0031208777E
:1016530033A00312087793A003120877C1A00312E3
:101663000877C5A40312087702A60312087734A6E5
:10167300031208779BA6031208771BA803120877A7
:1016830043A80312087758A80312087768A803121F
:101693000877A8A803120877EAA803120877FAA81C
:1016A3000312087738ED0312087748ED0312087721
:1016B3006CED0312087795ED03120877BFED031263
:1016C3000877E3ED03120877FAED0312087728EEA3
:1016D300031208774BEE03120877C1F80312087759
:1016E300F4CA0312087704CB0312087720CC031241
:1016F300087752CC0312087778CC03120877A0CC72
:1017030003120877B2CC03120877EECC03120877E2
:1017130054CD0312087790CD03120877D5CD031269
:10172300087702CE031208772ECE0312087783EED2
:1017330003120877A1EE0312087703EF0312087769
:10174300B0EF03120877D9F20312087724EA0312E1
:10175300087775EB03120877D8F4021208778EF531
:1017630002120877B3F502120877D3F5021208774D
:10177300E7F50212087743F60212087767F60212BA
:101783000877E2F7021208770AF902120877E4F9F8
:101793000212087741FA0212087777FA02120877E1
:1017A300F9FA0212087752FB0212087773FB02124E
:1017B3000877F5FB021208772AFC021208778DFCE2
:1017C300021208774BFE0212087717FF02120877FE
:1017D3004FFF02120877A3FF02120877EEE4031209
:1017E30008770FE50312087742E6031208776CE6E1
:1017F30003120877F5DF0312087769E0031208770D
:1018030074E00312087795E00312087762D9021295
:10181300087765D90212087737DA0212087773DA84
:1018230002120877B3DA02120877E5DA02120877B0
:1018330013DB0212087750DB021208777EDB0212F9
:1018430008777CDC02120877C3DC0212087705DD17
:10185300021208777EDD021208771BDE0212087778
:101863003EDE02120877A8DE0212087716E00212A3
:101873000877CEE002120877BBE102120877A8E2EC
:101883000212087761E30212087796E302120877DF
:1018930002E4021208779DE402120877CBE40212F5
:1018A300087773E602120877F1E60212087731E748
:1018B30002120877B9E603120877CBE6031208771A
:1018C300B9E70312087746E80312087796F4031280
:1018D3000877B2F40312087745F5031208774FF53A
:1018E30003120877E69503120877F0950312087739
:1018F300379603120877A09603120877C19603124E
:101903000877DA96031208778C9703120877F6990B
:1019130003120877FF9903120877509A0312087786
:10192300869A031208779D9A031208770A9B03127B
:1019330008779A9B03120877D09B03120877199CA8
:10194300031208777A9C03120877B49C0312087772
:101953001C9D031208776F9D03120877B29D031233
:101963000877EF9D03120877019E03120877139EF1
:1019730003120877329E031208773B9E03120877FF
:10198300009F031208774C9F031208778A9F031264
:1019930008777FB403120877C5B503120877EEB54D
:1019A30003120877FFB50312087717B803120877F5
:1019B30037B80312087776F803120877AAE20312FE
:1019C3000877E0E2031208772FE3031208778BE42A
:1019D30003120877FEE8011208773CEA0112087740
:1019E30078EA0112087747EC0112087771EC0112CB
:1019F300087708EF0112087748EF01120877DEF045
:101A03000112087773F101120877D1F101120877F7
:101A130057F2011208778FF201120877D1F20112FF
:101A2300087742F401120877C6F501120877EFF739
:101A3300011208771DF80112087749F80112087797
:101A430052F801120877A8F80112087738F9011241
:101A530008773BFC01120877BDFC011208770AFAEC
:101A630003120877F1C6031208770AC7031208772F
:101A7300AFC703120877EFC70312087708C803122A
:101A830008773BC80312087788C803120877BCC8D5
:101A930003120877FEC803120877E7CA0312087710
:101AA300C5EF0312087737F00312087775F00312B6
:101AB3000877B6F003120877806000120877D860C1
:101AC300001208775E61001208772B620012087714
:101AD3007362001208771A630012087766630012B4
:101AE3000877AD63001208771C64001208779F66BD
:101AF30000120877226700120877596700120877E7
:101B0300916700120877456900120877C0690012CF
:101B13000877936A00120877CC6A00120877EB6A99
:101B230000120877366B001208774C6B00120877A7
:101B3300596B00120877926B00120877A46B00129E
:101B43000877236C001208772E6C00120877836CD9
:101B530000120877D86C00120877176D0012087707
:101B63002C6E00120877A97000120877D271001248
:101B730008771B7200120877D27200120877F4728A
:101B830000120877F77200120877017300120877C2
:101B93000473001208778B7300120877C473001262
:101BA3000877F173001208772C74001208772F74EA
:101BB30000120877497400120877647400120877DA
:101BC300937400120877B37400120877F07400124C
:101BD30008772B7500120877347600120877F9F727
:101BE3000312087705F80312087741F80312087700
:101BF300FAFF01120877EFC70212087712C8021220
:101C03000877EFC80212087741C9021208779CC906
:101C130002120877F3C9021208773BCA0212087747
:101C2300A2CA0212087729CB02120877A1CB0212AB
:101C33000877E6CB0212087754D00212087784D2D1
:101C430002120877BDD202120877FCD2021208777B
:101C5300E8D302120877ADD40212087720D6021215
:101C63000877CCD602120877E2D702120877FCB5C0
:101C7300021208779CB60212087708B70212087797
:101C830018B702120877A0B702120877FCB702123E
:101C9300087739B9021208775DB902120877D4B907
:101CA3000212087725BA021208778BBA0212087754
:101CB300E6BA0212087720BC0212087728BD021286
:101CC30008779EBD021208777ABF021208771DC0FB
:101CD30002120877C7C0021208772CC102120877D4
:101CE3009BC102120877B1C20212087790C4021294
:101CF30008771DC5021208778EC50212087792C6AF
:101D030002120877937700120877FC77001208779E
:101D1300447800120877977800120877FD7800124C
:101D230008775F7900120877E27900120877107A52
:101D3300001208773B7A00120877517A001208776D
:101D4300AB7A00120877847B00120877A87B001215
:101D53000877B27B00120877B47C001208779F7D66
:101D630000120877417E00120877AE7E00120877D2
:101D7300C37E00120877597F001208771AFD0112FB
:101D83000877CDFD011208778CFE01120877F4FE67
:101D93000112087768FF0112087702D2031208774D
:101DA3001DD20312087761D20312087787D2031278
:101DB3000877A9D203120877C1D2031208776BD32D
:101DC3000312087775D3031208778AD303120877AF
:101DD3009FD403120877A8D403120877B1D403124F
:101DE3000877BAD4031208772EBE031208775AC2B3
:101DF300031208775FC20312087761C203120877E0
:101E0300C5DB03120877B5F903120877C8C20312BA
:101E1300087763F7031208778DF7031208777EF9C3
:101E230003120877E1F903120877E27F00120877BB
:101E33008944001208775F44001208772144001296
:101E430008772943001208779C41001208776C41F8
:101E530000120877394100120877154100120877FC
:101E63000141001208776F400012087710400012FA
:101E73000877893E00120877163E00120877FD3D69
:101E8300001208778F3D00120877553C001208773F
:101E9300C83B00120877A23B00120877DE3A001213
:101EA30008771D3900120877B03800120877813897
:101EB300001208777E380012087769380012087715
:101EC3002D38001208770A3800120877CC51001217
:101ED3000877BD5100120877D34E00120877184CCB
:101EE30000120877DD4A00120877FE4900120877CE
:101EF300233700120877E23600120877C63600123D
:101F030008779336001208771F480012087738368F
:101F130000120877073600120877D03200120877CC
:101F2300DE3100120877D74500120877A23000127D
:101F33000877C7DF031208777D2F00120877FA2E80
:101F430000120877BF2E001208776B2E0012087755
:101F53005F2E00120877C82D00120877962C001206
:101F630008773D2A00120877CA27001208777E27D0
:101F730000120877602600120877F525001208770B
:101F83001F2500120877F023001208775C45001222
:101F93000877BC23001208778A23001208773FECE6
:101FA3000300000080FB000136360101000102013D
:101FB30000010301000104010606050200000701F8
:101FC30000340801000F090401010D0100FF0E0890
:101FD300000017020000190100FF1A0100011B0194
:101FE30000FE1C0100081D0200001F01000120016A
:101FF3000001210200002301000F2402000026013A
:10200300000127010008280200FF2A0100072B0115
:1020130002402C0100002D0100012E0100012F01BF
:1020230000FF30010B1C310800003A0100083B019E
:10203300000F3C0100013D0100FF3E04000042048B
:102043000000460400004A0400004E04000052044D
:102053000000560400005A0400005E20FFFF360013
:102063000100060000000F00000000000000000057
:102073000000000003FFFF00000403FFFF0000FF58
:10208300FF0FF4010005C4040320000100000B004E
:102093000000000000000003010F0000000000002A
:1020A300000000000000000000000000000000002D
:1020B300000000000000000000000000000000001D
:1020C300000000000000000000000000000000000D
:1020D3000000000000000000000000000103710385
:1020E30001030103010301030103220302030103AB
:1020F30010030003000300030003000300030003B5
:102103004203000324030603000300030403120332
:10211300250323032503230304030403000300030C
:1021230000034403000300032303000365032100AA
:1021330035038103000305030003000300030003C9
:1021430025032303030271023001600211027002AE
:102153000102020202028002100261023A004100FF
:102163006302730272026202430200021302380026
:102173000002000204021202000200020002000236
:1021830004020402370037003C0244020002390013
:10219300000200026502000235028102000205020C
:1021A3008202830200020101710101010101110197
:1021B30001013101010101018001100161013B00B5
:1021C30014006301730172016201430100011301F1
:1021D30006013D0135000401120100010001000167
:1021E300000104010401330133013C0144013201C4
:1021F3003600000100016501000135008101000185
:1022030005018201830100010300710030016000B8
:10221300110070003102200350048000100061009F
:1022230000001400630073007200620043000000AA
:10223300130006000000000004001200000000006C
:102243000000000004000400370037003C02440093
:102253000000000000000000650000003500810060
:10226300000005000000830000000100B01C020014
:10227300141C03001A1C0400201C0500261C060065
:10228300321C1100501C1400561C1500441C1F0066
:102293004A1CFFFF000007ECFDFDFDECDCDCCCBCC1
:1022A300ACAC9C9C8C7C7C6C6C5C5C5C4C4C3C3C1B
:1022B3002C2C1C1C03EAF5E5D5D5C5B5A59595854C
:1022C30085757565655555454535352525151505BB
:1022D3000AD40D02A40D05B60D07AA0D0C8C0D0D25
:1022E300980DFF000000160F00000B150B020002F3
:1022F300220F3300000E5A6967426565416C6C69B1
:10230300616E6365303901030507090B0D0F000288
:102313000406080A0C0D303017181921301B1D1F35
:1023230030303016181920231A1C1E3000393D3F57
:10233300373C3C362C442D00034A49434E181A259A
:10234300050200011916181616182303000C0E02B5
:102353000B040B0A0708000F020402010101010923
:1023630002000000000000E803000000BE040A3C75
:10237300003C000E00E80304030A1E1E0C040C04B8
:1023830004FF0815280908C082C08312126690034F
:102393000E747AF0A3741FF09003107474F0A37496
:1023A3001FF0900312746EF0A3741FF09003147463
:1023B30068F0A3741FF0023DE574F7120379E9FE98
:1023C300900302E4F0EE900301F07C897D0D7A0323
:1023D3007B03121AB2900E5AE090030BF090030C99
:1023E3007475F0A3740DF0121F4402416774F41264
:1023F30003798A088B09EB548070030224C390038A
:1024030001E0F912192C8A0A8B0BAE0AAF0BEE4FBF
:1024130070030224BA124BE0E0F91240A290031CAD
:102423001247F3A3A3A3A3A3A3A3A3E06402703758
:102433008A828B8312413580078C828D831240E41C
:10244300EC4D60208C828D83E06A7003A3E06B7097
:10245300E88C828D83A3A3E06970DE900E5E125533
:102463003AF0804C121F208E828F83E06401703417
:10247300EE24181225171208981242F21206ACEE37
:102483002412122517120898125239120894123086
:10249300941206B0EE2417125245121224740A1233
:1024A30008A7800CE064027007EEFAEFFB121E78B7
:1024B300EEFAEFFB12191AAA08E5096480FB8051B2
:1024C300EA5402600C900DDD7401F0EA6402FA80B4
:1024D30040EA54046009121F3EE50864048029EAB7
:1024E30054086029121F2C8B0BEA450B70169003BE
:1024F3001EE4F0A3F0A3F0A3F07A08FB900301E03D
:10250300F9121A88E5086408FAAB0980047A007B9B
:1025130000022EBA125146F50A780A2274F4120305
:10252300798A088B098A828B831256BB125125380C
:10253300F583E02409FA7B001219148A0A8B0BAE87
:102543000AAF0BEE4F70030225E58E828F83740270
:10255300F0A3E4124407A3A3A3A3E8F0A3E9124062
:10256300B9A3A3A3A3A3A3A3F0E5082403F8E43525
:10257300091238321251253AF5831247ECF0EE2452
:1025830009FAE43FFB8E828F83A3A3123D57F583A1
:102593008882E0A2E58E828F83A3A3A3A3A3500422
:1025A30074018001E4F0E5082403F888828983122A
:1025B3004135EA1238163BF5831225E8120890EAF2
:1025C3001251253B123DCA8E828F8312413312185A
:1025D300EA74031208A7EEFAEFFB900301E0F91285
:1025E3001920022EBAE0F508A3E0F509750A007870
:1025F300082274F21203798A088B09ECFAEDFB7452
:102603000E120B63E0FC1212968A0C8B0DAE0CAF0C
:102613000DEE4F6031AC08AD09121284E96027ACAE
:1026230008AD09EEFAEFFB12128AE970158E828F5C
:102633008312264EEEFAEFFB12127EAA08AB0912A2
:1026430012AE7900800279B4800EA3A3A3E0F5084B
:10265300A3E0F509221208A77F060205E174EF1231
:10266300037974F71209708A0A8B0BECFEEDFF7580
:102673000DB3750C0075100080020510902382E4E1
:1026830093F8E510C3984003022772851008AA083F
:102693007B001212F68A088B09EA450960DC8A82FC
:1026A3008B83A3A3A3A3A3E0250CF50CF50EC3E52D
:1026B3000A950EE50B940050C17C157D007900EE60
:1026C300FAEFFB1218F6850882850983A3A3A3A357
:1026D300A3E0F8E50AC3950C2825E0F8E433F9E50F
:1026E3000828F582E50939F5831245BE1245D31250
:1026F3000E64EAFCEBFDEEFAEFFB121AB2850882D8
:10270300850983A3E06401700A1242F27401124343
:10271300B9803DAC18AD1985088285098312413310
:102723001212DEE960307408120B63E0C0E012425B
:10273300F2D0E0F07408120B63E06403700CAC1881
:10274300AD191247DA121AB2800C851882851983E3
:102753001242FA1245CD850882850983123820A3D7
:10276300A31243C1C0E0124E31D0E0F0750D00A9B1
:102773000D74091208A77F090205E174F7120379A2
:10278300E9FE8A828B83A3A3A3A3A3A3E0540860D7
:10279300338A828B83A3A3A3A3A3A3E05402602160
:1027A3008A828B83A3A3A3A3A3A3A3A3A3E0640607
:1027B300600F74E96E600A74CD6E600574F06E701C
:1027C30003121F5C02416774E812037974F812095B
:1027D300707406120B6312581EECFEEDFF89177519
:1027E3001500122A1C1212A28A0A8B0BEA450B70DF
:1027F300030229D8EE24101249C1A90A120CDE8A59
:10280300128B13EA451370030229D8EE2403F50C47
:10281300E43FF50DEE2406F508E43FF5097C008559
:10282300088212517A1212A88A108B11850C8285A4
:102833000D83E0851282851383A3A3A31237F88542
:102843001282851383A3A3A3A3E8F0A3E912309C08
:10285300851282851383A3A3A3A3A3A3A3124C0D61
:10286300851282851383A3A3A3A3A3A3F0EE123837
:10287300163F122A2D1208901251243F123DCA8589
:102883001282851383A312412D1218EA74031208CE
:10289300A77514007423120B63E0F5167424120B4E
:1028A30063780C120B1802295D851082851183123F
:1028B30041331212E4850882850983A3EAF0A3EB6E
:1028C300122A38A3A31240C7122C7CA2E6500F850C
:1028D3000882850983A3A3A3A3A3E0D2E1F0E515AE
:1028E3007067850882850983A31252F7900364E019
:1028F300687003A3E0697051850882850983A3A3E7
:10290300A31249C67510007810120898780C1208A3
:102913008CE516F51078101208987426120B6312C2
:1029230006B09003711206B079007410120B631293
:1029330040B1121E48740A1208A7850882850983CC
:10294300A3A3A3A3A3E04405F074012514FC122A56
:102953001C1212A88A108B110514E5104511605042
:10296300851408C3E508950AE4950B5043E51475EF
:10297300F006A4F8A9F0E51228F8E51339F9E824DC
:102983000CF508E439F509850882F583E4126073D0
:10299300E0640160030228AC75150185088285098E
:1029A300837401122A38124E86E8F0A3E90228C381
:1029B300AA12AB13120CE47812120894AD16742405
:1029C300120B63E0FCA917EEFAEFFB121F6274020D
:1029D3001208A7803A8E828F83A3A3A3E0C0E0747A
:1029E30003120B63D0E012309CC0E07404120B633B
:1029F300D0E0F0E50A450B70097405120B6374B956
:102A030080077405120B6374101240D4121E4E74A7
:102A1300081208A77F100205E18E828F831244E219
:102A23008E828F83A3A3A3E0F922F5831235CE759B
:102A33000E00780C22126077A32274E912037974D2
:102A4300F31209708A0A8B0B89168C148D15742462
:102A5300120B631235CAAA0CFB120CD2E9F513AAA6
:102A63000CAB0D120CD8E5137003022C3E750E004F
:102A7300800F8E828F83A3A3A3A3A3E0D2E3F005E9
:102A83000EE50C123C11350DF583E0F8E50EC39805
:102A93004003022C35E5137003022C35E50E75F067
:102AA30006A4F8A9F0E50C28F8E50D39F9E8240C9B
:102AB300FEE439FF8E828F83A3A3A3A3A3E0A2E046
:102AC30040BD750F00750808750900E515600375AD
:102AD3000F207C087D007900AA18AB191218F68E16
:102AE300828F83E060379003B4E064017017E50FD1
:102AF300D2E3F50F7509108E828F83122C5B123C83
:102B03004A74FF8028430F0C75080C8E828F83A3B1
:102B1300122C51A3A3A3A312587BA38010E5166024
:102B230009E50FD2E6F50F75080A122C6FF074024F
:102B3300120B63E50F124EB5C0E07404120B63D0A1
:102B4300E0F07405120B631240D2121E72740C1261
:102B53000B63E06003022C187408120B631237F343
:102B63008E828F83A3A3A3A3F07408120B63122C8A
:102B7300851235C0E514122C7C60119003B4E0C0BB
:102B8300E07408120B631235D6D0E0F0850C828511
:102B93000D83A3A3A3E0C0E07408120B6312519E3C
:102BA300D0E01240F2C0E07408120B631235E0D09B
:102BB300E0F07408120B63122C511256DE124EBF52
:102BC300E01256C7EAF0A3EB124EA7C0E01256ABD1
:102BD300D0E0F07408120B63122DB4122C48123A91
:102BE3005D3B124E94123816124E2BF510A3E0F5EE
:102BF300117512007810120890123DC5EA12409A1E
:102C03003BF5831241351218EA74031208A7AA1878
:102C1300AB19121E6C8E828F83A3A3A3A3A3E0D24E
:102C2300E0F0740C120B63E06003022A75151302C3
:102C33002A827900AA0CAB0D121F56740D1208A735
:102C43007F0F0205E1A3A3A3A31252FBEA221252B0
:102C5300FB850A82850B8322A3122C6022122C642B
:102C630022123C3FF985188285198322A3122C7402
:102C730022122C64E8F0A3E922122C8022125321A1
:102C8300E022123A84124C1239F583E508F0A3E5E9
:102C930009F02274F012037974E9120970EAFEEB69
:102CA300FF89088E828F83A3A3A3A3A3A3A3A3E077
:102CB300F9120CFC8A0C8B0DEA450D7003022DAF43
:102CC300E50870157C048E828F83A3A3A3A3A3A31B
:102CD300A3A3E0F9120D02804F7C088E828F83A399
:102CE300A3A3A3A3A3A3A3E0F9120D028A0A8B0B48
:102CF300EA450B6033E508F5097809120898850C55
:102D030082850D83A3A3A3A3A3A3A3E0FD8A828B40
:102D130083A3A3A3E0FC8A828B83A3122DB4E0F9DF
:102D230012121E74011208A71255153F1249D060E2
:102D33007B888289831241317406120B63122DBE84
:102D43001241357408120B63122DBEA3A3E0C0E039
:102D53007410120B63D0E0F0850C82850D83A312EF
:102D6300412D740E120B6312581E7411120B63E47F
:102D7300122C7CFAA3E0CA241FF582E43AF58312ED
:102D83003905C413135403FC70027C0488828983BD
:102D9300E0F9780C120894742059FD744059F974C1
:102DA30002120932121F6274021208A77417023743
:102DB300D31244E8850A82850B8322EAF0A3EB123F
:102DC3003C09A3A32274F712037974FA120970E978
:102DD300FE7F018F087D0080047508000D1237A067
:102DE300E0F8EDC3985025ED75F006A4F8A9F0EAD4
:102DF30028F8EB39F9E82411123A63A2E050DA54C7
:102E03000C60D6E0A2E250D47F0080D08A828B830C
:102E1300A3A3A3A3A3A3E0703EE508A2E040057427
:102E2300016E70338A828B83A3A3A3A3A3A374012C
:102E330012557EE0C0E07403120B63D0E0125576A6
:102E4300E0C0E07404120B63D0E0F07405120B636E
:102E5300EF1240D4121E4E7406024164C082C08336
:102E63007901121F56023DE574F4120379EA4B60AF
:102E73002D9003B0E064027025900DDDE4F08A0824
:102E83008B09F50AF50B780812088C7A027B0090FF
:102E93000301E0F9121A7C74041208A78012900D42
:102EA300DD7401F07A027B00900301E0F9121A88C5
:102EB300800574021208A77F040205E1C082C08363
:102EC300900E2CE075F005A4FCADF079007AFA7B46
:102ED3000B1218F67B008012EB75F005A4F8A9F02D
:102EE30012308974FEF0A304F00B900E2CE0F8EB83
:102EF300C39840E4023DE5C082C0837C007B008030
:102F0300037C010B900E2CE0F8EBC398504DEB754E
:102F1300F005A4F8AAF0EAF91230827003A3E0F4F2
:102F230060E1123079E82403F8500109888289832B
:102F3300E024FFF0A3E034FF123862F9E84970C1DE
:102F4300EB75F005A4F8EAF9123079888289837465
:102F5300FEF0A304123074E4F080A8ECA2E0501752
:102F630090833F1206AC7A047B00900301E0F912D0
:102F73001A7C74041208A7023DE574F7120379EA78
:102F8300FEEBFF900E2CE0700302306BEE24111267
:102F9300513F700302306B8E828F83A312412D1237
:102FA3000EC4E96402600F8E828F83A3A3A3A3A33D
:102FB300E0700302306B7C00803CEE123C113F1248
:102FC30052F5EC75F005A4FAADF0EDFB74FA2AF5B1
:102FD30082740B3BF583E0687003A3E0697016EE1F
:102FE300241212513FFBEDF974FC2AF582740B1283
:102FF3003A666B60780C900E2CE0F8ECC39840BAFC
:103003007C0080010C900E2CE0F8ECC398505EEC31
:1030130075F005A4F8A9F01230827003A3E0F470F0
:10302300E3123079123094123FC6EAF0A3EB123068
:103033009C88828983A3A3123074A3740C124C0D51
:103043007A04FB900301E0F9121A8EEA4B4C4D709F
:103053001790833F1206AC7A047B00900301E0F9DA
:10306300121A7C74041208A779010241677900805F
:10307300F91255A1A32274FA28F8740B39F9221214
:103083003089E064FE2274FA28F582740B39F583E3
:1030930022EE123C153FF58322F01242E8E022743F
:1030A300E812037974FC1209707402120B63E4F0E2
:1030B300A3F090031C124AD7851882851983E4F084
:1030C300A3F075140190035EE0A2E35003023159AB
:1030D300121A9A8A088B098C0A8D0B8A0C8B0D8C19
:1030E3000E8D0F90031E780C1209421231CE781008
:1030F300790C120ACA50077A017B000231C9850C88
:1031030014850D15850E16850F1778147910120383
:103113000AA814A915900E5EE0C398E4995003E041
:10312300F5141231CE780C791012030AE4F512F576
:1031330013780879101209D990031E7808120AFA35
:1031430080141252F790031C1245D3EEFAEFFB12D0
:1031530019CEAE08AF09EE4F60648E828F83A3A3AE
:10316300A3E0F8E514C3985029EE2403F582E43F65
:10317300F583A814E0C398F060217402120B631264
:103183005311124817EEF0A3EF123FF9FEA3E0FF2D
:1031930080C48E828F83A3A3A3E4F08E828F83A344
:1031A30012264D8518828519831249D28E828F8308
:1031B300A3A3A3A3608C122C5C123851808A7402DF
:1031C300120B631241357404022A14900E5CE0F56D
:1031D30010A3E0F511E4F512F5132274F21203794A
:1031E3008A0A8B0BE9FE7A007B0090031C1226509F
:1031F30090031C1249D2601E0A850882850983A3A5
:10320300A3A3A31249D2600E0AEA70010B880889AE
:1032130009E8450970E3900E5F1252F7C3EA98EB91
:103223009940030232CD7A067B001219C88A0C8BAF
:103233000DA80CA90DE84970030232CD8882898359
:10324300E50AF0A3E50BF0EE88828983A3A3F0904F
:103253000E5E123AB0A3A3123C04E4F0A3F0900371
:103263001C1244DC600F850882850983A3A3A3A3F2
:103273001245D3801F90031C1245D390035EE0A236
:10328300E34011121A9AEAF8EBF9ECFAEDFB90031A
:103293001E120B3490035EE0A2E3502E7A087B00EB
:1032A300900301E0F9121A8EEA4B4C4D701C900EFC
:1032B3005C125E74780812088C7A087B0090030114
:1032C300E0F9121A8274041208A702265B74F21240
:1032D300037974F3120970EAFEEBFF8E828F83A3E6
:1032E300A3A3A3A3A3A3A3A3A3E0F50A900DDDE0E7
:1032F300700579BA0235B4750801750900750C00BB
:10330300750D007C087D007900AA18AB191218F618
:103313007405120B6374011235EC540460127402C9
:10332300120B63E0D2E61235EC5408700375080300
:10333300E05410600674404508F508E05408602224
:103343007402120B63E044C01235EC5420600A741B
:1033530003120B63E0D2E080087403120B63E0D224
:10336300E1F08E828F83A3A3A3A3A3A3A3A3E070FF
:1033730016120E6A85188285198312581E7402125A
:103383000B63E0D2E2802C640F70107402120B63A3
:103393001235F474044508F508807B8E828F83A36D
:1033A300A3A3A3A3A3A3A3E064028E828F837006C7
:1033B300122C70F08060A3A3A3A3A3A3A3A3E06430
:1033C30003700DAC18AD19EEFAEFFB121EF6804632
:1033D3008E828F83A3A3A3A3A3A3A3A3E0640170FB
:1033E300359003B4E060107402120B631235F47568
:1033F3000910750AFF80187402120B63E0440C1263
:10340300481774FDF0A374FFF074044508F5088EA3
:10341300828F831235CAEE241512513FA2E0503F2A
:103423007402120B63E0540C701B8E828F83124163
:1034330035121D4CE9700579BB0235B47402120BC9
:1034430063E0D2E5F0EE241512513FA2E050107470
:1034530002120B63E0540C64047004E0D2E5F0EE56
:10346300241112513FC0E07404120B63D0E01240E8
:10347300D4121E72740C120B63E060030235AD7438
:1034830008120B63122C85EE241812513FC0E01270
:1034930035C0D0E0124E9CE0C0E07408120B6312FA
:1034A30056BE12513638F583D0E0123C44640170A5
:1034B300119003B4E0C0E07408120B631235D6D048
:1034C300E0F07408120B63124E812417FAE43FFBF9
:1034D3008A828B83E0FCE8241CF582E439F583ECD3
:1034E300F0A3E41244F9E0C0E0E82422F582E439D1
:1034F300F583D0E0F07408120B631235E0E50AF0AF
:103503007408120B63123A80123A5D39F583E50CA5
:10351300F0A3E50D1251B5FCA3E0FD1256E9ECF062
:10352300A3ED1237CE1240E81235B939125304C055
:10353300E0E8242FF582E439F583D0E0F0EE241B94
:1035430012513FC0E07408120B631256D2D0E0F060
:10355300EE241A12513FC0E07408120B631256BED8
:103563001249B738F583D0E01256FC1225E9120848
:10357300901242DA1240E8740B120B63123C2712CA
:1035830018EA74031208A7EE241512513F54406041
:103593001290032C1249D2600AAA18AB1912604187
:1035A3001204F1AA18AB19121E6C740C120B63E00F
:1035B300F9740D022658E82428F582E422E824123F
:1035C300F582E439F583221235CE22E0F50CA3E02F
:1035D300F50D221256C2124E1238F583221256C22C
:1035E3002423F582E438F58322F0EE2415125146A4
:1035F30022E0D2E31253211235FE22122C64E8F0AA
:10360300A3E9F02274F71203797E638A828B83E045
:10361300600C7905120BD0E9F87456C398FE900339
:103623005CE0600CF9120BD0E9F8EEC39824F2FECB
:10363300EEF902416774F612037974FE120970857C
:10364300188285198312581EE9FEECFAEDFB9004EB
:10365300C61249D26035A818A919880889097808BB
:103663001208947D01740E120B63E0FCEEF99004D2
:10367300C6123E791204F174021208A78B09EA45B7
:103683000960047900800679B2800279B6023800B5
:1036930074F7120379E9FE90030E1249D2601F7486
:1036A30009120B63E0F5087808120898EEF9900305
:1036B3000E123E791204F174011208A7800279B642
:1036C30002416774F7120379E9FE79B574AB6E7042
:1036D3000B90030C124135121AB279000241677440
:1036E300F5120379EAFEEBFF8C088D09750A0112C6
:1036F3000E64EAFCEBFDEEFAEFFB121AACE964018F
:10370300700B9003641238431245D3800EAC08AD9E
:1037130009EEFAEFFB120C06E9F50AA90A02594170
:1037230074F6120379EAFEEBFF7A0C7B001219C8D8
:10373300EA4B6066EE242012513F8A828B83F0EEBF
:1037430024211237A8F0EE24221237A8A3F0EE2486
:10375300231237A8A3A31249D71237B11245D3EEC8
:103763001235BA3FF5831237B1A3A3E8F0A3E912E8
:1037730049E68A828B83A3A3A3A3A3A3A3A3F0EE07
:10378300242F12513FC0E01237A0D0E01240FB12A9
:1037930037B6A3A3A3A3A31245D3023805EA123C69
:1037A300153BF583221251468A828B83A322E012B2
:1037B30037B622F8A3E0F98A828B83A3A3A3A322BB
:1037C300F582E43FF583E4F0A3F022F0124E672282
:1037D3001208A77F080205E11237E38882F58322E6
:1037E300F8E43FF98808890922A3A3123C1FA32206
:1037F300123857E022123DD1F8A3E0F922740212E5
:1038030008A77F020205E1C082C083123876E4F084
:10381300023DE512381A22240EF582E4221240C03A
:1038230022F583E02AFAA3E03B227901020874F926
:1038330088828983E0FAA3E0CA2212390AA3A32269
:10384300123847221252FF850882850983221238D3
:103853003DA3A322123C3FC812381A38F583221223
:103863004C06F8A3E022C082C0831238767401F0BC
:10387300023DE5EA1255243BF5832202382DC0822E
:10388300C08390032274C6F0A3741EF090032474C3
:10389300BAF0A3741EF090032674B4F0A3741EF060
:1038A30090032874C0F0A3741EF0023DE574F41273
:1038B3000379EAFEEBFF123913F508120E6A8A0A3E
:1038C3008B0BA80AA90B8E828F83123905687003AC
:1038D300A3E069602AE508A2E550248E828F83A3C2
:1038E300E0FB900322123E791204F18E828F831241
:1038F30056BE240A1249CC7006123913C2E5F002EF
:103903002EBA12390AE022E0FAA3E0F5838A822272
:103913008E828F831237EEA3E02274F4120379EAC6
:103923002408FCE43BFD8C828D83123A8024201210
:103933003A63FE74035EF509123C1039124E7F8818
:10394300828983F0A3A882A983E5096009740265CB
:103953000960030239E9740C5EF5086017740865A1
:10396300086011740465087013740265097005EE2C
:10397300A2E4402A123A892423123AB6740C650849
:103983007016123A722424123A9BFCA3E0CC123A2A
:103993005D3CF583A3123ABC740265097005EEA27F
:1039A300E44043123A722426123A9BFFA3E0CF125B
:1039B30049BDA3123ABC123A762428123ACB1235E7
:1039C300BA3CF583A3123ABCE50860127408650893
:1039D300600C740C65086006740465087008123A7C
:1039E300892422123AB6123A89123A517005EEA28C
:1039F300E1500C123A891249B73C123A6B8010908D
:103A03000302123A6D900302E004F088828983A3D3
:103A1300A882A983EEA2E75032123A722421123A05
:103A2300CB123A516025123A892430123AB6EEA2EB
:103A3300E150188A828B83A3A3A3A3A3A3A3A312F6
:103A430038372431F582E43A123A6B022EBA242134
:103A5300F582E43CF583E05403222424F582E42236
:103A6300F582E439F583E022F583123AB0F022EAD5
:103A73002408FC8C828D83E0FFA3E0CF22123A84DA
:103A8300221252FFE8228A828B83A3A3A3A3A3A3B8
:103A9300A3A3E0FCA3E0CC22F582E43FF583123A32
:103AA300B0F0A3A882A9838C828D83E022E0888270
:103AB300898322F582E43CF583123AC022E08882AE
:103AC3008983F0A308A98322F582E43FF583123AA0
:103AD300C08C828D83E0FCA3E0CC22C082C0838AA9
:103AE300828B83123917F8740358F98A828B83A364
:103AF300A37401F0E960057402697061740C58FCE9
:103B0300601474086C600F74046C70137402697031
:103B130005E8A2E4401D8A828B83A3A37402F07498
:103B23000C6C700A8A828B83A3A3E02402F07402D4
:103B3300697005E8A2E440258A828B83A3A3E0246D
:103B430004F0EC600F74086C600A740C6C6005740C
:103B5300046C70098A828B83A3A3E004F0E8A2E7D4
:103B630050318A828B83A3A3E00412530AF9A3E0A2
:103B7300F5838982A3A3A3E0540360178A828B830E
:103B8300A3A3E004F0E8A2E150098A828B83A3A3F4
:103B9300E004F08A828B83A3A3E004F0023DE5C036
:103BA30082C0838A828B83A3A3A3A3A3A3A3A3A378
:103BB300A31249D2600C8A828B83A3A312412D12D4
:103BC30019CE023DE574F7120379EAFEEBFF8E820C
:103BD3008F83124301A3A3A3A3A3A3A3A3E4F0127C
:103BE3003C04A3A3A3A3A3A3F0A3F0E81255243991
:103BF300F583E4F0121E9CEEFAEFFB121EA80241BD
:103C030067A3123C09221255A1A3A3A322E8123CE5
:103C13001522240BF582E422123C1F22123C3FF5AD
:103C230083888222123C2E1244E822123C32221252
:103C33003C3FC8242BF582E438F58322E0F8A3E067
:103C4300221249F3A3E0221236018E828F83A3A3AB
:103C5300A32274F612037974F4120970123D67FCFF
:103C6300A3E0F5838C82A3E0FC7402120B63EC12D5
:103C73004C02123D867404120B631240DA6C70120C
:103C8300123D79123D5E7406120B63123D4B241AEA
:103C9300803A7402120B63E064016005E06406700D
:103CA3003CEA2402F8E43B123832124E6F3AF583B1
:103CB300E0C0E07403120B63D0E0124C0224131231
:103CC3003D607406120B63123D4B241BF8A3E034D2
:103CD30000F97408120B63E8F0A3E9802974061253
:103CE3000B63E4F0A3123D74123D5E7408120B6380
:103CF300123D57C8241AF582E438F583E0C0E07416
:103D03000A120B63D0E0F07406120B631249D260FF
:103D13002B7406120B63124135120BFAE96401701E
:103D23001B120E648A088B09AC08AD097406120BCA
:103D330063124135121AACE964017007AA18AB1972
:103D4300121E42740C023802123D4F22EAF0A3EB1A
:103D5300124C0622123D4FF8A3E0222412FAA3E0EC
:103D63003400FB228A828B83A3A3A3A3A3A3122CD5
:103D730074F0123D7922EA2402F8E43BF98882893F
:103D830083E0222402F8A3E03400F922C082C08336
:103D930074FD120970123DAFC0E07402120B63D0C0
:103DA300E01240D4121E3C7403023DE28A828B83EC
:103DB300A3A3A3A3A3A31235FE8A828B831237EC9A
:103DC300E022125532350BF583E0FC7D0022123DD3
:103DD300D522F0850882850983E022123DF622125E
:103DE30008A7D083D082020874123DF224FB228AF2
:103DF300828B83A3A3123C1FE022C082C083123DA7
:103E0300EC600624FC60078008121E8A8003121EE1
:103E13008480CFC082C083900E61E07025900D93A3
:103E2300E0701F8A828B83A3A3A3A3A3E070131262
:103E33003E7D60388A828B83A3A3126040E06407CF
:103E4300602A8A828B83A3A3A3A3A3A3A3A3E07063
:103E5300128A828B83123E8360097A347B01121BA0
:103E6300F0800990032A123E791204F1023DE5EE37
:103E7300FAEFFB900324123C1B22123DF26406224C
:103E8300123DF664052274F612037974FA1209706E
:103E9300EAFEEBFF7403120B63124E18740312094C
:103EA30032121E9012513C6003023FB38518828583
:103EB30019837432F07405120B6312586EC0E074E8
:103EC30001120B63D0E0123FEDC0E07402120B63EA
:103ED300D0E0123FF3F8A3E0F9E8496017E82417AC
:103EE300123A63FAE82416123A632AF87401120BA1
:103EF30063E028F0AA18AB19120C548A088B09A89E
:103F030008A909E8497003023FA88E828F83123FF4
:103F1300C6A3A3123FE6124E6F391240F7C0E0E882
:103F23002420F582E439F583D0E01240F2C0E0E8C2
:103F33002421F582E439F583D0E0123FF9C0E0E8AB
:103F4300242AF582E439F583D0E0F07405120B637B
:103F5300E0FCE8123FBE2C123D60E812409A39F5AE
:103F630083123FE6242DF582E439F583EC123FF307
:103F7300FAA3E0FBEA4B601BE8242BFAE439FB8E3F
:103F8300828F83A3A3123A8D2416F582E43CF58332
:103F9300123FCE8E828F83A3A3A3A3A3A3A3A3E8DD
:103FA300F0A3E9800AEEFAEFFB121E96123FB8F077
:103FB30074060238021243E0741022123C1539F5DC
:103FC30083E0221244E88882898322E0FC8A828B80
:103FD30083E02CFCA3E03400FD8A828B83ECF0A306
:103FE300EDF022EAF0A3EBF0E822123FFEA3E02279
:103FF3001244FDA3E022123FFEE0221240022212ED
:10400300400622F08E828F83A3A3A3A32274F61209
:104013000379EAFEEBFF12513C7042121EA28E821C
:104023008F83A3A3A3A3A3A3A3A3A3A31249D26090
:1040330006123E721204F112513C700B1241291206
:104043000C4E12406A8015EE24081237DB124135FC
:104053001219CE850882850983E4F0A3F0EEFAEF06
:10406300FB121E960238051243E0E92274F612038E
:1040730079EAFEEBFF8C088D09121D4CE970047977
:10408300018011AC08AD09EEFAEFFB900328123E54
:10409300791204F1023805242BF582E4227D00EE27
:1040A3002402FAE43FFB22A3E08E828F8322124094
:1040B300ECEEFAEFFB221243BD1240C022E08E82E7
:1040C3008F83A322E0850882850983A3A3A3227497
:1040D30001F0AA18AB1922123601740422A3A3A378
:1040E300A3A3A3A3A31240EC22E0FCA3E0FD2212AE
:1040F300531AE022F58374011256F7A3E022C0821B
:10410300C083121EAE90032A747EF0A3741EF002C5
:104113003DE5C082C0837C0879FF90030C124135D2
:1041230012198C023DE58E828F83A3A3A3A3A3A3BD
:10413300A3A31244E82274F7120379E9FE12550788
:104143001249D0601A88828983A3E054037010EE69
:10415300FB123C1039F583124193E0F912121880D7
:10416300031208A77F010205E1C082C083EAF8EBCE
:10417300F988828983A3A3A3A3A3E0FB888289830D
:10418300A3A3A3A3124193A3E0F9121218023DE5DE
:10419300E0FA88828983A3A32274F01203798A0840
:1041A3008B098C0A8D0B890FEA124E43E02430FAF7
:1041B3007B001219148A0C8B0DAE0CAF0DEE4F70F1
:1041C300030242D78E828F837401125258120890D1
:1041D3007C177D00EE2419FAE43FFB1218EA7403FE
:1041E3001208A7850A0C850B0D780C1208907C0920
:1041F3001240A01218EA74031208A77410120B637A
:104203001242FA1245CD7412120B63124301E0C03D
:10421300E0124E63D0E0124E8BC0E01242DAD0E0DF
:10422300124317C0E0124AC2D0E0F07414120B63B9
:10423300E0C0E01242E4D0E0F0EE24271237C3746A
:1042430015120B63120B401242F2120B34124E4939
:10425300E50F12431CF8A3E0F9EE240D1245CD74CB
:1042630019120B63E0C0E0124E75D0E0125888E0DB
:10427300602FEE24271247E22430124309240E1242
:10428300585F126065120890E5081251253509122E
:104293003DCA8A828B831241351218EA74031208CD
:1042A300A7EE241A12513F5403601D90031A1249BA
:1042B300D2600CEEFAEFFB1260411204F18015EEAE
:1042C300FAEFFB12191A800CEEFAEFFB900301E0F0
:1042D300F91219200237D6EE2411F582E43FF58353
:1042E300221242E822EE2412F582E43FF58322EE05
:1042F3001251363FF583221252FBEE240B22125247
:10430300FB8882898322F8E43FF98A828B83123601
:1043130001E5082212559DE0221243BDA3A3A3A3E6
:10432300A3A3A3A3E02274F11203798A088B097A69
:10433300207B001219148A0A8B0BAE0AAF0BEE4FC7
:1043430060728E828F8374041244198E828F83A3CA
:10435300A3A3A31243B91240AA1243C1F50CA3E0CD
:10436300F50D750E00780C1208907C107D00124E2E
:104373003B1218EA74031208A78508828509831281
:1043830040E0EE2416FAE43FFB120BF48508828525
:104393000983A3A3A3A3A3A3A3A3A3A3E0C0E0129E
:1043A300499CD0E01243D1C0E0124E1ED0E012432C
:1043B300EA121920801E1243BD221243FD22A3A339
:1043C300A3A3A31243CA221243FDA3A3E022F01224
:1043D3004E57E0227F070205E11243E022EE240C50
:1043E300F582E43FF58322F0EEFAEFFB900CC5E093
:1043F300F922E8F0A3E91243FD22F085088285093A
:1044030083A3A32212440B22123DD5F8A3E0F98E15
:10441300828F83A3A32212440B1243F5E02274F686
:10442300120379EAFEEBFF7A057B00121914EA4BBB
:1044330060278A828B8374081253278A828B83A313
:10444300A3E8F0A3E91240FB8A828B83A3A3A3A36F
:10445300F0900CC5E0F9121920023805C082C08320
:10446300E9900DDEF09003167426F0A3741FF0900C
:10447300031874E4F0A3741EF090031A74D2F0A32B
:10448300741EF0023DE574F7120379EAFEEBFF892F
:1044930008EE4F70031213BC90032E1249D270081A
:1044A30090032E80221252F788828983A3A3A3A3A9
:1044B300A3A3A3A3A31244DC88828983A3A3A3A3F6
:1044C300A3A3A3A3A370DEEEF0A3EF1244F9E4F0D9
:1044D3001244EEE508F00241671244E8EA4B22A3D6
:1044E300A3A3A3A3A3E0FAA3E0FB22A31244F32212
:1044F300124002A3A3221244FD221249F7A3A322CE
:1045030074F712037990032E800D8E828F83A3A3F9
:10451300A3A3A3A3A3A3A3124AD7EE4F60348E820F
:104523008F83A3A3A3A3A3A3A3E06970DD8E828FCC
:1045330083A3A3A3A3E06A7003A3E06B70CC8E8272
:104543008F83A3A3A3A3A3A3E06C70BEEEFAEFFB38
:1045530080047A007B0002416774F71203799003A9
:104563002E124AD790032E122C4C687002EB6970FE
:104573001CE0C82409F582E4381252F590032E1288
:1045830045D390032E124AD78027124ACAEE4F60B2
:10459300208E828F83A3A3A3A3A3122C4868700247
:1045A300EB6970E68A828B83A3A3A31245BE1245EF
:1045B300D31219CEEEFAEFFB024167A3A3A3A3A381
:1045C300A312480BA3A3A3A3A322F582E43FF5837D
:1045D3001236012274F012037974FA1209708A08F0
:1045E3008B098A828B83A3A3A3A3A3A3A3A3E060C2
:1045F300336401602F8A828B83124135120EC4E922
:104603007022850882850983A3A3A3A3A3A3A3A3DD
:10461300E064037014740412093AAA08AB09121E69
:10462300F6E9701679020247CB8508828509831261
:1046330052F77404120B631245D3E5082411125880
:10464300562432123D601219C88A0A8B0BAE0AAF88
:104653000BEE4F70030247C97C327D0079001218BC
:10466300F67402120932850882850983A3A3A3A3E2
:10467300A3A3A3A3A3E0F91212607402120B63E0D5
:10468300C0E01249A6D0E0F0EE242CF50AE43FF591
:104693000B7403120B63E0850A82850B83F07901A7
:1046A300EEFAEFFB121E3085080C85090D750E001E
:1046B300780C1208907C1C7D001247DA1218EA74F9
:1046C300031208A7EE24301247E2243212430924CE
:1046D30011F8E43509F9E8FCE9FD8C828D83124E6B
:1046E300811249B0124311124BDA1260651208901D
:1046F3008C828D831247F31241351218EA74031228
:1047030008A77404120B631248071245D3900302DF
:104713001247ECA3A3A3F0900302E004F0121A9A49
:1047230012581AEE242A12514E750D00850A8285FD
:104733000B83E0780C120A148A828B83E50CF01247
:1047430047D0E50C124817E4F0E508241512585633
:10475300A2E074015007120B6374018004120B630F
:10476300E4F0EE24271237E3AA18AB19121248E932
:1047730024FE850882850983F0EE242EF8E43FF9B0
:10478300E8FCE9FD1247FB120231E88E828F83A316
:10479300A3A3A3A3A3A3A3F01247FB1202318B0984
:1047A300EA4509600F8E828F83A3A3A3A3A3A3A3C8
:1047B300A3E004F0EE242012513F44081251AA1240
:1047C300195679008002791074060237D3EE242932
:1047D300F582E43FF58322EE240BFAE43FFB22F853
:1047E300E43FF9E8FAE9FBEE221240C0A3A3A322B7
:1047F3001240EC8A828B83228C828D83123847E0AD
:10480300FA7B002212480B221252FF8E828F83A35F
:10481300A3A3A322F08518828519832274F41203BB
:1048230079EAFEEBFF121A9A12581A900E56E0F824
:10483300EE242B12513FC398400302498A12515A66
:104843007012EE242B12513F041249E6C0E01247C6
:10485300D0D0E0F0EE242812513FFC79008001090A
:10486300EE242C12513FF8E9C398502675080175C0
:104873000900E97808120A1412515A550860E0E950
:104883002CFC750801750900E97808120A14E04543
:1048930008F0EE24271249C1EE1249B0EC8A088AC7
:1048A300F0A4F8ABF0E42BF9E098F8A3E099F9C38E
:1048B300E89508E99400EE4035242712513FF81299
:1048C300515A60301249A61249C6A3E4F0EC705065
:1048D300EE242012513F4420123C44C0E0EE124922
:1048E300BDD0E0F0EE24301249C1A3E08058124756
:1048F300D174FFF0900354E0FA900E59E0F508EA02
:104903008508F0A4ABF075F064A4FAADF075F0641B
:10491300EBA42DFB8E828F83A3A3EAF0A3EB80ACE1
:10492300EE242012513F54DF1249D7ECF08C08EEED
:10493300242712513F8508F0A4FAABF0EE2430F59A
:1049430082E43F123824FB12499CEAF0A3EB12499C
:10495300EEC0E0EE2425F582E43FF583D0E0F0EEEF
:10496300241CF582E43FF583E8124C0D90033012CA
:1049730049D2600BECF91260411204F1E97017128D
:1049830047DA121F1A800F7BE9124BF3121218EE4B
:10499300FAEFFB121F8C022EBAEE241EF582E43FBF
:1049A300F58322EE242DF582E43FF583221249B7E5
:1049B3003FF58322242EF582E4221249DD2212518F
:1049C30046FA221240C0A3F022F582E438F583129E
:1049D3003A844922F0EE1249DD222426F582E43F8F
:1049E300F58322F0EE242A125146221249F3E022E3
:1049F3001249F722124006A3A3A32274F4120379E7
:104A030090032E124AD7121A9A8A0A8B0B78FF79CF
:104A1300FF8020E0C39AFCA3E09BFDC3EC98ED99D3
:104A2300500E8E828F83A3A3E0C39AF8A3E09BF971
:104A3300124ACAEE4F605C8E828F83124135E50ABB
:104A4300C39AFAE50B9BFB8E828F831240E6C3EA7F
:104A53009CEB9D8E828F83A3A340B8A3A3A3A3E063
:104A63006402701AEE240B12515D6009124AC212DD
:104A7300413512191AEEFAEFFB121F8C8007EEFA7A
:104A8300EFFB121F087A017B00900DDEE0F912198B
:104A930056802974FF68700374FF69601F88088952
:104AA30009E4F50AF50B780812088C7A017B00906B
:104AB3000DDEE0F9121A7C74041208A7022EBAEE76
:104AC3001255343FF583228E828F83A3A3A3A3A31E
:104AD300A3A3A3A3E0FEA3E0FF2274F01203798A49
:104AE300088B09ECFAEDFB890A7C01E50824111215
:104AF3005856F91214CA8A0C8B0DAE0CAF0DEE4F3B
:104B03007003024BD7E50A6003024BD7E508124B4B
:104B1300DA124BEA686003024BD7EE242C1249C128
:104B2300E82AF8E43400F98E828F83A3A3A3A3A316
:104B3300A3A3A3E0FAE89AE99400C365D03340172E
:104B4300125852F470117B00124BF3121218EEFA42
:104B5300EFFB121F8C807D125852F47040EE242913
:104B63001247E2242CF8E43FF9E8FCE9FD7508FF5D
:104B73007509008C828D83E07808120A148A828B6F
:104B830083E508F0124BE0E508F08C828D83124B2D
:104B9300EA28F0EE12409A3FF583E4801BE50824EF
:104BA30014F8E43509F9E0C0E0124BE0D0E0124C10
:104BB30002C0E01247D0D0E0F0121A9A12581A122B
:104BC30049A6123820A3124C0D7A01FB900DDEE0AA
:104BD300F91219560237D62413124E5B22EE242AF9
:104BE300F582E43FF58322E0F8EE242812514622B1
:104BF300EE2422125146FAEE2414125146F92212DF
:104C03004C0622F088828983E022F0A3E4F0222478
:104C13000FF582E42274EC12037974FE1209708A90
:104C23000A8B0B8C0E8D0F89108A828B83A3A3E0D2
:104C3300F912123C8A088B09AE08AF09EE4F7007D0
:104C43007A007B00024E087A127B001219C88A0888
:104C53008B09EA45097003024E047C127D0079003A
:104C63001218F6AA18AB19850A82850B83A3A3E051
:104C7300F9121260E508240FF50CE43509F50D74FB
:104C830001120B63E0850C82850D83F07902AA087B
:104C9300AB09121E30850E82850F83124E86A3A3A5
:104CA300A3E8F0A3E9124EA7850882850983A3A38D
:104CB300A3A3A3A3A3F07512FF751300850C82852C
:104CC3000D83E07812120A1412585BE51212601C6D
:104CD300126040E0C0E0124E53D0E0124EB5F50C26
:104CE300E508240D12585FE50CF0E50A12512985F9
:104CF3000CF0A4A9F02427FAE439FB1219148A0C46
:104D03008B0DAE0CAF0DE508124E43124E18EE4F4D
:104D13007003024DF78E828F83741A124C0D8E82AC
:104D23008F83A3A3F0A3124EC51248071245D3AC39
:104D33000EAD0F124E3B12125A850A82850B83A3C6
:104D4300A3A3E0C0E0124E63D0E0F0900371124ED3
:104D5300812410124E90124E12350B124E7F123ACE
:104D63005D3FF583E8F0A3E9124EBFA3A3124E8182
:104D730024121245CD850A82850B83A3A3E0C0E0EC
:104D8300124E31D0E0F0E50A240C124E28C0E0EEBA
:104D9300124E123FF583D0E0F07416120B631243E8
:104DA30001E0C0E0125848D0E0124317C0E0124EB1
:104DB30049D0E0124E8BC0E0124E75D0E0124E9CEB
:104DC300E510F07418120B63120B40EE241AF582EF
:104DD300E43FF583120B34EE2427F8E43FF9EE2485
:104DE30022124E90124E6F124E2BC0E0124E1ED066
:104DF300E0F0800DAA08AB09121F8C750800750935
:104E030000AA08AB0974021208A77F0C0205E1246B
:104E130015F582E422EEF0A3EFF022EE241FF582D3
:104E2300E43FF58322F582E4350BF583E022EE249B
:104E330014F582E43FF58322EE2406FAE43FFB22D5
:104E43002410124E5B22EE2417F582E43FF58322F1
:104E5300124E5722E508240BF582E43509F5832227
:104E6300124E6722EE124C123FF583222412F58272
:104E7300E422EE2418F582E43FF58322F5831252EF
:104E8300FBEE22123847A322123074E022F582E4AB
:104E93003FF583123601E50A22F0EE2419F582E488
:104EA3003FF58322F0E50A2411F582E4350BF583FF
:104EB300E022F0125532350BF583E022124EC5A3E2
:104EC300A322F0850A82850B83A3A3A3A3A3A32212
:104ED30074ED1203798A0A8B0B8C108D118912756C
:104EE3000900EA125129F5089003301249D2600EE5
:104EF300A9081260411204F1E9600302511F7C0208
:104F0300851082851183124135E50A2411124E283A
:104F1300F91214CA8A0C8B0DAE0CAF0DEE4F705400
:104F2300850A82850B83A3E0A2E0400302511F742C
:104F330015120B631206AC7417120B631206B0A999
:104F430012AC10AD11AA0AAB0B121EDE74061208C6
:104F5300A78A0C8B0DAE0CAF0DEE4F700302511FE1
:104F63008E828F83A3A3A3A3A3A3A3A3E5081251B4
:104F7300AA12195685080C8E828F83A3A3A3A3A319
:104F8300A3A3A3E024FFF8E434FFF9E8650C497018
:104F930003750901EE240B12515D70030250D08595
:104FA3000A82850B83A3E0A2E05003750800125127
:104FB30088E50C98E499C365D033401CE0F8EE24EF
:104FC3000E12513F2AF0750CFF750D00E8780C1294
:104FD3000A141243DCE50CF0E50A123816350B12FD
:104FE3002A2D120890123DC585080CEE240D12518E
:104FF3003F850CF0A4FAABF0124AC212519E12384C
:1050030026FB1218EA74031208A7750C01125162E9
:10501300780C120A1412513C450CF0E509A2E05039
:105023005BEE240C12514E12516204780C120A14D6
:105033008A828B83E0450C1251B585080C850CF0F0
:10504300A4F8A9F0E50A125125124E2BFCE82CFC1A
:10505300E439FD124AC2125170125304F4701DEE6A
:10506300240BF50CE43FF50D1251243F12517A1233
:105073001920850C82850D8374FF8050121A9A12B1
:10508300581A900354E0FA900E59E0F50CEA850C97
:10509300F0A4FAABF0F8EBF9900E56E0F50CE885C6
:1050A3000CF0A4F8ACF0850CF0E9A42CF9EA28F88C
:1050B300EB39F9E875F064A4F8AAF075F064E9A493
:1050C3002AF98E828F83A3A3E8F0A3E9F012518813
:1050D30012583FE8650C7001E9600EEE240C125182
:1050E3005D6006E509A2E05033EE240E12513FC085
:1050F300E0E50A12512ED0E0F012513CC0E0E50A7F
:105103002414F582E4350BF583D0E0F0AC0AAD0B43
:10511300851082851183124135120B827F0B0205A4
:10512300E1EE1255342212512EE022125136350B84
:10513300F583222413F582E422EE240C1251462235
:10514300EE240FF582E43FF583E022F8E43FF9E82B
:10515300FAE9FB750CFF22EE2429125146F422755D
:105163000D00125143F5F0E50884E5F0221256C212
:105173002420F582E43822F5831244E8850C8285E5
:105183000D83E0F92285080CEE240E125146F81225
:105193005143FAE82AF8E43400F9221256C22422D1
:1051A300F582E438F58322F07A017B00900DDEE08E
:1051B300F922F0EE240D12514622C082C083900DD5
:1051C300DEE0F9121920023DE574F41203798A082E
:1051D3008B09EB5480703BEAA2E05053121EEAE5C0
:1051E300086401FAAB09804B8E828F83E0640170FF
:1051F3001A1242F21206AC125239120894EE241219
:10520300125245121ED874061208A7EEFAEFFB12CB
:10521300191A900DDEE0F912192C8A0A8B0BAE0ACB
:10522300AF0BEE4F70C2AA08E5096480FB80047AD5
:10523300007B00022EBAEE240FF50AE43FF50B784B
:105243000A22125146F9EE2402FCE43FFDEE241932
:10525300FAE43FFB22F085080C85090D750E0078F2
:105263000C22C082C08390033280048C828D83120F
:1052730052A660288C828D83A3A3E069600574FF26
:105283006970E88C828D83A3A3A3E06A7003A3E013
:105293006B70D8EC2403FAE43DFB80047A007B00B6
:1052A300023DE51240ECEC4D2274F7120379E9FC60
:1052B30074FE6C70047D0180027D009003328009CE
:1052C3006C70027D01888289831249D2601F8882B3
:1052D3008983A3A3A3E06A7003A3E06B70E7EDA245
:1052E300E088828983A3A3E050D6F9800279FE0285
:1052F3004167F5831252FB221252FF22123C3FF9FF
:1053030022F583ECF0A3EDF08A828B83E022E02484
:1053130001F0A3E0340022125321A3A3A322F08EB1
:10532300828F8322122C80F8A3E0F92274F61203F1
:10533300798C828D83A3A3125568F0EA2417F58232
:10534300E43BF583E0C0E012552AD0E0F0EA241DE7
:10535300F582E43B1252F512550D125568A3F0A3E2
:10536300F0EA241FF582E43BF583124AD7EC124E90
:10537300123DF583124E18125507F583125549A3B2
:10538300A3A3A3A3A3EEF0A3EF124C02FE8C828D82
:105393008312559574035EFEC3940340030254FACB
:1053A300EE600574026E70778C828D83E0540CFE80
:1053B300740C6E7003025461E0A2E4400D8882898C
:1053C30083E08C828D83A31255A874086E60030258
:1053D300546112551C7401F08A828B83A3A3A3A387
:1053E300A312554370128C828D83E0440C125576C0
:1053F300A3A3125549124E188C828D83E0A2E44078
:105403001E125557125587500109125557A3A3125F
:1054130055875001098882898312553A1255958818
:10542300828983E0C0E0EC2411F582E43DF583D06A
:10543300E01255958C828D83E0A2E75078888289AB
:1054430083E0FE8C828D831255A874FC5E700C8CF5
:10545300828D83A3E054036403701B0254FA125534
:105463001CE4F0740C6E60030253DB1255571255A3
:105473008950850980828C828D83A3E05403603830
:1054830088828983E0C0E0EC1251363DF583D0E099
:105493001255A98C828D83E054036402701A8882AA
:1054A3008983E0C0E0EC2414F582E43DF583D0E089
:1054B3001255A98003A3E4F0EC1238163D1245D12E
:1054C300EC2410FEE43DFFEA241DF582E43BF58362
:1054D300E0F5088E828F83E0C3982508F508F0EA8B
:1054E3002417123D7CC39508C0E012550DD0E0127D
:1054F3004C02C39508500A12550DE4F012552AE4E4
:10550300F0023805EA1255163B22EC1255163DF50A
:105513008322EE240DF582E422EC1255243DF5831B
:1055230022240CF582E422EC1255343DF58322E566
:105533000A2410F582E422E08C828D83A3A3A322A4
:10554300E05403640122E0FEA3E0FF8C828D83A379
:10555300A3A3A32288828983E0F508A3E0FFE508DB
:105563008C828D8322E412556D22F08C828D83A36D
:10557300A3A32212557EA3A3A3A322F08A828B8323
:10558300A3A3A322A3A3A3A3A3A3124E19E82402B4
:10559300F82212559DA882A983221255A122F088D0
:1055A300828983A322A312559D08A9832274F5122D
:1055B300037974F31209708A088B09ECFEEDFF8EF0
:1055C300828F83E0540CF50AE0A2E75006E50AD285
:1055D300E7F50AE50AD2E1F50A1255437006E50A32
:1055E300D2E4F50AE0A2E55006E50AD2E5F50A7C25
:1055F300087D007900AA18AB191218F67402120B71
:1056030063E50A1256F3E0C0E07403120B63D0E0C3
:10561300124817122C8E7405120B631240D2121EFD
:1056230072740C120B63E0707C7408120B631256D5
:10563300BE124E6F381240F7C0E07408120B6312AB
:10564300519ED0E01240F2C0E07408120B63123591
:10565300E0D0E0F07408120B631256B31256DE1258
:105663003C441256C712581EEE241112513FC0E09B
:105673001256ABD0E0F0EE241412513FC0E0740890
:10568300120B631256BE2431F582E438F583D0E061
:105693001256FCC0E07408120B631256D2D0E0120B
:1056A30040D4121E6C02593CE81249B739F58322E3
:1056B3001252FB8E828F8322A3A3A31256C22212FD
:1056C3003C3FC822FAA3E0FB1235B939F583221215
:1056D30056C22430F582E438F583221244E212568E
:1056E300E9EAF0A3EB22E82426F582E439F58322E4
:1056F3001256F722125321A322F0EE24131251461D
:105703002274F71203797E008A828B83A3A3A3A357
:10571300A3A3A3A3A3E06402606B123876E07065D1
:105723001255071249D0605D88828983E054037063
:1057330054A3A3A3A3A312578BE06A7003A3E06B44
:1057430070438882898312578BA3A3123A7A240663
:1057530012513F6A7003A3E06B702A88828983A386
:10576300A3E0F88C828D83A3A3E0F9A3E0F58389FA
:1057730082A3A3E068600D8C828D83123DDE540CFE
:10578300640470010E023633A3A3A3A31244E88C6E
:10579300828D832274F612037974FC120970EAFE77
:1057A300EBFFECFAEDFB8A828B83A3E054036016D4
:1057B3009003181249D2605A7900EEFCEFFD126093
:1057C300411204F1804C851882851983124E187496
:1057D30002120B6312581EAC18AD197A887B0B1298
:1057E3000E168A088B09A808A909E849602488824B
:1057F3008983A3A3A3A3A3A3A3A3A37406F07A00FB
:10580300888289831256BE12552438F583E0F91233
:105813000D8074040238028E828F83EAF0A3EBF0CA
:1058230022C082C08390033A74BEF0A3740BF0903D
:10583300033C74B2F0A3740BF0023DE5E824FF18B7
:10584300E934FFF922EE2416F582E43FF58322E5DD
:10585300082414124E5BE022E508240C124E5B224E
:105863008E828F83F0A3AE82AF8322E0F88E828F85
:1058730083A3A3A3A3E028221236018518828519E6
:105883008374FFF022F0E5082410124E5B2274F4B7
:105893001203798A088B097808120894750A11751E
:1058A3000B00780A1208947C007D007A3A7B001280
:1058B3001A5274041208A7E97010900334120B40B3
:1058C300E508241112585F120B34022EBA74F51234
:1058D300037974EF120970E9851882851983F08AB8
:1058E300088B09750A0078081208907C107D0074F3
:1058F30004120B63AA82AB831218EA74031208A77B
:10590300A818A91988088909780812089475081134
:1059130075090078081208947C007D007A3B7B00AF
:10592300121A4C74041208A77C117D007900AA187E
:10593300AB191218F674118002740D1208A77F03B5
:105943000205E174ED12037974EB120970890C7A84
:10595300117B001219C88A088B09EA4509700302F2
:105963005A937808120894750A11750B00780A1275
:1059730008947C007D007A3B7B00121A5274041257
:1059830008A7E96003025A7F850882850983E065D9
:105993000C6003025A7F7A117B001219C88A0A8BA2
:1059A3000BEA450B7003025A7F780A120894750EAE
:1059B30011750F00780E1208947C007D007A3A7BF3
:1059C30000121A5274041208A7E96003025A6B7892
:1059D30008120894780E1208947C007D007A3A7BB2
:1059E30000121A4C74041208A7780A120894780E4D
:1059F3001208947C007D007A3B7B00121A4C7404DD
:105A03001208A790038D7401F0900334E4F0A3F01F
:105A1300A3F0A3F0850810850911F5127810120878
:105A2300907C117D0074031209321218EA74031278
:105A330008A7900334120B407411120B63120B343A
:105A4300A818A919880E890F780E120894750E15D7
:105A5300750F00780E1208947C007D007A827B001B
:105A6300121A4C74041208A77C117D007900AA0A4B
:105A7300AB0B1218F6AA0AAB0B1219CE7C117D00E0
:105A83007900AA08AB091218F6AA08AB091219CEB5
:105A930074151208A702511F74F212037974FF12CE
:105AA300097089088A098B0AECFEEDFFEBC43354B5
:105AB300E0F8EA33333354F8450848125863740F57
:105AC300120B631206ACEEFAEFFB12198074041288
:105AD30008A78A0C8B0DAE0CAF0DE50A6015120EEC
:105AE30064EAFCEBFDEEFAEFFB121AB2EE2408FEB9
:105AF30050010F74016509703D750C3A750D0078FE
:105B03000C120894740212092A880C890D780C125D
:105B130008947C017D007A007B00120F60740412EC
:105B230008A7E9700B8518828519831240AB80059D
